:0200000001BC41
:0200010001BC40
:0200020001BC3F
:0200030001BC3E
:0200040001BC3D
:0200050001BC3C
:0200060001BC3B
:0200070001BC3A
:0200080001BC39
:0200090001BC38
:02000A0001BC37
:02000B0001BC36
:02000C00017C75
:02000D00017D73
:02000E00017D72
:02000F00017D71
:02001000017D70
:02001100017D6F
:02001200017D6E
:02001300017D6D
:02001400017D6C
:02001500017D6B
:02001600017D6A
:02001700017D69
:02001800017D68
:02001900017D67
:02001A00017D66
:02001B00017C66
:02001C00017C65
:02001D00017C64
:02001E00017C63
:02001F00017C62
:02002000017D60
:02002100017C60
:02002200017D5E
:02002300017D5D
:02002400017D5C
:02002500017D5B
:02002600017D5A
:02002700017D59
:02002800017D58
:02002900017D57
:02002A00017D56
:02002B00017D55
:02002C00017C55
:02002D00017C54
:02002E00017C53
:02002F00017C52
:02003000017C51
:02003100017C50
:02003200017C4F
:02003300017C4E
:02003400017C4D
:02003500017C4C
:02003600017C4B
:02003700017B4B
:02003800017B4A
:02003900017B49
:02003A00017B48
:02003B00017B47
:02003C00017B46
:02003D00017C44
:02003E00017C43
:02003F00017C42
:02004000017C41
:02004100017C40
:02004200017C3F
:02004300017B3F
:02004400017B3E
:02004500017B3D
:02004600017B3C
:02004700017343
:02004800017342
:02004900017341
:02004A00017340
:02004B00017240
:02004C0001723F
:02004D0001723E
:02004E0001723D
:02004F00017A34
:0200500001733A
:02005100017339
:02005200017338
:02005300017337
:02005400017336
:02005500017335
:02005600017334
:02005700017333
:02005800017233
:02005900017232
:02005A00017231
:02005B00017230
:02005C0001722F
:02005D0001722E
:02005E0001722D
:02005F0001722C
:0200600001336A
:02006100013369
:02006200013368
:02006300013367
:02006400013366
:02006500013365
:02006600013364
:02006700013363
:02006800013362
:02006900013361
:02006A00013360
:02006B0001335F
:02006C0001335E
:02006D0001335D
:02006E0001335C
:02006F0001335B
:0200700001335A
:02007100013359
:02007200013358
:02007300013357
:02007400013257
:02007500013256
:02007600013255
:02007700013254
:02007800013253
:02007900013252
:02007A00013251
:02007B00013250
:02007C0001324F
:02007D0001324E
:02007E0001324D
:02007F0001324C
:0200800000F28C
:0200810000F28B
:0200820000F28A
:0200830000F289
:0200840000F288
:0200850000F287
:0200860000F286
:0200870000F285
:0200880000F284
:0200890000F283
:02008A0000F282
:02008B0000F281
:02008C0000F280
:02008D0000F27F
:02008E0000F27E
:02008F0000F27D
:0200900000F27C
:0200910000F27B
:0200920000F27A
:0200930000F279
:0200940000F278
:0200950000F277
:0200960000F276
:0200970000F275
:0200980000F274
:0200990000F273
:02009A0000F272
:02009B0000F271
:02009C0000F270
:02009D0000B2AF
:02009E0000B2AE
:02009F0000B2AD
:0200A00000B2AC
:0200A10000B2AB
:0200A20000B2AA
:0200A30000B2A9
:0200A40000B2A8
:0200A50000B2A7
:0200A60000F266
:0200A70000F265
:0200A80000F264
:0200A90000F263
:0200AA0000F262
:0200AB0000F261
:0200AC0000F260
:0200AD0000F25F
:0200AE0000F25E
:0200AF0000F35C
:0200B00000F35B
:0200B10000F35A
:0200B20000F359
:0200B30000F358
:0200B40000F357
:0200B50000F356
:0200B60000F355
:0200B70000F354
:0200B80000F353
:0200B90000F352
:0200BA0000F351
:0200BB0000F350
:0200BC0000F34F
:0200BD0000F34E
:0200BE0000F34D
:0200BF0000F34C
:0200C00000F34B
:0200C10000F34A
:0200C20000F349
:0200C30000F348
:0200C40000F347
:0200C50000F346
:0200C60000F345
:0200C70000F344
:0200C80000F343
:0200C90000F342
:0200CA0000F341
:0200CB0000F340
:0200CC0000F33F
:0200CD0000F33E
:0200CE0000F33D
:0200CF0000F33C
:0200D00000F33B
:0200D10000F33A
:0200D20000F339
:0200D30000F338
:0200D40000F238
:0200D50000AA7F
:0200D60000AA7E
:0200D70000AA7D
:0200D80000AA7C
:0200D90000AA7B
:0200DA0000AA7A
:0200DB0000AA79
:0200DC0000AA78
:0200DD0000AA77
:0200DE0000AA76
:0200DF0000AA75
:0200E00000AA74
:0200E10000AA73
:0200E20000AA72
:0200E30000AA71
:0200E40000AA70
:0200E50000AA6F
:0200E60000AA6E
:0200E70000AA6D
:0200E80000AA6C
:0200E90000AA6B
:0200EA0000AA6A
:0200EB0000AA69
:0200EC0000AA68
:0200ED0000AA67
:0200EE0000AA66
:0200EF0000AA65
:0200F00000AA64
:0200F10000AA63
:0200F20000AA62
:0200F30000AA61
:0200F40000AA60
:0200F50000AA5F
:0200F60000AA5E
:0200F70000AA5D
:0200F80000AA5C
:0200F90000AA5B
:0200FA0000AA5A
:0200FB0000AA59
:0200FC0000AA58
:0200FD0000AA57
:0200FE0000AA56
:0200FF0000AA55
:0201000000B24B
:0201010000AA52
:0201020000AA51
:0201030000AA50
:0201040000AA4F
:0201050000AA4E
:0201060000B245
:0201070000B244
:0201080000B243
:0201090000AA4A
:02010A0000AA49
:02010B0000AA48
:02010C0000AA47
:02010D0000AA46
:02010E0000AA45
:02010F0000AA44
:0201100000B23B
:0201110000B23A
:0201120000AA41
:0201130000AA40
:0201140000AA3F
:0201150000AA3E
:0201160000AA3D
:0201170000AA3C
:0201180000AA3B
:0201190000AA3A
:02011A0000AA39
:02011B0000AA38
:02011C0000AA37
:02011D0000B22E
:02011E0000B22D
:02011F0000B22C
:02012000006A73
:0201210000AA32
:0201220000B229
:0201230000B228
:0201240000AA2F
:0201250000AB2D
:0201260000AB2C
:0201270000AA2C
:0201280000EBEA
:0201290000ECE8
:02012A0001755D
:02012B0001BE13
:02012C0001BE12
:02012D00017659
:02012E00017559
:02012F00017E4F
:02013000017E4E
:02013100017E4D
:02013200017E4C
:0201330001BE0B
:0201340001BE0A
:0201350001BE09
:0201360001BE08
:0201370001BE07
:0201380001BE06
:0201390001BE05
:02013A0001BE04
:02013B0001BE03
:02013C0001BE02
:02013D0001BE01
:02013E0001BE00
:02013F0001BEFF
:0201400001BC00
:0201410001BCFF
:0201420001BCFE
:0201430001BCFD
:0201440001BCFC
:0201450001BCFB
:0201460001BCFA
:0201470001BCF9
:0201480001BCF8
:0201490001BCF7
:02014A0001BCF6
:02014B00017C35
:02014C00017C34
:02014D00017D32
:02014E00017D31
:02014F00017D30
:02015000017D2F
:02015100017D2E
:02015200017D2D
:02015300017D2C
:02015400017D2B
:02015500017D2A
:02015600017D29
:02015700017D28
:02015800017D27
:02015900017D26
:02015A00017D25
:02015B00017C25
:02015C00017C24
:02015D00017C23
:02015E00017C22
:02015F00017C21
:02016000017C20
:02016100017C1F
:02016200017D1D
:02016300017D1C
:02016400017D1B
:02016500017D1A
:02016600017D19
:02016700017D18
:02016800017D17
:02016900017D16
:02016A00017D15
:02016B00017D14
:02016C00017C14
:02016D00017C13
:02016E00017C12
:02016F00017C11
:02017000017C10
:02017100017C0F
:02017200017C0E
:02017300017C0D
:02017400017C0C
:02017500017C0B
:02017600017C0A
:02017700017B0A
:02017800017B09
:02017900017B08
:02017A00017B07
:02017B00017B06
:02017C00017B05
:02017D00017C03
:02017E00017C02
:02017F00017C01
:02018000017C00
:02018100017CFF
:02018200017BFF
:02018300017BFE
:02018400017BFD
:02018500017BFC
:02018600017BFB
:02018700017302
:02018800017301
:02018900017300
:02018A000173FF
:02018B000172FF
:02018C000172FE
:02018D000172FD
:02018E000172FC
:02018F00017AF3
:020190000173F9
:020191000173F8
:020192000173F7
:020193000173F6
:020194000173F5
:020195000173F4
:020196000173F3
:020197000173F2
:020198000172F2
:020199000172F1
:02019A000172F0
:02019B000172EF
:02019C000172EE
:02019D000172ED
:02019E000172EC
:02019F000172EB
:0201A000013329
:0201A100013328
:0201A200013327
:0201A300013326
:0201A400013325
:0201A500013324
:0201A600013323
:0201A700013322
:0201A800013321
:0201A900013320
:0201AA0001331F
:0201AB0001331E
:0201AC0001331D
:0201AD0001331C
:0201AE0001331B
:0201AF0001331A
:0201B000013319
:0201B100013318
:0201B200013317
:0201B300013316
:0201B400013216
:0201B500013215
:0201B600013214
:0201B700013213
:0201B800013212
:0201B900013211
:0201BA00013210
:0201BB0001320F
:0201BC0001320E
:0201BD0001320D
:0201BE0001320C
:0201BF0001320B
:0201C00000F24B
:0201C10000F24A
:0201C20000F249
:0201C30000F248
:0201C40000F247
:0201C50000F246
:0201C60000F245
:0201C70000F244
:0201C80000F243
:0201C90000F242
:0201CA0000F241
:0201CB0000F240
:0201CC0000F23F
:0201CD0000F23E
:0201CE0000F23D
:0201CF0000F23C
:0201D00000F23B
:0201D10000F23A
:0201D20000F239
:0201D30000F238
:0201D40000F237
:0201D50000F236
:0201D60000F235
:0201D70000F234
:0201D80000F233
:0201D90000F232
:0201DA0000F231
:0201DB0000F230
:0201DC0000F22F
:0201DD0000B26E
:0201DE0000B26D
:0201DF0000B26C
:0201E00000B26B
:0201E10000B26A
:0201E20000B269
:0201E30000B268
:0201E40000B267
:0201E50000B266
:0201E60000F225
:0201E70000F224
:0201E80000F223
:0201E90000F222
:0201EA0000F221
:0201EB0000F220
:0201EC0000F21F
:0201ED0000F21E
:0201EE0000F21D
:0201EF0000F31B
:0201F00000F31A
:0201F10000F319
:0201F20000F318
:0201F30000F317
:0201F40000F316
:0201F50000F315
:0201F60000F314
:0201F70000F313
:0201F80000F312
:0201F90000F311
:0201FA0000F310
:0201FB0000F30F
:0201FC0000F30E
:0201FD0000F30D
:0201FE0000F30C
:0201FF0000F30B
:0202000000F309
:0202010000F308
:0202020000F307
:0202030000F306
:0202040000F305
:0202050000F304
:0202060000F303
:0202070000F302
:0202080000F301
:0202090000F300
:02020A0000F3FF
:02020B0000F3FE
:02020C0000F3FD
:02020D0000F3FC
:02020E0000F3FB
:02020F0000F3FA
:0202100000F3F9
:0202110000F3F8
:0202120000F3F7
:0202130000F3F6
:0202140000F2F6
:0202150000AA3D
:0202160000AA3C
:0202170000AA3B
:0202180000AA3A
:0202190000AA39
:02021A0000AA38
:02021B0000AA37
:02021C0000AA36
:02021D0000AA35
:02021E0000AA34
:02021F0000AA33
:0202200000AA32
:0202210000AA31
:0202220000AA30
:0202230000AA2F
:0202240000AA2E
:0202250000AA2D
:0202260000AA2C
:0202270000AA2B
:0202280000AA2A
:0202290000AA29
:02022A0000AA28
:02022B0000AB26
:02022C0000EBE5
:02022D0000F3DC
:02022E0000F3DB
:02022F0000F3DA
:0202300000F3D9
:0202310000F3D8
:0202320000F3D7
:0202330000F3D6
:0202340000F3D5
:0202350000F3D4
:0202360000F3D3
:0202370000B312
:0202380000AA1A
:0202390000AA19
:02023A0000AA18
:02023B0000AA17
:02023C0000AA16
:02023D0000AA15
:02023E0000AA14
:02023F0000AA13
:0202400000AA12
:0202410000AA11
:0202420000AA10
:0202430000AA0F
:0202440000AA0E
:0202450000AA0D
:0202460000AA0C
:0202470000B203
:0202480000B202
:0202490000AA09
:02024A0000AA08
:02024B0000AA07
:02024C0000AA06
:02024D0000AA05
:02024E0000AA04
:02024F0000AA03
:0202500000B2FA
:0202510000B2F9
:0202520000AA00
:0202530000AAFF
:0202540000AAFE
:0202550000AAFD
:0202560000AAFC
:0202570000AAFB
:0202580000AAFA
:0202590000AAF9
:02025A0000AAF8
:02025B0000AAF7
:02025C0000AAF6
:02025D0000B2ED
:02025E0000B2EC
:02025F0000B2EB
:0202600000B2EA
:0202610000AAF1
:0202620000AAF0
:0202630000B2E7
:0202640000AAEE
:0202650000AAED
:0202660000ABEB
:0202670000EBAA
:0202680001345F
:0202690001355D
:02026A00017D14
:02026B0001BED2
:02026C0001BED1
:02026D00017E10
:02026E00017518
:02026F00017E0E
:02027000017E0D
:02027100017E0C
:02027200017E0B
:0202730001BECA
:0202740001BEC9
:0202750001BEC8
:0202760001BEC7
:0202770001BEC6
:0202780001BEC5
:0202790001BEC4
:02027A0001BEC3
:02027B0001BEC2
:02027C0001BEC1
:02027D0001BEC0
:02027E0001BEBF
:02027F0001BEBE
:0202800001BCBF
:0202810001BCBE
:0202820001BCBD
:0202830001BCBC
:0202840001BCBB
:0202850001BCBA
:0202860001BCB9
:0202870001BCB8
:0202880001BCB7
:0202890001BCB6
:02028A0001BCB5
:02028B0001BCB4
:02028C00017CF3
:02028D00017CF2
:02028E00017DF0
:02028F00017DEF
:02029000017DEE
:02029100017DED
:02029200017DEC
:02029300017DEB
:02029400017DEA
:02029500017DE9
:02029600017DE8
:02029700017DE7
:02029800017DE6
:02029900017DE5
:02029A00017DE4
:02029B00017DE3
:02029C00017DE2
:02029D00017DE1
:02029E00017CE1
:02029F00017CE0
:0202A000017DDE
:0202A100017DDD
:0202A200017DDC
:0202A300017DDB
:0202A400017DDA
:0202A500017DD9
:0202A600017DD8
:0202A700017DD7
:0202A800017DD6
:0202A900017DD5
:0202AA00017DD4
:0202AB00017CD4
:0202AC00017CD3
:0202AD00017CD2
:0202AE00017CD1
:0202AF00017CD0
:0202B000017CCF
:0202B100017CCE
:0202B200017CCD
:0202B300017CCC
:0202B400017CCB
:0202B500017CCA
:0202B600017BCA
:0202B700017BC9
:0202B800017BC8
:0202B900017BC7
:0202BA00017BC6
:0202BB00017BC5
:0202BC00017BC4
:0202BD00017BC3
:0202BE00017CC1
:0202BF00017CC0
:0202C000017CBF
:0202C100017CBE
:0202C200017BBE
:0202C300017BBD
:0202C400017BBC
:0202C500017BBB
:0202C600017BBA
:0202C7000173C1
:0202C8000173C0
:0202C9000173BF
:0202CA000173BE
:0202CB000172BE
:0202CC000172BD
:0202CD000172BC
:0202CE000172BB
:0202CF000172BA
:0202D0000173B8
:0202D1000173B7
:0202D2000173B6
:0202D3000173B5
:0202D4000173B4
:0202D5000173B3
:0202D6000173B2
:0202D7000173B1
:0202D8000173B0
:0202D9000173AF
:0202DA000173AE
:0202DB000173AD
:0202DC000173AC
:0202DD000172AC
:0202DE000172AB
:0202DF000172AA
:0202E0000133E8
:0202E1000133E7
:0202E2000133E6
:0202E3000133E5
:0202E4000133E4
:0202E5000133E3
:0202E6000133E2
:0202E7000133E1
:0202E8000133E0
:0202E9000133DF
:0202EA000133DE
:0202EB000133DD
:0202EC000133DC
:0202ED000133DB
:0202EE000133DA
:0202EF000133D9
:0202F0000133D8
:0202F1000133D7
:0202F2000133D6
:0202F3000133D5
:0202F4000132D5
:0202F5000132D4
:0202F6000132D3
:0202F7000132D2
:0202F8000132D1
:0202F9000132D0
:0202FA000132CF
:0202FB000132CE
:0202FC000132CD
:0202FD000132CC
:0202FE000132CB
:0202FF000132CA
:0203000000F209
:0203010000F208
:0203020000F207
:0203030000F206
:0203040000F205
:0203050000F204
:0203060000F203
:0203070000F202
:0203080000F201
:0203090000F200
:02030A0000F2FF
:02030B0000F2FE
:02030C0000F2FD
:02030D0000F2FC
:02030E0000F2FB
:02030F0000F2FA
:0203100000F2F9
:0203110000F2F8
:0203120000F2F7
:0203130000F2F6
:0203140000F2F5
:0203150000F2F4
:0203160000F2F3
:0203170000F2F2
:0203180000F2F1
:0203190000F2F0
:02031A0000F2EF
:02031B0000F2EE
:02031C0000F2ED
:02031D0000B22C
:02031E0000B22B
:02031F0000B22A
:0203200000B229
:0203210000B228
:0203220000B227
:0203230000B226
:0203240000B225
:0203250000B224
:0203260000F2E3
:0203270000F2E2
:0203280000F2E1
:0203290000F2E0
:02032A0000F2DF
:02032B0000F2DE
:02032C0000F2DD
:02032D0000F2DC
:02032E0000F2DB
:02032F0000F3D9
:0203300000F3D8
:0203310000F3D7
:0203320000F3D6
:0203330000F3D5
:0203340000F3D4
:0203350000F3D3
:0203360000F3D2
:0203370000F3D1
:0203380000F3D0
:0203390000F3CF
:02033A0000F3CE
:02033B0000F3CD
:02033C0000F3CC
:02033D0000F3CB
:02033E0000F3CA
:02033F0000F3C9
:0203400000F3C8
:0203410000F3C7
:0203420000F3C6
:0203430000F3C5
:0203440000F3C4
:0203450000F3C3
:0203460000F3C2
:0203470000F3C1
:0203480000F3C0
:0203490000F3BF
:02034A0000F3BE
:02034B0000F3BD
:02034C0000F3BC
:02034D0000F3BB
:02034E0000F3BA
:02034F0000F3B9
:0203500000F3B8
:0203510000F3B7
:0203520000F3B6
:0203530000F3B5
:0203540000F2B5
:0203550000AAFC
:0203560000AAFB
:0203570000AAFA
:0203580000AAF9
:0203590000B2F0
:02035A0000B2EF
:02035B0000B2EE
:02035C0000B2ED
:02035D0000B2EC
:02035E0000AAF3
:02035F0000AAF2
:0203600000AAF1
:0203610000AAF0
:0203620000AAEF
:0203630000AAEE
:0203640000AAED
:0203650000AAEC
:0203660000AAEB
:0203670000AAEA
:0203680000B3E0
:0203690000F39F
:02036A0000F39E
:02036B0000F39D
:02036C0000F39C
:02036D0000F39B
:02036E0000F39A
:02036F0000F399
:0203700000F398
:0203710000F397
:0203720000F396
:0203730000F395
:0203740000F394
:0203750000F393
:0203760000F392
:0203770000F391
:0203780000B3D0
:0203790000B3CF
:02037A0000B3CE
:02037B0000B3CD
:02037C0000AAD5
:02037D0000AAD4
:02037E0000AAD3
:02037F0000AAD2
:0203800000AAD1
:0203810000AAD0
:0203820000AACF
:0203830000AACE
:0203840000AACD
:0203850000B2C4
:0203860000B2C3
:0203870000AACA
:0203880000B2C1
:0203890000B2C0
:02038A0000B2BF
:02038B0000B2BE
:02038C0000AAC5
:02038D0000AAC4
:02038E0000AAC3
:02038F0000AAC2
:0203900000B2B9
:0203910000AAC0
:0203920000AABF
:0203930000AABE
:0203940000AABD
:0203950000AABC
:0203960000AABB
:0203970000AABA
:0203980000AAB9
:0203990000AAB8
:02039A0000AAB7
:02039B0000AAB6
:02039C0000AAB5
:02039D0000AAB4
:02039E0000B2AB
:02039F0000B2AA
:0203A00000B2A9
:0203A10000AAB0
:0203A20000AAAF
:0203A30000B2A6
:0203A40000B3A4
:0203A50000AAAC
:0203A60000ABAA
:0203A70001341F
:0203A800017DD5
:0203A900017DD4
:0203AA0001BE92
:0203AB0001BE91
:0203AC0001BE90
:0203AD0001BE8F
:0203AE00017ECE
:0203AF00017DCE
:0203B00001BE8C
:0203B10001BE8B
:0203B20001BE8A
:0203B30001BE89
:0203B40001BE88
:0203B50001BE87
:0203B60001BE86
:0203B70001BE85
:0203B80001BE84
:0203B90001BE83
:0203BA0001BE82
:0203BB0001BE81
:0203BC0001BE80
:0203BD0001BE7F
:0203BE0001BE7E
:0203BF0001BE7D
:0203C00001BC7E
:0203C10001BC7D
:0203C20001BC7C
:0203C30001BC7B
:0203C40001BC7A
:0203C50001BC79
:0203C60001BC78
:0203C70001BC77
:0203C80001BC76
:0203C90001BC75
:0203CA0001BC74
:0203CB0001BC73
:0203CC0001BC72
:0203CD00017CB1
:0203CE00017CB0
:0203CF00017CAF
:0203D000017DAD
:0203D100017DAC
:0203D200017DAB
:0203D300017DAA
:0203D400017DA9
:0203D500017DA8
:0203D600017DA7
:0203D700017DA6
:0203D800017DA5
:0203D900017DA4
:0203DA00017DA3
:0203DB00017DA2
:0203DC00017DA1
:0203DD00017DA0
:0203DE00017D9F
:0203DF00017C9F
:0203E000017D9D
:0203E100017D9C
:0203E200017D9B
:0203E300017D9A
:0203E400017D99
:0203E500017D98
:0203E600017D97
:0203E700017D96
:0203E800017D95
:0203E900017D94
:0203EA00017D93
:0203EB00017C93
:0203EC00017C92
:0203ED00017C91
:0203EE00017C90
:0203EF00017C8F
:0203F000017C8E
:0203F100017C8D
:0203F200017C8C
:0203F300017C8B
:0203F400017C8A
:0203F500017C89
:0203F600017B89
:0203F700017B88
:0203F800017B87
:0203F900017B86
:0203FA00017B85
:0203FB00017B84
:0203FC00017B83
:0203FD00017B82
:0203FE00017B81
:0203FF00017B80
:02040000017C7D
:02040100017C7C
:02040200017B7C
:02040300017B7B
:02040400017B7A
:02040500017B79
:02040600017B78
:0204070001737F
:0204080001737E
:0204090001737D
:02040A0001737C
:02040B0001727C
:02040C0001727B
:02040D0001727A
:02040E00017279
:02040F00017278
:02041000017376
:02041100017375
:02041200017374
:02041300017373
:02041400017372
:02041500017371
:02041600017370
:0204170001736F
:0204180001736E
:0204190001736D
:02041A0001736C
:02041B0001736B
:02041C0001736A
:02041D0001726A
:02041E00017269
:02041F00017268
:020420000133A6
:020421000133A5
:020422000133A4
:020423000133A3
:020424000133A2
:020425000133A1
:020426000133A0
:0204270001339F
:0204280001339E
:0204290001339D
:02042A0001339C
:02042B0001339B
:02042C0001339A
:02042D00013399
:02042E00013398
:02042F00013397
:02043000013297
:02043100013296
:02043200013295
:02043300013294
:02043400013293
:02043500013292
:02043600013291
:02043700013290
:0204380001328F
:0204390001328E
:02043A0001328D
:02043B0001328C
:02043C0001328B
:02043D0001328A
:02043E00013289
:02043F00013288
:0204400000F2C8
:0204410000F2C7
:0204420000F2C6
:0204430000F2C5
:0204440000F2C4
:0204450000F2C3
:0204460000F2C2
:0204470000F2C1
:0204480000F2C0
:0204490000F2BF
:02044A0000F2BE
:02044B0000F2BD
:02044C0000F2BC
:02044D0000F2BB
:02044E0000F2BA
:02044F0000F2B9
:0204500000F2B8
:0204510000F2B7
:0204520000F2B6
:0204530000F2B5
:0204540000F2B4
:0204550000F2B3
:0204560000F2B2
:0204570000F2B1
:0204580000F2B0
:0204590000F2AF
:02045A0000F2AE
:02045B0000F2AD
:02045C0000F2AC
:02045D0000B2EB
:02045E0000B2EA
:02045F0000B2E9
:0204600000B2E8
:0204610000B2E7
:0204620000B2E6
:0204630000B2E5
:0204640000B2E4
:0204650000F2A3
:0204660000F2A2
:0204670000F2A1
:0204680000F2A0
:0204690000F29F
:02046A0000F29E
:02046B0000F29D
:02046C0000F29C
:02046D0000F29B
:02046E0000F29A
:02046F0000F398
:0204700000F397
:0204710000F396
:0204720000F395
:0204730000F394
:0204740000F393
:0204750000F392
:0204760000F391
:0204770000F390
:0204780000F38F
:0204790000F38E
:02047A0000F38D
:02047B0000F38C
:02047C0000F38B
:02047D0000F38A
:02047E0000F389
:02047F0000F388
:0204800000F387
:0204810000F386
:0204820000F385
:0204830000F384
:0204840000F383
:0204850000F382
:0204860000F381
:0204870000F380
:0204880000F37F
:0204890000F37E
:02048A0000F37D
:02048B0000F37C
:02048C0000F37B
:02048D0000F37A
:02048E0000F379
:02048F0000F378
:0204900000F377
:0204910000F376
:0204920000F375
:0204930000F374
:0204940000F274
:0204950000AABB
:0204960000AABA
:0204970000AAB9
:0204980000AAB8
:0204990000AAB7
:02049A0000AAB6
:02049B0000AAB5
:02049C0000AAB4
:02049D0000AAB3
:02049E0000B2AA
:02049F0000B2A9
:0204A00000AAB0
:0204A10000AAAF
:0204A20000AAAE
:0204A30000AAAD
:0204A40000AAAC
:0204A50000AAAB
:0204A60000AAAA
:0204A70000B2A1
:0204A80000F35F
:0204A90000F35E
:0204AA0000F35D
:0204AB0000F35C
:0204AC0000F35B
:0204AD0000F35A
:0204AE0000F359
:0204AF0000F358
:0204B00000F357
:0204B10000F356
:0204B20000F355
:0204B30000F354
:0204B40000F353
:0204B50000F352
:0204B60000F351
:0204B70000F350
:0204B80000F34F
:0204B90000F34E
:0204BA0000B38D
:0204BB0000B38C
:0204BC0000AA94
:0204BD0000AA93
:0204BE0000AA92
:0204BF0000AA91
:0204C00000AA90
:0204C10000AA8F
:0204C20000AA8E
:0204C30000B285
:0204C40000B284
:0204C50000B283
:0204C60000B282
:0204C70000B281
:0204C80000B280
:0204C90000B27F
:0204CA0000B27E
:0204CB0000B27D
:0204CC0000B27C
:0204CD0000B27B
:0204CE0000AA82
:0204CF0000AA81
:0204D00000B278
:0204D10000B277
:0204D20000B276
:0204D30000B275
:0204D40000AA7C
:0204D50000AA7B
:0204D60000AA7A
:0204D70000AA79
:0204D80000AA78
:0204D90000AA77
:0204DA0000AA76
:0204DB0000AA75
:0204DC0000AA74
:0204DD0000AA73
:0204DE0000B26A
:0204DF0000B269
:0204E00000AA70
:0204E10000AA6F
:0204E20000AA6E
:0204E30000B265
:0204E40000AB6B
:0204E50000AA6B
:0204E60000EB29
:0204E700013DD5
:0204E800017D94
:0204E900017E92
:0204EA00017E91
:0204EB00017E90
:0204EC0001BE4F
:0204ED0001BE4E
:0204EE0001BE4D
:0204EF00017E8C
:0204F00001BE4B
:0204F10001BE4A
:0204F20001BE49
:0204F30001BE48
:0204F40001BE47
:0204F50001BE46
:0204F60001BE45
:0204F70001BE44
:0204F80001BE43
:0204F90001BE42
:0204FA0001BE41
:0204FB0001BE40
:0204FC0001BE3F
:0204FD0001BE3E
:0204FE0001BE3D
:0204FF0001BE3C
:0205000001BC3C
:0205010001BC3B
:0205020001BC3A
:0205030001BC39
:0205040001BC38
:0205050001BC37
:0205060001BC36
:0205070001BC35
:0205080001BC34
:0205090001BC33
:02050A0001BC32
:02050B0001BC31
:02050C0001BC30
:02050D0001BC2F
:02050E00017C6E
:02050F00017C6D
:02051000017D6B
:02051100017D6A
:02051200017D69
:02051300017D68
:02051400017D67
:02051500017D66
:02051600017D65
:02051700017D64
:02051800017D63
:02051900017D62
:02051A00017D61
:02051B00017D60
:02051C00017D5F
:02051D00017D5E
:02051E00017D5D
:02051F00017C5D
:02052000017D5B
:02052100017D5A
:02052200017D59
:02052300017D58
:02052400017D57
:02052500017D56
:02052600017D55
:02052700017D54
:02052800017C54
:02052900017C53
:02052A00017C52
:02052B00017C51
:02052C00017C50
:02052D00017C4F
:02052E00017C4E
:02052F00017C4D
:02053000017C4C
:02053100017C4B
:02053200017C4A
:02053300017C49
:02053400017C48
:02053500017B48
:02053600017B47
:02053700017B46
:02053800017B45
:02053900017B44
:02053A00017B43
:02053B00017B42
:02053C00017B41
:02053D00017B40
:02053E00017B3F
:02053F00017B3E
:02054000017B3D
:02054100017B3C
:02054200017B3B
:02054300017B3A
:02054400017B39
:02054500017B38
:02054600017B37
:0205470001733E
:0205480001733D
:0205490001733C
:02054A0001733B
:02054B0001723B
:02054C0001723A
:02054D00017239
:02054E00017238
:02054F00017237
:02055000017335
:02055100017334
:02055200017333
:02055300017332
:02055400017331
:02055500017330
:0205560001732F
:0205570001732E
:0205580001732D
:0205590001732C
:02055A0001732B
:02055B0001732A
:02055C00017329
:02055D00017328
:02055E00017327
:02055F00017326
:02056000013365
:02056100013364
:02056200013363
:02056300013362
:02056400013361
:02056500013360
:0205660001335F
:0205670001335E
:0205680001335D
:0205690001335C
:02056A0001335B
:02056B0001335A
:02056C00013359
:02056D00013358
:02056E00013357
:02056F00013257
:02057000013256
:02057100013255
:02057200013254
:02057300013253
:02057400013252
:02057500013251
:02057600013250
:0205770001324F
:0205780001324E
:0205790001324D
:02057A0001324C
:02057B0001324B
:02057C0001324A
:02057D00013249
:02057E00013248
:02057F00013247
:0205800000F287
:0205810000F286
:0205820000F285
:0205830000F284
:0205840000F283
:0205850000F282
:0205860000F281
:0205870000F280
:0205880000F27F
:0205890000F27E
:02058A0000F27D
:02058B0000F27C
:02058C0000F27B
:02058D0000F27A
:02058E0000F279
:02058F0000F278
:0205900000F277
:0205910000F276
:0205920000F275
:0205930000F274
:0205940000F273
:0205950000F272
:0205960000F271
:0205970000F270
:0205980000F26F
:0205990000F26E
:02059A0000F26D
:02059B0000F26C
:02059C0000F26B
:02059D0000B2AA
:02059E0000B2A9
:02059F0000B2A8
:0205A00000F267
:0205A10000B2A6
:0205A20000B2A5
:0205A30000B2A4
:0205A40000B2A3
:0205A50000F262
:0205A60000F261
:0205A70000F260
:0205A80000F25F
:0205A90000F25E
:0205AA0000F25D
:0205AB0000F25C
:0205AC0000F25B
:0205AD0000F25A
:0205AE0000F259
:0205AF0000F258
:0205B00000F257
:0205B10000F256
:0205B20000F255
:0205B30000F254
:0205B40000F253
:0205B50000F252
:0205B60000F251
:0205B70000F250
:0205B80000F24F
:0205B90000F24E
:0205BA0000F24D
:0205BB0000F34B
:0205BC0000F34A
:0205BD0000F349
:0205BE0000F348
:0205BF0000F347
:0205C00000F346
:0205C10000F345
:0205C20000F344
:0205C30000F343
:0205C40000F342
:0205C50000F341
:0205C60000F340
:0205C70000F33F
:0205C80000F33E
:0205C90000F33D
:0205CA0000F33C
:0205CB0000F33B
:0205CC0000F33A
:0205CD0000F339
:0205CE0000F338
:0205CF0000F337
:0205D00000F336
:0205D10000F335
:0205D20000F334
:0205D30000F333
:0205D40000F332
:0205D50000AA7A
:0205D60000AA79
:0205D70000AA78
:0205D80000AA77
:0205D90000AA76
:0205DA0000AA75
:0205DB0000AA74
:0205DC0000AA73
:0205DD0000AA72
:0205DE0000B269
:0205DF0000B268
:0205E00000B366
:0205E10000B365
:0205E20000B364
:0205E30000B363
:0205E40000B362
:0205E50000F321
:0205E60000F320
:0205E70000F31F
:0205E80000F31E
:0205E90000F31D
:0205EA0000F31C
:0205EB0000F31B
:0205EC0000F31A
:0205ED0000F319
:0205EE0000F318
:0205EF0000F317
:0205F00000F316
:0205F10000F315
:0205F20000F314
:0205F30000F313
:0205F40000F312
:0205F50000F311
:0205F60000F310
:0205F70000F30F
:0205F80000F30E
:0205F90000F30D
:0205FA0000F30C
:0205FB0000F30B
:0205FC0000B34A
:0205FD0000B349
:0205FE0000AA51
:0205FF0000AA50
:0206000000AA4E
:0206010000AA4D
:0206020000B244
:0206030000B243
:0206040000B242
:0206050000B241
:0206060000B240
:0206070000B23F
:0206080000B23E
:0206090000B23D
:02060A0000B23C
:02060B0000B23B
:02060C0000B23A
:02060D0000B239
:02060E0000B238
:02060F0000B237
:0206100000B236
:0206110000B235
:0206120000B234
:0206130000B233
:0206140000B232
:0206150000B231
:0206160000B230
:0206170000B22F
:0206180000B22E
:0206190000B22D
:02061A0000AA34
:02061B0000AA33
:02061C0000AA32
:02061D0000B229
:02061E0000B228
:02061F0000B227
:0206200000AA2E
:0206210000AA2D
:0206220000AA2C
:0206230000AA2B
:0206240000AB29
:0206250000EBE8
:0206260001349D
:02062700017D53
:02062800017D52
:02062900017E50
:02062A00017E4F
:02062B00017557
:02062C0001BE0D
:02062D0001BE0C
:02062E0001BE0B
:02062F00017E4A
:0206300001BE09
:0206310001BE08
:0206320001BE07
:0206330001BE06
:0206340001BE05
:0206350001BE04
:0206360001BE03
:0206370001BE02
:0206380001BE01
:0206390001BE00
:02063A0001BEFF
:02063B0001BEFE
:02063C0001BEFD
:02063D0001BEFC
:02063E0001BEFB
:02063F0001BEFA
:0206400001BCFB
:0206410001BCFA
:0206420001BCF9
:0206430001BCF8
:0206440001BCF7
:0206450001BCF6
:0206460001BCF5
:0206470001BCF4
:0206480001BCF3
:0206490001BCF2
:02064A0001BCF1
:02064B0001BCF0
:02064C0001BCEF
:02064D0001BCEE
:02064E00017C2D
:02064F00017C2C
:02065000017C2B
:02065100017D29
:02065200017D28
:02065300017D27
:02065400017D26
:02065500017D25
:02065600017D24
:02065700017D23
:02065800017D22
:02065900017D21
:02065A00017D20
:02065B00017D1F
:02065C00017D1E
:02065D00017D1D
:02065E00017D1C
:02065F00017C1C
:02066000017D1A
:02066100017D19
:02066200017D18
:02066300017D17
:02066400017C17
:02066500017C16
:02066600017D14
:02066700017D13
:02066800017C13
:02066900017C12
:02066A00017C11
:02066B00017C10
:02066C00017C0F
:02066D00017C0E
:02066E00017C0D
:02066F00017C0C
:02067000017C0B
:02067100017C0A
:02067200017C09
:02067300017C08
:02067400017B08
:02067500017B07
:02067600017B06
:02067700017B05
:02067800017B04
:02067900017B03
:02067A00017B02
:02067B00017B01
:02067C00017B00
:02067D00017BFF
:02067E00017BFE
:02067F00017BFD
:02068000017BFC
:02068100017BFB
:02068200017BFA
:02068300017BF9
:02068400017BF8
:02068500017BF7
:02068600017BF6
:020687000173FD
:020688000173FC
:020689000173FB
:02068A000172FB
:02068B000172FA
:02068C000172F9
:02068D000172F8
:02068E000172F7
:02068F000172F6
:020690000173F4
:020691000173F3
:020692000173F2
:020693000173F1
:020694000173F0
:020695000173EF
:020696000173EE
:020697000173ED
:020698000173EC
:020699000173EB
:02069A000173EA
:02069B000173E9
:02069C000173E8
:02069D000173E7
:02069E000173E6
:02069F000173E5
:0206A000013324
:0206A100013323
:0206A200013322
:0206A300013321
:0206A400013320
:0206A50001331F
:0206A60001331E
:0206A70001331D
:0206A80001331C
:0206A90001331B
:0206AA0001331A
:0206AB00013319
:0206AC00013318
:0206AD00013317
:0206AE00013316
:0206AF00013216
:0206B000013215
:0206B100013214
:0206B200013213
:0206B300013212
:0206B400013211
:0206B500013210
:0206B60001320F
:0206B70001320E
:0206B80001320D
:0206B90001320C
:0206BA0001320B
:0206BB0001320A
:0206BC00013209
:0206BD00013208
:0206BE00013207
:0206BF00013206
:0206C00000F246
:0206C10000F245
:0206C20000F244
:0206C30000F243
:0206C40000F242
:0206C50000F241
:0206C60000F240
:0206C70000F23F
:0206C80000F23E
:0206C90000F23D
:0206CA0000F23C
:0206CB0000F23B
:0206CC0000F23A
:0206CD0000F239
:0206CE0000F238
:0206CF0000F237
:0206D00000F236
:0206D10000F235
:0206D20000F234
:0206D30000F233
:0206D40000F232
:0206D50000F231
:0206D60000F230
:0206D70000F22F
:0206D80000F22E
:0206D90000F22D
:0206DA0000F22C
:0206DB0000F22B
:0206DC0000F22A
:0206DD0000B269
:0206DE0000B268
:0206DF0000B267
:0206E00000F226
:0206E10000B265
:0206E20000B264
:0206E30000B263
:0206E40000B262
:0206E50000F221
:0206E60000F220
:0206E70000F21F
:0206E80000F21E
:0206E90000F21D
:0206EA0000F21C
:0206EB0000F21B
:0206EC0000F21A
:0206ED0000F219
:0206EE0000F218
:0206EF0000F217
:0206F00000F216
:0206F10000F215
:0206F20000F214
:0206F30000F213
:0206F40000F212
:0206F50000F211
:0206F60000F210
:0206F70000F20F
:0206F80000F20E
:0206F90000F20D
:0206FA0000F20C
:0206FB0000F30A
:0206FC0000F309
:0206FD0000F308
:0206FE0000F307
:0206FF0000F306
:0207000000F304
:0207010000F303
:0207020000F302
:0207030000F301
:0207040000F300
:0207050000F3FF
:0207060000F3FE
:0207070000F3FD
:0207080000F3FC
:0207090000F3FB
:02070A0000F3FA
:02070B0000F3F9
:02070C0000F3F8
:02070D0000F3F7
:02070E0000F3F6
:02070F0000F3F5
:0207100000F3F4
:0207110000F3F3
:0207120000F3F2
:0207130000F3F1
:0207140000F3F0
:0207150000B230
:0207160000AA37
:0207170000AA36
:0207180000AA35
:0207190000AA34
:02071A0000AA33
:02071B0000AA32
:02071C0000AA31
:02071D0000AA30
:02071E0000B227
:02071F0000B226
:0207200000F3E4
:0207210000F3E3
:0207220000F3E2
:0207230000F3E1
:0207240000F3E0
:0207250000F3DF
:0207260000F3DE
:0207270000F3DD
:0207280000F3DC
:0207290000F3DB
:02072A0000F3DA
:02072B0000F3D9
:02072C0000F3D8
:02072D0000F3D7
:02072E0000F3D6
:02072F0000F3D5
:0207300000F3D4
:0207310000F3D3
:0207320000F3D2
:0207330000F3D1
:0207340000F3D0
:0207350000F3CF
:0207360000F3CE
:0207370000F3CD
:0207380000F3CC
:0207390000F3CB
:02073A0000F3CA
:02073B0000F3C9
:02073C0000F3C8
:02073D0000F3C7
:02073E0000F3C6
:02073F0000B305
:0207400000B304
:0207410000B303
:0207420000B302
:0207430000B202
:0207440000B201
:0207450000B200
:0207460000B2FF
:0207470000B3FD
:0207480000B2FD
:0207490000B2FC
:02074A0000B2FB
:02074B0000B2FA
:02074C0000B2F9
:02074D0000B2F8
:02074E0000B2F7
:02074F0000B2F6
:0207500000B2F5
:0207510000B2F4
:0207520000B2F3
:0207530000B2F2
:0207540000B2F1
:0207550000B2F0
:0207560000B2EF
:0207570000B2EE
:0207580000B2ED
:0207590000B2EC
:02075A0000B2EB
:02075B0000B2EA
:02075C0000B2E9
:02075D0000B2E8
:02075E0000B2E7
:02075F0000B2E6
:0207600000ABEC
:0207610000B3E3
:0207620000B3E2
:0207630000AAEA
:0207640000AAE9
:0207650000F49E
:02076600017D13
:02076700017D12
:02076800017E10
:02076900017E0F
:02076A00017E0E
:02076B0001BECD
:02076C0001BECC
:02076D0001BECB
:02076E0001BECA
:02076F00017D0A
:0207700001BEC8
:0207710001BEC7
:0207720001BEC6
:0207730001BEC5
:0207740001BEC4
:0207750001BEC3
:0207760001BEC2
:0207770001BEC1
:0207780001BEC0
:0207790001BEBF
:02077A0001BEBE
:02077B0001BEBD
:02077C0001BEBC
:02077D0001BEBB
:02077E0001BEBA
:02077F0001BEB9
:0207800001BCBA
:0207810001BCB9
:0207820001BCB8
:0207830001BCB7
:0207840001BCB6
:0207850001BCB5
:0207860001BCB4
:0207870001BCB3
:0207880001BBB3
:0207890001BCB1
:02078A0001BCB0
:02078B0001BCAF
:02078C0001BCAE
:02078D0001BCAD
:02078E0001BCAC
:02078F0001BCAB
:0207900001BCAA
:02079100017CE9
:02079200017CE8
:02079300017DE6
:02079400017DE5
:02079500017DE4
:02079600017DE3
:02079700017DE2
:02079800017DE1
:02079900017DE0
:02079A00017DDF
:02079B00017DDE
:02079C00017DDD
:02079D00017DDC
:02079E00017DDB
:02079F00017CDB
:0207A000017DD9
:0207A100017DD8
:0207A200017DD7
:0207A300017DD6
:0207A400017CD6
:0207A500017CD5
:0207A600017CD4
:0207A700017CD3
:0207A800017CD2
:0207A900017CD1
:0207AA00017CD0
:0207AB00017CCF
:0207AC00017CCE
:0207AD00017CCD
:0207AE00017CCC
:0207AF00017CCB
:0207B000017CCA
:0207B100017CC9
:0207B200017BC9
:0207B300017BC8
:0207B400017BC7
:0207B500017BC6
:0207B600017BC5
:0207B700017BC4
:0207B800017BC3
:0207B900017BC2
:0207BA00017BC1
:0207BB00017BC0
:0207BC00017BBF
:0207BD00017BBE
:0207BE00017BBD
:0207BF00017BBC
:0207C000017BBB
:0207C100017BBA
:0207C200017BB9
:0207C300017BB8
:0207C400017BB7
:0207C500017BB6
:0207C600017BB5
:0207C7000173BC
:0207C8000173BB
:0207C9000172BB
:0207CA000172BA
:0207CB000172B9
:0207CC000172B8
:0207CD000172B7
:0207CE000172B6
:0207CF000172B5
:0207D0000173B3
:0207D1000173B2
:0207D2000173B1
:0207D3000173B0
:0207D4000173AF
:0207D5000173AE
:0207D6000173AD
:0207D7000173AC
:0207D8000173AB
:0207D9000173AA
:0207DA000173A9
:0207DB000173A8
:0207DC000173A7
:0207DD000173A6
:0207DE000173A5
:0207DF000173A4
:0207E0000133E3
:0207E1000133E2
:0207E2000133E1
:0207E3000133E0
:0207E4000133DF
:0207E5000133DE
:0207E6000133DD
:0207E7000133DC
:0207E8000133DB
:0207E9000133DA
:0207EA000133D9
:0207EB000133D8
:0207EC000133D7
:0207ED000133D6
:0207EE000133D5
:0207EF000132D5
:0207F0000132D4
:0207F1000132D3
:0207F2000132D2
:0207F3000132D1
:0207F4000132D0
:0207F5000132CF
:0207F6000132CE
:0207F7000132CD
:0207F8000132CC
:0207F9000132CB
:0207FA000132CA
:0207FB000132C9
:0207FC000132C8
:0207FD000132C7
:0207FE000132C6
:0207FF000132C5
:0208000000F204
:0208010000F203
:0208020000F202
:0208030000F201
:0208040000F200
:0208050000F2FF
:0208060000F2FE
:0208070000F2FD
:0208080000F2FC
:0208090000F2FB
:02080A0000F2FA
:02080B0000F2F9
:02080C0000F2F8
:02080D0000F2F7
:02080E0000F2F6
:02080F0000F2F5
:0208100000F2F4
:0208110000F2F3
:0208120000F2F2
:0208130000F2F1
:0208140000F2F0
:0208150000F2EF
:0208160000F2EE
:0208170000F2ED
:0208180000F2EC
:0208190000F2EB
:02081A0000F2EA
:02081B0000F2E9
:02081C0000F2E8
:02081D0000B227
:02081E0000B226
:02081F0000B225
:0208200000F2E4
:0208210000F2E3
:0208220000B222
:0208230000B221
:0208240000B220
:0208250000F2DF
:0208260000F2DE
:0208270000F2DD
:0208280000F2DC
:0208290000F2DB
:02082A0000F2DA
:02082B0000F2D9
:02082C0000F2D8
:02082D0000F2D7
:02082E0000F2D6
:02082F0000F3D4
:0208300000F3D3
:0208310000F3D2
:0208320000F3D1
:0208330000F3D0
:0208340000F3CF
:0208350000F3CE
:0208360000F3CD
:0208370000F3CC
:0208380000F2CC
:0208390000F2CB
:02083A0000F2CA
:02083B0000F3C8
:02083C0000F3C7
:02083D0000F3C6
:02083E0000F3C5
:02083F0000F3C4
:0208400000F3C3
:0208410000F3C2
:0208420000F3C1
:0208430000F3C0
:0208440000F3BF
:0208450000F3BE
:0208460000F3BD
:0208470000F3BC
:0208480000F3BB
:0208490000F3BA
:02084A0000F3B9
:02084B0000F3B8
:02084C0000F3B7
:02084D0000F3B6
:02084E0000F3B5
:02084F0000F3B4
:0208500000F3B3
:0208510000F3B2
:0208520000F3B1
:0208530000F3B0
:0208540000F3AF
:0208550000B2EF
:0208560000AAF6
:0208570000AAF5
:0208580000B2EC
:0208590000B2EB
:02085A0000AAF2
:02085B0000AAF1
:02085C0000AAF0
:02085D0000B2E7
:02085E0000B3E5
:02085F0000F3A4
:0208600000F3A3
:0208610000F3A2
:0208620000F3A1
:0208630000F3A0
:0208640000F39F
:0208650000F39E
:0208660000F39D
:0208670000F39C
:0208680000F39B
:0208690000F39A
:02086A0000F399
:02086B0000F398
:02086C0000F397
:02086D0000F396
:02086E0000F395
:02086F0000F394
:0208700000F393
:0208710000F392
:0208720000F391
:0208730000F390
:0208740000F38F
:0208750000F38E
:0208760000F38D
:0208770000F38C
:0208780000F38B
:0208790000F38A
:02087A0000F389
:02087B0000F388
:02087C0000F387
:02087D0000F386
:02087E0000F385
:02087F0000F384
:0208800000B3C3
:0208810000B3C2
:0208820000B3C1
:0208830000B2C1
:0208840000B2C0
:0208850000B2BF
:0208860000B3BD
:0208870000B3BC
:0208880000B2BC
:0208890000B2BB
:02088A0000B2BA
:02088B0000B2B9
:02088C0000B2B8
:02088D0000B2B7
:02088E0000B2B6
:02088F0000B2B5
:0208900000B2B4
:0208910000B2B3
:0208920000B2B2
:0208930000B2B1
:0208940000B2B0
:0208950000B2AF
:0208960000B2AE
:0208970000B2AD
:0208980000B2AC
:0208990000B2AB
:02089A0000B2AA
:02089B0000B2A9
:02089C0000B2A8
:02089D0000B2A7
:02089E0000B2A6
:02089F0000B2A5
:0208A00000B3A3
:0208A10000ABAA
:0208A20000B3A1
:0208A30000ABA8
:0208A40000ABA7
:0208A500013C14
:0208A600017ED1
:0208A700017DD1
:0208A800017ECF
:0208A900017ECE
:0208AA0001BE8D
:0208AB0001BE8C
:0208AC0001BE8B
:0208AD0001BE8A
:0208AE00017EC9
:0208AF00017EC8
:0208B00001BE87
:0208B10001BE86
:0208B20001BE85
:0208B30001BE84
:0208B40001BE83
:0208B50001BE82
:0208B60001BE81
:0208B70001BE80
:0208B80001BE7F
:0208B90001BE7E
:0208BA0001BE7D
:0208BB0001BE7C
:0208BC0001BE7B
:0208BD0001BE7A
:0208BE0001BE79
:0208BF0001BE78
:0208C00001BC79
:0208C10001BC78
:0208C20001BC77
:0208C30001BC76
:0208C40001BC75
:0208C50001BC74
:0208C60001BC73
:0208C70001BC72
:0208C80001BB72
:0208C90001BB71
:0208CA0001BC6F
:0208CB0001BC6E
:0208CC0001BC6D
:0208CD0001BC6C
:0208CE0001BC6B
:0208CF0001BC6A
:0208D00001BC69
:0208D10001BC68
:0208D200017CA7
:0208D300017CA6
:0208D400017DA4
:0208D500017DA3
:0208D600017DA2
:0208D700017DA1
:0208D800017DA0
:0208D900017D9F
:0208DA00017D9E
:0208DB00017D9D
:0208DC00017D9C
:0208DD00017D9B
:0208DE00017C9B
:0208DF00017C9A
:0208E000017D98
:0208E100017D97
:0208E200017D96
:0208E300017D95
:0208E400017C95
:0208E500017C94
:0208E600017C93
:0208E700017C92
:0208E800017C91
:0208E900017C90
:0208EA00017C8F
:0208EB00017C8E
:0208EC00017C8D
:0208ED00017C8C
:0208EE00017C8B
:0208EF00017C8A
:0208F000017C89
:0208F100017C88
:0208F200017B88
:0208F300017B87
:0208F400017B86
:0208F500017B85
:0208F600017B84
:0208F700017B83
:0208F800017B82
:0208F900017B81
:0208FA00017B80
:0208FB00017B7F
:0208FC00017B7E
:0208FD00017B7D
:0208FE00017B7C
:0208FF00017B7B
:02090000017B79
:02090100017B78
:02090200017B77
:02090300017B76
:02090400017B75
:02090500017B74
:02090600017B73
:0209070001737A
:02090800017379
:02090900017279
:02090A00017278
:02090B00017277
:02090C00017276
:02090D00017275
:02090E00017274
:02090F00017273
:02091000017371
:02091100017370
:0209120001736F
:0209130001736E
:0209140001736D
:0209150001736C
:0209160001736B
:0209170001736A
:02091800017369
:02091900017368
:02091A00017367
:02091B00017366
:02091C00017365
:02091D00017364
:02091E00017363
:02091F00017362
:020920000133A1
:020921000133A0
:0209220001339F
:0209230001339E
:0209240001339D
:0209250001339C
:0209260001339B
:0209270001339A
:02092800013399
:02092900013398
:02092A00013397
:02092B00013396
:02092C00013395
:02092D00013394
:02092E00013393
:02092F00013293
:02093000013292
:02093100013291
:02093200013290
:0209330001328F
:0209340001328E
:0209350001328D
:0209360001328C
:0209370001328B
:0209380001328A
:02093900013289
:02093A00013288
:02093B00013287
:02093C00013286
:02093D00013285
:02093E00013284
:02093F00013283
:0209400000F2C3
:0209410000F2C2
:0209420000F2C1
:0209430000F2C0
:0209440000F2BF
:0209450000F2BE
:0209460000F2BD
:0209470000F2BC
:0209480000F2BB
:0209490000F2BA
:02094A0000F2B9
:02094B0000F2B8
:02094C0000F2B7
:02094D0000F2B6
:02094E0000F2B5
:02094F0000F2B4
:0209500000F2B3
:0209510000F2B2
:0209520000F2B1
:0209530000F2B0
:0209540000F2AF
:0209550000F2AE
:0209560000F2AD
:0209570000F2AC
:0209580000F2AB
:0209590000F2AA
:02095A0000F2A9
:02095B0000F2A8
:02095C0000F2A7
:02095D0000B2E6
:02095E0000B2E5
:02095F0000B2E4
:0209600000F2A3
:0209610000F2A2
:0209620000B2E1
:0209630000B2E0
:0209640000B2DF
:0209650000F29E
:0209660000F29D
:0209670000F29C
:0209680000F29B
:0209690000F29A
:02096A0000F299
:02096B0000F298
:02096C0000F396
:02096D0000F395
:02096E0000F394
:02096F0000F393
:0209700000F392
:0209710000F391
:0209720000F390
:0209730000F38F
:0209740000F38E
:0209750000F38D
:0209760000F38C
:0209770000F38B
:0209780000F38A
:0209790000F389
:02097A0000F388
:02097B0000F387
:02097C0000F386
:02097D0000F385
:02097E0000F384
:02097F0000F383
:0209800000F382
:0209810000F381
:0209820000F380
:0209830000F37F
:0209840000F37E
:0209850000F37D
:0209860000F37C
:0209870000F37B
:0209880000F37A
:0209890000F379
:02098A0000F378
:02098B0000F377
:02098C0000F376
:02098D0000F375
:02098E0000F374
:02098F0000F373
:0209900000F372
:0209910000F371
:0209920000F370
:0209930000F36F
:0209940000F36E
:0209950000B2AE
:0209960000AAB5
:0209970000AAB4
:0209980000B2AB
:0209990000B2AA
:02099A0000B2A9
:02099B0000AAB0
:02099C0000B2A7
:02099D0000B2A6
:02099E0000F364
:02099F0000F363
:0209A00000F362
:0209A10000F361
:0209A20000F360
:0209A30000F35F
:0209A40000F35E
:0209A50000F35D
:0209A60000F35C
:0209A70000F35B
:0209A80000F35A
:0209A90000F359
:0209AA0000F358
:0209AB0000F357
:0209AC0000F356
:0209AD0000F355
:0209AE0000F354
:0209AF0000F353
:0209B00000F352
:0209B10000F351
:0209B20000F350
:0209B30000F34F
:0209B40000F34E
:0209B50000F34D
:0209B60000F34C
:0209B70000F34B
:0209B80000F34A
:0209B90000F349
:0209BA0000F348
:0209BB0000F347
:0209BC0000F346
:0209BD0000F345
:0209BE0000F344
:0209BF0000F343
:0209C00000F342
:0209C10000B381
:0209C20000B380
:0209C30000B37F
:0209C40000B27F
:0209C50000B27E
:0209C60000B37C
:0209C70000B37B
:0209C80000B27B
:0209C90000B27A
:0209CA0000B279
:0209CB0000B278
:0209CC0000B277
:0209CD0000B276
:0209CE0000B275
:0209CF0000B274
:0209D00000B273
:0209D10000B272
:0209D20000B271
:0209D30000B270
:0209D40000B26F
:0209D50000B26E
:0209D60000B26D
:0209D70000B26C
:0209D80000B26B
:0209D90000B26A
:0209DA0000B269
:0209DB0000B268
:0209DC0000B267
:0209DD0000B266
:0209DE0000B265
:0209DF0000B264
:0209E00000AB6A
:0209E10000AA6A
:0209E20000B360
:0209E30000F31F
:0209E40000F31E
:0209E500017D92
:0209E60001BE50
:0209E700017D90
:0209E800017E8E
:0209E900017E8D
:0209EA0001BE4C
:0209EB0001BE4B
:0209EC0001BE4A
:0209ED00017E89
:0209EE00017D89
:0209EF0001BE47
:0209F00001BE46
:0209F10001BE45
:0209F20001BE44
:0209F30001BE43
:0209F40001BE42
:0209F50001BE41
:0209F60001BE40
:0209F70001BE3F
:0209F80001BE3E
:0209F90001BE3D
:0209FA0001BE3C
:0209FB0001BE3B
:0209FC0001BE3A
:0209FD0001BE39
:0209FE0001BE38
:0209FF0001BE37
:020A000001BC37
:020A010001BC36
:020A020001BC35
:020A030001BC34
:020A040001BC33
:020A050001BC32
:020A060001BC31
:020A070001BC30
:020A080001BB30
:020A090001BB2F
:020A0A0001B336
:020A0B0001BC2C
:020A0C0001B334
:020A0D0001BB2B
:020A0E0001BB2A
:020A0F0001BB29
:020A100001BC27
:020A110001BC26
:020A120001BC25
:020A1300017C64
:020A1400017C63
:020A1500017C62
:020A1600017C61
:020A1700017C60
:020A1800017C5F
:020A1900017C5E
:020A1A00017C5D
:020A1B00017C5C
:020A1C00017C5B
:020A1D00017C5A
:020A1E00017C59
:020A1F00017C58
:020A2000017C57
:020A2100017C56
:020A2200017C55
:020A2300017C54
:020A2400017C53
:020A2500017C52
:020A2600017C51
:020A2700017C50
:020A2800017C4F
:020A2900017C4E
:020A2A00017C4D
:020A2B00017C4C
:020A2C00017C4B
:020A2D00017C4A
:020A2E00017C49
:020A2F00017C48
:020A3000017B48
:020A3100017B47
:020A3200017B46
:020A3300017B45
:020A3400017B44
:020A3500017B43
:020A3600017B42
:020A3700017B41
:020A3800017B40
:020A3900017B3F
:020A3A00017B3E
:020A3B00017B3D
:020A3C00017B3C
:020A3D00017B3B
:020A3E00017B3A
:020A3F00017B39
:020A4000017340
:020A410001733F
:020A420001733E
:020A430001733D
:020A440001733C
:020A450001733B
:020A460001733A
:020A4700017339
:020A4800017338
:020A4900017337
:020A4A00017336
:020A4B00017335
:020A4C00017334
:020A4D00017333
:020A4E00017332
:020A4F00017331
:020A5000017330
:020A510001732F
:020A520001732E
:020A530001732D
:020A540001732C
:020A550001732B
:020A560001732A
:020A5700017329
:020A5800013368
:020A5900013367
:020A5A00013366
:020A5B00013365
:020A5C00013364
:020A5D00013363
:020A5E00013362
:020A5F00017B19
:020A6000017320
:020A610001741E
:020A620001335E
:020A630001721E
:020A640000FA96
:020A650001335B
:020A660001731A
:020A6700013458
:020A6800013358
:020A6900013357
:020A6A00013356
:020A6B00013355
:020A6C00013354
:020A6D00013353
:020A6E00013352
:020A6F00013351
:020A7000013251
:020A7100013250
:020A720001324F
:020A730001324E
:020A740001324D
:020A750001324C
:020A760001324B
:020A770001324A
:020A7800013249
:020A7900013248
:020A7A00013247
:020A7B00013246
:020A7C00013245
:020A7D00013244
:020A7E00013243
:020A7F00013242
:020A800000F282
:020A810000F281
:020A820000F280
:020A830000F27F
:020A840000F27E
:020A850000F27D
:020A860000F27C
:020A870000F27B
:020A880000F27A
:020A890000F279
:020A8A0000F278
:020A8B0000F277
:020A8C0000F276
:020A8D0000F275
:020A8E0000F274
:020A8F0000F273
:020A900000F272
:020A910000F271
:020A920000F270
:020A930000F26F
:020A940000F26E
:020A950000F26D
:020A960000F26C
:020A970000F26B
:020A980000F26A
:020A990000F269
:020A9A0000F268
:020A9B0000F267
:020A9C0000F266
:020A9D0000F265
:020A9E0000B2A4
:020A9F0000B2A3
:020AA00000F262
:020AA10000F261
:020AA20000F260
:020AA30000B29F
:020AA40000B29E
:020AA50000F25D
:020AA60000F25C
:020AA70000F25B
:020AA80000F25A
:020AA90000F259
:020AAA0000F258
:020AAB0000F257
:020AAC0000F256
:020AAD0000F255
:020AAE0000F254
:020AAF0000F352
:020AB00000F351
:020AB10000F350
:020AB20000F34F
:020AB30000F34E
:020AB40000F34D
:020AB50000F34C
:020AB60000F34B
:020AB70000F34A
:020AB80000F349
:020AB90000F348
:020ABA0000F347
:020ABB0000F346
:020ABC0000F345
:020ABD0000F344
:020ABE0000F343
:020ABF0000F342
:020AC00000F341
:020AC10000F340
:020AC20000F33F
:020AC30000F33E
:020AC40000F33D
:020AC50000F33C
:020AC60000F33B
:020AC70000F33A
:020AC80000F339
:020AC90000F338
:020ACA0000F337
:020ACB0000F336
:020ACC0000F335
:020ACD0000F334
:020ACE0000F333
:020ACF0000F332
:020AD00000F331
:020AD10000F330
:020AD20000F32F
:020AD30000F32E
:020AD40000F32D
:020AD50000AA75
:020AD60000AA74
:020AD70000AA73
:020AD80000AA72
:020AD90000AA71
:020ADA0000AA70
:020ADB0000AA6F
:020ADC0000AB6D
:020ADD0000F324
:020ADE0000F323
:020ADF0000F322
:020AE00000F321
:020AE10000F320
:020AE20000F31F
:020AE30000F31E
:020AE40000F31D
:020AE50000F31C
:020AE60000F31B
:020AE70000F31A
:020AE80000F319
:020AE90000F318
:020AEA0000F317
:020AEB0000F316
:020AEC0000F315
:020AED0000F314
:020AEE0000F313
:020AEF0000F312
:020AF00000F311
:020AF10000F310
:020AF20000F30F
:020AF30000F30E
:020AF40000F30D
:020AF50000F30C
:020AF60000F30B
:020AF70000F30A
:020AF80000F309
:020AF90000F308
:020AFA0000F307
:020AFB0000F306
:020AFC0000F305
:020AFD0000F304
:020AFE0000F303
:020AFF0000F302
:020B000000F300
:020B010000B33F
:020B020000B33E
:020B030000B33D
:020B040000B33C
:020B050000B33B
:020B060000B33A
:020B070000B339
:020B080000B239
:020B090000B238
:020B0A0000B237
:020B0B0000B236
:020B0C0000B235
:020B0D0000B234
:020B0E0000B233
:020B0F0000B232
:020B100000B231
:020B110000B230
:020B120000B22F
:020B130000B22E
:020B140000B22D
:020B150000B22C
:020B160000B22B
:020B170000B22A
:020B180000B229
:020B190000B228
:020B1A0000B227
:020B1B0000B226
:020B1C0000B225
:020B1D0000B224
:020B1E0000B223
:020B1F0000AA2A
:020B200000AB28
:020B210000AB27
:020B220000AB26
:020B230000EBE5
:020B2400013599
:020B2500017E4F
:020B2600017D4F
:020B270001BE0D
:020B280001BE0C
:020B290001BE0B
:020B2A00017E4A
:020B2B00017E49
:020B2C0001BE08
:020B2D0001BE07
:020B2E0001BE06
:020B2F00017E45
:020B300001BE04
:020B310001BE03
:020B320001BE02
:020B330001BE01
:020B340001BE00
:020B350001BEFF
:020B360001BEFE
:020B370001BEFD
:020B380001BEFC
:020B390001BEFB
:020B3A0001BEFA
:020B3B0001BEF9
:020B3C0001BEF8
:020B3D0001BEF7
:020B3E0001BEF6
:020B3F0001BEF5
:020B400001BCF6
:020B410001BCF5
:020B420001BCF4
:020B430001BCF3
:020B440001BCF2
:020B450001BCF1
:020B460001BCF0
:020B470001BBF0
:020B4800017238
:020B490001BCED
:020B4A0001FCAC
:020B4B00012384
:020B4C0000DACD
:020B4D00005155
:020B4E0000089D
:020B4F000000A4
:020B50000000A3
:020B51000000A2
:020B52000000A1
:020B53000000A0
:020B540000009F
:020B550000009E
:020B560000009D
:020B570000009C
:020B580000009B
:020B590000009A
:020B5A00000099
:020B5B00000098
:020B5C00000097
:020B5D00000096
:020B5E00000095
:020B5F00000094
:020B6000000093
:020B6100000092
:020B6200000091
:020B6300000090
:020B640000008F
:020B650000008E
:020B660000008D
:020B670000008C
:020B680000008B
:020B690000008A
:020B6A00000089
:020B6B00000088
:020B6C00000087
:020B6D00000086
:020B6E00000085
:020B6F00000084
:020B7000000083
:020B7100000082
:020B7200000081
:020B7300000080
:020B740000007F
:020B750000007E
:020B760000007D
:020B770000007C
:020B780000007B
:020B790000007A
:020B7A00000079
:020B7B00000078
:020B7C00000077
:020B7D00000076
:020B7E00000075
:020B7F00000074
:020B8000000073
:020B8100000072
:020B8200000071
:020B8300000070
:020B840000006F
:020B850000006E
:020B860000006D
:020B870000006C
:020B880000006B
:020B890000006A
:020B8A00000069
:020B8B00000068
:020B8C00000067
:020B8D00000066
:020B8E00000065
:020B8F00000064
:020B9000000063
:020B9100000062
:020B9200000061
:020B9300000060
:020B940000005F
:020B950000005E
:020B960000005D
:020B970000005C
:020B980000005B
:020B990000005A
:020B9A00000059
:020B9B00000058
:020B9C00000057
:020B9D00000056
:020B9E00000055
:020B9F00000054
:020BA000001043
:020BA100005002
:020BA20000EA67
:020BA3000173DC
:020BA400013B13
:020BA5000172DB
:020BA60001321A
:020BA700013219
:020BA800013317
:020BA900013316
:020BAA00013315
:020BAB00013314
:020BAC00013313
:020BAD00013312
:020BAE00013311
:020BAF00013310
:020BB000013210
:020BB10001320F
:020BB20001320E
:020BB30001320D
:020BB40001320C
:020BB50001320B
:020BB60001320A
:020BB700013209
:020BB800013208
:020BB900013207
:020BBA00013206
:020BBB00013205
:020BBC00013204
:020BBD00013203
:020BBE00013202
:020BBF00013201
:020BC00000F241
:020BC10000F240
:020BC20000F23F
:020BC30000F23E
:020BC40000F23D
:020BC50000F23C
:020BC60000F23B
:020BC70000F23A
:020BC80000F239
:020BC90000F238
:020BCA0000F237
:020BCB0000F236
:020BCC0000F235
:020BCD0000F234
:020BCE0000F233
:020BCF0000F232
:020BD00000F231
:020BD10000F230
:020BD20000F22F
:020BD30000F22E
:020BD40000F22D
:020BD50000F22C
:020BD60000F22B
:020BD70000F22A
:020BD80000F229
:020BD90000F228
:020BDA0000F227
:020BDB0000F226
:020BDC0000F225
:020BDD0000F224
:020BDE0000B263
:020BDF0000B262
:020BE00000F221
:020BE10000F220
:020BE20000B25F
:020BE30000B25E
:020BE40000B25D
:020BE50000F21C
:020BE60000F21B
:020BE70000F21A
:020BE80000F219
:020BE90000F218
:020BEA0000F217
:020BEB0000F216
:020BEC0000F215
:020BED0000F214
:020BEE0000F213
:020BEF0000F311
:020BF00000F310
:020BF10000F30F
:020BF20000F30E
:020BF30000F30D
:020BF40000F30C
:020BF50000F30B
:020BF60000F30A
:020BF70000F309
:020BF80000F209
:020BF90000F307
:020BFA0000F306
:020BFB0000F305
:020BFC0000F304
:020BFD0000F303
:020BFE0000F302
:020BFF0000F301
:020C000000F3FF
:020C010000F3FE
:020C020000F3FD
:020C030000F3FC
:020C040000F3FB
:020C050000F3FA
:020C060000F3F9
:020C070000F3F8
:020C080000F3F7
:020C090000F3F6
:020C0A0000F3F5
:020C0B0000F3F4
:020C0C0000F3F3
:020C0D0000F3F2
:020C0E0000F3F1
:020C0F0000F3F0
:020C100000F3EF
:020C110000F3EE
:020C120000F3ED
:020C130000F3EC
:020C140000F3EB
:020C150000AA33
:020C160000B22A
:020C170000B229
:020C180000AA30
:020C190000AA2F
:020C1A0000AA2E
:020C1B0000AA2D
:020C1C0000F3E3
:020C1D0000F3E2
:020C1E0000F3E1
:020C1F0000F3E0
:020C200000F3DF
:020C210000F3DE
:020C220000F3DD
:020C230000F3DC
:020C240000F3DB
:020C250000F3DA
:020C260000F3D9
:020C270000F3D8
:020C280000F3D7
:020C290000F3D6
:020C2A0000F3D5
:020C2B0000F3D4
:020C2C0000F3D3
:020C2D0000F3D2
:020C2E0000F3D1
:020C2F0000F3D0
:020C300000F3CF
:020C310000F3CE
:020C320000F3CD
:020C330000F3CC
:020C340000F3CB
:020C350000EBD2
:020C360000A21A
:020C3700005A61
:020C3800005961
:020C3900005960
:020C3A00005167
:020C3B000008AF
:020C3C000008AE
:020C3D000008AD
:020C3E000008AC
:020C3F000008AB
:020C40000008AA
:020C41000008A9
:020C42000008A8
:020C43000008A7
:020C44000008A6
:020C45000008A5
:020C46000008A4
:020C47000008A3
:020C48000008A2
:020C49000008A1
:020C4A000008A0
:020C4B0000089F
:020C4C0000089E
:020C4D0000594C
:020C4E0000594B
:020C4F0000594A
:020C5000006240
:020C510000A2FF
:020C520000B2EE
:020C530000B2ED
:020C540000B2EC
:020C550000B2EB
:020C560000B2EA
:020C570000B2E9
:020C580000B2E8
:020C590000B2E7
:020C5A0000B2E6
:020C5B0000B2E5
:020C5C0000B2E4
:020C5D0000B2E3
:020C5E0000B2E2
:020C5F0000B2E1
:020C600000B3DF
:020C610000ABE6
:020C620000ABE5
:020C630000F39C
:020C6400013D50
:020C6500017E0E
:020C6600017D0E
:020C670001BECC
:020C680001BECB
:020C690001BECA
:020C6A00017E09
:020C6B0001BEC8
:020C6C0001BEC7
:020C6D0001BEC6
:020C6E0001BEC5
:020C6F00017E04
:020C700001BEC3
:020C710001BEC2
:020C720001BEC1
:020C730001BEC0
:020C740001BEBF
:020C750001BEBE
:020C760001BEBD
:020C770001BEBC
:020C780001BEBB
:020C790001BEBA
:020C7A0001BEB9
:020C7B0001BEB8
:020C7C0001BEB7
:020C7D0001BEB6
:020C7E0001BEB5
:020C7F0001BEB4
:020C800001BCB5
:020C810001BCB4
:020C820001BCB3
:020C830001BCB2
:020C840001BCB1
:020C850001BCB0
:020C860001BBB0
:020C870001BBAF
:020C880001BCAD
:020C890001BCAC
:020C8A00016BFC
:020C8B0000085F
:020C8C0000580E
:020C8D00006005
:020C8E0000B1B3
:020C8F0000B1B2
:020C900000B1B1
:020C910000B1B0
:020C920000B1AF
:020C930000B1AE
:020C940000B1AD
:020C950000B1AC
:020C960000B1AB
:020C970000B1AA
:020C980000F169
:020C990000F168
:020C9A0000F167
:020C9B0000F166
:020C9C0000F165
:020C9D0000F164
:020C9E0000F163
:020C9F0000F162
:020CA00000F161
:020CA10000F160
:020CA20000F15F
:020CA30000F15E
:020CA40000F15D
:020CA50000F15C
:020CA60000F15B
:020CA70000F15A
:020CA80000F159
:020CA90000F158
:020CAA0000F157
:020CAB0000F156
:020CAC0000F155
:020CAD0000F154
:020CAE0000F153
:020CAF0000F152
:020CB00000B191
:020CB10000B190
:020CB20000B18F
:020CB30000B18E
:020CB40000B18D
:020CB50000B18C
:020CB60000B18B
:020CB70000B18A
:020CB80000F149
:020CB90000F148
:020CBA0000F147
:020CBB0000F146
:020CBC0000F145
:020CBD0000F144
:020CBE0000F143
:020CBF0000F142
:020CC00000B181
:020CC10000B180
:020CC20000B17F
:020CC30000B17E
:020CC40000B17D
:020CC50000B17C
:020CC60000B17B
:020CC70000B17A
:020CC80000B179
:020CC90000B178
:020CCA0000B177
:020CCB0000B176
:020CCC0000B175
:020CCD0000B174
:020CCE0000B173
:020CCF0000B172
:020CD00000B171
:020CD10000B170
:020CD20000B16F
:020CD30000B16E
:020CD40000B16D
:020CD50000B16C
:020CD60000B16B
:020CD70000B16A
:020CD80000B169
:020CD90000B168
:020CDA0000B167
:020CDB0000B166
:020CDC0000B165
:020CDD0000B164
:020CDE0000B163
:020CDF0000B162
:020CE00000B161
:020CE10000B160
:020CE200001000
:020CE3000133DB
:020CE4000133DA
:020CE50001729A
:020CE6000132D9
:020CE700013AD0
:020CE8000133D6
:020CE9000133D5
:020CEA000133D4
:020CEB000133D3
:020CEC000133D2
:020CED000133D1
:020CEE000133D0
:020CEF000133CF
:020CF0000132CF
:020CF1000132CE
:020CF2000132CD
:020CF3000132CC
:020CF4000132CB
:020CF5000132CA
:020CF6000132C9
:020CF7000132C8
:020CF8000132C7
:020CF9000132C6
:020CFA000132C5
:020CFB000132C4
:020CFC000132C3
:020CFD000132C2
:020CFE000132C1
:020CFF0000F201
:020D000000F2FF
:020D010000F2FE
:020D020000F2FD
:020D030000F2FC
:020D040000F2FB
:020D050000F2FA
:020D060000F2F9
:020D070000F2F8
:020D080000F2F7
:020D090000F2F6
:020D0A0000F2F5
:020D0B0000F2F4
:020D0C0000F2F3
:020D0D0000F2F2
:020D0E0000F2F1
:020D0F0000F2F0
:020D100000F2EF
:020D110000F2EE
:020D120000F2ED
:020D130000F2EC
:020D140000F2EB
:020D150000F2EA
:020D160000F2E9
:020D170000F2E8
:020D180000F2E7
:020D190000F2E6
:020D1A0000F2E5
:020D1B0000F2E4
:020D1C0000F2E3
:020D1D0000F2E2
:020D1E0000B221
:020D1F0000B220
:020D200000F2DF
:020D210000F2DE
:020D220000B21D
:020D230000B21C
:020D240000B21B
:020D250000F2DA
:020D260000F2D9
:020D270000F2D8
:020D280000F2D7
:020D290000F2D6
:020D2A0000F2D5
:020D2B0000F2D4
:020D2C0000F2D3
:020D2D0000F2D2
:020D2E0000F2D1
:020D2F0000F3CF
:020D300000F3CE
:020D310000F3CD
:020D320000F3CC
:020D330000F3CB
:020D340000F3CA
:020D350000F3C9
:020D360000F3C8
:020D370000F3C7
:020D380000F2C7
:020D390000F3C5
:020D3A0000F3C4
:020D3B0000F3C3
:020D3C0000F3C2
:020D3D0000F3C1
:020D3E0000F3C0
:020D3F0000F3BF
:020D400000F3BE
:020D410000F3BD
:020D420000F3BC
:020D430000F3BB
:020D440000F3BA
:020D450000F3B9
:020D460000F3B8
:020D470000F3B7
:020D480000F3B6
:020D490000F3B5
:020D4A0000F3B4
:020D4B0000F3B3
:020D4C0000F3B2
:020D4D0000F3B1
:020D4E0000F3B0
:020D4F0000F3AF
:020D500000F3AE
:020D510000F3AD
:020D520000F3AC
:020D530000F3AB
:020D540000F3AA
:020D550000F3A9
:020D560000F2A9
:020D570000F2A8
:020D580000F3A6
:020D590000ABED
:020D5A0000AAED
:020D5B0000ABEB
:020D5C0000F3A2
:020D5D0000F3A1
:020D5E0000F3A0
:020D5F0000F39F
:020D600000F39E
:020D610000F39D
:020D620000F39C
:020D630000F39B
:020D640000F39A
:020D650000F399
:020D660000F398
:020D670000F397
:020D680000F396
:020D690000F395
:020D6A0000F394
:020D6B0000F393
:020D6C0000F392
:020D6D0000F391
:020D6E0000EB98
:020D6F0000A2E0
:020D7000005A27
:020D710000512F
:020D7200000877
:020D730000007E
:020D740000007D
:020D750000007C
:020D7600004932
:020D77000092E8
:020D780000DB9E
:020D790000DB9D
:020D7A0000DB9C
:020D7B00016D08
:020D7C00016D07
:020D7D00016D06
:020D7E00016D05
:020D7F00016D04
:020D8000016D03
:020D8100016D02
:020D8200016D01
:020D8300016D00
:020D8400016DFF
:020D8500016DFE
:020D8600016DFD
:020D8700016DFC
:020D8800016DFB
:020D8900016DFA
:020D8A00016DF9
:020D8B00016DF8
:020D8C00012440
:020D8D0000DB89
:020D8E0000DB88
:020D8F0000DB87
:020D9000004918
:020D9100004917
:020D920000005F
:020D930000005E
:020D940000005D
:020D9500000854
:020D9600005902
:020D9700005901
:020D980000A2B7
:020D990000AAAE
:020D9A0000B2A5
:020D9B0000B2A4
:020D9C0000B3A2
:020D9D0000B2A2
:020D9E0000B2A1
:020D9F0000B2A0
:020DA00000B39E
:020DA10000ABA5
:020DA20000F35C
:020DA300013419
:020DA400017DCF
:020DA500017ECD
:020DA600017DCD
:020DA70001BE8B
:020DA80001BE8A
:020DA90001BE89
:020DAA00017EC8
:020DAB0001BE87
:020DAC0001BE86
:020DAD0001BE85
:020DAE0001BE84
:020DAF0001BE83
:020DB00001BE82
:020DB10001BE81
:020DB20001BE80
:020DB30001BE7F
:020DB40001BE7E
:020DB50001BE7D
:020DB60001BE7C
:020DB70001BE7B
:020DB80001BE7A
:020DB90001BE79
:020DBA0001BE78
:020DBB0001BE77
:020DBC0001BE76
:020DBD0001BE75
:020DBE0001BE74
:020DBF0001BE73
:020DC00001BC74
:020DC10001BC73
:020DC20001BC72
:020DC30001BC71
:020DC40001BC70
:020DC50001BB70
:020DC60001BB6F
:020DC70001BB6E
:020DC80001BC6C
:020DC90001BC6B
:020DCA0000E245
:020DCB0000180E
:020DCC0000B174
:020DCD0000F133
:020DCE0000F033
:020DCF0000F82A
:020DD00000B170
:020DD10000B16F
:020DD20000B16E
:020DD30000B16D
:020DD40000B16C
:020DD50000B16B
:020DD60000B16A
:020DD70000B169
:020DD80000B069
:020DD90000B068
:020DDA0000B067
:020DDB0000B066
:020DDC0000B065
:020DDD0000B064
:020DDE0000B063
:020DDF0000B062
:020DE00000B160
:020DE10000B15F
:020DE20000B15E
:020DE30000B15D
:020DE40000B15C
:020DE50000B15B
:020DE60000B15A
:020DE70000B159
:020DE80000B158
:020DE90000B157
:020DEA0000B156
:020DEB0000B155
:020DEC0000B154
:020DED0000B153
:020DEE0000B152
:020DEF0000B151
:020DF00000B150
:020DF10000B14F
:020DF20000B14E
:020DF30000B14D
:020DF40000B14C
:020DF50000B14B
:020DF60000B14A
:020DF70000B149
:020DF80000B148
:020DF90000B147
:020DFA0000B146
:020DFB0000B145
:020DFC0000B144
:020DFD0000B143
:020DFE0000B142
:020DFF0000B141
:020E000000F1FF
:020E010000F1FE
:020E020000F1FD
:020E030000F1FC
:020E040000F1FB
:020E050000F1FA
:020E060000F1F9
:020E070000F1F8
:020E080000B137
:020E090000B136
:020E0A0000B135
:020E0B0000B134
:020E0C0000B133
:020E0D0000B132
:020E0E0000B131
:020E0F0000B130
:020E100000F1EF
:020E110000F1EE
:020E120000F1ED
:020E130000F1EC
:020E140000F1EB
:020E150000F1EA
:020E160000F1E9
:020E170000F1E8
:020E180000F1E7
:020E190000F1E6
:020E1A0000F1E5
:020E1B0000F1E4
:020E1C0000B123
:020E1D0000B122
:020E1E0000B121
:020E1F0000B120
:020E200000F1DF
:020E210000B11E
:020E220000A925
:020E23000010BD
:020E2400013497
:020E2500013298
:020E2600017356
:020E2700013395
:020E2800013394
:020E2900013393
:020E2A00013392
:020E2B00013391
:020E2C00013390
:020E2D0001338F
:020E2E0001338E
:020E2F0001338D
:020E300001328D
:020E310001328C
:020E320001328B
:020E330001328A
:020E3400013289
:020E3500013288
:020E3600013287
:020E3700013286
:020E3800013285
:020E3900013284
:020E3A00013283
:020E3B00013282
:020E3C00013281
:020E3D00013280
:020E3E0001327F
:020E3F0000F2BF
:020E400000F2BE
:020E410000F2BD
:020E420000F2BC
:020E430000F2BB
:020E440000F2BA
:020E450000F2B9
:020E460000F2B8
:020E470000F2B7
:020E480000F2B6
:020E490000F2B5
:020E4A0000F2B4
:020E4B0000F2B3
:020E4C0000F2B2
:020E4D0000F2B1
:020E4E0000F2B0
:020E4F0000F2AF
:020E500000F2AE
:020E510000F2AD
:020E520000F2AC
:020E530000F2AB
:020E540000F2AA
:020E550000F2A9
:020E560000F2A8
:020E570000F2A7
:020E580000F2A6
:020E590000F2A5
:020E5A0000F2A4
:020E5B0000F2A3
:020E5C0000F2A2
:020E5D0000F2A1
:020E5E0000B2E0
:020E5F0000B2DF
:020E600000F29E
:020E610000F29D
:020E620000B2DC
:020E630000B2DB
:020E640000B2DA
:020E650000F299
:020E660000F298
:020E670000F297
:020E680000F296
:020E690000F295
:020E6A0000F294
:020E6B0000F293
:020E6C0000F292
:020E6D0000F291
:020E6E0000F290
:020E6F0000F38E
:020E700000F38D
:020E710000F38C
:020E720000F38B
:020E730000F38A
:020E740000F389
:020E750000F388
:020E760000F387
:020E770000F386
:020E780000F385
:020E790000F384
:020E7A0000F383
:020E7B0000F382
:020E7C0000F381
:020E7D0000F380
:020E7E0000F37F
:020E7F0000F37E
:020E800000F37D
:020E810000F37C
:020E820000F37B
:020E830000F37A
:020E840000F379
:020E850000F378
:020E860000F377
:020E870000F376
:020E880000F375
:020E890000F374
:020E8A0000F373
:020E8B0000F372
:020E8C0000F371
:020E8D0000F370
:020E8E0000F36F
:020E8F0000F36E
:020E900000F36D
:020E910000F36C
:020E920000F36B
:020E930000F36A
:020E940000F369
:020E950000F368
:020E960000F367
:020E970000F366
:020E980000F365
:020E990000ABAC
:020E9A0000AAAC
:020E9B0000ABAA
:020E9C0000F361
:020E9D0000F360
:020E9E0000F35F
:020E9F0000F35E
:020EA00000F35D
:020EA10000F35C
:020EA20000F35B
:020EA30000F35A
:020EA40000F359
:020EA50000F358
:020EA60000F357
:020EA70000F356
:020EA80000F355
:020EA90000F354
:020EAA0000AA9C
:020EAB0000A2A3
:020EAC000051F3
:020EAD0000083B
:020EAE00000042
:020EAF000049F8
:020EB0000092AE
:020EB10000DB64
:020EB200016DD0
:020EB30001B686
:020EB40001FF3C
:020EB50001FF3B
:020EB60001FF3A
:020EB70001FF39
:020EB80001FF38
:020EB90001FF37
:020EBA0001FF36
:020EBB0001FF35
:020EBC0001FF34
:020EBD0001FF33
:020EBE0001FF32
:020EBF0001FF31
:020EC00001FF30
:020EC10001FF2F
:020EC20001FF2E
:020EC30001FF2D
:020EC40001FF2C
:020EC50001FF2B
:020EC60001FF2A
:020EC70001FF29
:020EC80001FF28
:020EC90001FF27
:020ECA0001FF26
:020ECB0001FF25
:020ECC0001FF24
:020ECD0001FF23
:020ECE0001FF22
:020ECF0001FF21
:020ED00001FF20
:020ED10001FF1F
:020ED20001FF1E
:020ED30001FF1D
:020ED400016DAE
:020ED500016DAD
:020ED60000DB3F
:020ED700009287
:020ED8000049CF
:020ED900000017
:020EDA0000080E
:020EDB000051C4
:020EDC000062B2
:020EDD0000AA69
:020EDE0000B35F
:020EDF0000B35E
:020EE00000F31D
:020EE10000EB24
:020EE20000F41A
:020EE300013DCF
:020EE400017D8E
:020EE500017E8C
:020EE600017D8C
:020EE70001BE4A
:020EE80001BE49
:020EE90001BE48
:020EEA0001BE47
:020EEB0001BE46
:020EEC0001BE45
:020EED0001BE44
:020EEE0001BE43
:020EEF0001BE42
:020EF00001BE41
:020EF10001BE40
:020EF20001BE3F
:020EF30001BE3E
:020EF40001BE3D
:020EF50001BE3C
:020EF60001BE3B
:020EF70001BE3A
:020EF80001BE39
:020EF90001BE38
:020EFA0001BE37
:020EFB0001BE36
:020EFC0001BE35
:020EFD0001BE34
:020EFE0001BE33
:020EFF0001BE32
:020F000001BC32
:020F010001BC31
:020F020001BC30
:020F030001BC2F
:020F040001BC2E
:020F050001BC2D
:020F060001BC2C
:020F070001BB2C
:020F080001BB2B
:020F090001B332
:020F0A0000489D
:020F0B00006084
:020F0C0000B132
:020F0D0000B131
:020F0E0000B130
:020F0F0000B12F
:020F100000B12E
:020F110000B12D
:020F120000B12C
:020F130000B12B
:020F140000B12A
:020F150000B129
:020F160000B128
:020F170000B127
:020F180000B126
:020F190000B125
:020F1A0000B124
:020F1B0000B123
:020F1C0000B122
:020F1D0000B121
:020F1E0000B120
:020F1F0000B11F
:020F200000B11E
:020F210000B11D
:020F220000B11C
:020F230000B11B
:020F240000B11A
:020F250000B119
:020F260000B118
:020F270000B117
:020F280000B116
:020F290000B115
:020F2A0000B114
:020F2B0000B113
:020F2C0000B112
:020F2D0000B111
:020F2E0000B110
:020F2F0000B10F
:020F300000B10E
:020F310000B10D
:020F320000B10C
:020F330000B10B
:020F340000B10A
:020F350000B109
:020F360000B108
:020F370000B107
:020F380000B106
:020F390000B105
:020F3A0000B104
:020F3B0000B103
:020F3C0000B102
:020F3D0000B101
:020F3E0000B100
:020F3F0000B1FF
:020F400000F1BE
:020F410000F1BD
:020F420000F1BC
:020F430000F1BB
:020F440000F1BA
:020F450000F1B9
:020F460000F1B8
:020F470000F1B7
:020F480000B1F6
:020F490000B1F5
:020F4A0000B1F4
:020F4B0000B1F3
:020F4C0000B1F2
:020F4D0000B1F1
:020F4E0000B1F0
:020F4F0000B1EF
:020F500000B1EE
:020F510000B1ED
:020F520000B1EC
:020F530000B1EB
:020F540000B1EA
:020F550000B1E9
:020F560000B1E8
:020F570000B1E7
:020F580000B1E6
:020F590000B1E5
:020F5A0000B1E4
:020F5B0000B1E3
:020F5C0000B1E2
:020F5D0000B1E1
:020F5E0000B1E0
:020F5F0000B1DF
:020F600000B0DF
:020F610000B1DD
:020F620000F19C
:020F6300005834
:020F640000E2A9
:020F6500017316
:020F6600013355
:020F6700013354
:020F6800013353
:020F6900013352
:020F6A00013351
:020F6B00013350
:020F6C0001334F
:020F6D0001334E
:020F6E0001334D
:020F6F0001334C
:020F700001324C
:020F710001324B
:020F720001324A
:020F7300013249
:020F7400013248
:020F7500013247
:020F7600013246
:020F7700013245
:020F7800013244
:020F7900013243
:020F7A00013242
:020F7B00013241
:020F7C00013240
:020F7D0001323F
:020F7E0001323E
:020F7F0001323D
:020F800000F27D
:020F810000F27C
:020F820000F27B
:020F830000F27A
:020F840000F279
:020F850000F278
:020F860000F277
:020F870000F276
:020F880000F275
:020F890000F274
:020F8A0000F273
:020F8B0000F272
:020F8C0000F271
:020F8D0000F270
:020F8E0000F26F
:020F8F0000F26E
:020F900000F26D
:020F910000F26C
:020F920000F26B
:020F930000F26A
:020F940000F269
:020F950000F268
:020F960000F267
:020F970000F266
:020F980000F265
:020F990000F264
:020F9A0000F263
:020F9B0000F262
:020F9C0000F261
:020F9D0000F260
:020F9E0000B29F
:020F9F0000B29E
