:0200000001FFFE
:0200010000DB22
:020002000049B3
:02000300009269
:02000400009268
:02000500009267
:020006000049AF
:02000700009265
:02000800009264
:020009000049AC
:02000A00009262
:02000B00009261
:02000C00009260
:02000D00004AA7
:02000E00008A66
:02000F0000529D
:020010000049A5
:0200110000529B
:0200120000925A
:02001300005299
:02001400009258
:020015000049A0
:0200160000499F
:0200170000499E
:0200180000499D
:02001900009253
:02001A0000499B
:02001B0000499A
:02001C00004999
:02001D00004998
:02001E00004997
:02001F0000528D
:0200200000528C
:02002100004994
:0200220000924A
:02002300009249
:02002400004991
:02002500009247
:0200260000894F
:02002700009245
:02002800009244
:0200290000498C
:02002A0000DBF9
:02002B0001FFD3
:02002C00009240
:02002D000000D1
:02002E000000D0
:02002F000000CF
:020030000000CE
:020031000000CD
:020032000000CC
:020033000000CB
:020034000000CA
:020035000000C9
:020036000000C8
:020037000000C7
:020038000000C6
:020039000000C5
:02003A000000C4
:02003B000000C3
:02003C000000C2
:02003D000000C1
:02003E000000C0
:02003F000000BF
:020040000000BE
:020041000000BD
:020042000000BC
:020043000000BB
:020044000000BA
:020045000000B9
:020046000000B8
:020047000000B7
:020048000000B6
:020049000000B5
:02004A000000B4
:02004B000000B3
:02004C000000B2
:02004D000000B1
:02004E000000B0
:02004F000000AF
:020050000000AE
:020051000000AD
:020052000000AC
:020053000000AB
:020054000000AA
:020055000000A9
:020056000000A8
:0200570000DBCC
:020058000000A6
:020059000000A5
:02005A000000A4
:02005B0000495A
:02005C00004959
:02005D00004958
:02005E00004957
:02005F00004956
:02006000004955
:02006100004954
:02006200004953
:02006300004952
:02006400004951
:02006500004950
:0200660000494F
:0200670000494E
:0200680000494D
:0200690000494C
:02006A0000494B
:02006B0000494A
:02006C00004949
:02006D00004948
:02006E00004947
:02006F00004946
:02007000004945
:02007100004944
:02007200004943
:02007300004942
:02007400004941
:02007500004940
:0200760000493F
:0200770000493E
:0200780000493D
:0200790000493C
:02007A0000493B
:02007B0000493A
:02007C00004939
:02007D00004938
:02007E00004937
:02007F00004936
:02008000004935
:0200810000007D
:0200820000007C
:02008300004932
:0200840000007A
:02008500000079
:02008600012453
:02008700016E08
:02008800016D08
:02008900016D07
:02008A00016D06
:02008B00016D05
:02008C00016D04
:02008D00016D03
:02008E00016D02
:02008F00016D01
:02009000016D00
:02009100016DFF
:02009200016DFE
:02009300016DFD
:02009400016DFC
:02009500016DFB
:02009600016DFA
:02009700016DF9
:02009800016DF8
:02009900012D37
:02009A00012D36
:02009B00016DF5
:02009C00016DF4
:02009D0001253B
:02009E0001253A
:02009F00012539
:0200A000012538
:0200A100012537
:0200A200012536
:0200A300012535
:0200A400012534
:0200A500012533
:0200A600012532
:0200A700012531
:0200A800012530
:0200A90001252F
:0200AA0001252E
:0200AB00012D25
:0200AC00016EE3
:0200AD00000051
:0200AE00000050
:0200AF000092BD
:0200B00000004E
:0200B10000004D
:0200B20000DC70
:0200B300012426
:0200B400016DDC
:0200B500012424
:0200B600012D1A
:0200B700016DD9
:0200B800012D18
:0200B900016DD7
:0200BA0001251E
:0200BB0001241E
:0200BC0001241D
:0200BD0001251B
:0200BE00016DD2
:0200BF0001241A
:0200C000016DD0
:0200C100016DCF
:0200C200016DCE
:0200C300016DCD
:0200C400012514
:0200C500016DCB
:0200C600012D0A
:0200C700012D09
:0200C800016DC8
:0200C900016DC7
:0200CA00016DC6
:0200CB00012D05
:0200CC00016DC4
:0200CD00012D03
:0200CE00012D02
:0200CF0001240A
:0200D000012D00
:0200D100016DBF
:0200D200016EBD
:0200D300016DBD
:0200D400016EBB
:0200D500016DBB
:0200D600016DBA
:0200D70000DC4B
:0200D8000176AF
:0200D900000025
:0200DA00000024
:0200DB00009291
:0200DC00000022
:0200DD00000021
:0200DE0000DB45
:0200DF000124FA
:0200E00001B667
:0200E1000124F8
:0200E200016DAE
:0200E3000125F5
:0200E4000124F5
:0200E50001B662
:0200E60001B661
:0200E70001BF57
:0200E800016EA7
:0200E900016DA7
:0200EA000124EF
:0200EB000125ED
:0200EC00016EA3
:0200ED00016DA3
:0200EE00016DA2
:0200EF0000DC33
:0200F000016E9F
:0200F10000DB32
:0200F2000124E7
:0200F300016D9D
:0200F40000DC2E
:0200F500012DDB
:0200F600016D9A
:0200F70001B650
:0200F80000DB2B
:0200F9000125DF
:0200FA00016E95
:0200FB0001B74B
:0200FC0001B64B
:0200FD0001B749
:0200FE00016D92
:0200FF000124DA
:02010000017686
:020101000124D7
:02010200016D8D
:02010300012DCC
:02010400016E8A
:020105000000F8
:020106000000F7
:02010700009264
:020108000000F5
:020109000000F4
:02010A0000DB18
:02010B000124CD
:02010C00016D83
:02010D00016D82
:02010E0000935C
:02010F0001B736
:0201100001B636
:0201110000DB11
:020112000049A2
:0201130000DC0E
:02011400009356
:0201150001B730
:02011600016E78
:02011700016E77
:0201180000DB0A
:020119000124BF
:02011A00016D75
:02011B000124BD
:02011C0001B729
:02011D000124BB
:02011E00016D71
:02011F0001B726
:0201200000DB02
:0201210001BF1C
:02012200004992
:020123000124B5
:0201240001B622
:0201250001B720
:020126000124B2
:02012700009244
:0201280000DBFA
:02012900009242
:02012A00016D65
:02012B0001FFD2
:02012C0000DCF5
:02012D000125AA
:02012E00016D61
:02012F000124A9
:02013000016E5E
:020131000000CC
:020132000000CB
:02013300009238
:020134000000C9
:020135000000C8
:0201360000DBEC
:020137000124A1
:020138000124A0
:0201390000DBE9
:02013A0001FFC3
:02013B0000DBE7
:02013C000000C1
:02013D00004977
:02013E00016D51
:02013F00012598
:02014000016D4F
:020141000000BC
:02014200012496
:0201430001B603
:0201440000DCDD
:0201450000DCDC
:02014600012D89
:0201470001B6FF
:0201480001B6FE
:0201490001248F
:02014A00012D85
:02014B0001BFF2
:02014C00012D83
:02014D0001248B
:02014E0000DCD3
:02014F00016D40
:0201500001B6F6
:020151000000AC
:02015200012585
:02015300016D3C
:02015400012484
:0201550000DBCD
:020156000000A7
:0201570000495D
:0201580001FFA5
:02015900016D36
:02015A0000DBC8
:02015B00016D34
:02015C00016E32
:02015D000000A0
:02015E0000009F
:02015F0000920C
:0201600000009D
:0201610000009C
:0201620000DBC0
:02016300012475
:02016400016D2B
:02016500012473
:02016600012472
:02016700012471
:02016800009203
:02016900000193
:02016A00005241
:02016B00012D64
:02016C00000091
:02016D00000090
:02016E0000DBB4
:02016F00012568
:0201700001B6D6
:02017100016D1E
:0201720000DBB0
:02017300012465
:0201740001B7D1
:02017500012463
:02017600017610
:02017700016E17
:0201780000DBAA
:0201790001245F
:02017A0001BFC3
:02017B00016E13
:02017C000092EF
:02017D000093ED
:02017E0000007F
:02017F000092EC
:02018000012557
:0201810000007C
:02018200004932
:02018300012455
:020184000093E6
:02018500016E09
:02018600012551
:02018700012550
:02018800016D07
:02018900000074
:02018A00000073
:02018B000092E0
:02018C00000071
:02018D00000070
:02018E0000DB94
:02018F00012449
:02019000012448
:0201910001B6B5
:0201920000DB90
:0201930000006A
:02019400012444
:0201950000DC8C
:0201960000491E
:0201970000491D
:02019800000164
:02019900016DF6
:02019A0000491A
:02019B00004919
:02019C0001BFA1
:02019D0001BFA0
:02019E0001FF5F
:02019F0000DC82
:0201A000012438
:0201A100016DEE
:0201A20001B6A4
:0201A3000092C8
:0201A40001B7A1
:0201A50001BF98
:0201A60001B79F
:0201A70000DC7A
:0201A800000055
:0201A90001242F
:0201AA0000DB78
:0201AB00000052
:0201AC000093BE
:0201AD0000DB75
:0201AE0000DB74
:0201AF000092BC
:0201B0000092BB
:0201B100016EDD
:0201B200012426
:0201B300012425
:0201B400016EDA
:0201B500000048
:0201B600000047
:0201B7000092B4
:0201B800000045
:0201B900000044
:0201BA0000DB68
:0201BB0001241D
:0201BC00016DD3
:0201BD00016DD2
:0201BE0001241A
:0201BF0000DB63
:0201C000012517
:0201C1000093A9
:0201C200012416
:0201C3000049F1
:0201C400012414
:0201C50000E454
:0201C600012412
:0201C700004AEC
:0201C8000176BE
:0201C90001240F
:0201CA00016DC5
:0201CB0001B77A
:0201CC00016DC3
:0201CD00016DC2
:0201CE0001240A
:0201CF0001B776
:0201D000016DBF
:0201D100012DFE
:0201D200012DFD
:0201D300009B8F
:0201D400012404
:0201D50000E444
:0201D600012501
:0201D700009294
:0201D800009293
:0201D900009B89
:0201DA00016EB4
:0201DB000124FD
:0201DC000124FC
:0201DD00016DB2
:0201DE000125F9
:0201DF000125F8
:0201E000016EAE
:0201E10000001C
:0201E20000001B
:0201E300009288
:0201E400000019
:0201E500000018
:0201E60000DB3C
:0201E7000124F1
:0201E80000DB3A
:0201E900016DA6
:0201EA00009281
:0201EB000124ED
:0201EC0000937E
:0201ED000124EB
:0201EE0000927D
:0201EF0000927C
:0201F00000000D
:0201F10000DB31
:0201F2000124E6
:0201F300009278
:0201F40001B751
:0201F5000124E3
:0201F6000124E2
:0201F70001768F
:0201F80000DC29
:0201F90000E420
:0201FA0000DB28
:0201FB0001B64B
:0201FC000124DC
:0201FD0000DB25
:0201FE0001FFFF
:0201FF0000DB23
:0202000000E418
:020201000124D6
:020202000049B1
:020203000000F9
:0202040000DB1D
:02020500012DC9
:0202060000DB1B
:02020700016D87
:02020800009361
:020209000124CE
:02020A0000DB17
:02020B000124CC
:02020C00016E81
:02020D000000EF
:02020E000000EE
:02020F0000925B
:020210000000EC
:020211000000EB
:0202120000DB0F
:020213000124C4
:020214000125C2
:02021500016D79
:0202160000499D
:0202170000DB0A
:020218000000E4
:020219000124BE
:02021A0000DC06
:02021B000000E1
:02021C00004997
:02021D000124BA
:02021E0000924C
:02021F00009B42
:0202200001B625
:0202210001B624
:0202220000E4F6
:0202230000DBFE
:0202240001B621
:020225000125B1
:0202260001B61F
:020227000124B0
:0202280000DBF9
:0202290001B61C
:02022A00016E63
:02022B0000DCF5
:02022C0000DBF5
:02022D0000DBF4
:02022E0000DCF2
:02022F000000CD
:020230000124A7
:0202310000DBF0
:02023200009337
:02023300009237
:02023400009335
:02023500012D99
:0202360000DBEB
:02023700012D97
:02023800016E55
:020239000000C3
:02023A000000C2
:02023B0000922F
:02023C000000C0
:02023D000000BF
:02023E0000DBE3
:02023F00012498
:02024000016D4E
:02024100012496
:02024200012594
:0202430000DBDE
:02024400009325
:0202450000DBDC
:02024600012491
:0202470000DCD9
:0202480001248F
:0202490000DBD8
:02024A0000DBD7
:02024B0001258B
:02024C00016D42
:02024D0000921D
:02024E0001B6F7
:02024F00016E3E
:02025000016D3E
:02025100009219
:02025200012485
:0202530001B7F1
:02025400016E39
:0202550000DBCC
:02025600012481
:0202570001B6EE
:02025800009311
:0202590000DBC8
:02025A0000DBC7
:02025B0001247C
:02025C0001257A
:02025D0000DBC4
:02025E0000DBC3
:02025F0000DBC2
:0202600000DBC1
:0202610001B6E4
:02026200012475
:02026300012474
:02026400016E29
:02026500000097
:02026600000096
:02026700009203
:02026800000094
:02026900000093
:02026A0000DBB7
:02026B0001246C
:02026C00016D22
:02026D0001246A
:02026E00016E1F
:02026F000092FB
:020270000092FA
:0202710000DBB0
:0202720000DBAF
:0202730000DBAE
:020274000092F6
:0202750000DBAC
:0202760000493D
:0202770001B6CE
:0202780001B6CD
:0202790001B6CC
:02027A0001B6CB
:02027B00016D13
:02027C0001245B
:02027D0001245A
:02027E00012459
:02027F00012458
:0202800001B6C5
:02028100016E0C
:0202820001B7C2
:0202830001B6C2
:020284000092E6
:020285000092E5
:0202860000DB9B
:0202870000DB9A
:0202880000DB99
:0202890000E48F
:02028A000092E0
:02028B000092DF
:02028C00016E01
:02028D0000E48B
:02028E00012548
:02028F00012547
:02029000016EFD
:0202910000006B
:0202920000006A
:020293000092D7
:02029400000068
:02029500000067
:0202960000DB8B
:02029700012440
:0202980001B6AD
:0202990001243E
:02029A0001243D
:02029B0001FF61
:02029C0001243B
:02029D000093CC
:02029E00004915
:02029F000092CB
:0202A00000DB81
:0202A100016DED
:0202A20001FF5A
:0202A300000059
:0202A400012433
:0202A500004A0D
:0202A6000092C4
:0202A70000DC79
:0202A800012D26
:0202A90001242E
:0202AA00016DE4
:0202AB0001242C
:0202AC00009BB5
:0202AD000092BD
:0202AE0000DB73
:0202AF00004904
:0202B000012427
:0202B10001B694
:0202B200012425
:0202B3000092B7
:0202B4000092B6
:0202B5000092B5
:0202B6000092B4
:0202B70001B78D
:0202B800016ED5
:0202B90001241E
:0202BA000176CB
:0202BB0001251B
:0202BC00016ED1
:0202BD0000003F
:0202BE0000003E
:0202BF000092AB
:0202C00000003C
:0202C10000003B
:0202C20000DB5F
:0202C300012414
:0202C400016DCA
:0202C50000DB5C
:0202C600016DC8
:0202C70001B67E
:0202C80001B77C
:0202C900016DC5
:0202CA0001B67B
:0202CB00016DC3
:0202CC0001BF70
:0202CD00016DC1
:0202CE000049E5
:0202CF00012507
:0202D00000002C
:0202D10001B674
:0202D20001B772
:0202D30001FF29
:0202D400012502
:0202D500009295
:0202D60000DB4B
:0202D70001FF25
:0202D80001B76C
:0202D90001FF23
:0202DA000049D9
:0202DB000124FC
:0202DC0000928E
:0202DD0000DB44
:0202DE0001FF1E
:0202DF000176A6
:0202E000016DAE
:0202E100016DAD
:0202E20001FF1A
:0202E30001B662
:0202E400016DAA
:0202E5000125F1
:0202E60000E432
:0202E7000125EF
:0202E800016DA6
:0202E900000013
:0202EA00000012
:0202EB0000927F
:0202EC00000010
:0202ED0000000F
:0202EE0000DB33
:0202EF000124E8
:0202F00001B655
:0202F1000049C2
:0202F20001B653
:0202F30000DB2E
:0202F40000DC2C
:0202F50000DB2C
:0202F600016E97
:0202F70001BF45
:0202F8000049BB
:0202F900009271
:0202FA0001FF02
:0202FB0001FF01
:0202FC0001B649
:0202FD000000FF
:0202FE00016E8F
:0202FF0000DC21
:0203000000DB20
:0203010000DB1F
:0203020000DB1E
:02030300009266
:0203040001FFF7
:020305000000F6
:020306000125CF
:0203070001BF34
:0203080001FFF3
:02030900016D84
:02030A000049A8
:02030B00016E81
:02030C0001B737
:02030D0000E40A
:02030E0000E409
:02030F000124C7
:02031000016D7D
:0203110000DB0F
:020312000125C3
:020313000125C2
:02031400016D79
:020315000000E6
:020316000000E5
:02031700009252
:020318000000E3
:020319000000E2
:02031A0000DB06
:02031B000124BB
:02031C000125B9
:02031D00016D70
:02031E00016D6F
:02031F0000DB01
:02032000016D6D
:02032100016E6B
:0203220001B622
:020323000000D8
:02032400016E68
:0203250001FFD6
:020326000124B0
:0203270000498B
:0203280001BF13
:0203290001B71A
:02032A00004988
:02032B00004987
:02032C00004986
:02032D0000DBF3
:02032E00009B32
:02032F0000923A
:020330000000CB
:02033100016D5C
:0203320001FFC9
:020333000124A3
:0203340000497E
:0203350001FFC6
:0203360001FFC5
:02033700009232
:0203380001249E
:0203390001B60B
:02033A0001B60A
:02033B0000DBE5
:02033C0000E4DB
:02033D0001FFBE
:02033E0000E4D9
:02033F00012497
:02034000016D4D
:020341000000BA
:020342000000B9
:02034300009226
:020344000000B7
:020345000000B6
:0203460000DBDA
:0203470001248F
:0203480001248E
:0203490001248D
:02034A0000E4CD
:02034B0001B7F8
:02034C00016E40
:02034D0001B6F7
:02034E000000AD
:02034F0001B6F5
:02035000016E3C
:02035100016D3C
:02035200016E3A
:02035300016E39
:02035400016D39
:02035500016D38
:0203560000495C
:02035700009212
:0203580000DBC8
:0203590001247D
:02035A0000DBC6
:02035B0000920E
:02035C0000DBC4
:02035D0000DBC3
:02035E00016D2F
:02035F00016D2E
:02036000016D2D
:02036100016D2C
:02036200016D2B
:0203630001B6E1
:0203640000DBBC
:0203650000DBBB
:0203660001B7DD
:0203670001B6DD
:02036800016E24
:0203690000DBB7
:02036A0001246C
:02036B0001256A
:02036C00016D21
:02036D0000008E
:02036E0000008D
:02036F000092FA
:0203700000008B
:0203710000008A
:0203720000DBAE
:02037300012463
:02037400016D19
:02037500012461
:0203760000DBAA
:0203770000DBA9
:0203780001B7CB
:02037900000082
:02037A0001FF81
:02037B0000017F
:02037C000092ED
:02037D000092EC
:02037E00004934
:02037F0000017B
:02038000004932
:02038100004931
:02038200009BDE
:0203830001B6C1
:0203840001FF77
:02038500012451
:0203860001FF75
:0203870001BFB4
:0203880000E48F
:020389000092E0
:02038A00000071
:02038B00004927
:02038C00004926
:02038D000092DC
:02038E0000DB92
:02038F0000006C
:0203900001B6B4
:0203910000DB8F
:02039200012444
:02039300016DFA
:0203940000DB8C
:02039500016EF7
:0203960000DB8A
:02039700012D36
:02039800016DF5
:02039900000062
:02039A00000061
:02039B000092CE
:02039C0000005F
:02039D0000005E
:02039E0000DB82
:02039F00012437
:0203A000016DED
:0203A100012435
:0203A20000E475
:0203A30001B6A1
:0203A40000490E
:0203A50001B69F
:0203A60001B79D
:0203A700004A0A
:0203A8000092C1
:0203A900000052
:0203AA0000DB76
:0203AB0000DB75
:0203AC00016EE0
:0203AD0001FF4E
:0203AE0000DC71
:0203AF00012427
:0203B000012426
:0203B100016DDC
:0203B200012523
:0203B300012522
:0203B40000DB6C
:0203B50001B68F
:0203B60001BF85
:0203B70001241F
:0203B80000DB68
:0203B9000049F9
:0203BA000049F8
:0203BB000092AE
:0203BC00016ED0
:0203BD0001FF3E
:0203BE000049F4
:0203BF0001B685
:0203C000012416
:0203C100012D0C
:0203C200012414
:0203C300012413
:0203C400016EC8
:0203C500000036
:0203C600000035
:0203C7000092A2
:0203C800000033
:0203C900000032
:0203CA0000DB56
:0203CB0001240B
:0203CC0001240A
:0203CD000049E5
:0203CE0001FF2D
:0203CF00012407
:0203D00000DB50
:0203D10001B673
:0203D20001B771
:0203D3000049DF
:0203D400009295
:0203D50000DB4B
:0203D600012400
:0203D700016DB6
:0203D8000124FE
:0203D9000125FC
:0203DA0001B769
:0203DB0001B768
:0203DC0001B767
:0203DD00004AD4
:0203DE00016DAF
:0203DF0001B665
:0203E00001FF1B
:0203E100016DAC
:0203E200016DAB
:0203E3000124F3
:0203E40001B660
:0203E50000DB3B
:0203E600009283
:0203E700004ACA
:0203E800016EA4
:0203E90001B65B
:0203EA0001B65A
:0203EB000049C7
:0203EC0001FF0F
:0203ED000125E8
:0203EE000049C4
:0203EF00016D9E
:0203F000016D9D
:0203F10000000A
:0203F200000009
:0203F300009276
:0203F400000007
:0203F500000006
:0203F60000DB2A
:0203F7000124DF
:0203F800016D95
:0203F90000DB27
:0203FA0001B64A
:0203FB00000000
:0203FC0001FFFF
:0203FD0001B647
:0203FE0001B745
:0203FF000049B3
:02040000009268
:0204010000DB1E
:0204020001FFF8
:020403000124D2
:02040400009264
:02040500009263
:020406000049AB
:02040700012DC5
:0204080001BF32
:0204090000925F
:02040A00016D82
:02040B0001B638
:02040C0000925C
:02040D0000DB12
:02040E0000925A
:02040F000124C6
:0204100001B633
:0204110001B632
:02041200009256
:0204130000499E
:02041400016E77
:0204150001B62E
:0204160001FFE4
:0204170000DB08
:02041800016D74
:02041900016D73
:02041A000124BB
:02041B000124BA
:02041C00016D70
:02041D000000DD
:02041E000000DC
:02041F00009249
:020420000000DA
:020421000000D9
:0204220000DBFD
:020423000124B2
:02042400009244
:0204250000DBFA
:020426000124AF
:0204270000DBF8
:02042800016D64
:02042900004988
:02042A0001FFD0
:02042B0000923D
:02042C00004985
:02042D000124A8
:02042E000124A7
:02042F0000DBF0
:02043000004981
:02043100009237
:020432000124A3
:020433000000C7
:020434000124A1
:0204350001B70D
:0204360001B60D
:020437000000C3
:0204380000DCE6
:0204390000DBE6
:02043A00004977
:02043B0000922D
:02043C00012499
:02043D00012498
:02043E00012497
:02043F00004972
:0204400001B603
:02044100012494
:0204420000DBDD
:0204430001B7FF
:02044400004A6C
:02044500016D47
:02044600009222
:0204470001248E
:02044800016E43
:020449000000B1
:02044A000000B0
:02044B0000921D
:02044C000000AE
:02044D000000AD
:02044E0000DBD1
:02044F00012486
:0204500000DBCF
:0204510001B6F2
:0204520000495F
:0204530001B6F0
:0204540001B6EF
:02045500012480
:0204560001FFA4
:020457000000A3
:02045800016D34
:02045900016D33
:02045A00016D32
:02045B0000009F
:02045C0000DCC2
:02045D0000920B
:02045E0000920A
:02045F00004952
:02046000004951
:0204610001BFD9
:0204620000DBBD
:02046300000097
:02046400009204
:02046500009302
:0204660000DBB9
:0204670000494A
:0204680000DBB7
:0204690001246C
:02046A0001FF90
:02046B0000008F
:02046C0001B6D7
:02046D00017616
:02046E00016D1E
:02046F0001BFCB
:02047000004A40
:0204710001FF89
:020472000092F6
:02047300016D19
:02047400016D18
:02047500000085
:02047600000084
:020477000092F1
:02047800000082
:02047900000081
:02047A0000DBA5
:02047B0001245A
:02047C00012459
:02047D0001B6C6
:02047E00004933
:02047F0001B7C3
:0204800001B6C3
:0204810001B6C2
:02048200000078
:0204830000492E
:02048400012550
:02048500012450
:02048600016E05
:0204870000492A
:0204880001244D
:020489000092DF
:02048A00000070
:02048B0000DB94
:02048C000092DC
:02048D0001B7B5
:02048E0000DC90
:02048F0000DB90
:02049000004921
:02049100000069
:02049200012542
:020493000092D5
:0204940000DB8B
:02049500016DF7
:0204960001253E
:020497000093D0
:02049800004919
:0204990001243C
:02049A0001B7A8
:02049B0001B6A8
:02049C0000DC82
:02049D00012537
:02049E00012437
:02049F00012535
:0204A000016DEC
:0204A100000059
:0204A200000058
:0204A3000092C5
:0204A400000056
:0204A500000055
:0204A60000DB79
:0204A70001242E
:0204A80001242D
:0204A90001B69A
:0204AA000092BE
:0204AB0001B797
:0204AC00016DE0
:0204AD0000004D
:0204AE0000DB71
:0204AF0000DB70
:0204B00001B693
:0204B100012424
:0204B20001B790
:0204B3000092B5
:0204B4000093B3
:0204B5000049FC
:0204B60000DB69
:0204B7000049FA
:0204B800016DD4
:0204B90001B68A
:0204BA0001B689
:0204BB000049F6
:0204BC0000DB63
:0204BD000092AB
:0204BE0000DB61
:0204BF000049F2
:0204C0000176C3
:0204C10001B781
:0204C200012413
:0204C300016DC9
:0204C40000DB5B
:0204C5000049EC
:0204C60001240F
:0204C70001FF33
:0204C800016DC4
:0204C90000DB56
:0204CA0001240B
:0204CB00012509
:0204CC00016DC0
:0204CD0000002D
:0204CE0000002C
:0204CF00009299
:0204D00000002A
:0204D100000029
:0204D20000DB4D
:0204D300012402
:0204D400012DF8
:0204D500016DB7
:0204D60000DB49
:0204D700016EB4
:0204D800009290
:0204D90000928F
:0204DA0000928E
:0204DB00016DB1
:0204DC000125F8
:0204DD0001B666
:0204DE0001B764
:0204DF0001B664
:0204E00000DB3F
:0204E100009287
:0204E200009286
:0204E3000125F1
:0204E4000049CD
:0204E50001B75D
:0204E600009282
:0204E7000124EE
:0204E800009280
:0204E90000927F
:0204EA0000DB35
:0204EB00016DA1
:0204EC0001FF0E
:0204ED0001B755
:0204EE000125E6
:0204EF0001B753
:0204F000009377
:0204F1000049C0
:0204F200009276
:0204F3000124E2
:0204F40001B74E
:0204F500009273
:0204F600016D96
:0204F7000125DD
:0204F800016D94
:0204F900000001
:0204FA00000000
:0204FB0000926D
:0204FC000000FE
:0204FD000000FD
:0204FE0000DB21
:0204FF000124D6
:020500000124D4
:0205010000DB1D
:0205020000DB1C
:020503000052A4
:02050400009263
:0205050000DB19
:02050600009360
:020507000124CD
:0205080000DB16
:0205090001B639
:02050A000000EF
:02050B00016E7F
:02050C0001B735
:02050D0001FFEC
:02050E0001B733
:02050F0001B633
:0205100001B731
:0205110000499F
:020512000124C2
:0205130001B72E
:0205140001B72D
:0205150001FFE4
:0205160001B72B
:0205170001FFE2
:020518000000E1
:0205190000DB05
:02051A00016D71
:02051B000124B9
:02051C000124B8
:02051D00009349
:02051E0000DB00
:02051F00009248
:020520000124B4
:02052100009246
:020522000124B2
:020523000124B1
:02052400016D67
:020525000000D4
:020526000000D3
:02052700009240
:020528000000D1
:020529000000D0
:02052A0000DBF4
:02052B000124A9
:02052C00016D5F
:02052D000125A6
:02052E0000DBF0
:02052F000124A5
:02053000009237
:02053100009335
:0205320000DBEC
:02053300016D58
:020534000124A0
:0205350001B60D
:0205360001259D
:0205370001BF02
:0205380001249C
:0205390000DBE5
:02053A0000DBE4
:02053B0001B607
:02053C00004974
:02053D00016D4E
:02053E00004972
:02053F0001B603
:02054000012494
:0205410000DBDD
:0205420000DBDC
:0205430001B6FF
:02054400016D47
:0205450001B6FD
:0205460001248E
:0205470001BFF2
:0205480000921F
:0205490000921E
:02054A0000DBD4
:02054B0000921C
:02054C0001B6F6
:02054D0000921A
:02054E00016D3D
:02054F00012485
:02055000016D3B
:020551000000A8
:020552000000A7
:02055300009214
:020554000000A5
:020555000000A4
:0205560000DBC8
:0205570001247D
:0205580001247C
:0205590001B6E9
:02055A0000920D
:02055B0001FF9E
:02055C00012478
:02055D00004953
:02055E00009209
:02055F00012475
:0205600001B6E2
:02056100016D2A
:0205620001B7DF
:0205630000DBBB
:02056400009203
:0205650000DBB9
:02056600009300
:02056700004949
:0205680001256B
:0205690001B6D9
:02056A0001B7D7
:02056B0000018D
:02056C000092FB
:02056D0000DBB1
:02056E0000DBB0
:02056F00004A40
:0205700001B6D2
:0205710001B6D1
:02057200012462
:0205730001B6CF
:020574000092F3
:020575000092F2
:02057600005231
:0205770001BFC2
:02057800016E12
:0205790000DBA5
:02057A0001245A
:02057B00012558
:02057C00016D0F
:02057D0000007C
:02057E0000007B
:02057F000092E8
:02058000000079
:02058100000078
:0205820000DB9C
:02058300012451
:02058400012450
:0205850001B6BD
:0205860000492A
:0205870001B6BB
:0205880001B6BA
:0205890001244B
:02058A0000006F
:02058B000092DC
:02058C00012448
:02058D00012447
:02058E0001B6B4
:02058F000092D8
:02059000012444
:0205910000491F
:0205920000491E
:0205930000DB8B
:0205940000DB8A
:0205950001B7AC
:0205960001243E
:020597000093CF
:0205980000DB86
:02059900000060
:02059A0000E47B
:02059B0000DB83
:02059C00012438
:02059D00016EED
:02059E0000DB80
:02059F0000DB7F
:0205A0000092C7
:0205A10000490F
:0205A20001B79F
:0205A30001B69F
:0205A400012430
:0205A50001242F
:0205A60000DC77
:0205A70001252C
:0205A800016DE3
:0205A900000050
:0205AA0000004F
:0205AB000092BC
:0205AC0000004D
:0205AD0000004C
:0205AE0000DB70
:0205AF00012425
:0205B00000DB6E
:0205B10001B691
:0205B2000049FE
:0205B30001B68F
:0205B40001B68E
:0205B50001B78C
:0205B60001B68C
:0205B700000042
:0205B80001B68A
:0205B90001251A
:0205BA00016DD1
:0205BB0000003E
:0205BC00012418
:0205BD0000DB61
:0205BE0000003B
:0205BF000049F1
:0205C0000092A7
:0205C10001B780
:0205C20000DB5C
:0205C3000049ED
:0205C400000035
:0205C5000049EB
:0205C60000DC57
:0205C7000049E9
:0205C80000DB56
:0205C90001240B
:0205CA0001FF2F
:0205CB0000002E
:0205CC00012408
:0205CD0001BF6C
:0205CE0001B674
:0205CF0001B673
:0205D000009297
:0205D10001B671
:0205D20000DB4C
:0205D300012DF8
:0205D400016DB7
:0205D500000024
:0205D600000023
:0205D700009290
:0205D800000021
:0205D900000020
:0205DA0000DB44
:0205DB000124F9
:0205DC0000928B
:0205DD0000DB41
:0205DE0000DC3F
:0205DF000125F4
:0205E000016DAB
:0205E100000018
:0205E20001FF17
:0205E300009284
:0205E400009283
:0205E50001769D
:0205E6000124EE
:0205E70000DB37
:0205E80000937E
:0205E90000927E
:0205EA00016EA0
:0205EB0000000E
:0205EC0000937A
:0205ED0001B754
:0205EE00016D9D
:0205EF0000000A
:0205F0000124E4
:0205F10000E424
:0205F200009374
:0205F30000DB2B
:0205F40000DB2A
:0205F5000124DF
:0205F6000124DE
:0205F7000009F9
:0205F80001B64A
:0205F90000DB25
:0205FA000049B6
:0205FB0001FFFE
:0205FC000049B4
:0205FD00017685
:0205FE000000FB
:0205FF000124D5
:02060000016D8A
:020601000000F7
:020602000000F6
:02060300009263
:020604000000F4
:020605000000F3
:0206060000DB17
:020607000124CC
:020608000125CA
:020609000124CA
:02060A0001B637
:02060B000049A4
:02060C0001FFEC
:02060D0001B634
:02060E0001B633
:02060F000049A0
:02061000004A9E
:0206110000DB0C
:0206120001B72E
:0206130000DB0A
:020614000000E4
:0206150000499A
:020616000001E1
:0206170000DB06
:0206180001B728
:020619000124BA
:02061A0001B627
:02061B000125B7
:02061C000000DC
:02061D0000DB00
:02061E000000DA
:02061F00009247
:02062000016E69
:02062100016D69
:02062200009244
:0206230000498C
:02062400016D66
:0206250001B61C
:0206260001B71A
:020627000124AC
:020628000124AB
:02062900012DA1
:02062A000124A9
:02062B000124A8
:02062C00016D5E
:02062D000000CB
:02062E000000CA
:02062F00009237
:020630000000C8
:020631000000C7
:0206320000DBEB
:0206330000E4E1
:0206340001259E
:02063500009330
:0206360001FFC2
:0206370000922F
:02063800012D92
:0206390001B608
:02063A0001B607
:02063B00004974
:02063C0000922A
:02063D0000DBE0
:02063E00016D4C
:02063F0001B602
:02064000012493
:02064100016D49
:0206420001B6FF
:0206430001B7FD
:0206440001B7FC
:020645000000B3
:0206460001248D
:0206470001B7F9
:0206480001B7F8
:02064900016E40
:02064A00012D80
:02064B00012488
:02064C0001B6F5
:02064D0000DBD0
:02064E0000DBCF
:02064F00004960
:02065000016D3A
:0206510001B6F0
:0206520001B7EE
:020653000000A5
:0206540001FFA4
:0206550001B6EC
:02065600004959
:02065700016D33
:02065800016D32
:0206590000009F
:02065A0000009E
:02065B0000920B
:02065C0000009C
:02065D0000009B
:02065E0000DBBF
:02065F00012474
:02066000016D2A
:02066100009205
:02066200012471
:0206630001B7DD
:02066400000094
:0206650001B7DB
:0206660001B6DB
:0206670000523F
:020668000092FE
:0206690000008F
:02066A000093FB
:02066B0000DBB2
:02066C0001B6D5
:02066D00016D1D
:02066E00012465
:02066F00012464
:02067000016D1A
:0206710001B6D0
:02067200016E17
:0206730001255F
:0206740001255E
:02067500012D55
:0206760001FF82
:0206770001245C
:0206780000DBA5
:02067900004936
:02067A0000007E
:02067B000092EB
:02067C00016D0E
:02067D0001BFBB
:02067E000092E8
:02067F00016D0B
:02068000016D0A
:0206810000DB9C
:0206820000DB9B
:0206830000E491
:02068400016D06
:02068500000073
:02068600000072
:020687000092DF
:02068800000070
:0206890000006F
:02068A0000DB93
:02068B0000E489
:02068C00016DFE
:02068D00016DFD
:02068E00012445
:02068F0000DC8D
:02069000016DFA
:0206910000491E
:0206920001FF66
:0206930000491C
:020694000092D2
:020695000092D1
:020696000092D0
:02069700004918
:02069800004917
:0206990001243A
:02069A0000E47A
:02069B0001FF5D
:02069C0001B6A5
:02069D0000DB80
:02069E0001B6A3
:02069F0001B7A1
:0206A000012433
:0206A100016DE9
:0206A200004A0C
:0206A30000490C
:0206A40000490B
:0206A5000092C1
:0206A60000DB77
:0206A700004908
:0206A800016DE2
:0206A900012529
:0206AA000092BC
:0206AB00016DDF
:0206AC0000DB71
:0206AD0001B694
:0206AE0000DB6F
:0206AF00012D1B
:0206B000016DDA
:0206B100000047
:0206B200000046
:0206B3000092B3
:0206B400000044
:0206B500000043
:0206B60000DB67
:0206B70001241C
:0206B800016DD2
:0206B9000092AD
:0206BA00012419
:0206BB00016DCF
:0206BC000176C5
:0206BD00012416
:0206BE000092A8
:0206BF00012414
:0206C00000DB5D
:0206C10000DB5C
:0206C20000DB5B
:0206C30000DB5A
:0206C40000DB59
:0206C5000092A1
:0206C6000049E9
:0206C70000DB56
:0206C80001240B
:0206C900016DC1
:0206CA00012508
:0206CB0000DC51
:0206CC00009399
:0206CD000049E2
:0206CE0000DB4F
:0206CF0000DB4E
:0206D000012403
:0206D10000DB4C
:0206D20000DB4B
:0206D30000DB4A
:0206D4000124FF
:0206D5000049DA
:0206D60001FF22
:0206D700016DB3
:0206D800016DB2
:0206D90000938C
:0206DA0000DB43
:0206DB00012DEF
:0206DC00016DAE
:0206DD0000001B
:0206DE0000001A
:0206DF00009287
:0206E000000018
:0206E100000017
:0206E20000DB3B
:0206E3000124F0
:0206E40000E430
:0206E50001B65C
:0206E60000DC36
:0206E7000124EC
:0206E800016DA2
:0206E90001FF0F
:0206EA000124E9
:0206EB00004AC3
:0206EC0001FF0C
:0206ED0001B753
:0206EE000125E4
:0206EF00009277
:0206F00001B750
:0206F10001FF07
:0206F200000006
:0206F300009273
:0206F4000049BB
:0206F500009271
:0206F600009270
:0206F70000926F
:0206F800000000
:0206F900016D91
:0206FA0001BF3E
:0206FB00016D8F
:0206FC0000926A
:0206FD0001FFFB
:0206FE0001FFFA
:0206FF000124D4
:020700000049AE
:0207010001FFF6
:0207020001B63E
:020703000124CF
:0207040000DB18
:0207050001FFF2
:0207060000E40D
:020707000124CB
:02070800016D81
:020709000000EE
:02070A000000ED
:02070B0000925A
:02070C000000EB
:02070D000000EA
:02070E0000DB0E
:02070F0000DC0C
:0207100001FFE7
:0207110000499D
:0207120001766E
:0207130000DB09
:020714000124BE
:0207150000DB07
:0207160001FFE1
:02071700016D72
:020718000000DF
:02071900016D70
:02071A0001B626
:02071B00016D6E
:02071C0001FFDB
:02071D00009248
:02071E0000DCFD
:02071F00009246
:0207200000DBFC
:0207210000DCFA
:0207220000DBFA
:0207230000498B
:02072400016D65
:020725000000D2
:0207260001B61A
:0207270001B619
:02072800016E60
:0207290001B716
:02072A00004A83
:02072B0000DBF1
:02072C0001FFCB
:02072D000124A5
:02072E0000DBEE
:02072F000124A3
:020730000124A2
:0207310000DCEA
:020732000124A0
:0207330001259E
:02073400016D55
:020735000000C2
:020736000000C1
:0207370000922E
:020738000000BF
:020739000000BE
:02073A0000DBE2
:02073B0000DCE0
:02073C00016D4D
:02073D0000DBDF
:02073E0001B701
:02073F00016D4A
:02074000016D49
:02074100012491
:02074200012490
:02074300016D46
:0207440001B7FB
:02074500009220
:02074600004968
:0207470001B6F9
:0207480000921D
:0207490000DBD3
:02074A0001B7F5
:02074B0001B7F4
:02074C00009318
:02074D00009218
:02074E00004A5F
:02074F00016E39
:0207500001B7EF
:0207510001B6EF
:020752000000A5
:0207530001B6ED
:0207540000DBC8
:02075500004959
:02075600016E32
:0207570001B6E9
:02075800016D31
:0207590000DBC3
:02075A0001B7E5
:02075B00012477
:02075C0001B6E4
:02075D00012475
:02075E00012474
:02075F00012572
:02076000016D29
:02076100000096
:02076200000095
:0207630000890B
:02076400000093
:02076500000092
:0207660000DBB6
:0207670000DCB4
:0207680001B6D8
:02076900012469
:02076A00009BF2
:02076B0001B6D5
:02076C0001B6D4
:02076D0000DCAE
:02076E0000DBAE
:02076F0000DBAD
:0207700000DBAC
:0207710001B7CE
:0207720001B7CD
:02077300000084
:020774000092F1
:0207750000DBA7
:02077600012D53
:0207770001B6C9
:0207780001FF7F
:0207790000DCA2
:02077A0001B6C6
:02077B0001B6C5
:02077C00016E0C
:02077D0000DC9E
:02077E000093E6
:02077F00000078
:02078000012452
:0207810001FF76
:0207820001254F
:0207830000DB99
:0207840000DB98
:0207850000DB97
:02078600012D43
:0207870001FF70
:0207880001244A
:0207890000DC92
:02078A0001B6B6
:02078B00012447
:02078C00016DFD
:02078D0000006A
:02078E00000069
:02078F000089DF
:02079000000067
:02079100000066
:0207920000DB8A
:0207930000E480
:02079400016DF5
:0207950000DB87
:02079600016EF2
:0207970001253A
:02079800004A15
:020799000092CC
:02079A000093CA
:02079B0000DB81
:02079C00012436
:02079D000092C8
:02079E000092C7
:02079F00012433
:0207A00001FF57
:0207A10001B69F
:0207A20000DC79
:0207A3000092C2
:0207A4000092C1
:0207A5000093BF
:0207A6000092BF
:0207A7000092BE
:0207A80000DB74
:0207A900016DE0
:0207AA0001FF4D
:0207AB0001B695
:0207AC00004902
:0207AD0000DB6F
:0207AE0000DC6D
:0207AF0000DB6D
:0207B0000093B4
:0207B10000E462
:0207B2000049FC
:0207B3000092B2
:0207B40001B68C
:0207B50001241D
:0207B60001241C
:0207B70001241B
:0207B800016DD1
:0207B90000003E
:0207BA0000003D
:0207BB000092AA
:0207BC0000003B
:0207BD0000003A
:0207BE0000DB5E
:0207BF0000E454
:0207C000016DC9
:0207C10000E452
:0207C200016DC7
:0207C3000049EB
:0207C4000049EA
:0207C50000DB57
:0207C60000DB56
:0207C70001240B
:0207C800009B94
:0207C90000DB53
:0207CA0000929B
:0207CB00016EBD
:0207CC00012505
:0207CD00009397
:0207CE0001B771
:0207CF0001B770
:0207D000016DB9
:0207D10000DC4A
:0207D2000125FF
:0207D30001B76C
:0207D40001B76B
:0207D5000124FD
:0207D6000124FC
:0207D70001B669
:0207D80000928D
:0207D90000DB43
:0207DA00009B82
:0207DB000124F7
:0207DC0000DC3F
:0207DD0000DB3F
:0207DE00009287
:0207DF00009286
:0207E00000DB3C
:0207E100016DA8
:0207E2000124F0
:0207E3000124EF
:0207E400016DA5
:0207E500000012
:0207E600000011
:0207E70000927E
:0207E80000000F
:0207E90000000E
:0207EA0000DB32
:0207EB0000E428
:0207EC00016E9C
:0207ED00016D9C
:0207EE000052B7
:0207EF0000DB2D
:0207F000009275
:0207F1000124E1
:0207F2000124E0
:0207F3000049BB
:0207F40000DB28
:0207F50000DB27
:0207F60000926F
:0207F70000DB25
:0207F800016D91
:0207F9000124D9
:0207FA000124D8
:0207FB0000DB21
:0207FC0001B644
:0207FD00009268
:0207FE00016D8B
:0207FF00016D8A
:0208000000DB1B
:020801000124D0
:020802000124CF
:020803000124CE
:020804000124CD
:0208050000529F
:020806000124CB
:020807000000EF
:020808000124C9
:020809000124C8
:02080A0000DB11
:02080B0000DB10
:02080C00009258
:02080D00016D7B
:02080E0000E404
:02080F000125C1
:02081000016D78
:020811000000E5
:020812000000E4
:02081300009251
:020814000000E2
:020815000000E1
:0208160000DB05
:0208170000E4FB
:0208180000DB03
:020819000124B8
:02081A0000924A
:02081B0000DCFF
:02081C000000DA
:02081D000124B4
:02081E00009345
:02081F0000498E
:020820000000D6
:0208210000E4F1
:0208220000DBF9
:0208230000498A
:0208240001B61B
:02082500016D63
:020826000124AB
:020827000124AA
:0208280000DCF2
:020829000124A8
:02082A0000DCF0
:02082B000124A6
:02082C0000DCEE
:02082D0000DCED
:02082E0001FFC8
:02082F00009334
:0208300000DBEB
:020831000124A0
:0208320000497B
:020833000000C3
:0208340000DBE7
:0208350000DBE6
:0208360000922E
:0208370000922D
:0208380000DBE3
:02083900012498
:02083A0000922A
:02083B00012595
:02083C00016D4C
:02083D000000B9
:02083E000000B8
:02083F00009225
:020840000000B6
:020841000000B5
:0208420000DBD9
:0208430000E4CF
:02084400016D44
:0208450001258B
:0208460000E4CC
:0208470001248A
:02084800012D80
:0208490000921B
:02084A00009319
:02084B00009219
:02084C00009218
:02084D0000DBCE
:02084E0000DBCD
:02084F00009215
:0208500001762F
:0208510000DCC9
:0208520000DBC9
:0208530001B6EC
:0208540001762B
:0208550000DBC6
:0208560001247B
:0208570001FF9F
:02085800012479
:0208590000E4B9
:02085A00016E2D
:02085B0000DBC0
:02085C0000DBBF
:02085D00012474
:02085E0000DBBD
:02085F00009205
:0208600000494D
:0208610000DBBA
:0208620001256E
:0208630001246E
:0208640001246D
:0208650001246C
:0208660001246B
:0208670001246A
:02086800016D20
:0208690000008D
:02086A0000008C
:02086B000092F9
:02086C0000008A
:02086D00000089
:02086E0000DBAD
:02086F0000E4A3
:02087000012461
:02087100016E16
:0208720000DBA9
:02087300000083
:0208740001245D
:020875000092EF
:020876000093ED
:0208770000007F
:020878000092EC
:02087900012557
:02087A000092EA
:02087B00004A31
:02087C00016E0B
:02087D0001B6C2
:02087E0001B7C0
:02087F00012452
:02088000009BDB
:02088100016D07
:0208820001254E
:0208830000DB98
:0208840001B6BB
:0208850001B7B9
:02088600016D02
:0208870000DB94
:0208880000521C
:0208890000DC91
:02088A00012447
:02088B0000006B
:02088C000093D7
:02088D000092D7
:02088E00012443
:02088F0000491E
:020890000093D3
:02089100012440
:0208920001243F
:0208930000E47F
:02089400016DF4
:02089500000061
:02089600000060
:020897000092CD
:0208980000005E
:0208990000005D
:02089A0000DB81
:02089B0000E477
:02089C00016DEC
:02089D00012434
:02089E0000DB7D
:02089F000092C5
:0208A00000DB7B
:0208A100009BBA
:0208A20000490B
:0208A30001242E
:0208A400000052
:0208A5000092BF
:0208A60000DB75
:0208A7000092BD
:0208A80001FF4E
:0208A900016DDF
:0208AA00012427
:0208AB0000E467
:0208AC0001B693
:0208AD00012523
:0208AE0001FF48
:0208AF0000DC6B
:0208B000012520
:0208B100012420
:0208B20001B68D
:0208B30001B68C
:0208B400000042
:0208B50000E45D
:0208B600000040
:0208B7000049F6
:0208B800012419
:0208B9000049F4
:0208BA000092AA
:0208BB00012416
:0208BC0000003A
:0208BD00016DCB
:0208BE00012413
:0208BF00012511
:0208C000016DC8
:0208C100000035
:0208C200000034
:0208C3000092A1
:0208C400000032
:0208C500000031
:0208C60000DB55
:0208C70000DC53
:0208C800016DC0
:0208C90000E449
:0208CA0001FF2C
:0208CB00009398
:0208CC0000002A
:0208CD00000029
:0208CE0000DC4C
:0208CF00012402
:0208D00000DB4B
:0208D100000025
:0208D200009292
:0208D30001B66C
:0208D4000124FD
:0208D500016DB3
:0208D6000124FB
:0208D700016DB1
:0208D80001B667
:0208D90000938A
:0208DA0000E438
:0208DB0001B763
:0208DC0000DB3F
:0208DD000124F4
:0208DE0001B661
:0208DF0000DC3B
:0208E000016DA8
:0208E100000015
:0208E200009282
:0208E3000124EE
:0208E4000125EC
:0208E5000049C8
:0208E600000010
:0208E70000000F
:0208E80001B657
:0208E90001B656
:0208EA00009379
:0208EB00012DDD
:0208EC00016D9C
:0208ED00000009
:0208EE00000008
:0208EF00009275
:0208F000000006
:0208F100000005
:0208F20000DB29
:0208F30000E41F
:0208F4000124DD
:0208F5000125DB
:0208F60000DB25
:0208F70001B648
:0208F80000DB23
:0208F9000049B4
:0208FA000049B3
:0208FB0000DB20
:0208FC000049B1
:0208FD0000E415
:0208FE0001B740
:0208FF0001B640
:02090000009263
:02090100009262
:02090200012DC5
:02090300012DC4
:0209040001B63A
:0209050000E40C
:020906000125C9
:0209070001B736
:0209080000DB12
:02090900016D7E
:02090A000000EB
:02090B00016D7C
:02090C0001B731
:02090D00016D7A
:02090E0000DB0C
:02090F0000499D
:02091000009253
:0209110000499B
:02091200009251
:0209130001B62B
:020914000124BC
:020915000124BB
:020916000124BA
:020917000124B9
:02091800016D6F
:020919000000DC
:02091A000000DB
:02091B00008951
:02091C000000D9
:02091D000000D8
:02091E0000DBFC
:02091F0000DCFA
:02092000016D67
:0209210000E4F0
:020922000124AE
:020923000124AD
:02092400016D63
:02092500016D62
:0209260001B618
:02092700016E5F
:0209280001B616
:0209290001B714
:02092A0000DBF0
:02092B000124A5
:02092C00016D5B
:02092D0000DBED
:02092E00012D99
:02092F00009333
:0209300001B60E
:02093100004A7A
:0209320001259D
:0209330001259C
:0209340000932E
:0209350001249B
:0209360001249A
:02093700016D50
:0209380000DBE2
:02093900016D4E
:02093A0001B604
:02093B00017643
:02093C0001B602
:02093D0001B601
:02093E00016D49
:02093F00012491
:02094000012490
:0209410000DCD8
:02094200016D45
:0209430001248D
:02094400016D43
:020945000000B0
:020946000000AF
:0209470000921C
:020948000000AD
:020949000000AC
:02094A0000DBD0
:02094B0000DCCE
:02094C0001FFA9
:02094D00012582
:02094E00016D39
:02094F0001762F
:0209500001257F
:0209510001B6ED
:0209520001257D
:0209530001B6EB
:0209540001247C
:0209550001247B
:02095600016E30
:02095700012479
:0209580001B6E6
:0209590001B7E4
:02095A0001B6E4
:02095B00016E2B
:02095C00016D2B
:02095D0001B6E1
:02095E00016D29
:02095F0001B6DF
:02096000016D27
:0209610001B6DD
:0209620001B6DC
:0209630001B6DB
:02096400016D23
:0209650001246B
:0209660001246A
:02096700016D20
:02096800016D1F
:0209690001B6D5
:02096A0001B6D4
:02096B00012564
:02096C0001BFC9
:02096D00016D1A
:02096E00016D19
:02096F00012560
:02097000016D17
:02097100000084
:02097200000083
:020973000092F0
:02097400000081
:02097500000080
:0209760000DBA4
:02097700012459
:02097800012458
:02097900012457
:02097A00012456
:02097B00012455
:02097C00012454
:02097D00012453
:02097E00012452
:02097F00012451
:02098000012450
:0209810001244F
:0209820000E48F
:0209830001244D
:0209840000E48D
:0209850000E48C
:0209860000E48B
:02098700012449
:0209880000E489
:0209890000E488
:02098A0000E487
:02098B0000E486
:02098C0000E485
:02098D0000DC8C
:02098E0000E483
:02098F0000E482
:02099000012440
:0209910001243F
:0209920001243E
:0209930001243D
:0209940000E47D
:0209950000E47C
:0209960000E47B
:02099700012439
:0209980000E479
:02099900012437
:02099A00012436
:02099B0000DC7E
:02099C00016DEB
:02099D00000058
:02099E00000057
:02099F000092C4
:0209A000000055
:0209A100000054
:0209A2000092C1
:0209A30000DB77
:0209A40000DB76
:0209A500009BB5
:0209A600009BB4
:0209A700009BB3
:0209A800009BB2
:0209A9000093B9
:0209AA00009BB0
:0209AB00009BAF
:0209AC0000DB6E
:0209AD00009BAD
:0209AE0000DB6C
:0209AF00009BAB
:0209B0000093B2
:0209B1000093B1
:0209B200009BA8
:0209B30000DB67
:0209B400009BA6
:0209B500009BA5
:0209B600009BA4
:0209B7000093AB
:0209B8000093AA
:0209B900009BA1
:0209BA000093A8
:0209BB00009B9F
:0209BC00009B9E
:0209BD00009B9D
:0209BE000093A4
:0209BF00009B9B
:0209C000009B9A
:0209C100009B99
:0209C2000093A0
:0209C30000939F
:0209C400009B96
:0209C50000DB55
:0209C60000DB54
:0209C70000DB53
:0209C80000DB52
:0209C90000002C
:0209CA0000002B
:0209CB000049E1
:0209CC00009297
:0209CD00000028
:0209CE00000027
:0209CF00000026
:0209D000000025
:0209D100000024
:0209D200000023
:0209D300000022
:0209D400000021
:0209D500000020
:0209D60000001F
:0209D70000001E
:0209D80000001D
:0209D90000001C
:0209DA0000001B
:0209DB0000001A
:0209DC00000019
:0209DD00000018
:0209DE00000017
:0209DF00000016
:0209E000000015
:0209E100000014
:0209E200000013
:0209E300000012
:0209E400000011
:0209E500000010
:0209E60000000F
:0209E70000000E
:0209E80000000D
:0209E90000000C
:0209EA0000000B
:0209EB0000000A
:0209EC00000009
:0209ED00000008
:0209EE00000007
:0209EF00000006
:0209F000000005
:0209F100000004
:0209F200000003
:0209F300000002
:0209F400000001
:0209F500000000
:0209F6000000FF
:0209F70000DB23
:0209F80001FFFD
:0209F90000926A
:0209FA000049B2
:0209FB000049B1
:0209FC000049B0
:0209FD000049AF
:0209FE000049AE
:0209FF000049AD
:020A00000049AB
:020A01000049AA
:020A02000049A9
:020A03000049A8
:020A04000049A7
:020A05000049A6
:020A06000049A5
:020A07000049A4
:020A08000049A3
:020A09000049A2
:020A0A000049A1
:020A0B000049A0
:020A0C0000499F
:020A0D0000499E
:020A0E0000499D
:020A0F0000499C
:020A100000499B
:020A110000499A
:020A1200004999
:020A1300004998
:020A1400004997
:020A1500004996
:020A1600004995
:020A1700004994
:020A1800004993
:020A1900004992
:020A1A00004991
:020A1B00004990
:020A1C0000498F
:020A1D0000498E
:020A1E0000498D
:020A1F0000498C
:020A200000498B
:020A210000498A
:020A220000DBF7
:020A230001FFD1
:00000001FF
