:0200000001FFFE
:02000100016D8F
:02000200016D8E
:0200030001B644
:0200040001FFFA
:0200050001FFF9
:0200060001FFF8
:0200070001FFF7
:0200080001FFF6
:020009000124D0
:02000A000000F4
:02000B000000F3
:02000C00009260
:02000D0001FFF1
:02000E0001FFF0
:02000F0001FFEF
:0200100001FFEE
:0200110001FFED
:020012000124C7
:020013000000EB
:020014000000EA
:020015000049A0
:0200160000DB0D
:0200170001FFE7
:0200180001FFE6
:0200190001FFE5
:02001A0001FFE4
:02001B000124BE
:02001C000000E2
:02001D000000E1
:02001E000000E0
:02001F000000DF
:0200200001FFDE
:0200210001FFDD
:0200220001FFDC
:0200230001FFDB
:020024000124B5
:020025000000D9
:020026000000D8
:020027000000D7
:020028000000D6
:0200290000498C
:02002A0000DBF9
:02002B0001FFD3
:02002C0001FFD2
:02002D000124AC
:02002E000000D0
:02002F000000CF
:020030000000CE
:020031000000CD
:020032000000CC
:02003300004982
:0200340001FFCA
:0200350001FFC9
:020036000124A3
:020037000000C7
:020038000000C6
:020039000000C5
:02003A000000C4
:02003B000000C3
:02003C000000C2
:02003D000000C1
:02003E0001B609
:02003F0001249A
:020040000000BE
:020041000000BD
:020042000000BC
:020043000000BB
:020044000000BA
:020045000000B9
:0200460000496F
:0200470001B600
:02004800012491
:020049000000B5
:02004A000000B4
:02004B000000B3
:02004C000000B2
:02004D000000B1
:02004E00004967
:02004F0001FFAF
:0200500001FFAE
:02005100012488
:020052000000AC
:020053000000AB
:020054000000AA
:020055000000A9
:02005600009216
:0200570000DBCC
:0200580001FFA6
:0200590001FFA5
:02005A0001247F
:02005B000000A3
:02005C000000A2
:02005D000000A1
:02005E000000A0
:02005F0001FF9F
:0200600001FF9E
:0200610001FF9D
:0200620001FF9C
:02006300012476
:0200640000009A
:02006500000099
:0200660000494F
:02006700012472
:0200680001FF96
:0200690001FF95
:02006A0001FF94
:02006B0001FF93
:02006C0001246D
:02006D00000091
:02006E00000090
:02006F000092FD
:0200700001FF8E
:0200710001FF8D
:0200720001FF8C
:0200730001FF8B
:0200740001FF8A
:0200750001FF89
:0200760001B6D1
:0200770001B6D0
:0200780001B6CF
:0200790001FF85
:02007A0001FF84
:02007B0001FF83
:02007C0001FF82
:02007D0001FF81
:00000001FF
