:0200000001FFFE
:0200010001FFFD
:0200020001FFFC
:0200030001FFFB
:0200040001FFFA
:0200050001FFF9
:0200060001FFF8
:0200070001FFF7
:0200080001FFF6
:0200090001FFF5
:02000A0001FFF4
:02000B0001FFF3
:02000C0001FFF2
:02000D0001FFF1
:02000E0001FFF0
:02000F0001FFEF
:0200100001FFEE
:0200110001FFED
:0200120001FFEC
:0200130001FFEB
:0200140001FFEA
:0200150001FFE9
:0200160001FFE8
:0200170001FFE7
:0200180001FFE6
:0200190001FFE5
:02001A0001FFE4
:02001B0001FFE3
:02001C0001FFE2
:02001D0001FFE1
:02001E0001FFE0
:02001F0001FFDF
:0200200001FFDE
:0200210001FFDD
:0200220001FFDC
:0200230001FFDB
:0200240001FFDA
:0200250001FFD9
:0200260001FFD8
:0200270001FFD7
:0200280001FFD6
:0200290001FFD5
:02002A0001FFD4
:02002B0001FFD3
:02002C0001FFD2
:02002D0001FFD1
:02002E0001FFD0
:02002F0001FFCF
:0200300001FFCE
:0200310001FFCD
:0200320001FFCC
:0200330001FFCB
:0200340001FFCA
:0200350001FFC9
:0200360001FFC8
:0200370001FFC7
:0200380001FFC6
:0200390001FFC5
:02003A0001FFC4
:02003B0001FFC3
:02003C0001FFC2
:02003D0001FFC1
:02003E0001FFC0
:02003F0001FFBF
:0200400001FFBE
:0200410001FFBD
:0200420001FFBC
:0200430001FFBB
:0200440001FFBA
:0200450001FFB9
:0200460001FFB8
:0200470001FFB7
:0200480001FFB6
:0200490001FFB5
:02004A0001FFB4
:02004B0001FFB3
:02004C0001FFB2
:02004D0001FFB1
:02004E0001FFB0
:02004F0001FFAF
:0200500001FFAE
:0200510001FFAD
:0200520001FFAC
:0200530001FFAB
:0200540001FFAA
:0200550001FFA9
:0200560001FFA8
:0200570001FFA7
:0200580001FFA6
:0200590001FFA5
:02005A0001FFA4
:02005B0001FFA3
:02005C0001FFA2
:02005D0001FFA1
:02005E0001FFA0
:02005F0001FF9F
:0200600001FF9E
:0200610001FF9D
:0200620001FF9C
:0200630001FF9B
:0200640001FF9A
:0200650001FF99
:0200660001FF98
:0200670001FF97
:0200680001FF96
:0200690001FF95
:02006A0001FF94
:02006B0001FF93
:02006C0001FF92
:02006D0001FF91
:02006E0001FF90
:02006F0001FF8F
:0200700001FF8E
:0200710001FF8D
:0200720001FF8C
:0200730001FF8B
:0200740001FF8A
:0200750001FF89
:0200760001FF88
:0200770001FF87
:0200780001FF86
:0200790001FF85
:02007A0001FF84
:02007B0001FF83
:02007C0001FF82
:02007D0001FF81
:02007E0001FF80
:02007F0001FF7F
:0200800001FF7E
:0200810001FF7D
:0200820001FF7C
:0200830001FF7B
:0200840001FF7A
:0200850001FF79
:0200860001FF78
:0200870001FF77
:0200880001FF76
:0200890001FF75
:02008A0001FF74
:02008B0001FF73
:02008C0001FF72
:02008D0001FF71
:02008E0001FF70
:02008F0001FF6F
:0200900001FF6E
:0200910001FF6D
:0200920001FF6C
:0200930001FF6B
:0200940001FF6A
:0200950001FF69
:0200960001FF68
:0200970001FF67
:0200980001FF66
:0200990001FF65
:02009A0001FF64
:02009B0001FF63
:02009C0001FF62
:02009D0001FF61
:02009E0001FF60
:02009F0001FF5F
:0200A00001FF5E
:0200A10001FF5D
:0200A20001FF5C
:0200A30001FF5B
:0200A40001FF5A
:0200A50001FF59
:0200A60001FF58
:0200A70001FF57
:0200A80001FF56
:0200A90001FF55
:0200AA0001FF54
:0200AB0001FF53
:0200AC0001FF52
:0200AD0001FF51
:0200AE0001FF50
:0200AF0001FF4F
:0200B00001FF4E
:0200B10001FF4D
:0200B20001FF4C
:0200B30001FF4B
:0200B40001FF4A
:0200B50001FF49
:0200B60001FF48
:0200B70001FF47
:0200B80001FF46
:0200B90001FF45
:0200BA0001FF44
:0200BB0001FF43
:0200BC0001FF42
:0200BD0001FF41
:0200BE0001FF40
:0200BF0001FF3F
:0200C00001FF3E
:0200C10001FF3D
:0200C20001FF3C
:0200C30001FF3B
:0200C40001FF3A
:0200C50001FF39
:0200C60001FF38
:0200C70001FF37
:0200C80001FF36
:0200C90001FF35
:0200CA0001FF34
:0200CB0001FF33
:0200CC0001FF32
:0200CD0001FF31
:0200CE0001FF30
:0200CF0001FF2F
:0200D00001FF2E
:0200D10001FF2D
:0200D20001FF2C
:0200D30001FF2B
:0200D40001FF2A
:0200D50001FF29
:0200D60001FF28
:0200D70001FF27
:0200D80001FF26
:0200D90001FF25
:0200DA0001FF24
:0200DB0001FF23
:0200DC0001FF22
:0200DD0001FF21
:0200DE0001FF20
:0200DF0001FF1F
:0200E00001FF1E
:0200E10001FF1D
:0200E20001FF1C
:0200E30001FF1B
:0200E40001FF1A
:0200E50001FF19
:0200E60001FF18
:0200E70001FF17
:0200E80001FF16
:0200E90001FF15
:0200EA0001FF14
:0200EB0001FF13
:0200EC0001FF12
:0200ED0001FF11
:0200EE0001FF10
:0200EF0001FF0F
:0200F00001FF0E
:0200F10001FF0D
:0200F20001FF0C
:0200F30001FF0B
:0200F40001FF0A
:0200F50001FF09
:0200F60001FF08
:0200F70001FF07
:0200F80001FF06
:0200F90001FF05
:0200FA0001FF04
:0200FB0001FF03
:0200FC0001FF02
:0200FD0001FF01
:0200FE0001FF00
:0200FF0001FFFF
:0201000001FFFD
:0201010001FFFC
:0201020001FFFB
:0201030001FFFA
:0201040001FFF9
:0201050001FFF8
:0201060001FFF7
:0201070001FFF6
:0201080001FFF5
:0201090001FFF4
:02010A0001FFF3
:02010B0001FFF2
:02010C0001FFF1
:02010D0001FFF0
:02010E0001FFEF
:02010F0001FFEE
:0201100001FFED
:0201110001FFEC
:0201120001FFEB
:0201130001FFEA
:0201140001FFE9
:0201150001FFE8
:0201160001FFE7
:0201170001FFE6
:0201180001FFE5
:0201190001FFE4
:02011A0001FFE3
:02011B0001FFE2
:02011C0001FFE1
:02011D0001FFE0
:02011E0001FFDF
:02011F0001FFDE
:0201200001FFDD
:0201210001FFDC
:0201220001FFDB
:0201230001FFDA
:0201240001FFD9
:0201250001FFD8
:0201260001FFD7
:0201270001FFD6
:0201280001FFD5
:0201290001FFD4
:02012A0001FFD3
:02012B0001FFD2
:02012C0001FFD1
:02012D0001FFD0
:02012E0001FFCF
:02012F0001FFCE
:0201300001FFCD
:0201310001FFCC
:0201320001FFCB
:0201330001FFCA
:0201340001FFC9
:0201350001FFC8
:0201360001FFC7
:0201370001FFC6
:0201380001FFC5
:0201390001FFC4
:02013A0001FFC3
:02013B0001FFC2
:02013C0001FFC1
:02013D0001FFC0
:02013E0001FFBF
:02013F0001FFBE
:0201400001FFBD
:0201410001FFBC
:0201420001FFBB
:0201430001FFBA
:0201440001FFB9
:0201450001FFB8
:0201460001FFB7
:0201470001FFB6
:0201480001FFB5
:0201490001FFB4
:02014A0001FFB3
:02014B0001FFB2
:02014C0001FFB1
:02014D0001FFB0
:02014E0001FFAF
:02014F0001FFAE
:0201500001FFAD
:0201510001FFAC
:0201520001FFAB
:0201530001FFAA
:0201540001FFA9
:0201550001FFA8
:0201560001FFA7
:0201570001FFA6
:0201580001FFA5
:0201590001FFA4
:02015A0001FFA3
:02015B0001FFA2
:02015C0001FFA1
:02015D0001FFA0
:02015E0001FF9F
:02015F0001FF9E
:0201600001FF9D
:0201610001FF9C
:0201620001FF9B
:0201630001FF9A
:0201640001FF99
:0201650001FF98
:0201660001FF97
:0201670001FF96
:0201680001FF95
:0201690001FF94
:02016A0001FF93
:02016B0001FF92
:02016C0001FF91
:02016D0001FF90
:02016E0001FF8F
:02016F0001FF8E
:0201700001FF8D
:0201710001FF8C
:0201720001FF8B
:0201730001FF8A
:0201740001FF89
:0201750001FF88
:0201760001FF87
:0201770001FF86
:0201780001FF85
:0201790001FF84
:02017A0001FF83
:02017B0001FF82
:02017C0001FF81
:02017D0001FF80
:02017E0001FF7F
:02017F0001FF7E
:0201800001FF7D
:0201810001FF7C
:0201820001FF7B
:0201830001FF7A
:0201840001FF79
:0201850001FF78
:0201860001FF77
:0201870001FF76
:0201880001FF75
:0201890001FF74
:02018A0001FF73
:02018B0001FF72
:02018C0001FF71
:02018D0001FF70
:02018E0001FF6F
:02018F0001FF6E
:0201900001FF6D
:0201910001FF6C
:0201920001FF6B
:0201930001FF6A
:0201940001FF69
:0201950001FF68
:0201960001FF67
:0201970001FF66
:0201980001FF65
:0201990001FF64
:02019A0001FF63
:02019B0001FF62
:02019C0001FF61
:02019D0001FF60
:02019E0001FF5F
:02019F0001FF5E
:0201A00001FF5D
:0201A10001FF5C
:0201A20001FF5B
:0201A30001FF5A
:0201A40001FF59
:0201A50001FF58
:0201A60001FF57
:0201A70001FF56
:0201A80001FF55
:0201A90001FF54
:0201AA0001FF53
:0201AB0001FF52
:0201AC0001FF51
:0201AD0001FF50
:0201AE0001FF4F
:0201AF0001FF4E
:0201B00001FF4D
:0201B10001FF4C
:0201B20001FF4B
:0201B30001FF4A
:0201B40001FF49
:0201B50001FF48
:0201B60001FF47
:0201B70001FF46
:0201B80001FF45
:0201B90001FF44
:0201BA0001FF43
:0201BB0001FF42
:0201BC0001FF41
:0201BD0001FF40
:0201BE0001FF3F
:0201BF0001FF3E
:0201C00001FF3D
:0201C10001FF3C
:0201C20001FF3B
:0201C30001FF3A
:0201C40001FF39
:0201C50001FF38
:0201C60001FF37
:0201C70001FF36
:0201C80001FF35
:0201C90001FF34
:0201CA0001FF33
:0201CB0001FF32
:0201CC0001FF31
:0201CD0001FF30
:0201CE0001FF2F
:0201CF0001FF2E
:0201D00001FF2D
:0201D10001FF2C
:0201D20001FF2B
:0201D30001FF2A
:0201D40001FF29
:0201D50001FF28
:0201D60001FF27
:0201D70001FF26
:0201D80001FF25
:0201D90001FF24
:0201DA0001FF23
:0201DB0001FF22
:0201DC0001FF21
:0201DD0001FF20
:0201DE0001FF1F
:0201DF0001FF1E
:0201E00001FF1D
:0201E10001FF1C
:0201E20001FF1B
:0201E30001FF1A
:0201E40001FF19
:0201E50001FF18
:0201E60001FF17
:0201E70001FF16
:0201E80001FF15
:0201E90001FF14
:0201EA0001FF13
:0201EB0001FF12
:0201EC0001FF11
:0201ED0001FF10
:0201EE0001FF0F
:0201EF0001FF0E
:0201F00001FF0D
:0201F10001FF0C
:0201F20001FF0B
:0201F30001FF0A
:0201F40001FF09
:0201F50001FF08
:0201F60001FF07
:0201F70001FF06
:0201F80001FF05
:0201F90001FF04
:0201FA0001FF03
:0201FB0001FF02
:0201FC0001FF01
:0201FD0001FF00
:0201FE0001FFFF
:0201FF0001FFFE
:0202000001FFFC
:0202010001FFFB
:0202020001FFFA
:0202030001FFF9
:0202040001FFF8
:0202050001FFF7
:0202060001FFF6
:0202070001FFF5
:0202080001FFF4
:0202090001FFF3
:02020A0001FFF2
:02020B0001FFF1
:02020C0001FFF0
:02020D0001FFEF
:02020E0001FFEE
:02020F0001FFED
:0202100001FFEC
:0202110001FFEB
:0202120001FFEA
:0202130001FFE9
:0202140001FFE8
:0202150001FFE7
:0202160001FFE6
:0202170001FFE5
:0202180001FFE4
:0202190001FFE3
:02021A0001FFE2
:02021B0001FFE1
:02021C0001FFE0
:02021D0001FFDF
:02021E0001FFDE
:02021F0001FFDD
:0202200001FFDC
:0202210001FFDB
:0202220001FFDA
:0202230001FFD9
:0202240001FFD8
:0202250001FFD7
:0202260001FFD6
:0202270001FFD5
:0202280001FFD4
:0202290001FFD3
:02022A0001FFD2
:02022B0001FFD1
:02022C0001FFD0
:02022D0001FFCF
:02022E0001FFCE
:02022F0001FFCD
:0202300001FFCC
:0202310001FFCB
:0202320001FFCA
:0202330001FFC9
:0202340001FFC8
:0202350001FFC7
:0202360001FFC6
:0202370001FFC5
:0202380001FFC4
:0202390001FFC3
:02023A0001FFC2
:02023B0001FFC1
:02023C0001FFC0
:02023D0001FFBF
:02023E0001FFBE
:02023F0001FFBD
:0202400001FFBC
:0202410001FFBB
:0202420001FFBA
:0202430001FFB9
:0202440001FFB8
:0202450001FFB7
:0202460001FFB6
:0202470001FFB5
:0202480001FFB4
:0202490001FFB3
:02024A0001FFB2
:02024B0001FFB1
:02024C0001FFB0
:02024D0001FFAF
:02024E0001FFAE
:02024F0001FFAD
:0202500001FFAC
:0202510001FFAB
:0202520001FFAA
:0202530001FFA9
:0202540001FFA8
:0202550001FFA7
:0202560001FFA6
:0202570001FFA5
:0202580001FFA4
:0202590001FFA3
:02025A0001FFA2
:02025B0001FFA1
:02025C0001FFA0
:02025D0001FF9F
:02025E0001FF9E
:02025F0001FF9D
:0202600001FF9C
:0202610001FF9B
:0202620001FF9A
:0202630001FF99
:0202640001FF98
:0202650001FF97
:0202660001FF96
:0202670001FF95
:0202680001FF94
:0202690001FF93
:02026A0001FF92
:02026B0001FF91
:02026C0001FF90
:02026D0001FF8F
:02026E0001FF8E
:02026F0001FF8D
:0202700001FF8C
:0202710001FF8B
:0202720001FF8A
:0202730001FF89
:0202740001FF88
:0202750001FF87
:0202760001FF86
:0202770001FF85
:0202780001FF84
:0202790001FF83
:02027A0001FF82
:02027B0001FF81
:02027C0001FF80
:02027D0001FF7F
:02027E0001FF7E
:02027F0001FF7D
:0202800001FF7C
:0202810001FF7B
:0202820001FF7A
:0202830001FF79
:0202840001FF78
:0202850001FF77
:0202860001FF76
:0202870001FF75
:0202880001FF74
:0202890001FF73
:02028A0001FF72
:02028B0001FF71
:02028C0001FF70
:02028D0001FF6F
:02028E0001FF6E
:02028F0001FF6D
:0202900001FF6C
:0202910001FF6B
:0202920001FF6A
:0202930001FF69
:0202940001FF68
:0202950001FF67
:0202960001FF66
:0202970001FF65
:0202980001FF64
:0202990001FF63
:02029A0001FF62
:02029B0001FF61
:02029C0001FF60
:02029D0001FF5F
:02029E0001FF5E
:02029F0001FF5D
:0202A00001FF5C
:0202A10001FF5B
:0202A20001FF5A
:0202A30001FF59
:0202A40001FF58
:0202A50001FF57
:0202A60001FF56
:0202A70001FF55
:0202A80001FF54
:0202A90001FF53
:0202AA0001FF52
:0202AB0001FF51
:0202AC0001FF50
:0202AD0001FF4F
:0202AE0001FF4E
:0202AF0001FF4D
:0202B00001FF4C
:0202B10001FF4B
:0202B20001FF4A
:0202B30001FF49
:0202B40001FF48
:0202B50001FF47
:0202B60001FF46
:0202B70001FF45
:0202B80001FF44
:0202B90001FF43
:0202BA0001FF42
:0202BB0001FF41
:0202BC0001FF40
:0202BD0001FF3F
:0202BE0001FF3E
:0202BF0001FF3D
:0202C00001FF3C
:0202C10001FF3B
:0202C20001FF3A
:0202C30001FF39
:0202C40001FF38
:0202C50001FF37
:0202C60001FF36
:0202C70001FF35
:0202C80001FF34
:0202C90001FF33
:0202CA0001FF32
:0202CB0001FF31
:0202CC0001FF30
:0202CD0001FF2F
:0202CE0001FF2E
:0202CF0001FF2D
:0202D00001FF2C
:0202D10001FF2B
:0202D20001FF2A
:0202D30001FF29
:0202D40001FF28
:0202D50001FF27
:0202D60001FF26
:0202D70001FF25
:0202D80001FF24
:0202D90001FF23
:0202DA0001FF22
:0202DB0001FF21
:0202DC0001FF20
:0202DD0001FF1F
:0202DE0001FF1E
:0202DF0001FF1D
:0202E00001FF1C
:0202E10001FF1B
:0202E20001FF1A
:0202E30001FF19
:0202E40001FF18
:0202E50001FF17
:0202E60001FF16
:0202E70001FF15
:0202E80001FF14
:0202E90001FF13
:0202EA0001FF12
:0202EB0001FF11
:0202EC0001FF10
:0202ED0001FF0F
:0202EE0001FF0E
:0202EF0001FF0D
:0202F00001FF0C
:0202F10001FF0B
:0202F20001FF0A
:0202F30001FF09
:0202F40001FF08
:0202F50001FF07
:0202F60001FF06
:0202F70001FF05
:0202F80001FF04
:0202F90001FF03
:0202FA0001FF02
:0202FB0001FF01
:0202FC0001FF00
:0202FD0001FFFF
:0202FE0001FFFE
:0202FF0001FFFD
:0203000001FFFB
:0203010001FFFA
:0203020001FFF9
:0203030001FFF8
:0203040001FFF7
:0203050001FFF6
:0203060001FFF5
:0203070001FFF4
:0203080001FFF3
:0203090001FFF2
:02030A0001FFF1
:02030B0001FFF0
:02030C0001FFEF
:02030D0001FFEE
:02030E0001FFED
:02030F0001FFEC
:0203100001FFEB
:0203110001FFEA
:0203120001FFE9
:0203130001FFE8
:0203140001FFE7
:0203150001FFE6
:0203160001FFE5
:0203170001FFE4
:0203180001FFE3
:0203190001FFE2
:02031A0001FFE1
:02031B0001FFE0
:02031C0001FFDF
:02031D0001FFDE
:02031E0001FFDD
:02031F0001FFDC
:0203200001FFDB
:0203210001FFDA
:0203220001FFD9
:0203230001FFD8
:0203240001FFD7
:0203250001FFD6
:0203260001FFD5
:0203270001FFD4
:0203280001FFD3
:0203290001FFD2
:02032A0001FFD1
:02032B0001FFD0
:02032C0001FFCF
:02032D0001FFCE
:02032E0001FFCD
:02032F0001FFCC
:0203300001FFCB
:0203310001FFCA
:0203320001FFC9
:0203330001FFC8
:0203340001FFC7
:0203350001FFC6
:0203360001FFC5
:0203370001FFC4
:0203380001FFC3
:0203390001FFC2
:02033A0001FFC1
:02033B0001FFC0
:02033C0001FFBF
:02033D0001FFBE
:02033E0001FFBD
:02033F0001FFBC
:0203400001FFBB
:0203410001FFBA
:0203420001FFB9
:0203430001FFB8
:0203440001FFB7
:0203450001FFB6
:0203460001FFB5
:0203470001FFB4
:0203480001FFB3
:0203490001FFB2
:02034A0001FFB1
:02034B0001FFB0
:02034C0001FFAF
:02034D0001FFAE
:02034E0001FFAD
:02034F0001FFAC
:0203500001FFAB
:0203510001FFAA
:0203520001FFA9
:0203530001FFA8
:0203540001FFA7
:0203550001FFA6
:0203560001FFA5
:0203570001FFA4
:0203580001FFA3
:0203590001FFA2
:02035A0001FFA1
:02035B0001FFA0
:02035C0001FF9F
:02035D0001FF9E
:02035E0001FF9D
:02035F0001FF9C
:0203600001FF9B
:0203610001FF9A
:0203620001FF99
:0203630001FF98
:0203640001FF97
:0203650001FF96
:0203660001FF95
:0203670001FF94
:0203680001FF93
:0203690001FF92
:02036A0001FF91
:02036B0001FF90
:02036C0001FF8F
:02036D0001FF8E
:02036E0001FF8D
:02036F0001FF8C
:0203700001FF8B
:0203710001FF8A
:0203720001FF89
:0203730001FF88
:0203740001FF87
:0203750001FF86
:0203760001FF85
:0203770001FF84
:0203780001FF83
:0203790001FF82
:02037A0001FF81
:02037B0001FF80
:02037C0001FF7F
:02037D0001FF7E
:02037E0001FF7D
:02037F0001FF7C
:0203800001FF7B
:0203810001FF7A
:0203820001FF79
:0203830001FF78
:0203840001FF77
:0203850001FF76
:0203860001FF75
:0203870001FF74
:0203880001FF73
:0203890001FF72
:02038A0001FF71
:02038B0001FF70
:02038C0001FF6F
:02038D0001FF6E
:02038E0001FF6D
:02038F0001FF6C
:0203900001FF6B
:0203910001FF6A
:0203920001FF69
:0203930001FF68
:0203940001FF67
:0203950001FF66
:0203960001FF65
:0203970001FF64
:0203980001FF63
:0203990001FF62
:02039A0001FF61
:02039B0001FF60
:02039C0001FF5F
:02039D0001FF5E
:02039E0001FF5D
:02039F0001FF5C
:0203A00001FF5B
:0203A10001FF5A
:0203A20001FF59
:0203A30001FF58
:0203A40001FF57
:0203A50001FF56
:0203A60001FF55
:0203A70001FF54
:0203A80001FF53
:0203A90001FF52
:0203AA0001FF51
:0203AB0001FF50
:0203AC0001FF4F
:0203AD0001FF4E
:0203AE0001FF4D
:0203AF0001FF4C
:0203B00001FF4B
:0203B10001FF4A
:0203B20001FF49
:0203B30001FF48
:0203B40001FF47
:0203B50001FF46
:0203B60001FF45
:0203B70001FF44
:0203B80001FF43
:0203B90001FF42
:0203BA0001FF41
:0203BB0001FF40
:0203BC0001FF3F
:0203BD0001FF3E
:0203BE0001FF3D
:0203BF0001FF3C
:0203C00001FF3B
:0203C10001FF3A
:0203C20001FF39
:0203C30001FF38
:0203C40001FF37
:0203C50001FF36
:0203C60001FF35
:0203C70001FF34
:0203C80001FF33
:0203C90001FF32
:0203CA0001FF31
:0203CB0001FF30
:0203CC0001FF2F
:0203CD0001FF2E
:0203CE0001FF2D
:0203CF0001FF2C
:0203D00001FF2B
:0203D10001FF2A
:0203D20001FF29
:0203D30001FF28
:0203D40001FF27
:0203D50001FF26
:0203D60001FF25
:0203D70001FF24
:0203D80001FF23
:0203D90001FF22
:0203DA0001FF21
:0203DB0001FF20
:0203DC0001FF1F
:0203DD0001FF1E
:0203DE0001FF1D
:0203DF0001FF1C
:0203E00001FF1B
:0203E10001FF1A
:0203E20001FF19
:0203E30001FF18
:0203E40001FF17
:0203E50001FF16
:0203E60001FF15
:0203E70001FF14
:0203E80001FF13
:0203E90001FF12
:0203EA0001FF11
:0203EB0001FF10
:0203EC0001FF0F
:0203ED0001FF0E
:0203EE0001FF0D
:0203EF0001FF0C
:0203F00001FF0B
:0203F10001FF0A
:0203F20001FF09
:0203F30001FF08
:0203F40001FF07
:0203F50001FF06
:0203F60001FF05
:0203F70001FF04
:0203F80001FF03
:0203F90001FF02
:0203FA0001FF01
:0203FB0001FF00
:0203FC0001FFFF
:0203FD0001FFFE
:0203FE0001FFFD
:0203FF0001FFFC
:0204000001FFFA
:0204010001FFF9
:0204020001FFF8
:0204030001FFF7
:0204040001FFF6
:0204050001FFF5
:0204060001FFF4
:0204070001FFF3
:0204080001FFF2
:0204090001FFF1
:02040A0001FFF0
:02040B0001FFEF
:02040C0001FFEE
:02040D0001FFED
:02040E0001FFEC
:02040F0001FFEB
:0204100001FFEA
:0204110001FFE9
:0204120001FFE8
:0204130001FFE7
:0204140001FFE6
:0204150001FFE5
:0204160001FFE4
:0204170001FFE3
:0204180001FFE2
:0204190001FFE1
:02041A0001FFE0
:02041B0001FFDF
:02041C0001FFDE
:02041D0001FFDD
:02041E0001FFDC
:02041F0001FFDB
:0204200001FFDA
:0204210001FFD9
:0204220001FFD8
:0204230001FFD7
:0204240001FFD6
:0204250001FFD5
:0204260001FFD4
:0204270001FFD3
:0204280001FFD2
:0204290001FFD1
:02042A0001FFD0
:02042B0001FFCF
:02042C0001FFCE
:02042D0001FFCD
:02042E0001FFCC
:02042F0001FFCB
:0204300001FFCA
:0204310001FFC9
:0204320001FFC8
:0204330001FFC7
:0204340001FFC6
:0204350001FFC5
:0204360001FFC4
:0204370001FFC3
:0204380001FFC2
:0204390001FFC1
:02043A0001FFC0
:02043B0001FFBF
:02043C0001FFBE
:02043D0001FFBD
:02043E0001FFBC
:02043F0001FFBB
:0204400001FFBA
:0204410001FFB9
:0204420001FFB8
:0204430001FFB7
:0204440001FFB6
:0204450001FFB5
:0204460001FFB4
:0204470001FFB3
:0204480001FFB2
:0204490001FFB1
:02044A0001FFB0
:02044B0001FFAF
:02044C0001FFAE
:02044D0001FFAD
:02044E0001FFAC
:02044F0001FFAB
:0204500001FFAA
:0204510001FFA9
:0204520001FFA8
:0204530001FFA7
:0204540001FFA6
:0204550001FFA5
:0204560001FFA4
:0204570001FFA3
:0204580001FFA2
:0204590001FFA1
:02045A0001FFA0
:02045B0001FF9F
:02045C0001FF9E
:02045D0001FF9D
:02045E0001FF9C
:02045F0001FF9B
:0204600001FF9A
:0204610001FF99
:0204620001FF98
:0204630001FF97
:0204640001FF96
:0204650001FF95
:0204660001FF94
:0204670001FF93
:0204680001FF92
:0204690001FF91
:02046A0001FF90
:02046B0001FF8F
:02046C0001FF8E
:02046D0001FF8D
:02046E0001FF8C
:02046F0001FF8B
:0204700001FF8A
:0204710001FF89
:0204720001FF88
:0204730001FF87
:0204740001FF86
:0204750001FF85
:0204760001FF84
:0204770001FF83
:0204780001FF82
:0204790001FF81
:02047A0001FF80
:02047B0001FF7F
:02047C0001FF7E
:02047D0001FF7D
:02047E0001FF7C
:02047F0001FF7B
:0204800001FF7A
:0204810001FF79
:0204820001FF78
:0204830001FF77
:0204840001FF76
:0204850001FF75
:0204860001FF74
:0204870001FF73
:0204880001FF72
:0204890001FF71
:02048A0001FF70
:02048B0001FF6F
:02048C0001FF6E
:02048D0001FF6D
:02048E0001FF6C
:02048F0001FF6B
:0204900001FF6A
:0204910001FF69
:0204920001FF68
:0204930001FF67
:0204940001FF66
:0204950001FF65
:0204960001FF64
:0204970001FF63
:0204980001FF62
:0204990001FF61
:02049A0001FF60
:02049B0001FF5F
:02049C0001FF5E
:02049D0001FF5D
:02049E0001FF5C
:02049F0001FF5B
:0204A00001FF5A
:0204A10001FF59
:0204A20001FF58
:0204A30001FF57
:0204A40001FF56
:0204A50001FF55
:0204A60001FF54
:0204A70001FF53
:0204A80001FF52
:0204A90001FF51
:0204AA0001FF50
:0204AB0001FF4F
:0204AC0001FF4E
:0204AD0001FF4D
:0204AE0001FF4C
:0204AF0001FF4B
:0204B00001FF4A
:0204B10001FF49
:0204B20001FF48
:0204B30001FF47
:0204B40001FF46
:0204B50001FF45
:0204B60001FF44
:0204B70001FF43
:0204B80001FF42
:0204B90001FF41
:0204BA0001FF40
:0204BB0001FF3F
:0204BC0001FF3E
:0204BD0001FF3D
:0204BE0001FF3C
:0204BF0001FF3B
:0204C00001FF3A
:0204C10001FF39
:0204C20001FF38
:0204C30001FF37
:0204C40001FF36
:0204C50001FF35
:0204C60001FF34
:0204C70001FF33
:0204C80001FF32
:0204C90001FF31
:0204CA0001FF30
:0204CB0001FF2F
:0204CC0001FF2E
:0204CD0001FF2D
:0204CE0001FF2C
:0204CF0001FF2B
:0204D00001FF2A
:0204D10001FF29
:0204D20001FF28
:0204D30001FF27
:0204D40001FF26
:0204D50001FF25
:0204D60001FF24
:0204D70001FF23
:0204D80001FF22
:0204D90001FF21
:0204DA0001FF20
:0204DB0001FF1F
:0204DC0001FF1E
:0204DD0001FF1D
:0204DE0001FF1C
:0204DF0001FF1B
:0204E00001FF1A
:0204E10001FF19
:0204E20001FF18
:0204E30001FF17
:0204E40001FF16
:0204E50001FF15
:0204E60001FF14
:0204E70001FF13
:0204E80001FF12
:0204E90001FF11
:0204EA0001FF10
:0204EB0001FF0F
:0204EC0001FF0E
:0204ED0001FF0D
:0204EE0001FF0C
:0204EF0001FF0B
:0204F00001FF0A
:0204F10001FF09
:0204F20001FF08
:0204F30001FF07
:0204F40001FF06
:0204F50001FF05
:0204F60001FF04
:0204F70001FF03
:0204F80001FF02
:0204F90001FF01
:0204FA0001FF00
:0204FB0001FFFF
:0204FC0001FFFE
:0204FD0001FFFD
:0204FE0001FFFC
:0204FF0001FFFB
:0205000001FFF9
:0205010001FFF8
:0205020001FFF7
:0205030001FFF6
:0205040001FFF5
:0205050001FFF4
:0205060001FFF3
:0205070001FFF2
:0205080001FFF1
:0205090001FFF0
:02050A0001FFEF
:02050B0001FFEE
:02050C0001FFED
:02050D0001FFEC
:02050E0001FFEB
:02050F0001FFEA
:0205100001FFE9
:0205110001FFE8
:0205120001FFE7
:0205130001FFE6
:0205140001FFE5
:0205150001FFE4
:0205160001FFE3
:0205170001FFE2
:0205180001FFE1
:0205190001FFE0
:02051A0001FFDF
:02051B0001FFDE
:02051C0001FFDD
:02051D0001FFDC
:02051E0001FFDB
:02051F0001FFDA
:0205200001FFD9
:0205210001FFD8
:0205220001FFD7
:0205230001FFD6
:0205240001FFD5
:0205250001FFD4
:0205260001FFD3
:0205270001FFD2
:0205280001FFD1
:0205290001FFD0
:02052A0001FFCF
:02052B0001FFCE
:02052C0001FFCD
:02052D0001FFCC
:02052E0001FFCB
:02052F0001FFCA
:0205300001FFC9
:0205310001FFC8
:0205320001FFC7
:0205330001FFC6
:0205340001FFC5
:0205350001FFC4
:0205360001FFC3
:0205370001FFC2
:0205380001FFC1
:0205390001FFC0
:02053A0001FFBF
:02053B0001FFBE
:02053C0001FFBD
:02053D0001FFBC
:02053E0001FFBB
:02053F0001FFBA
:0205400001FFB9
:0205410001FFB8
:0205420001FFB7
:0205430001FFB6
:0205440001FFB5
:0205450001FFB4
:0205460001FFB3
:0205470001FFB2
:0205480001FFB1
:0205490001FFB0
:02054A0001FFAF
:02054B0001FFAE
:02054C0001FFAD
:02054D0001FFAC
:02054E0001FFAB
:02054F0001FFAA
:0205500001FFA9
:0205510001FFA8
:0205520001FFA7
:0205530001FFA6
:0205540001FFA5
:0205550001FFA4
:0205560001FFA3
:0205570001FFA2
:0205580001FFA1
:0205590001FFA0
:02055A0001FF9F
:02055B0001FF9E
:02055C0001FF9D
:02055D0001FF9C
:02055E0001FF9B
:02055F0001FF9A
:0205600001FF99
:0205610001FF98
:0205620001FF97
:0205630001FF96
:0205640001FF95
:0205650001FF94
:0205660001FF93
:0205670001FF92
:0205680001FF91
:0205690001FF90
:02056A0001FF8F
:02056B0001FF8E
:02056C0001FF8D
:02056D0001FF8C
:02056E0001FF8B
:02056F0001FF8A
:0205700001FF89
:0205710001FF88
:0205720001FF87
:0205730001FF86
:0205740001FF85
:0205750001FF84
:0205760001FF83
:0205770001FF82
:0205780001FF81
:0205790001FF80
:02057A0001FF7F
:02057B0001FF7E
:02057C0001FF7D
:02057D0001FF7C
:02057E0001FF7B
:02057F0001FF7A
:0205800001FF79
:0205810001FF78
:0205820001FF77
:0205830001FF76
:0205840001FF75
:0205850001FF74
:0205860001FF73
:0205870001FF72
:0205880001FF71
:0205890001FF70
:02058A0001FF6F
:02058B0001FF6E
:02058C0001FF6D
:02058D0001FF6C
:02058E0001FF6B
:02058F0001FF6A
:0205900001FF69
:0205910001FF68
:0205920001FF67
:0205930001FF66
:0205940001FF65
:0205950001FF64
:0205960001FF63
:0205970001FF62
:0205980001FF61
:0205990001FF60
:02059A0001FF5F
:02059B0001FF5E
:02059C0001FF5D
:02059D0001FF5C
:02059E0001FF5B
:02059F0001FF5A
:0205A00001FF59
:0205A10001FF58
:0205A20001FF57
:0205A30001FF56
:0205A40001FF55
:0205A50001FF54
:0205A60001FF53
:0205A70001FF52
:0205A80001FF51
:0205A90001FF50
:0205AA0001FF4F
:0205AB0001FF4E
:0205AC0001FF4D
:0205AD0001FF4C
:0205AE0001FF4B
:0205AF0001FF4A
:0205B00001FF49
:0205B10001FF48
:0205B20001FF47
:0205B30001FF46
:0205B40001FF45
:0205B50001FF44
:0205B60001FF43
:0205B70001FF42
:0205B80001FF41
:0205B90001FF40
:0205BA0001FF3F
:0205BB0001FF3E
:0205BC0001FF3D
:0205BD0001FF3C
:0205BE0001FF3B
:0205BF0001FF3A
:0205C00001FF39
:0205C10001FF38
:0205C20001FF37
:0205C30001FF36
:0205C40001FF35
:0205C50001FF34
:0205C60001FF33
:0205C70001FF32
:0205C80001FF31
:0205C90001FF30
:0205CA0001FF2F
:0205CB0001FF2E
:0205CC0001FF2D
:0205CD0001FF2C
:0205CE0001FF2B
:0205CF0001FF2A
:0205D00001FF29
:0205D10001FF28
:0205D20001FF27
:0205D30001FF26
:0205D40001FF25
:0205D50001FF24
:0205D60001FF23
:0205D70001FF22
:0205D80001FF21
:0205D90001FF20
:0205DA0001FF1F
:0205DB0001FF1E
:0205DC0001FF1D
:0205DD0001FF1C
:0205DE0001FF1B
:0205DF0001FF1A
:0205E00001FF19
:0205E10001FF18
:0205E20001FF17
:0205E30001FF16
:0205E40001FF15
:0205E50001FF14
:0205E60001FF13
:0205E70001FF12
:0205E80001FF11
:0205E90001FF10
:0205EA0001FF0F
:0205EB0001FF0E
:0205EC0001FF0D
:0205ED0001FF0C
:0205EE0001FF0B
:0205EF0001FF0A
:0205F00001FF09
:0205F10001FF08
:0205F20001FF07
:0205F30001FF06
:0205F40001FF05
:0205F50001FF04
:0205F60001FF03
:0205F70001FF02
:0205F80001FF01
:0205F90001FF00
:0205FA0001FFFF
:0205FB0001FFFE
:0205FC0001FFFD
:0205FD0001FFFC
:0205FE0001FFFB
:0205FF0001FFFA
:0206000001FFF8
:0206010001FFF7
:0206020001FFF6
:0206030001FFF5
:0206040001FFF4
:0206050001FFF3
:0206060001FFF2
:0206070001FFF1
:0206080001FFF0
:0206090001FFEF
:02060A0001FFEE
:02060B0001FFED
:02060C0001FFEC
:02060D0001FFEB
:02060E0001FFEA
:02060F0001FFE9
:0206100001FFE8
:0206110001FFE7
:0206120001FFE6
:0206130001FFE5
:0206140001FFE4
:0206150001FFE3
:0206160001FFE2
:0206170001FFE1
:0206180001FFE0
:0206190001FFDF
:02061A0001FFDE
:02061B0001FFDD
:02061C0001FFDC
:02061D0001FFDB
:02061E0001FFDA
:02061F0001FFD9
:0206200001FFD8
:0206210001FFD7
:0206220001FFD6
:0206230001FFD5
:0206240001FFD4
:0206250001FFD3
:0206260001FFD2
:0206270001FFD1
:0206280001FFD0
:0206290001FFCF
:02062A0001FFCE
:02062B0001FFCD
:02062C0001FFCC
:02062D0001FFCB
:02062E0001FFCA
:02062F0001FFC9
:0206300001FFC8
:0206310001FFC7
:0206320001FFC6
:0206330001FFC5
:0206340001FFC4
:0206350001FFC3
:0206360001FFC2
:0206370001FFC1
:0206380001FFC0
:0206390001FFBF
:02063A0001FFBE
:02063B0001FFBD
:02063C0001FFBC
:02063D0001FFBB
:02063E0001FFBA
:02063F0001FFB9
:0206400001FFB8
:0206410001FFB7
:0206420001FFB6
:0206430001FFB5
:0206440001FFB4
:0206450001FFB3
:0206460001FFB2
:0206470001FFB1
:0206480001FFB0
:0206490001FFAF
:02064A0001FFAE
:02064B0001FFAD
:02064C0001FFAC
:02064D0001FFAB
:02064E0001FFAA
:02064F0001FFA9
:0206500001FFA8
:0206510001FFA7
:0206520001FFA6
:0206530001FFA5
:0206540001FFA4
:0206550001FFA3
:0206560001FFA2
:0206570001FFA1
:0206580001FFA0
:0206590001FF9F
:02065A0001FF9E
:02065B0001FF9D
:02065C0001FF9C
:02065D0001FF9B
:02065E0001FF9A
:02065F0001FF99
:0206600001FF98
:0206610001FF97
:0206620001FF96
:0206630001FF95
:0206640001FD96
:0206650000C0D3
:02066600000092
:02066700000091
:02066800001D73
:0206690001FF8F
:02066A0001FF8E
:02066B0001FF8D
:02066C0001A1EA
:02066D00000C7F
:02066E0001BFCA
:02066F0001FF89
:0206700001F493
:02067100004047
:02067200001D69
:0206730001FF85
:0206740001FF84
:0206750001FF83
:0206760001A1E0
:02067700000180
:02067800013748
:0206790001F48A
:02067A0000403E
:02067B0000007D
:02067C0000007C
:02067D00001D5E
:02067E0001FF7A
:02067F0001FF79
:0206800001FF78
:0206810001F482
:02068200004036
:02068300000075
:02068400000074
:0206850000660D
:0206860001FE73
:02068700010967
:02068800013738
:0206890001FF6F
:02068A0001FF6E
:02068B0001F478
:02068C00004C20
:02068D0001B4B6
:02068E0000402A
:02068F00000069
:02069000000068
:02069100001D4A
:0206920001FD68
:0206930000C0A5
:02069400000064
:02069500000063
:02069600001D45
:0206970001FF61
:0206980001FF60
:0206990001FF5F
:02069A0001FF5E
:02069B0001FF5D
:02069C0001FF5C
:02069D0001FF5B
:02069E0001FF5A
:02069F0001FF59
:0206A00001FF58
:0206A10001FF57
:0206A20001FF56
:0206A30001FF55
:0206A40001FF54
:0206A50001FF53
:0206A60001FF52
:0206A70001FF51
:0206A80001FF50
:0206A90001FF4F
:0206AA0001FF4E
:0206AB0001FF4D
:0206AC0001FF4C
:0206AD0001FF4B
:0206AE0001FF4A
:0206AF0001FF49
:0206B00001FF48
:0206B10001FF47
:0206B20001FF46
:0206B30001FF45
:0206B40001FF44
:0206B50001FF43
:0206B60001FF42
:0206B70001FF41
:0206B80001FF40
:0206B90001FF3F
:0206BA0001FF3E
:0206BB0001FF3D
:0206BC0001FF3C
:0206BD0001FF3B
:0206BE0001FF3A
:0206BF0001FF39
:0206C00001FF38
:0206C10001FF37
:0206C20001FF36
:0206C30001FF35
:0206C40001FF34
:0206C50001FF33
:0206C60001FF32
:0206C70001FF31
:0206C80001FF30
:0206C90001FF2F
:0206CA0001FF2E
:0206CB0001FF2D
:0206CC0001FF2C
:0206CD0001FF2B
:0206CE0001FF2A
:0206CF0001FF29
:0206D00001FF28
:0206D10001FF27
:0206D20001FF26
:0206D30001FF25
:0206D40001FF24
:0206D50001FF23
:0206D60001FF22
:0206D70001FF21
:0206D80001FF20
:0206D90001FF1F
:0206DA0001FF1E
:0206DB0001FF1D
:0206DC0001FF1C
:0206DD0001FF1B
:0206DE0001FF1A
:0206DF0001FF19
:0206E00001FF18
:0206E10001FF17
:0206E20001FF16
:0206E30001FF15
:0206E40001FF14
:0206E50001FF13
:0206E60001FF12
:0206E70001FF11
:0206E80001FF10
:0206E90001FF0F
:0206EA0001FF0E
:0206EB0001FF0D
:0206EC0001FF0C
:0206ED0001FF0B
:0206EE0001FF0A
:0206EF000158B0
:0206F00000EF19
:0206F10001FF07
:0206F20001FF06
:0206F3000158AC
:0206F40000669E
:0206F50001FF03
:0206F60001FF02
:0206F70001A15F
:0206F80000EF11
:0206F90001FD01
:0206FA0000C33B
:0206FB00017F7D
:0206FC0001FDFE
:0206FD0000C03B
:0206FE00006694
:0206FF0001FFF9
:0207000001FEF8
:020701000109EC
:020702000137BD
:0207030001FDF6
:0207040000C033
:0207050000668C
:0207060001FFF1
:0207070001FEF1
:020708000109E5
:020709000137B6
:02070A0001F4F8
:02070B000040AC
:02070C000000EB
:02070D000000EA
:02070E00001DCC
:02070F0001FDEA
:0207100000C027
:020711000000E6
:020712000000E5
:02071300001DC7
:0207140001FFE3
:0207150001FFE2
:0207160001FFE1
:0207170001FFE0
:0207180001FFDF
:0207190001FFDE
:02071A0001FFDD
:02071B0001FFDC
:02071C0001FFDB
:02071D0001FFDA
:02071E0001FFD9
:02071F0001FFD8
:0207200001FFD7
:0207210001FFD6
:0207220001FFD5
:0207230001FFD4
:0207240001FFD3
:0207250001FFD2
:0207260001FFD1
:0207270001FFD0
:0207280001FFCF
:0207290001FFCE
:02072A0001FFCD
:02072B0001FFCC
:02072C0001FFCB
:02072D0001FFCA
:02072E0001FFC9
:02072F0001FFC8
:0207300001FFC7
:0207310001FFC6
:0207320001FFC5
:0207330001FFC4
:0207340001FFC3
:0207350001FDC4
:0207360000C001
:0207370000665A
:0207380001FFBF
:0207390001FEBF
:02073A000109B3
:02073B00013784
:02073C0001F4C6
:02073D0000407A
:02073E000000B9
:02073F000000B8
:02074000001D9A
:0207410001FFB6
:0207420001FDB7
:0207430000C0F4
:020744000000B3
:020745000000B2
:02074600001D94
:0207470001FFB0
:0207480001FDB1
:0207490000C0EE
:02074A000000AD
:02074B000000AC
:02074C00001D8E
:02074D0001FFAA
:02074E0001F4B4
:02074F00004068
:020750000000A7
:020751000000A6
:02075200001D88
:0207530001FFA4
:0207540001FFA3
:0207550001A100
:02075600000C95
:0207570001BFE0
:0207580001FF9F
:0207590001FDA0
:02075A0000C0DD
:02075B00006636
:02075C0001FF9B
:02075D0001FE9B
:02075E0001098F
:02075F00013760
:0207600001FD99
:0207610000CCCA
:0207620001BFD5
:0207630001FF94
:0207640001FE94
:02076500010988
:02076600013759
:0207670001FF90
:0207680001FF8F
:0207690001FF8E
:02076A0001FF8D
:02076B0001FF8C
:02076C0001FF8B
:02076D0001FF8A
:02076E0001FF89
:02076F0001FF88
:0207700001FF87
:0207710001FF86
:0207720001FF85
:0207730001FD86
:0207740000C0C3
:0207750000EF93
:0207760001FF81
:0207770001FF80
:02077800015925
:02077900013746
:02077A0001FF7D
:02077B0001FE7D
:02077C00010B6F
:02077D0000D8A2
:02077E0000EF8A
:02077F0001FF78
:0207800001F482
:0207810000492D
:02078200004332
:02078300017FF4
:0207840001FF73
:0207850001FE73
:02078600010967
:02078700004927
:02078800013737
:0207890001F479
:02078A00004C21
:02078B0001BFAC
:02078C0001FF6B
:02078D0001FF6A
:02078E0001FF69
:02078F0001FF68
:0207900001FD69
:0207910000C1A5
:0207920001372D
:0207930001FF64
:0207940001FD65
:0207950000C1A1
:02079600013729
:0207970001A1BE
:020798000066F9
:0207990001FF5E
:02079A0001FF5D
:02079B0001A1BA
:02079C000066F5
:02079D0001F465
:02079E00004C0D
:02079F0001BF98
:0207A00001FF57
:0207A10001FF56
:0207A20001FD57
:0207A30000CC88
:0207A40001BF93
:0207A50001FE53
:0207A600010947
:0207A700013718
:0207A80001FF4F
:0207A90001FF4E
:0207AA0001FF4D
:0207AB0001FF4C
:0207AC0001FF4B
:0207AD0001FF4A
:0207AE0001FF49
:0207AF0001FF48
:0207B00001FF47
:0207B10001FF46
:0207B20001FF45
:0207B30001FF44
:0207B40001FF43
:0207B50001FF42
:0207B60001FF41
:0207B70001FF40
:0207B80001FF3F
:0207B90001FF3E
:0207BA0001FF3D
:0207BB0001FF3C
:0207BC0001FF3B
:0207BD0001FF3A
:0207BE0001FF39
:0207BF0001FF38
:0207C00001FF37
:0207C10001FF36
:0207C20001FF35
:0207C30001FF34
:0207C40001FF33
:0207C50001FF32
:0207C60001FF31
:0207C70001FF30
:0207C80001FF2F
:0207C90001FF2E
:0207CA0001FF2D
:0207CB0001FF2C
:0207CC0001FF2B
:0207CD0001FF2A
:0207CE0001FF29
:0207CF0001FF28
:0207D00001FF27
:0207D10001FF26
:0207D20001FF25
:0207D30001FF24
:0207D40001FF23
:0207D50001FF22
:0207D60001FF21
:0207D70001FF20
:0207D80001FF1F
:0207D90001FF1E
:0207DA0001FF1D
:0207DB0001FF1C
:0207DC0001FF1B
:0207DD0001FF1A
:0207DE0001FF19
:0207DF0001FF18
:0207E00001FF17
:0207E10001FF16
:0207E20001FF15
:0207E30001FF14
:0207E40001FF13
:0207E50001FF12
:0207E60001FF11
:0207E70001FF10
:0207E80001FF0F
:0207E90001FF0E
:0207EA0001FF0D
:0207EB0001FF0C
:0207EC0001FF0B
:0207ED0001FF0A
:0207EE0001FF09
:0207EF0001FF08
:0207F00001FF07
:0207F10001FF06
:0207F20001FF05
:0207F30001FF04
:0207F40001FF03
:0207F50001FF02
:0207F60001FF01
:0207F70001FF00
:0207F80001FFFF
:0207F90001FFFE
:0207FA0001FFFD
:0207FB0001FFFC
:0207FC0001FFFB
:0207FD0001FFFA
:0207FE0001FFF9
:0207FF0001EB0C
:02080000001DD9
:0208010001FFF5
:0208020001FDF6
:0208030000C033
:02080400001DD5
:0208050001FFF1
:0208060001FEF1
:020807000109E5
:020808000137B6
:0208090001FDEF
:02080A0000C329
:02080B00017F6B
:02080C0001FDEC
:02080D0000C920
:02080E000043A5
:02080F00017F67
:0208100001FEE7
:020811000109DB
:020812000137AC
:0208130001FDE5
:0208140000C919
:0208150000439E
:02081600017F60
:0208170001FEE0
:020818000109D4
:020819000137A5
:02081A0001F4E7
:02081B00004C8F
:02081C0001BF1A
:02081D0001FFD9
:02081E0001FFD8
:02081F0001FDD9
:0208200000CC0A
:0208210001BF15
:0208220001FED5
:020823000109C9
:0208240001379A
:0208250001FFD1
:0208260001FFD0
:0208270001FFCF
:0208280001FFCE
:0208290001FFCD
:02082A0001FFCC
:02082B0001FFCB
:02082C0001FFCA
:02082D0001FFC9
:02082E0001FFC8
:02082F0001FFC7
:0208300001FFC6
:0208310001FFC5
:0208320001FFC4
:0208330001FFC3
:0208340001FFC2
:0208350001FFC1
:0208360001FFC0
:0208370001FFBF
:0208380001FFBE
:0208390001FFBD
:02083A0001FFBC
:02083B0001FFBB
:02083C0001FFBA
:02083D0001FFB9
:02083E0001FFB8
:02083F0001FFB7
:0208400001FFB6
:0208410001FFB5
:0208420001FFB4
:0208430001FFB3
:0208440001FFB2
:0208450001FDB3
:0208460000C9E7
:0208470000436C
:02084800017F2E
:0208490001FEAE
:02084A000109A2
:02084B00013773
:02084C0001F4B5
:02084D00004C5D
:02084E0001BFE8
:02084F0001FFA7
:0208500001FFA6
:0208510001FDA7
:0208520000C0E4
:0208530000EFB4
:0208540001FFA2
:0208550001FFA1
:02085600015946
:02085700013767
:0208580001FDA0
:0208590000CCD1
:02085A0001BFDC
:02085B0001FE9C
:02085C00010990
:02085D00013761
:02085E0001F4A3
:02085F00004C4B
:0208600001BFD6
:0208610001FF95
:0208620001FF94
:0208630001FF93
:0208640001FE93
:02086500010B85
:0208660000D8B8
:0208670000EFA0
:0208680001FF8E
:0208690001FD8F
:02086A0000C9C3
:02086B00004348
:02086C00017F0A
:02086D0001FE8A
:02086E0001097E
:02086F0001374F
:0208700001FD88
:0208710000CCB9
:0208720001BFC4
:0208730001FF83
:0208740001FE83
:02087500010977
:02087600013748
:0208770001FF7F
:0208780001FF7E
:0208790001FF7D
:02087A0001FF7C
:02087B0001FF7B
:02087C0001FF7A
:02087D0001FF79
:02087E0001FF78
:02087F0001FF77
:0208800001FF76
:0208810001FF75
:0208820001FF74
:0208830001EB87
:02088400001D55
:0208850001FF71
:0208860001FF70
:0208870001FF6F
:0208880001FF6E
:0208890001FF6D
:02088A0001FF6C
:02088B0001EB7F
:02088C00006604
:02088D0001EB7D
:02088E00001D4B
:02088F0001FF67
:0208900001F471
:02089100004C19
:02089200016102
:0208930000EF74
:0208940001FF62
:0208950001EB75
:02089600001C44
:02089700010955
:02089800013726
:0208990001F468
:02089A00004C10
:02089B0001BF9B
:02089C0001FF5A
:02089D0001FF59
:02089E0001FF58
:02089F0001FF57
:0208A00001EB6A
:0208A100001D38
:0208A20001FF54
:0208A30001FF53
:0208A40001FF52
:0208A50001A1AF
:0208A6000066EA
:0208A70001F45A
:0208A800004C02
:0208A90001BF8D
:0208AA0001FE4D
:0208AB00010941
:0208AC00013712
:0208AD0001F454
:0208AE00004CFC
:0208AF0001BF87
:0208B00001FF46
:0208B10001FF45
:0208B20001FD46
:0208B30000CC77
:0208B40001BF82
:0208B50001FE42
:0208B600010936
:0208B700013707
:0208B80001FF3E
:0208B90001FF3D
:0208BA0001FF3C
:0208BB0001FF3B
:0208BC0001FF3A
:0208BD0001FF39
:0208BE0001FF38
:0208BF0001FF37
:0208C00001FF36
:0208C10001FF35
:0208C20001FF34
:0208C30001FF33
:0208C40001FF32
:0208C50001FF31
:0208C60001FF30
:0208C70001FF2F
:0208C80001FF2E
:0208C90001FF2D
:0208CA0001FF2C
:0208CB0001FF2B
:0208CC0001FF2A
:0208CD0001FF29
:0208CE0001FF28
:0208CF0001FF27
:0208D00001FF26
:0208D10001FF25
:0208D20001FF24
:0208D30001FF23
:0208D40001FF22
:0208D50001FF21
:0208D60001FF20
:0208D70001FF1F
:0208D80001FF1E
:0208D90001FF1D
:0208DA0001FF1C
:0208DB0001FF1B
:0208DC0001FF1A
:0208DD0001FF19
:0208DE0001FF18
:0208DF0001FF17
:0208E00001FF16
:0208E10001FF15
:0208E20001FF14
:0208E30001FF13
:0208E40001FF12
:0208E50001FF11
:0208E60001FF10
:0208E70001FF0F
:0208E80001FF0E
:0208E90001FF0D
:0208EA0001FF0C
:0208EB0001FF0B
:0208EC0001FF0A
:0208ED0001FF09
:0208EE0001FF08
:0208EF0001FF07
:0208F00001FF06
:0208F10001FF05
:0208F20001FF04
:0208F30001FF03
:0208F40001FF02
:0208F50001FF01
:0208F60001FF00
:0208F70001FFFF
:0208F80001FFFE
:0208F90001FFFD
:0208FA0001FFFC
:0208FB0001FFFB
:0208FC0001FFFA
:0208FD0001FFF9
:0208FE0001FFF8
:0208FF0001FFF7
:0209000001FFF5
:0209010001FFF4
:0209020001FFF3
:0209030001FFF2
:0209040001FFF1
:0209050001FFF0
:0209060001FFEF
:0209070001FFEE
:0209080001FFED
:0209090001FFEC
:02090A0001FFEB
:02090B0001FFEA
:02090C0001FFE9
:02090D0001FFE8
:02090E0001FFE7
:02090F0001FDE8
:0209100000C322
:02091100017F64
:0209120001F4EE
:0209130000E5FD
:02091400010BD5
:02091500017F60
:0209160001FDE1
:0209170000CC12
:0209180001BF1D
:0209190001FDDE
:02091A0000C318
:02091B00017F5A
:02091C0001FDDB
:02091D0000CC0C
:02091E00016175
:02091F00006670
:0209200001FED6
:020921000109CA
:0209220001379B
:0209230001FDD4
:0209240000CC05
:0209250001616E
:02092600006669
:0209270001FECF
:020928000109C3
:02092900013794
:02092A0001F4D6
:02092B00004C7E
:02092C0001BF09
:02092D0001FFC8
:02092E0001FFC7
:02092F0001FDC8
:0209300000CCF9
:0209310001BF04
:0209320001FEC4
:020933000109B8
:02093400013789
:0209350001FDC2
:0209360000C1FE
:02093700013786
:0209380001FFBD
:0209390001FFBC
:02093A0001FFBB
:02093B0001FFBA
:02093C0001FFB9
:02093D0001FFB8
:02093E0001FFB7
:02093F0001FFB6
:0209400001FFB5
:0209410001FFB4
:0209420001FFB3
:0209430001FFB2
:0209440001FFB1
:0209450001FFB0
:0209460001FFAF
:0209470001FFAE
:0209480001FFAD
:0209490001FFAC
:02094A0001FFAB
:02094B0001FFAA
:02094C0001FFA9
:02094D0001FFA8
:02094E0001FFA7
:02094F0001FFA6
:0209500001FFA5
:0209510001FFA4
:0209520001FFA3
:0209530001FFA2
:0209540001FFA1
:0209550001FDA2
:0209560000CCD3
:0209570001613C
:02095800006637
:0209590001FE9D
:02095A00010991
:02095B00013762
:02095C0001F4A4
:02095D00004C4C
:02095E0001BFD7
:02095F0001FF96
:0209600001FF95
:0209610001EBA8
:02096200001D76
:0209630001FF92
:0209640001FF91
:0209650001FF90
:0209660001FF8F
:0209670001FF8E
:0209680001FD8F
:0209690000CCC0
:02096A0001BFCB
:02096B0001FE8B
:02096C0001097F
:02096D00013750
:02096E0001F492
:02096F00004C3A
:0209700001BFC5
:0209710001FF84
:0209720001FF83
:0209730001FF82
:0209740001EB95
:0209750000661A
:0209760001EB93
:02097700001D61
:0209780001FF7D
:0209790001FD7E
:02097A0000CCAF
:02097B00016118
:02097C00006613
:02097D0001FE79
:02097E0001096D
:02097F0001373E
:0209800001FD77
:0209810000CCA8
:0209820001BFB3
:0209830001FF72
:0209840001FE72
:02098500010966
:02098600013737
:0209870001FF6E
:0209880001FF6D
:0209890001FF6C
:02098A0001FF6B
:02098B0001FF6A
:02098C0001FF69
:02098D0001FF68
:02098E0001FF67
:02098F0001FF66
:0209900001FF65
:0209910001FF64
:0209920001FF63
:0209930001A1C0
:020994000066FB
:0209950001FF60
:0209960001A1BD
:0209970000005E
:0209980000015C
:02099900013724
:02099A0001FF5B
:02099B00015900
:02099C00013721
:02099D0001FE59
:02099E00010B4B
:02099F00017FD6
:0209A00001F460
:0209A100004C08
:0209A20001B49E
:0209A300005DF5
:0209A40001FF51
:0209A5000159F6
:0209A600013618
:0209A700010944
:0209A800013715
:0209A90001F457
:0209AA0000400B
:0209AB0000004A
:0209AC00000049
:0209AD0000EF59
:0209AE0001FF47
:0209AF0001FF46
:0209B00001A1A3
:0209B1000066DE
:0209B20001FF43
:0209B30001FF42
:0209B40001FF41
:0209B50001EB54
:0209B6000066D9
:0209B70001FF3E
:0209B8000159E3
:0209B900013704
:0209BA0001F446
:0209BB00004CEE
:0209BC0001BF79
:0209BD0001F443
:0209BE000040F7
:0209BF00000036
:0209C000000035
:0209C10000EF45
:0209C20001FD35
:0209C30000C072
:0209C400000031
:0209C50000012F
:0209C6000137F7
:0209C70001FF2E
:0209C80001FF2D
:0209C90001FF2C
:0209CA0001FF2B
:0209CB0001FF2A
:0209CC0001FF29
:0209CD0001FF28
:0209CE0001FF27
:0209CF0001FF26
:0209D00001FF25
:0209D10001FF24
:0209D20001FF23
:0209D30001FF22
:0209D40001FF21
:0209D50001FF20
:0209D60001FF1F
:0209D70001FF1E
:0209D80001FF1D
:0209D90001FF1C
:0209DA0001FF1B
:0209DB0001FF1A
:0209DC0001FF19
:0209DD0001FF18
:0209DE0001FF17
:0209DF0001FF16
:0209E00001FF15
:0209E10001FF14
:0209E20001FF13
:0209E30001FF12
:0209E40001FF11
:0209E50001FF10
:0209E60001FF0F
:0209E70001FF0E
:0209E80001FF0D
:0209E90001FF0C
:0209EA0001FF0B
:0209EB0001FF0A
:0209EC0001FF09
:0209ED0001FF08
:0209EE0001FF07
:0209EF0001FF06
:0209F00001FF05
:0209F10001FF04
:0209F20001FF03
:0209F30001FF02
:0209F40001FF01
:0209F50001FF00
:0209F60001FFFF
:0209F70001FFFE
:0209F80001FFFD
:0209F90001FFFC
:0209FA0001FFFB
:0209FB0001FFFA
:0209FC0001FFF9
:0209FD0001FFF8
:0209FE0001FFF7
:0209FF0001FFF6
:020A000001FFF4
:020A010001FFF3
:020A020001FFF2
:020A030001FFF1
:020A040001FFF0
:020A050001FFEF
:020A060001FFEE
:020A070001FFED
:020A080001FFEC
:020A090001FFEB
:020A0A0001FFEA
:020A0B0001FFE9
:020A0C0001FFE8
:020A0D0001FFE7
:020A0E0001FFE6
:020A0F0001FFE5
:020A100001FFE4
:020A110001FFE3
:020A120001FFE2
:020A130001FFE1
:020A140001FFE0
:020A150001FFDF
:020A160001FFDE
:020A170001FFDD
:020A180001FFDC
:020A190001FFDB
:020A1A0001FFDA
:020A1B0001FFD9
:020A1C0001FFD8
:020A1D0001FFD7
:020A1E0001FFD6
:020A1F0001FFD5
:020A200001597A
:020A210001379B
:020A220001A130
:020A230000EFE2
:020A2400015877
:020A250000EFE0
:020A260001EBE2
:020A2700006667
:020A280001FFCC
:020A290001FDCD
:020A2A0000C307
:020A2B00017F49
:020A2C0001FDCA
:020A2D0000CCFB
:020A2E0001BD08
:020A2F0000C104
:020A300001368D
:020A31000109B9
:020A320001378A
:020A330001FDC3
:020A340000CCF4
:020A350001BD01
:020A360000C1FD
:020A3700013686
:020A38000109B2
:020A3900013783
:020A3A0001F4C5
:020A3B00004079
:020A3C000000B8
:020A3D000000B7
:020A3E0000EFC7
:020A3F0001FDB7
:020A400000C0F4
:020A41000000B3
:020A42000001B1
:020A4300013779
:020A440001FFB0
:020A450001FFAF
:020A460001FFAE
:020A470001FFAD
:020A480001FFAC
:020A490001FFAB
:020A4A0001FFAA
:020A4B0001FFA9
:020A4C0001FFA8
:020A4D0001FFA7
:020A4E0001FFA6
:020A4F0001FFA5
:020A500001FFA4
:020A510001FFA3
:020A520001FFA2
:020A530001FFA1
:020A540001FFA0
:020A550001FF9F
:020A560001FF9E
:020A570001FF9D
:020A580001FF9C
:020A590001FF9B
:020A5A0001FF9A
:020A5B0001FF99
:020A5C0001FF98
:020A5D0001FF97
:020A5E0001FF96
:020A5F0001FF95
:020A600001FF94
:020A610001FF93
:020A620001FF92
:020A630001FF91
:020A640001FF90
:020A650001FD91
:020A660000CCC2
:020A670001BDCF
:020A680000C1CB
:020A6900013654
:020A6A00010980
:020A6B00013751
:020A6C0001F493
:020A6D00004047
:020A6E00000086
:020A6F00000085
:020A700000EF95
:020A710001A1E1
:020A720000661C
:020A730001FF81
:020A740001A1DE
:020A750000007F
:020A760000017D
:020A7700013745
:020A780001FD7E
:020A790000C0BB
:020A7A0000007A
:020A7B00000178
:020A7C00013740
:020A7D0001FF77
:020A7E0001F481
:020A7F00004035
:020A8000000074
:020A8100000073
:020A820000EF83
:020A830001FF71
:020A8400015916
:020A8500013737
:020A860001FE6F
:020A8700010B61
:020A8800017FEC
:020A890001FD6D
:020A8A0000CC9E
:020A8B0001BDAB
:020A8C0000C1A7
:020A8D00013630
:020A8E0001095C
:020A8F0001372D
:020A900001FD66
:020A910000CC97
:020A920001BFA2
:020A930001FF61
:020A940001FE61
:020A9500010955
:020A9600013726
:020A970001FF5D
:020A980001FF5C
:020A990001FF5B
:020A9A0001FF5A
:020A9B0001FF59
:020A9C0001FF58
:020A9D0001FF57
:020A9E0001FF56
:020A9F0001FF55
:020AA00001FF54
:020AA10001FF53
:020AA20001FF52
:020AA30001EB65
:020AA400001D33
:020AA50001FF4F
:020AA60001FF4E
:020AA70001FF4D
:020AA8000159F2
:020AA900013713
:020AAA0001FD4C
:020AAB0000C089
:020AAC00000048
:020AAD00000047
:020AAE00000046
:020AAF0000EF56
:020AB00001F44F
:020AB100004CF7
:020AB20001BE83
:020AB300010937
:020AB40001350A
:020AB50000CC73
:020AB60001BE7F
:020AB700010933
:020AB800013704
:020AB90001F446
:020ABA00004CEE
:020ABB0001BF79
:020ABC0001FF38
:020ABD0001FF37
:020ABE0001FF36
:020ABF0001FF35
:020AC00001EB48
:020AC1000066CD
:020AC20001FF32
:020AC30001FF31
:020AC40001FF30
:020AC50001A18D
:020AC6000066C8
:020AC70001FF2D
:020AC80001EB40
:020AC9000066C5
:020ACA0001A188
:020ACB000066C3
:020ACC0001FF28
:020ACD0001F432
:020ACE00004CDA
:020ACF0001BF65
:020AD00001FF24
:020AD10001FF23
:020AD20001FD24
:020AD30000CC55
:020AD40001BF60
:020AD50001A17D
:020AD600001D01
:020AD70001FF1D
:020AD80001FF1C
:020AD90001FF1B
:020ADA0001FF1A
:020ADB0001FF19
:020ADC0001FF18
:020ADD0001FF17
:020ADE0001FF16
:020ADF0001FF15
:020AE00001FF14
:020AE10001FF13
:020AE20001FF12
:020AE30001FF11
:020AE40001FF10
:020AE50001FF0F
:020AE60001FF0E
:020AE70001FF0D
:020AE80001FF0C
:020AE90001FF0B
:020AEA0001FF0A
:020AEB0001FF09
:020AEC0001FF08
:020AED0001FF07
:020AEE0001FF06
:020AEF0001FF05
:020AF00001FF04
:020AF10001FF03
:020AF20001FF02
:020AF30001FF01
:020AF40001FF00
:020AF50001FFFF
:020AF60001FFFE
:020AF70001FFFD
:020AF80001FFFC
:020AF90001FFFB
:020AFA0001FFFA
:020AFB0001FFF9
:020AFC0001FFF8
:020AFD0001FFF7
:020AFE0001FFF6
:020AFF0001FFF5
:020B000001FFF3
:020B010001FFF2
:020B020001FFF1
:020B030001FFF0
:020B040001FFEF
:020B050001FFEE
:020B060001FFED
:020B070001FFEC
:020B080001FFEB
:020B090001FFEA
:020B0A0001FFE9
:020B0B0001FFE8
:020B0C0001FFE7
:020B0D0001FFE6
:020B0E0001FFE5
:020B0F0001FFE4
:020B100001FFE3
:020B110001FFE2
:020B120001FFE1
:020B130001FFE0
:020B140001FFDF
:020B150001FFDE
:020B160001FFDD
:020B170001FFDC
:020B180001FFDB
:020B190001FFDA
:020B1A0001FFD9
:020B1B0001FFD8
:020B1C0001FFD7
:020B1D0001FFD6
:020B1E0001FFD5
:020B1F0001FFD4
:020B200001FFD3
:020B210001FFD2
:020B220001FFD1
:020B230001FFD0
:020B240001FFCF
:020B250001FFCE
:020B260001FFCD
:020B270001FFCC
:020B280001FFCB
:020B290001FFCA
:020B2A0001FFC9
:020B2B0001FFC8
:020B2C0001FFC7
:020B2D0001FFC6
:020B2E0001FFC5
:020B2F0001FFC4
:020B300001A121
:020B310000665C
:020B3200015B65
:020B3300017F40
:020B340001EBD3
:020B3500006658
:020B3600015963
:020B3700013784
:020B380001FFBB
:020B390001FDBC
:020B3A0000C3F6
:020B3B00017F38
:020B3C0001FDB9
:020B3D0000CCEA
:020B3E0001BFF5
:020B3F0001EBC8
:020B4000001C97
:020B41000109A8
:020B4200013779
:020B430001FDB2
:020B440000CCE3
:020B450001BFEE
:020B460001EBC1
:020B4700001C90
:020B48000109A1
:020B4900013772
:020B4A0001F4B4
:020B4B00004C5C
:020B4C0001BFE7
:020B4D0001FFA6
:020B4E0001FFA5
:020B4F0001FDA6
:020B500000CCD7
:020B510001BFE2
:020B520001A1FF
:020B5300001D83
:020B540001FF9F
:020B550001FF9E
:020B560001FF9D
:020B570001FF9C
:020B580001FF9B
:020B590001FF9A
:020B5A0001FF99
:020B5B0001FF98
:020B5C0001FF97
:020B5D0001FF96
:020B5E0001FF95
:020B5F0001FF94
:020B600001FF93
:020B610001FF92
:020B620001FF91
:020B630001FF90
:020B640001FF8F
:020B650001FF8E
:020B660001FF8D
:020B670001FF8C
:020B680001FF8B
:020B690001FF8A
:020B6A0001FF89
:020B6B0001FF88
:020B6C0001FF87
:020B6D0001FF86
:020B6E0001FF85
:020B6F0001FF84
:020B700001FF83
:020B710001FF82
:020B720001FF81
:020B730001FF80
:020B740001FF7F
:020B750001FD80
:020B760000CCB1
:020B770001BFBC
:020B780001EB8F
:020B7900001C5E
:020B7A0001096F
:020B7B00013740
:020B7C0001F482
:020B7D00004C2A
:020B7E0001BFB5
:020B7F0001FF74
:020B800001FF73
:020B810001EB86
:020B8200001D54
:020B830001FF70
:020B840001FF6F
:020B850001FF6E
:020B8600015913
:020B8700013734
:020B880001FD6D
:020B890000CC9E
:020B8A0001BFA9
:020B8B0001A1C6
:020B8C00001D4A
:020B8D0001FF66
:020B8E0001F470
:020B8F00004C18
:020B900001BFA3
:020B910001FF62
:020B920001FF61
:020B930001FD62
:020B940000C09F
:020B950000005E
:020B960000005D
:020B970000005C
:020B980000EF6C
:020B990001FD5C
:020B9A0000CC8D
:020B9B0001BF98
:020B9C0001EB6B
:020B9D00001C3A
:020B9E0001094B
:020B9F0001371C
:020BA00001FD55
:020BA10000CC86
:020BA20001BF91
:020BA30001FF50
:020BA40001FE50
:020BA500010944
:020BA600013715
:020BA70001FF4C
:020BA80001FF4B
:020BA90001FF4A
:020BAA0001FF49
:020BAB0001FF48
:020BAC0001FF47
:020BAD0001FF46
:020BAE0001FF45
:020BAF0001FF44
:020BB00001FF43
:020BB10001FF42
:020BB20001FF41
:020BB30001FD42
:020BB40000C07F
:020BB50000EF4F
:020BB60001FF3D
:020BB70001FF3C
:020BB8000159E1
:020BB900013702
:020BBA0001EB4D
:020BBB000066D2
:020BBC0001FF37
:020BBD0001FF36
:020BBE0001F440
:020BBF00005DD7
:020BC00001F43E
:020BC100004CE6
:020BC20001BF71
:020BC30001A18E
:020BC40000002F
:020BC5000066C8
:020BC60001FE2E
:020BC700010922
:020BC8000137F3
:020BC90001F435
:020BCA00004CDD
:020BCB0001BF68
:020BCC0001FF27
:020BCD0001FF26
:020BCE0001FF25
:020BCF0001FF24
:020BD00001F42E
:020BD1000041E1
:020BD2000137E9
:020BD30001FF20
:020BD40001FD21
:020BD50000C15D
:020BD6000137E5
:020BD70001FF1C
:020BD80001FD1D
:020BD90000CB4F
:020BDA0000C950
:020BDB000137E0
:020BDC0001FF17
:020BDD0001F421
:020BDE00004CC9
:020BDF0001BF54
:020BE00001FF13
:020BE10001FF12
:020BE20001FD13
:020BE30000CC44
:020BE40001BF4F
:020BE50001FE0F
:020BE600010903
:020BE7000137D4
:020BE80001FF0B
:020BE90001FF0A
:020BEA0001FF09
:020BEB0001FF08
:020BEC0001FF07
:020BED0001FF06
:020BEE0001FF05
:020BEF0001FF04
:020BF00001FF03
:020BF10001FF02
:020BF20001FF01
:020BF30001FF00
:020BF40001FFFF
:020BF50001FFFE
:020BF60001FFFD
:020BF70001FFFC
:020BF80001FFFB
:020BF90001FFFA
:020BFA0001FFF9
:020BFB0001FFF8
:020BFC0001FFF7
:020BFD0001FFF6
:020BFE0001FFF5
:020BFF0001FFF4
:020C000001FFF2
:020C010001FFF1
:020C020001FFF0
:020C030001FFEF
:020C040001FFEE
:020C050001FFED
:020C060001FFEC
:020C070001FFEB
:020C080001FFEA
:020C090001FFE9
:020C0A0001FFE8
:020C0B0001FFE7
:020C0C0001FFE6
:020C0D0001FFE5
:020C0E0001FFE4
:020C0F0001FFE3
:020C100001FFE2
:020C110001FFE1
:020C120001FFE0
:020C130001FFDF
:020C140001FFDE
:020C150001FFDD
:020C160001FFDC
:020C170001FFDB
:020C180001FFDA
:020C190001FFD9
:020C1A0001FFD8
:020C1B0001FFD7
:020C1C0001FFD6
:020C1D0001FFD5
:020C1E0001FFD4
:020C1F0001FFD3
:020C200001FFD2
:020C210001FFD1
:020C220001FFD0
:020C230001FFCF
:020C240001FFCE
:020C250001FFCD
:020C260001FFCC
:020C270001FFCB
:020C280001FFCA
:020C290001FFC9
:020C2A0001FFC8
:020C2B0001FFC7
:020C2C0001FFC6
:020C2D0001FFC5
:020C2E0001FFC4
:020C2F0001FFC3
:020C300001FFC2
:020C310001FFC1
:020C320001FFC0
:020C330001FFBF
:020C340001FFBE
:020C350001FFBD
:020C360001FFBC
:020C370001FFBB
:020C380001FFBA
:020C390001FFB9
:020C3A0001FFB8
:020C3B0001FFB7
:020C3C0001FFB6
:020C3D0001FFB5
:020C3E0001FFB4
:020C3F0001FFB3
:020C400001F4BD
:020C4100005B56
:020C420000CCE4
:020C430001BFEF
:020C440001FDB0
:020C450000CBE2
:020C460000CBE1
:020C4700017F2B
:020C480001FFAA
:020C490001FDAB
:020C4A0000C3E5
:020C4B00017F27
:020C4C0001FDA8
:020C4D0000CCD9
:020C4E0001BFE4
:020C4F0001FEA4
:020C5000010899
:020C51000001A0
:020C5200013768
:020C530001FDA1
:020C540000CCD2
:020C550001BFDD
:020C560001FE9D
:020C5700010892
:020C5800000199
:020C5900013761
:020C5A0001F4A3
:020C5B00004C4B
:020C5C0001BFD6
:020C5D0001FF95
:020C5E0001FF94
:020C5F0001FD95
:020C600000CCC6
:020C610001BFD1
:020C620001FE91
:020C6300010985
:020C6400013756
:020C650001FF8D
:020C660001FF8C
:020C670001FF8B
:020C680001FF8A
:020C690001FF89
:020C6A0001FF88
:020C6B0001FF87
:020C6C0001FF86
:020C6D0001FF85
:020C6E0001FF84
:020C6F0001FF83
:020C700001FF82
:020C710001FF81
:020C720001FF80
:020C730001FF7F
:020C740001FF7E
:020C750001FF7D
:020C760001FF7C
:020C770001FF7B
:020C780001FF7A
:020C790001FF79
:020C7A0001FF78
:020C7B0001FF77
:020C7C0001FF76
:020C7D0001FF75
:020C7E0001FF74
:020C7F0001FF73
:020C800001FF72
:020C810001FF71
:020C820001FF70
:020C830001FF6F
:020C840001FF6E
:020C850001FD6F
:020C860000CCA0
:020C870001BFAB
:020C880001FE6B
:020C8900010860
:020C8A00000167
:020C8B0001372F
:020C8C0001F471
:020C8D00004C19
:020C8E0001BFA4
:020C8F0001FF63
:020C900001FF62
:020C910001FD63
:020C920000C0A0
:020C930000EF70
:020C940001FF5E
:020C950001FF5D
:020C9600015902
:020C9700013723
:020C980001FD5C
:020C990000CC8D
:020C9A0001BF98
:020C9B0001FE58
:020C9C0001094C
:020C9D0001371D
:020C9E0001F45F
:020C9F00004C07
:020CA00001BF92
:020CA10001FF51
:020CA20001FF50
:020CA30001EB63
:020CA4000066E8
:020CA50001FF4D
:020CA60001FF4C
:020CA70001F456
:020CA800005DED
:020CA90001FD4B
:020CAA0000CC7C
:020CAB0001BF87
:020CAC0001FE47
:020CAD0001083C
:020CAE00000143
:020CAF0001370B
:020CB00001FE43
:020CB100010838
:020CB20000EF51
:020CB30001FF3F
:020CB40001F449
:020CB5000043FA
:020CB600017FBC
:020CB70001FF3B
:020CB80001FF3A
:020CB90001FF39
:020CBA0001FF38
:020CBB0001FF37
:020CBC0001FF36
:020CBD0001FF35
:020CBE0001FF34
:020CBF0001FF33
:020CC00001FF32
:020CC10001FF31
:020CC20001FF30
:020CC30001FF2F
:020CC40001FD30
:020CC50000C06D
:020CC60000002C
:020CC70000002B
:020CC800000327
:020CC900017FA9
:020CCA000159CE
:020CCB000137EF
:020CCC0001FF26
:020CCD0001FF25
:020CCE0001FD26
:020CCF0000C162
:020CD000012CF5
:020CD100004CD5
:020CD20001BF60
:020CD30001F42A
:020CD4000043DB
:020CD500017F9D
:020CD60001FE1D
:020CD700010911
:020CD8000137E2
:020CD90001F424
:020CDA000040D8
:020CDB00000017
:020CDC00000016
:020CDD00000C09
:020CDE0001BF54
:020CDF0001FF13
:020CE00001FF12
:020CE10001EB25
:020CE200000010
:020CE30000000F
:020CE40000000E
:020CE50000EF1E
:020CE60001FF0C
:020CE70001FF0B
:020CE80001FF0A
:020CE9000158B0
:020CEA00000CFC
:020CEB0001BF47
:020CEC0001FF06
:020CED0001F410
:020CEE000040C4
:020CEF00000003
:020CF000000002
:020CF100000CF5
:020CF20001BD42
:020CF30000CC33
:020CF40001BF3E
:020CF50001FFFD
:020CF60001A15A
:020CF700006695
:020CF80001FFFA
:020CF90001FFF9
:020CFA0001FFF8
:020CFB0001FFF7
:020CFC0001FFF6
:020CFD0001FFF5
:020CFE0001FFF4
:020CFF0001FFF3
:020D000001FFF1
:020D010001FFF0
:020D020001FFEF
:020D030001FFEE
:020D040001FFED
:020D050001FFEC
:020D060001FFEB
:020D070001FFEA
:020D080001FFE9
:020D090001FFE8
:020D0A0001FFE7
:020D0B0001FFE6
:020D0C0001FFE5
:020D0D0001FFE4
:020D0E0001FFE3
:020D0F0001FFE2
:020D100001FFE1
:020D110001FFE0
:020D120001FFDF
:020D130001FFDE
:020D140001FFDD
:020D150001FFDC
:020D160001FFDB
:020D170001FFDA
:020D180001FFD9
:020D190001FFD8
:020D1A0001FFD7
:020D1B0001FFD6
:020D1C0001FFD5
:020D1D0001FFD4
:020D1E0001FFD3
:020D1F0001FFD2
:020D200001FFD1
:020D210001FFD0
:020D220001FFCF
:020D230001FFCE
:020D240001FFCD
:020D250001FFCC
:020D260001FFCB
:020D270001FFCA
:020D280001FFC9
:020D290001FFC8
:020D2A0001FFC7
:020D2B0001FFC6
:020D2C0001FFC5
:020D2D0001FFC4
:020D2E0001FFC3
:020D2F0001FFC2
:020D300001FFC1
:020D310001FFC0
:020D320001FFBF
:020D330001FFBE
:020D340001FFBD
:020D350001FFBC
:020D360001FFBB
:020D370001FFBA
:020D380001FFB9
:020D390001FFB8
:020D3A0001FFB7
:020D3B0001FFB6
:020D3C0001FFB5
:020D3D0001FFB4
:020D3E0001FFB3
:020D3F0001FFB2
:020D400001FFB1
:020D410001FFB0
:020D420001FFAF
:020D430001FFAE
:020D440001FFAD
:020D450001FFAC
:020D460001FFAB
:020D470001FFAA
:020D480001FFA9
:020D490001FFA8
:020D4A0001FFA7
:020D4B0001FFA6
:020D4C0001FFA5
:020D4D0001FFA4
:020D4E0001FFA3
:020D4F0001FFA2
:020D500001FEA2
:020D5100010897
:020D5200006639
:020D530001FF9E
:020D540001FE9E
:020D5500010893
:020D5600001D7E
:020D570001FF9A
:020D580001FF99
:020D590001FD9A
:020D5A0000C3D4
:020D5B00017F16
:020D5C0001FD97
:020D5D0000CCC8
:020D5E0001BFD3
:020D5F0001FF92
:020D600001EBA5
:020D610000018F
:020D6200013757
:020D630001FD90
:020D640000CCC1
:020D650001BFCC
:020D660001FF8B
:020D670001EB9E
:020D6800000188
:020D6900013750
:020D6A0001F492
:020D6B00004046
:020D6C00000085
:020D6D00000084
:020D6E00000C77
:020D6F0001BDC4
:020D700000CCB5
:020D710001BFC0
:020D720001FF7F
:020D730001A1DC
:020D7400006617
:020D750001FD7E
:020D760000C1BA
:020D7700013742
:020D780001FF79
:020D790001FF78
:020D7A0001FF77
:020D7B0001FF76
:020D7C0001FF75
:020D7D0001FF74
:020D7E0001FF73
:020D7F0001FF72
:020D800001FF71
:020D810001FF70
:020D820001FF6F
:020D830001FF6E
:020D840001FF6D
:020D850001FF6C
:020D860001FF6B
:020D870001FF6A
:020D880001FF69
:020D890001FF68
:020D8A0001FF67
:020D8B0001FF66
:020D8C0001FF65
:020D8D0001FF64
:020D8E0001FF63
:020D8F0001FF62
:020D900001FF61
:020D910001FF60
:020D920001FF5F
:020D930001FF5E
:020D940001FF5D
:020D950001FD5E
:020D960000CC8F
:020D970001BF9A
:020D980001FF59
:020D990001EB6C
:020D9A00000156
:020D9B0001371E
:020D9C0001F460
:020D9D00004014
:020D9E00000053
:020D9F00000052
:020DA000000C45
:020DA10001BF90
:020DA20001FD51
:020DA30000C08E
:020DA40000004D
:020DA50000004C
:020DA600000348
:020DA700017FCA
:020DA80001FD4B
:020DA90000CC7C
:020DAA0001BF87
:020DAB0001FF46
:020DAC0001A1A3
:020DAD000066DE
:020DAE0001F44E
:020DAF00004002
:020DB000000041
:020DB100000040
:020DB200000C33
:020DB300011924
:020DB400013705
:020DB50001FF3C
:020DB60001FF3B
:020DB70001FD3C
:020DB80000C178
:020DB900013502
:020DBA0000CC6B
:020DBB0001BF76
:020DBC0001FF35
:020DBD0001EB48
:020DBE00000132
:020DBF000137FA
:020DC00001FF31
:020DC10001F43B
:020DC2000040EF
:020DC30000002E
:020DC40000012C
:020DC5000137F4
:020DC60001FF2B
:020DC70001FF2A
:020DC80001FF29
:020DC90001FF28
:020DCA0001FF27
:020DCB0001FF26
:020DCC0001FF25
:020DCD0001FF24
:020DCE0001FF23
:020DCF0001FF22
:020DD00001FF21
:020DD10001FF20
:020DD20001FF1F
:020DD30001FF1E
:020DD40001FF1D
:020DD50001FF1C
:020DD60001FF1B
:020DD70001FF1A
:020DD80001FF19
:020DD90001FF18
:020DDA0001FF17
:020DDB0001FF16
:020DDC0001FF15
:020DDD0001FF14
:020DDE0001FF13
:020DDF0001FF12
:020DE00001FF11
:020DE10001FF10
:020DE20001FF0F
:020DE30001FF0E
:020DE40001FF0D
:020DE50001FF0C
:020DE60001FF0B
:020DE70001FF0A
:020DE80001FF09
:020DE90001FF08
:020DEA0001FF07
:020DEB0001FF06
:020DEC0001FF05
:020DED0001FF04
:020DEE0001FF03
:020DEF0001FF02
:020DF00001FF01
:020DF10001FF00
:020DF20001FFFF
:020DF30001FFFE
:020DF40001FFFD
:020DF50001FFFC
:020DF60001FFFB
:020DF70001FFFA
:020DF80001FFF9
:020DF90001FFF8
:020DFA0001FFF7
:020DFB0001FFF6
:020DFC0001FFF5
:020DFD0001FFF4
:020DFE0001FFF3
:020DFF0001FFF2
:020E000001FFF0
:020E010001FFEF
:020E020001FFEE
:020E030001FFED
:020E040001FFEC
:020E050001FFEB
:020E060001FFEA
:020E070001FFE9
:020E080001FFE8
:020E090001FFE7
:020E0A0001FFE6
:020E0B0001FFE5
:020E0C0001FFE4
:020E0D0001FFE3
:020E0E0001FFE2
:020E0F0001FFE1
:020E100001FFE0
:020E110001FFDF
:020E120001FFDE
:020E130001FFDD
:020E140001FFDC
:020E150001FFDB
:020E160001FFDA
:020E170001FFD9
:020E180001FFD8
:020E190001FFD7
:020E1A0001FFD6
:020E1B0001FFD5
:020E1C0001FFD4
:020E1D0001FFD3
:020E1E0001FFD2
:020E1F0001FFD1
:020E200001FFD0
:020E210001FFCF
:020E220001FFCE
:020E230001FFCD
:020E240001FFCC
:020E250001FFCB
:020E260001FFCA
:020E270001FFC9
:020E280001FFC8
:020E290001FFC7
:020E2A0001FFC6
:020E2B0001FFC5
:020E2C0001FFC4
:020E2D0001FFC3
:020E2E0001FFC2
:020E2F0001FFC1
:020E300001FFC0
:020E310001FFBF
:020E320001FFBE
:020E330001FFBD
:020E340001FFBC
:020E350001FFBB
:020E360001FFBA
:020E370001FFB9
:020E380001FFB8
:020E390001FFB7
:020E3A0001FFB6
:020E3B0001FFB5
:020E3C0001FFB4
:020E3D0001FFB3
:020E3E0001FFB2
:020E3F0001FFB1
:020E400001FFB0
:020E410001FFAF
:020E420001FFAE
:020E430001FFAD
:020E440001FFAC
:020E450001FFAB
:020E460001FFAA
:020E470001FFA9
:020E480001FFA8
:020E490001FFA7
:020E4A0001FFA6
:020E4B0001FFA5
:020E4C0001FFA4
:020E4D0001FFA3
:020E4E0001FFA2
:020E4F0001FFA1
:020E500001FFA0
:020E510001FF9F
:020E520001FF9E
:020E530001FF9D
:020E540001FF9C
:020E550001FF9B
:020E560001FF9A
:020E570001FF99
:020E580001FF98
:020E590001FF97
:020E5A0001FF96
:020E5B0001FF95
:020E5C0001FF94
:020E5D0001FF93
:020E5E0001FF92
:020E5F0001FF91
:020E600001FF90
:020E610001FF8F
:020E620001FF8E
:020E630001FF8D
:020E640001FF8C
:020E650001FF8B
:020E660001FF8A
:020E670001FF89
:020E680001FF88
:020E690001FF87
:020E6A0001FF86
:020E6B0001FF85
:020E6C0001FF84
:020E6D0001FF83
:020E6E0001FF82
:020E6F0001FF81
:020E700001FF80
:020E710001FF7F
:020E720001FF7E
:020E730001FF7D
:020E740001FF7C
:020E750001FF7B
:020E760001FF7A
:020E770001FF79
:020E780001FF78
:020E790001FF77
:020E7A0001FF76
:020E7B0001FF75
:020E7C0001FF74
:020E7D0001FF73
:020E7E0001FF72
:020E7F0001FF71
:020E800001FF70
:020E810001FF6F
:020E820001FF6E
:020E830001FF6D
:020E840001FF6C
:020E850001FF6B
:020E860001FF6A
:020E870001FF69
:020E880001FF68
:020E890001FF67
:020E8A0001FF66
:020E8B0001FF65
:020E8C0001FF64
:020E8D0001FF63
:020E8E0001FF62
:020E8F0001FF61
:020E900001FF60
:020E910001FF5F
:020E920001FF5E
:020E930001FF5D
:020E940001FF5C
:020E950001FF5B
:020E960001FF5A
:020E970001FF59
:020E980001FF58
:020E990001FF57
:020E9A0001FF56
:020E9B0001FF55
:020E9C0001FF54
:020E9D0001FF53
:020E9E0001FF52
:020E9F0001FF51
:020EA00001FF50
:020EA10001FF4F
:020EA20001FF4E
:020EA30001FF4D
:020EA40001FF4C
:020EA50001FF4B
:020EA60001FF4A
:020EA70001FF49
:020EA80001FF48
:020EA90001FF47
:020EAA0001FF46
:020EAB0001FF45
:020EAC0001FF44
:020EAD0001FF43
:020EAE0001FF42
:020EAF0001FF41
:020EB00001FF40
:020EB10001FF3F
:020EB20001FF3E
:020EB30001FF3D
:020EB40001FF3C
:020EB50001FF3B
:020EB60001FF3A
:020EB70001FF39
:020EB80001FF38
:020EB90001FF37
:020EBA0001FF36
:020EBB0001FF35
:020EBC0001FF34
:020EBD0001FF33
:020EBE0001FF32
:020EBF0001FF31
:020EC00001FF30
:020EC10001FF2F
:020EC20001FF2E
:020EC30001FF2D
:020EC40001FF2C
:020EC50001FF2B
:020EC60001FF2A
:020EC70001FF29
:020EC80001FF28
:020EC90001FF27
:020ECA0001FF26
:020ECB0001FF25
:020ECC0001FF24
:020ECD0001FF23
:020ECE0001FF22
:020ECF0001FF21
:020ED00001FF20
:020ED10001FF1F
:020ED20001FF1E
:020ED30001FF1D
:020ED40001FF1C
:020ED50001FF1B
:020ED60001FF1A
:020ED70001FF19
:020ED80001FF18
:020ED90001FF17
:020EDA0001FF16
:020EDB0001FF15
:020EDC0001FF14
:020EDD0001FF13
:020EDE0001FF12
:020EDF0001FF11
:020EE00001FF10
:020EE10001FF0F
:020EE20001FF0E
:020EE30001FF0D
:020EE40001FF0C
:020EE50001FF0B
:020EE60001FF0A
:020EE70001FF09
:020EE80001FF08
:020EE90001FF07
:020EEA0001FF06
:020EEB0001FF05
:020EEC0001FF04
:020EED0001FF03
:020EEE0001FF02
:020EEF0001FF01
:020EF00001FF00
:020EF10001FFFF
:020EF20001FFFE
:020EF30001FFFD
:020EF40001FFFC
:020EF50001FFFB
:020EF60001FFFA
:020EF70001FFF9
:020EF80001FFF8
:020EF90001FFF7
:020EFA0001FFF6
:020EFB0001FFF5
:020EFC0001FFF4
:020EFD0001FFF3
:020EFE0001FFF2
:020EFF0001FFF1
:020F000001FFEF
:020F010001FFEE
:020F020001FFED
:020F030001FFEC
:020F040001FFEB
:020F050001FFEA
:020F060001FFE9
:020F070001FFE8
:020F080001FFE7
:020F090001FFE6
:020F0A0001FFE5
:020F0B0001FFE4
:020F0C0001FFE3
:020F0D0001FFE2
:020F0E0001FFE1
:020F0F0001FFE0
:020F100001FFDF
:020F110001FFDE
:020F120001FFDD
:020F130001FFDC
:020F140001FFDB
:020F150001FFDA
:020F160001FFD9
:020F170001FFD8
:020F180001FFD7
:020F190001FFD6
:020F1A0001FFD5
:020F1B0001FFD4
:020F1C0001FFD3
:020F1D0001FFD2
:020F1E0001FFD1
:020F1F0001FFD0
:020F200001FFCF
:020F210001FFCE
:020F220001FFCD
:020F230001FFCC
:020F240001FFCB
:020F250001FFCA
:020F260001FFC9
:020F270001FFC8
:020F280001FFC7
:020F290001FFC6
:020F2A0001FFC5
:020F2B0001FFC4
:020F2C0001FFC3
:020F2D0001FFC2
:020F2E0001FFC1
:020F2F0001FFC0
:020F300001FFBF
:020F310001FFBE
:020F320001FFBD
:020F330001FFBC
:020F340001FFBB
:020F350001FFBA
:020F360001FFB9
:020F370001FFB8
:020F380001FFB7
:020F390001FFB6
:020F3A0001FFB5
:020F3B0001FFB4
:020F3C0001FFB3
:020F3D0001FFB2
:020F3E0001FFB1
:020F3F0001FFB0
:020F400001FFAF
:020F410001FFAE
:020F420001FFAD
:020F430001FFAC
:020F440001FFAB
:020F450001FFAA
:020F460001FFA9
:020F470001FFA8
:020F480001FFA7
:020F490001FFA6
:020F4A0001FFA5
:020F4B0001FFA4
:020F4C0001FFA3
:020F4D0001FFA2
:020F4E0001FFA1
:020F4F0001FFA0
:020F500001FF9F
:020F510001FF9E
:020F520001FF9D
:020F530001FF9C
:020F540001FF9B
:020F550001FF9A
:020F560001FF99
:020F570001FF98
:020F580001FF97
:020F590001FF96
:020F5A0001FF95
:020F5B0001FF94
:020F5C0001FF93
:020F5D0001FF92
:020F5E0001FF91
:020F5F0001FF90
:020F600001FF8F
:020F610001FF8E
:020F620001FF8D
:020F630001FF8C
:020F640001FF8B
:020F650001FF8A
:020F660001FF89
:020F670001FF88
:020F680001FF87
:020F690001FF86
:020F6A0001FF85
:020F6B0001FF84
:020F6C0001FF83
:020F6D0001FF82
:020F6E0001FF81
:020F6F0001FF80
:020F700001FF7F
:020F710001FF7E
:020F720001FF7D
:020F730001FF7C
:020F740001FF7B
:020F750001FF7A
:020F760001FF79
:020F770001FF78
:020F780001FF77
:020F790001FF76
:020F7A0001FF75
:020F7B0001FF74
:020F7C0001FF73
:020F7D0001FF72
:020F7E0001FF71
:020F7F0001FF70
:020F800001FF6F
:020F810001FF6E
:020F820001FF6D
:020F830001FF6C
:020F840001FF6B
:020F850001FF6A
:020F860001FF69
:020F870001FF68
:020F880001FF67
:020F890001FF66
:020F8A0001FF65
:020F8B0001FF64
:020F8C0001FF63
:020F8D0001FF62
:020F8E0001FF61
:020F8F0001FF60
:020F900001FF5F
:020F910001FF5E
:020F920001FF5D
:020F930001FF5C
:020F940001FF5B
:020F950001FF5A
:020F960001FF59
:020F970001FF58
:020F980001FF57
:020F990001FF56
:020F9A0001FF55
:020F9B0001FF54
:020F9C0001FF53
:020F9D0001FF52
:020F9E0001FF51
:020F9F0001FF50
