:020000000000FE
:020001000000FD
:020002000000FC
:020003000000FB
:020004000000FA
:020005000000F9
:020006000000F8
:020007000000F7
:020008000000F6
:020009000000F5
:02000A000000F4
:02000B000000F3
:02000C000000F2
:02000D000000F1
:02000E000000F0
:02000F000000EF
:020010000000EE
:020011000000ED
:020012000000EC
:020013000000EB
:020014000000EA
:020015000000E9
:020016000000E8
:020017000000E7
:020018000000E6
:020019000000E5
:02001A000000E4
:02001B000000E3
:02001C000000E2
:02001D000000E1
:02001E000000E0
:02001F000000DF
:020020000000DE
:020021000000DD
:020022000000DC
:020023000000DB
:020024000000DA
:020025000000D9
:020026000000D8
:020027000000D7
:020028000000D6
:020029000000D5
:02002A000000D4
:02002B000000D3
:02002C000000D2
:02002D000000D1
:02002E000000D0
:02002F000000CF
:020030000000CE
:020031000000CD
:020032000000CC
:020033000000CB
:020034000000CA
:020035000000C9
:020036000000C8
:020037000000C7
:020038000000C6
:020039000000C5
:02003A000000C4
:02003B000000C3
:02003C000000C2
:02003D000000C1
:02003E000000C0
:02003F000000BF
:020040000000BE
:020041000000BD
:020042000000BC
:020043000000BB
:020044000000BA
:020045000000B9
:020046000000B8
:020047000000B7
:020048000000B6
:020049000000B5
:02004A000000B4
:02004B000000B3
:02004C000000B2
:02004D000000B1
:02004E000000B0
:02004F000000AF
:020050000000AE
:020051000000AD
:020052000000AC
:020053000000AB
:020054000000AA
:020055000000A9
:020056000000A8
:020057000000A7
:020058000000A6
:020059000000A5
:02005A000000A4
:02005B000000A3
:02005C000000A2
:02005D000000A1
:02005E000000A0
:02005F0000009F
:0200600000009E
:0200610000009D
:0200620000009C
:0200630000009B
:0200640000009A
:02006500000099
:02006600000098
:02006700000097
:02006800000096
:02006900000095
:02006A00000094
:02006B00000093
:02006C00000092
:02006D00000091
:02006E00000090
:02006F0000008F
:0200700000008E
:0200710000008D
:0200720000008C
:0200730000008B
:0200740000008A
:02007500000089
:02007600000088
:02007700000087
:02007800000086
:02007900000085
:02007A00000084
:02007B00000083
:02007C00000082
:02007D00000081
:02007E00000080
:02007F0000007F
:0200800000007E
:0200810000007D
:0200820000007C
:0200830000007B
:0200840000007A
:02008500000079
:02008600000078
:02008700000077
:02008800000076
:02008900000075
:02008A00000074
:02008B00000073
:02008C00000072
:02008D00000071
:02008E00000070
:02008F0000006F
:0200900000006E
:0200910000006D
:0200920000006C
:0200930000006B
:0200940000006A
:02009500000069
:02009600000068
:02009700000067
:02009800000066
:02009900000065
:02009A00000064
:02009B00000063
:02009C00000062
:02009D00000061
:02009E00000060
:02009F0000005F
:0200A00000005E
:0200A10000005D
:0200A20000005C
:0200A30000005B
:0200A40000005A
:0200A500000059
:0200A600000058
:0200A700000057
:0200A800000056
:0200A900000055
:0200AA00000054
:0200AB00000053
:0200AC00000052
:0200AD00000051
:0200AE00000050
:0200AF0000004F
:0200B00000004E
:0200B10000004D
:0200B20000004C
:0200B30000004B
:0200B40000004A
:0200B500000049
:0200B600000048
:0200B700000047
:0200B800000046
:0200B900000045
:0200BA00000044
:0200BB00000043
:0200BC00000042
:0200BD00000041
:0200BE00000040
:0200BF0000003F
:0200C00000003E
:0200C10000003D
:0200C20000003C
:0200C30000003B
:0200C40000003A
:0200C500000039
:0200C600000038
:0200C700000037
:0200C800000036
:0200C900000035
:0200CA00000034
:0200CB00000033
:0200CC00000032
:0200CD00000031
:0200CE00000030
:0200CF0000002F
:0200D00000002E
:0200D10000002D
:0200D20000002C
:0200D30000002B
:0200D40000002A
:0200D500000029
:0200D600000028
:0200D700000027
:0200D800000026
:0200D900000025
:0200DA00000024
:0200DB00000023
:0200DC00000022
:0200DD00000021
:0200DE00000020
:0200DF0000001F
:0200E00000001E
:0200E10000001D
:0200E20000001C
:0200E30000001B
:0200E40000001A
:0200E500000019
:0200E600000018
:0200E700000017
:0200E800000016
:0200E900000015
:0200EA00000014
:0200EB00000013
:0200EC00000012
:0200ED00000011
:0200EE00000010
:0200EF0000000F
:0200F00000000E
:0200F10000000D
:0200F20000000C
:0200F30000000B
:0200F40000000A
:0200F500000009
:0200F600000008
:0200F700000007
:0200F800000006
:0200F900000005
:0200FA00000004
:0200FB00000003
:0200FC00000002
:0200FD00000001
:0200FE00000000
:0200FF000000FF
:020100000000FD
:020101000000FC
:020102000000FB
:020103000000FA
:020104000000F9
:020105000000F8
:020106000000F7
:020107000000F6
:020108000000F5
:020109000000F4
:02010A000000F3
:02010B000000F2
:02010C000000F1
:02010D000000F0
:02010E000000EF
:02010F000000EE
:020110000000ED
:020111000000EC
:020112000000EB
:020113000000EA
:020114000000E9
:020115000000E8
:020116000000E7
:020117000000E6
:020118000000E5
:020119000000E4
:02011A000000E3
:02011B000000E2
:02011C000000E1
:02011D000000E0
:02011E000000DF
:02011F000000DE
:020120000000DD
:020121000000DC
:020122000000DB
:020123000000DA
:020124000000D9
:020125000000D8
:020126000000D7
:020127000000D6
:020128000000D5
:020129000000D4
:02012A000000D3
:02012B000000D2
:02012C000000D1
:02012D000000D0
:02012E000000CF
:02012F000000CE
:020130000000CD
:020131000000CC
:020132000000CB
:020133000000CA
:020134000000C9
:020135000000C8
:020136000000C7
:020137000000C6
:020138000008BD
:020139000000C4
:02013A000000C3
:02013B000000C2
:02013C000000C1
:02013D000000C0
:02013E000000BF
:02013F000000BE
:020140000000BD
:020141000000BC
:020142000000BB
:020143000000BA
:020144000000B9
:020145000000B8
:020146000000B7
:020147000000B6
:020148000000B5
:020149000000B4
:02014A000000B3
:02014B000000B2
:02014C000000B1
:02014D000000B0
:02014E000000AF
:02014F000000AE
:020150000000AD
:020151000000AC
:020152000000AB
:020153000000AA
:020154000000A9
:020155000000A8
:020156000000A7
:020157000000A6
:020158000000A5
:020159000000A4
:02015A000000A3
:02015B000000A2
:02015C000000A1
:02015D000000A0
:02015E0000009F
:02015F0000009E
:0201600000009D
:0201610000009C
:0201620000009B
:0201630000009A
:02016400000099
:02016500000098
:02016600000097
:02016700000096
:02016800000095
:02016900000094
:02016A00000093
:02016B00000092
:02016C00000091
:02016D00000090
:02016E0000008F
:02016F0000008E
:0201700000008D
:0201710000008C
:0201720000008B
:0201730000008A
:02017400000089
:02017500000088
:02017600000087
:02017700000086
:02017800000085
:02017900000084
:02017A00000083
:02017B00000082
:02017C00000081
:02017D00000080
:02017E0000007F
:02017F0000007E
:0201800000007D
:0201810000007C
:0201820000007B
:0201830000007A
:02018400000079
:02018500000078
:02018600000077
:02018700000076
:02018800000075
:02018900000074
:02018A00000073
:02018B00000072
:02018C00000071
:02018D00000070
:02018E0000006F
:02018F0000006E
:0201900000006D
:0201910000006C
:0201920000006B
:0201930000006A
:02019400000069
:02019500000068
:02019600000067
:02019700000066
:02019800000065
:02019900000064
:02019A00000063
:02019B00000062
:02019C00000061
:02019D00000060
:02019E0000005F
:02019F0000005E
:0201A00000005D
:0201A10000005C
:0201A20000005B
:0201A30000005A
:0201A400000059
:0201A500000058
:0201A600000057
:0201A700000056
:0201A800000055
:0201A900000054
:0201AA00000053
:0201AB00000052
:0201AC00000051
:0201AD00000050
:0201AE0000004F
:0201AF0000004E
:0201B00000004D
:0201B10000004C
:0201B20000004B
:0201B30000004A
:0201B400000049
:0201B500000048
:0201B600000047
:0201B700000046
:0201B800000045
:0201B900000044
:0201BA00000043
:0201BB00000042
:0201BC00000041
:0201BD00000040
:0201BE0000003F
:0201BF0000003E
:0201C00000003D
:0201C10000003C
:0201C20000003B
:0201C30000003A
:0201C400000039
:0201C500000038
:0201C600000037
:0201C700000036
:0201C800000035
:0201C900000034
:0201CA00000033
:0201CB00000032
:0201CC00000031
:0201CD00000030
:0201CE0000002F
:0201CF0000002E
:0201D00000002D
:0201D10000002C
:0201D20000002B
:0201D30000002A
:0201D400000029
:0201D500000028
:0201D600000027
:0201D700000026
:0201D800000025
:0201D900000024
:0201DA00000023
:0201DB00000022
:0201DC00000021
:0201DD00000020
:0201DE0000001F
:0201DF0000001E
:0201E00000001D
:0201E10000001C
:0201E20000001B
:0201E30000001A
:0201E400000019
:0201E500000018
:0201E600000017
:0201E700000016
:0201E800000015
:0201E900000014
:0201EA00000013
:0201EB00000012
:0201EC00000011
:0201ED00000010
:0201EE0000000F
:0201EF0000000E
:0201F00000000D
:0201F10000000C
:0201F20000000B
:0201F30000000A
:0201F400000009
:0201F500000008
:0201F600000007
:0201F700000006
:0201F800000005
:0201F900000004
:0201FA00000003
:0201FB00000002
:0201FC00000001
:0201FD00000000
:0201FE000000FF
:0201FF000000FE
:020200000000FC
:020201000000FB
:020202000000FA
:020203000000F9
:020204000000F8
:020205000000F7
:020206000000F6
:020207000000F5
:020208000000F4
:020209000000F3
:02020A000000F2
:02020B000000F1
:02020C000000F0
:02020D000000EF
:02020E000000EE
:02020F000000ED
:020210000000EC
:020211000000EB
:020212000000EA
:020213000000E9
:020214000000E8
:020215000000E7
:020216000000E6
:020217000000E5
:020218000000E4
:020219000000E3
:02021A000000E2
:02021B000000E1
:02021C000000E0
:02021D000000DF
:02021E000000DE
:02021F000000DD
:020220000000DC
:020221000000DB
:020222000000DA
:020223000000D9
:020224000000D8
:020225000000D7
:020226000000D6
:020227000000D5
:020228000000D4
:020229000000D3
:02022A000000D2
:02022B000000D1
:02022C000000D0
:02022D000000CF
:02022E000000CE
:02022F000000CD
:020230000000CC
:020231000000CB
:020232000000CA
:020233000000C9
:020234000000C8
:020235000000C7
:020236000000C6
:020237000000C5
:020238000000C4
:020239000000C3
:02023A000000C2
:02023B000000C1
:02023C000000C0
:02023D000000BF
:02023E000000BE
:02023F000000BD
:020240000000BC
:020241000000BB
:020242000000BA
:020243000000B9
:020244000000B8
:020245000000B7
:020246000000B6
:020247000000B5
:020248000000B4
:020249000000B3
:02024A000000B2
:02024B000000B1
:02024C000000B0
:02024D000000AF
:02024E000000AE
:02024F000000AD
:020250000000AC
:020251000000AB
:020252000000AA
:020253000000A9
:020254000000A8
:020255000000A7
:020256000000A6
:020257000000A5
:020258000000A4
:020259000000A3
:02025A000000A2
:02025B000000A1
:02025C000000A0
:02025D0000009F
:02025E0000009E
:02025F0000009D
:0202600000009C
:0202610000009B
:0202620000009A
:02026300000099
:02026400000098
:02026500000097
:02026600000096
:02026700000095
:02026800000094
:02026900000093
:02026A00000092
:02026B00000091
:02026C00000090
:02026D0000008F
:02026E0000008E
:02026F0000008D
:0202700000008C
:0202710000008B
:0202720000008A
:02027300000089
:02027400000088
:02027500000087
:02027600000086
:02027700000085
:02027800000084
:02027900000083
:02027A00000082
:02027B00000081
:02027C00000080
:02027D0000007F
:02027E0000007E
:02027F0000007D
:0202800000007C
:0202810000007B
:0202820000007A
:02028300000079
:02028400000078
:02028500000077
:02028600000076
:02028700000075
:02028800000074
:02028900000073
:02028A00000072
:02028B00000071
:02028C00000070
:02028D0000006F
:02028E0000006E
:02028F0000006D
:0202900000006C
:0202910000006B
:0202920000006A
:02029300000069
:02029400000068
:02029500000067
:02029600000066
:02029700000065
:02029800000064
:02029900000063
:02029A00000062
:02029B00000061
:02029C00000060
:02029D0000005F
:02029E0000005E
:02029F0000005D
:0202A00000005C
:0202A10000005B
:0202A20000005A
:0202A300000059
:0202A400000058
:0202A500000057
:0202A600000056
:0202A700000055
:0202A800000054
:0202A900000053
:0202AA00000052
:0202AB00000051
:0202AC00000050
:0202AD0000004F
:0202AE0000004E
:0202AF0000004D
:0202B00000004C
:0202B10000004B
:0202B20000004A
:0202B300000049
:0202B400000048
:0202B500000047
:0202B600000046
:0202B700000045
:0202B800000044
:0202B900000043
:0202BA00000042
:0202BB00000041
:0202BC00000040
:0202BD0000003F
:0202BE0000003E
:0202BF0000003D
:0202C00000003C
:0202C10000003B
:0202C20000003A
:0202C300000039
:0202C400000038
:0202C500000037
:0202C600000036
:0202C700000035
:0202C800000034
:0202C900000033
:0202CA00000032
:0202CB00000031
:0202CC00000030
:0202CD0000002F
:0202CE0000002E
:0202CF0000002D
:0202D00000002C
:0202D10000002B
:0202D20000002A
:0202D300000029
:0202D400000028
:0202D500000027
:0202D600000026
:0202D700000025
:0202D800000024
:0202D900000023
:0202DA00000022
:0202DB00000021
:0202DC00000020
:0202DD0000001F
:0202DE0000001E
:0202DF0000001D
:0202E00000001C
:0202E10000001B
:0202E20000001A
:0202E300000019
:0202E400000018
:0202E500000017
:0202E600000016
:0202E700000015
:0202E800000014
:0202E900000013
:0202EA00000012
:0202EB00000011
:0202EC00000010
:0202ED0000000F
:0202EE0000000E
:0202EF0000000D
:0202F00000000C
:0202F10000000B
:0202F20000000A
:0202F300000009
:0202F400000008
:0202F500000007
:0202F600000006
:0202F700000005
:0202F800000004
:0202F900000003
:0202FA00000002
:0202FB00000001
:0202FC00000000
:0202FD000000FF
:0202FE000000FE
:0202FF000000FD
:020300000000FB
:020301000000FA
:020302000000F9
:020303000000F8
:020304000000F7
:020305000000F6
:020306000000F5
:020307000000F4
:020308000000F3
:020309000000F2
:02030A000000F1
:02030B000000F0
:02030C000000EF
:02030D000000EE
:02030E000000ED
:02030F000000EC
:020310000000EB
:020311000000EA
:020312000000E9
:020313000000E8
:020314000000E7
:020315000000E6
:020316000000E5
:020317000000E4
:020318000000E3
:020319000000E2
:02031A000000E1
:02031B000000E0
:02031C000000DF
:02031D000000DE
:02031E000000DD
:02031F000000DC
:020320000000DB
:020321000000DA
:020322000000D9
:020323000000D8
:020324000000D7
:020325000000D6
:020326000000D5
:020327000000D4
:020328000000D3
:020329000000D2
:02032A000000D1
:02032B000000D0
:02032C000000CF
:02032D000000CE
:02032E000000CD
:02032F000000CC
:020330000000CB
:020331000000CA
:020332000000C9
:020333000000C8
:020334000000C7
:020335000000C6
:020336000000C5
:020337000000C4
:020338000000C3
:020339000000C2
:02033A000000C1
:02033B000000C0
:02033C000000BF
:02033D000000BE
:02033E000000BD
:02033F000000BC
:020340000000BB
:020341000000BA
:020342000000B9
:020343000000B8
:020344000000B7
:020345000000B6
:020346000000B5
:020347000000B4
:020348000000B3
:020349000000B2
:02034A000000B1
:02034B000000B0
:02034C000000AF
:02034D000000AE
:02034E000000AD
:02034F000000AC
:020350000000AB
:020351000000AA
:020352000000A9
:020353000000A8
:020354000000A7
:020355000000A6
:020356000000A5
:020357000000A4
:020358000000A3
:020359000000A2
:02035A000000A1
:02035B000000A0
:02035C0000009F
:02035D0000009E
:02035E0000009D
:02035F0000009C
:0203600000009B
:0203610000009A
:02036200000099
:02036300000098
:02036400000097
:02036500000096
:02036600000095
:02036700000094
:02036800000093
:02036900000092
:02036A00000091
:02036B00000090
:02036C0000008F
:02036D0000008E
:02036E0000008D
:02036F0000008C
:0203700000008B
:0203710000008A
:02037200000089
:02037300000088
:02037400000087
:02037500000086
:02037600000085
:02037700000084
:02037800000083
:02037900000082
:02037A00000081
:02037B00000080
:02037C0000007F
:02037D0000007E
:02037E0000007D
:02037F0000007C
:0203800000007B
:0203810000007A
:02038200000079
:02038300000078
:02038400000077
:02038500000076
:02038600000075
:02038700000074
:02038800000073
:02038900000072
:02038A00000071
:02038B00000070
:02038C0000006F
:02038D0000006E
:02038E0000006D
:02038F0000006C
:0203900000006B
:0203910000006A
:02039200000069
:02039300000068
:02039400000067
:02039500000066
:02039600000065
:02039700000064
:02039800000063
:02039900000062
:02039A00000061
:02039B00000060
:02039C0000005F
:02039D0000005E
:02039E0000005D
:02039F0000005C
:0203A00000005B
:0203A10000005A
:0203A200000059
:0203A300000058
:0203A400000057
:0203A500000056
:0203A600000055
:0203A700000054
:0203A800000053
:0203A900000052
:0203AA00000051
:0203AB00000050
:0203AC0000004F
:0203AD0000004E
:0203AE0000004D
:0203AF0000004C
:0203B00000004B
:0203B10000004A
:0203B200000049
:0203B300000048
:0203B400000047
:0203B500000046
:0203B600000045
:0203B700000044
:0203B800000043
:0203B900000042
:0203BA00000041
:0203BB00000040
:0203BC0000003F
:0203BD0000003E
:0203BE0000003D
:0203BF0000003C
:0203C00000003B
:0203C10000003A
:0203C200000039
:0203C30001FF38
:0203C40001FF37
:0203C50001FF36
:0203C60001FF35
:0203C70001FF34
:0203C80001FF33
:0203C90001FF32
:0203CA0001FF31
:0203CB0001FF30
:0203CC0001FF2F
:0203CD0001FF2E
:0203CE0001FF2D
:0203CF0001FF2C
:0203D00001FF2B
:0203D10001FF2A
:0203D20001FF29
:0203D30001FF28
:0203D40001FF27
:0203D50001FF26
:0203D60001FF25
:0203D70001FF24
:0203D80001FF23
:0203D90001FF22
:0203DA0001FF21
:0203DB0001FF20
:0203DC0001FF1F
:0203DD0001FF1E
:0203DE0001FF1D
:0203DF0001FF1C
:0203E00001FF1B
:0203E10001FF1A
:0203E20001FF19
:0203E30001FF18
:0203E40001FF17
:0203E50001FF16
:0203E60001FF15
:0203E70001FF14
:0203E80001FF13
:0203E90001FF12
:0203EA0001FF11
:0203EB0001FF10
:0203EC0001FF0F
:0203ED0001FF0E
:0203EE0001FF0D
:0203EF0001FF0C
:0203F00001FF0B
:0203F10001FF0A
:0203F20001FF09
:0203F30001FF08
:0203F40001FF07
:0203F50001FF06
:0203F60001FF05
:0203F70001FF04
:0203F80001FF03
:0203F90001FF02
:0203FA0001FF01
:0203FB0001FF00
:0203FC0001FFFF
:0203FD0001FFFE
:0203FE0001FFFD
:0203FF0001FFFC
:0204000001FFFA
:0204010001FFF9
:0204020001FFF8
:0204030001FFF7
:0204040001FFF6
:0204050001FFF5
:0204060001FFF4
:0204070001FFF3
:0204080001FFF2
:0204090001FFF1
:02040A0001FFF0
:02040B0001FFEF
:02040C0001FFEE
:02040D0001FFED
:02040E0001FFEC
:02040F0001FFEB
:0204100001FFEA
:0204110001FFE9
:0204120001FFE8
:0204130001FFE7
:0204140001FFE6
:0204150001FFE5
:0204160001FFE4
:0204170001FFE3
:0204180001FFE2
:0204190001FFE1
:02041A0001FFE0
:02041B0001FFDF
:02041C0001FFDE
:02041D0001FFDD
:02041E0001FFDC
:02041F0001FFDB
:0204200001FFDA
:0204210001FFD9
:0204220001FFD8
:0204230001FFD7
:0204240001FFD6
:0204250001FFD5
:0204260001FFD4
:0204270001FFD3
:0204280001FFD2
:0204290001FFD1
:02042A0001FFD0
:02042B0001FFCF
:02042C0001FFCE
:02042D0001FFCD
:02042E0001FFCC
:02042F0001FFCB
:0204300001FFCA
:0204310001FFC9
:0204320001FFC8
:0204330001FFC7
:0204340001FFC6
:0204350001FFC5
:0204360001FFC4
:0204370001FFC3
:0204380001FFC2
:0204390001FFC1
:02043A0001FFC0
:02043B0001FFBF
:02043C0001FFBE
:02043D0001FFBD
:02043E0001FFBC
:02043F0001FFBB
:0204400001FFBA
:0204410001FFB9
:0204420001FFB8
:0204430001FFB7
:0204440001FFB6
:0204450001FFB5
:0204460001FFB4
:0204470001FFB3
:0204480001FFB2
:0204490001FFB1
:02044A0001FFB0
:02044B0001FFAF
:02044C0001FFAE
:02044D0001FFAD
:02044E0001FFAC
:02044F0001FFAB
:0204500001FFAA
:0204510001FFA9
:0204520001FFA8
:0204530001FFA7
:0204540001FFA6
:0204550001FFA5
:0204560001FFA4
:0204570001FFA3
:0204580001FFA2
:0204590001FFA1
:02045A0001FFA0
:02045B0001FF9F
:02045C0001FF9E
:02045D0001FF9D
:02045E0001FF9C
:02045F0001FF9B
:0204600001FF9A
:0204610001FF99
:0204620001FF98
:0204630001FF97
:0204640001FF96
:0204650001FF95
:0204660001FF94
:0204670001FF93
:0204680001FF92
:0204690001FF91
:02046A0001FF90
:02046B0001FF8F
:02046C0001FF8E
:02046D0001FF8D
:02046E0001FF8C
:02046F0001FF8B
:0204700001FF8A
:0204710001FF89
:0204720001FF88
:0204730001FF87
:0204740001FF86
:0204750001FF85
:0204760001FF84
:0204770001FF83
:0204780001FF82
:0204790001FF81
:02047A0001FF80
:02047B0001FF7F
:02047C0001FF7E
:02047D0001FF7D
:02047E0001FF7C
:02047F0001FF7B
:0204800001FF7A
:0204810001FF79
:0204820001FF78
:0204830001FF77
:0204840001FF76
:0204850001FF75
:0204860001FF74
:0204870001FF73
:0204880001FF72
:0204890001FF71
:02048A0001FF70
:02048B0001FF6F
:02048C0001FF6E
:02048D0001FF6D
:02048E0001FF6C
:02048F0001FF6B
:0204900001FF6A
:0204910001FF69
:0204920001FF68
:0204930001FF67
:0204940001FF66
:0204950001FF65
:0204960001FF64
:0204970001FF63
:0204980001FF62
:0204990001FF61
:02049A0001FF60
:02049B0001FF5F
:02049C0001FF5E
:02049D0001FF5D
:02049E0001FF5C
:02049F0001FF5B
:0204A00001FF5A
:0204A10001FF59
:0204A20001FF58
:0204A30001FF57
:0204A40001FF56
:0204A50001FF55
:0204A60001FF54
:0204A70001FF53
:0204A80001FF52
:0204A90001FF51
:0204AA0001FF50
:0204AB0001FF4F
:0204AC0001FF4E
:0204AD0001FF4D
:0204AE0001FF4C
:0204AF0001FF4B
:0204B00001FF4A
:0204B10001FF49
:0204B20001FF48
:0204B30001FF47
:0204B40001FF46
:0204B50001FF45
:0204B60001FF44
:0204B70001FF43
:0204B80001FF42
:0204B90001FF41
:0204BA0001FF40
:0204BB0001FF3F
:0204BC0001FF3E
:0204BD0001FF3D
:0204BE0001FF3C
:0204BF0001FF3B
:0204C00001FF3A
:0204C10001FF39
:0204C20001FF38
:0204C30001FF37
:0204C40001FF36
:0204C50001FF35
:0204C60001FF34
:0204C70001FF33
:0204C80001FF32
:0204C90001FF31
:0204CA0001FF30
:0204CB0001FF2F
:0204CC0001FF2E
:0204CD0001FF2D
:0204CE0001FF2C
:0204CF0001FF2B
:0204D00001FF2A
:0204D10001FF29
:0204D20001FF28
:0204D30001FF27
:0204D40001FF26
:0204D50001FF25
:0204D60001FF24
:0204D70001FF23
:0204D80001FF22
:0204D90001FF21
:0204DA0001FF20
:0204DB0001FF1F
:0204DC0001FF1E
:0204DD0001FF1D
:0204DE0001FF1C
:0204DF0001FF1B
:0204E00001FF1A
:0204E10001FF19
:0204E20001FF18
:0204E30001FF17
:0204E40001FF16
:0204E50001FF15
:0204E60001FF14
:0204E70001FF13
:0204E80001FF12
:0204E90001FF11
:0204EA0001FF10
:0204EB0001FF0F
:0204EC0001FF0E
:0204ED0001FF0D
:0204EE0001FF0C
:0204EF0001FF0B
:0204F00001FF0A
:0204F10001FF09
:0204F20001FF08
:0204F30001FF07
:0204F40001FF06
:0204F50001FF05
:0204F60001FF04
:0204F70001FF03
:0204F80001FF02
:0204F90001FF01
:0204FA0001FF00
:0204FB0001FFFF
:0204FC0001FFFE
:0204FD000000FD
:0204FE000000FC
:0204FF000000FB
:020500000000F9
:020501000000F8
:020502000000F7
:0205030001FFF6
:0205040001FFF5
:0205050001FFF4
:0205060001FFF3
:0205070001FFF2
:0205080001FFF1
:0205090001FFF0
:02050A0001FFEF
:02050B0001FFEE
:02050C0001FFED
:02050D0001FFEC
:02050E0001FFEB
:02050F0001FFEA
:0205100001FFE9
:0205110001FFE8
:0205120001FFE7
:0205130001FFE6
:0205140001FFE5
:0205150001FFE4
:0205160001FFE3
:0205170001FFE2
:0205180001FFE1
:0205190001FFE0
:02051A0001FFDF
:02051B0001FFDE
:02051C0001FFDD
:02051D0001FFDC
:02051E0001FFDB
:02051F0001FFDA
:0205200001FFD9
:0205210001FFD8
:0205220001FFD7
:0205230001FFD6
:0205240001FFD5
:0205250001FFD4
:0205260001FFD3
:0205270001FFD2
:0205280001FFD1
:0205290001FFD0
:02052A0001FFCF
:02052B0001FFCE
:02052C0001FFCD
:02052D0001FFCC
:02052E0001FFCB
:02052F0001FFCA
:0205300001FFC9
:0205310001FFC8
:0205320001FFC7
:0205330001FFC6
:0205340001FFC5
:0205350001FFC4
:0205360001FFC3
:0205370001FFC2
:0205380001FFC1
:0205390001FFC0
:02053A0001FFBF
:02053B0001FFBE
:02053C0001FFBD
:02053D0001FFBC
:02053E0001FFBB
:02053F0001FFBA
:0205400001FFB9
:0205410001FFB8
:0205420001FFB7
:0205430001FFB6
:0205440001FFB5
:0205450001FFB4
:0205460001FFB3
:0205470001FFB2
:0205480001FFB1
:0205490001FFB0
:02054A0001FFAF
:02054B0001FFAE
:02054C0001FFAD
:02054D0001FFAC
:02054E0001FFAB
:02054F0001FFAA
:0205500001FFA9
:0205510001FFA8
:0205520001FFA7
:0205530001FFA6
:0205540001FFA5
:0205550001FFA4
:0205560001FFA3
:0205570001FFA2
:0205580001FFA1
:0205590001FFA0
:02055A0001FF9F
:02055B0001FF9E
:02055C0001FF9D
:02055D0001FF9C
:02055E0001FF9B
:02055F0001FF9A
:0205600001FF99
:0205610001FF98
:0205620001FF97
:0205630001FF96
:0205640001FF95
:0205650001FF94
:0205660001FF93
:0205670001FF92
:0205680001FF91
:0205690001FF90
:02056A0001FF8F
:02056B0001FF8E
:02056C0001FF8D
:02056D0001FF8C
:02056E0001FF8B
:02056F0001FF8A
:0205700001FF89
:0205710001FF88
:0205720001FF87
:0205730001FF86
:0205740001FF85
:0205750001FF84
:0205760001FF83
:0205770001FF82
:0205780001FF81
:0205790001FF80
:02057A0001FF7F
:02057B0001FF7E
:02057C0001FF7D
:02057D0001FF7C
:02057E0001FF7B
:02057F0001FF7A
:0205800001FF79
:0205810001FF78
:0205820001FF77
:0205830001FF76
:0205840001FF75
:0205850001FF74
:0205860001FF73
:0205870001FF72
:0205880001FF71
:0205890001FF70
:02058A0001FF6F
:02058B0001FF6E
:02058C0001FF6D
:02058D0001FF6C
:02058E0001FF6B
:02058F0001FF6A
:0205900001FF69
:0205910001FF68
:0205920001FF67
:0205930001FF66
:0205940001FF65
:0205950001FF64
:0205960001FF63
:0205970001FF62
:0205980001FF61
:0205990001FF60
:02059A0001FF5F
:02059B0001FF5E
:02059C0001FF5D
:02059D0001FF5C
:02059E0001FF5B
:02059F0001FF5A
:0205A00001FF59
:0205A10001FF58
:0205A20001FF57
:0205A30001FF56
:0205A40001FF55
:0205A50001FF54
:0205A60001FF53
:0205A70001FF52
:0205A80001FF51
:0205A90001FF50
:0205AA0001FF4F
:0205AB0001FF4E
:0205AC0001FF4D
:0205AD0001FF4C
:0205AE0001FF4B
:0205AF0001FF4A
:0205B00001FF49
:0205B10001FF48
:0205B20001FF47
:0205B30001FF46
:0205B40001FF45
:0205B50001FF44
:0205B60001FF43
:0205B70001FF42
:0205B80001FF41
:0205B90001FF40
:0205BA0001FF3F
:0205BB0001FF3E
:0205BC0001FF3D
:0205BD0001FF3C
:0205BE0001FF3B
:0205BF0001FF3A
:0205C00001FF39
:0205C10001FF38
:0205C20001FF37
:0205C30001FF36
:0205C40001FF35
:0205C50001FF34
:0205C60001FF33
:0205C70001FF32
:0205C80001FF31
:0205C90001FF30
:0205CA0001FF2F
:0205CB0001FF2E
:0205CC0001FF2D
:0205CD0001FF2C
:0205CE0001FF2B
:0205CF0001FF2A
:0205D00001FF29
:0205D10001FF28
:0205D20001FF27
:0205D30001FF26
:0205D40001FF25
:0205D50001FF24
:0205D60001FF23
:0205D70001FF22
:0205D80001FF21
:0205D90001FF20
:0205DA0001FF1F
:0205DB0001FF1E
:0205DC0001FF1D
:0205DD0001FF1C
:0205DE0001FF1B
:0205DF0001FF1A
:0205E00001FF19
:0205E10001FF18
:0205E20001FF17
:0205E30001FF16
:0205E40001FF15
:0205E50001FF14
:0205E60001FF13
:0205E70001FF12
:0205E80001FF11
:0205E90001FF10
:0205EA0001FF0F
:0205EB0001FF0E
:0205EC0001FF0D
:0205ED0001FF0C
:0205EE0001FF0B
:0205EF0001FF0A
:0205F00001FF09
:0205F10001FF08
:0205F20001FF07
:0205F30001FF06
:0205F40001FF05
:0205F50001FF04
:0205F60001FF03
:0205F70001FF02
:0205F80001FF01
:0205F90001FF00
:0205FA0001FFFF
:0205FB0001FFFE
:0205FC0001FFFD
:0205FD0001FFFC
:0205FE0001FFFB
:0205FF0001FFFA
:0206000001FFF8
:0206010001FFF7
:0206020001FFF6
:0206030001FFF5
:0206040001FFF4
:0206050001FFF3
:0206060001FFF2
:0206070001FFF1
:0206080001FFF0
:0206090001FFEF
:02060A0001FFEE
:02060B0001FFED
:02060C0001FFEC
:02060D0001FFEB
:02060E0001FFEA
:02060F0001FFE9
:0206100001FFE8
:0206110001FFE7
:0206120001FFE6
:0206130001FFE5
:0206140001FFE4
:0206150001FFE3
:0206160001FFE2
:0206170001FFE1
:0206180001FFE0
:0206190001FFDF
:02061A0001FFDE
:02061B0001FFDD
:02061C0001FFDC
:02061D0001FFDB
:02061E0001FFDA
:02061F0001FFD9
:0206200001FFD8
:0206210001FFD7
:0206220001FFD6
:0206230001FFD5
:0206240001FFD4
:0206250001FFD3
:0206260001FFD2
:0206270001FFD1
:0206280001FFD0
:0206290001FFCF
:02062A0001FFCE
:02062B0001FFCD
:02062C0001FFCC
:02062D0001FFCB
:02062E0001FFCA
:02062F0001FFC9
:0206300001FFC8
:0206310001FFC7
:0206320001FFC6
:0206330001FFC5
:0206340001FFC4
:0206350001FFC3
:0206360001FFC2
:0206370001FFC1
:0206380001FFC0
:0206390001FFBF
:02063A0001FFBE
:02063B0001FFBD
:02063C0001FFBC
:02063D000000BB
:02063E000000BA
:02063F000000B9
:020640000000B8
:020641000000B7
:020642000000B6
:0206430001FFB5
:0206440001FFB4
:0206450001FFB3
:0206460001FFB2
:0206470001FFB1
:0206480001FFB0
:0206490001FFAF
:02064A0001FFAE
:02064B0001FFAD
:02064C0001FFAC
:02064D0001FFAB
:02064E0001FFAA
:02064F0001FFA9
:0206500001FFA8
:0206510001FFA7
:0206520001FFA6
:0206530001FFA5
:0206540001FFA4
:0206550001FFA3
:0206560001FFA2
:0206570001FFA1
:0206580001FFA0
:0206590001FF9F
:02065A0001FF9E
:02065B0001FF9D
:02065C0001FF9C
:02065D0001FF9B
:02065E0001FF9A
:02065F0001FF99
:0206600001FF98
:0206610001FF97
:0206620001FF96
:0206630001FF95
:0206640001FF94
:0206650001FF93
:0206660001FF92
:0206670001FF91
:0206680001FF90
:0206690001FF8F
:02066A0001FF8E
:02066B0001FF8D
:02066C0001FF8C
:02066D0001FF8B
:02066E0001FF8A
:02066F0001FF89
:0206700001FF88
:0206710001FF87
:0206720001FF86
:0206730001FF85
:0206740001FF84
:0206750001FF83
:0206760001FF82
:0206770001FF81
:0206780001FF80
:0206790001FF7F
:02067A0001FF7E
:02067B0001FF7D
:02067C0001FF7C
:02067D0001FF7B
:02067E0001FF7A
:02067F0001FF79
:0206800001FF78
:0206810001FF77
:0206820001FF76
:0206830001FF75
:0206840001FF74
:0206850001FF73
:0206860001FF72
:0206870001FF71
:0206880001FF70
:0206890001FF6F
:02068A0001FF6E
:02068B0001FF6D
:02068C0001FF6C
:02068D0001FF6B
:02068E0001FF6A
:02068F0001FF69
:0206900001FF68
:0206910001FF67
:0206920001FF66
:0206930001FF65
:0206940001FF64
:0206950001FF63
:0206960001FF62
:0206970001FF61
:0206980001FF60
:0206990001FF5F
:02069A0001FF5E
:02069B0001FF5D
:02069C0001FF5C
:02069D0001FF5B
:02069E0001FF5A
:02069F0001FF59
:0206A00001FF58
:0206A10001FF57
:0206A20001FF56
:0206A30001FF55
:0206A40001FF54
:0206A50001FF53
:0206A60001FF52
:0206A70001FF51
:0206A80001FF50
:0206A90001FF4F
:0206AA0001FF4E
:0206AB0001FF4D
:0206AC0001FF4C
:0206AD0001FF4B
:0206AE0001FF4A
:0206AF0001FF49
:0206B00001FF48
:0206B10001FF47
:0206B20001FF46
:0206B30001FF45
:0206B40001FF44
:0206B50001FF43
:0206B60001FF42
:0206B70001FF41
:0206B80001FF40
:0206B90001FF3F
:0206BA0001FF3E
:0206BB0001FF3D
:0206BC0001FF3C
:0206BD0001FF3B
:0206BE0001FF3A
:0206BF0001FF39
:0206C00001FF38
:0206C10001FF37
:0206C20001FF36
:0206C30001FF35
:0206C40001FF34
:0206C50001FF33
:0206C60001FF32
:0206C70001FF31
:0206C80001FF30
:0206C90001FF2F
:0206CA0001FF2E
:0206CB0001FF2D
:0206CC0001FF2C
:0206CD0001FF2B
:0206CE0001FF2A
:0206CF0001FF29
:0206D00001FF28
:0206D10001FF27
:0206D20001FF26
:0206D30001FF25
:0206D40001FF24
:0206D50001FF23
:0206D60001FF22
:0206D70001FF21
:0206D80001FF20
:0206D90001FF1F
:0206DA0001FF1E
:0206DB0001FF1D
:0206DC0001FF1C
:0206DD0001FF1B
:0206DE0001FF1A
:0206DF0001FF19
:0206E00001FF18
:0206E10001FF17
:0206E20001FF16
:0206E30001FF15
:0206E40001FF14
:0206E50001FF13
:0206E60001FF12
:0206E70001FF11
:0206E80001FF10
:0206E90001FF0F
:0206EA0001FF0E
:0206EB0001FF0D
:0206EC0001FF0C
:0206ED0001FF0B
:0206EE0001FF0A
:0206EF0001FF09
:0206F00001FF08
:0206F10001FF07
:0206F20001FF06
:0206F30001FF05
:0206F40001FF04
:0206F50001FF03
:0206F60001FF02
:0206F70001FF01
:0206F80001FF00
:0206F90001FFFF
:0206FA0001FFFE
:0206FB0001FFFD
:0206FC0001FFFC
:0206FD0001FFFB
:0206FE0001FFFA
:0206FF0001FFF9
:0207000001FFF7
:0207010001FFF6
:0207020001FFF5
:0207030001FFF4
:0207040001FFF3
:0207050001FFF2
:0207060001FFF1
:0207070001FFF0
:0207080001FFEF
:0207090001FFEE
:02070A0001FFED
:02070B0001FFEC
:02070C0001FFEB
:02070D0001FFEA
:02070E0001FFE9
:02070F0001FFE8
:0207100001FFE7
:0207110001FFE6
:0207120001FFE5
:0207130001FFE4
:0207140001FFE3
:0207150001FFE2
:0207160001FFE1
:0207170001FFE0
:0207180001FFDF
:0207190001FFDE
:02071A0001FFDD
:02071B0001FFDC
:02071C0001FFDB
:02071D0001FFDA
:02071E0001FFD9
:02071F0001FFD8
:0207200001FFD7
:0207210001FFD6
:0207220001FFD5
:0207230001FFD4
:0207240001FFD3
:0207250001FFD2
:0207260001FFD1
:0207270001FFD0
:0207280001FFCF
:0207290001FFCE
:02072A0001FFCD
:02072B0001FFCC
:02072C0001FFCB
:02072D0001FFCA
:02072E0001FFC9
:02072F0001FFC8
:0207300001FFC7
:0207310001FFC6
:0207320001FFC5
:0207330001FFC4
:0207340001FFC3
:0207350001FFC2
:0207360001FFC1
:0207370001FFC0
:0207380001FFBF
:0207390001FFBE
:02073A0001FFBD
:02073B0001FFBC
:02073C0001FFBB
:02073D0001FFBA
:02073E0001FFB9
:02073F0001FFB8
:0207400001FFB7
:0207410001FFB6
:0207420001FFB5
:0207430001FFB4
:0207440001FFB3
:0207450001FFB2
:0207460001FFB1
:0207470001FFB0
:0207480001FFAF
:0207490001FFAE
:02074A0001FFAD
:02074B0001FFAC
:02074C0001FFAB
:02074D0001FFAA
:02074E0001FFA9
:02074F0001FFA8
:0207500001FFA7
:0207510001FFA6
:0207520001FFA5
:0207530001FFA4
:0207540001FFA3
:0207550001FFA2
:0207560001FFA1
:0207570001FFA0
:0207580001FF9F
:0207590001FF9E
:02075A0001FF9D
:02075B0001FF9C
:02075C0001FF9B
:02075D0001FF9A
:02075E0001FF99
:02075F0001FF98
:0207600001FF97
:0207610001FF96
:0207620001FF95
:0207630001FF94
:0207640001FF93
:0207650001FF92
:0207660001FF91
:0207670001FF90
:0207680001FF8F
:0207690001FF8E
:02076A0001FF8D
:02076B0001FF8C
:02076C0001FF8B
:02076D0001FF8A
:02076E0001FF89
:02076F0001FF88
:0207700001FF87
:0207710001FF86
:0207720001FF85
:0207730001FF84
:0207740001FF83
:0207750001FF82
:0207760001FF81
:0207770001FF80
:0207780001FF7F
:0207790001FF7E
:02077A0001FF7D
:02077B0001FF7C
:02077C0001FF7B
:02077D0000007A
:02077E00000079
:02077F00000078
:02078000000077
:02078100000076
:02078200000075
:0207830001FF74
:0207840001FF73
:0207850001FF72
:0207860001FF71
:0207870001FF70
:0207880001FF6F
:0207890001FF6E
:02078A0001FF6D
:02078B0001FF6C
:02078C0001FF6B
:02078D0001FF6A
:02078E0001FF69
:02078F0001FF68
:0207900001FF67
:0207910001FF66
:0207920001FF65
:0207930001FF64
:0207940001FF63
:0207950001FF62
:0207960001FF61
:0207970001FF60
:0207980001FF5F
:0207990001FF5E
:02079A0001FF5D
:02079B0001FF5C
:02079C0001FF5B
:02079D0001FF5A
:02079E0001FF59
:02079F0001FF58
:0207A00001FF57
:0207A10001FF56
:0207A20001FF55
:0207A30001FF54
:0207A40001FF53
:0207A50001FF52
:0207A60001FF51
:0207A70001FF50
:0207A80001FF4F
:0207A90001FF4E
:0207AA0001FF4D
:0207AB0001FF4C
:0207AC0001FF4B
:0207AD0001FF4A
:0207AE0001FF49
:0207AF0001FF48
:0207B00001FF47
:0207B10001FF46
:0207B20001FF45
:0207B30001FF44
:0207B40001FF43
:0207B50001FF42
:0207B60001FF41
:0207B70001FF40
:0207B80001FF3F
:0207B90001FF3E
:0207BA0001FF3D
:0207BB0001FF3C
:0207BC0001FF3B
:0207BD0001FF3A
:0207BE0001FF39
:0207BF0001FF38
:0207C00001FF37
:0207C10001FF36
:0207C20001FF35
:0207C30001FF34
:0207C40001FF33
:0207C50001FF32
:0207C60001FF31
:0207C70001FF30
:0207C80001FF2F
:0207C90001FF2E
:0207CA0001FF2D
:0207CB0001FF2C
:0207CC0001FF2B
:0207CD0001FF2A
:0207CE0001FF29
:0207CF0001FF28
:0207D00001FF27
:0207D10001FF26
:0207D20001FF25
:0207D30001FF24
:0207D40001FF23
:0207D50001FF22
:0207D60001FF21
:0207D70001FF20
:0207D80001FF1F
:0207D90001FF1E
:0207DA0001FF1D
:0207DB0001FF1C
:0207DC0001FF1B
:0207DD0001FF1A
:0207DE0001FF19
:0207DF0001FF18
:0207E00001FF17
:0207E10001FF16
:0207E20001FF15
:0207E30001FF14
:0207E40001FF13
:0207E50001FF12
:0207E60001FF11
:0207E70001FF10
:0207E80001FF0F
:0207E90001FF0E
:0207EA0001FF0D
:0207EB0001FF0C
:0207EC0001FF0B
:0207ED0001FF0A
:0207EE0001FF09
:0207EF0001FF08
:0207F00001FF07
:0207F10001FF06
:0207F20001FF05
:0207F30001FF04
:0207F40001FF03
:0207F50001FF02
:0207F60001FF01
:0207F70001FF00
:0207F80001FFFF
:0207F90001FFFE
:0207FA0001FFFD
:0207FB0001FFFC
:0207FC0001FFFB
:0207FD0001FFFA
:0207FE0001FFF9
:0207FF0001FFF8
:0208000001FFF6
:0208010001FFF5
:0208020001FFF4
:0208030001FFF3
:0208040001FFF2
:0208050001FFF1
:0208060001FFF0
:0208070001FFEF
:0208080001FFEE
:0208090001FFED
:02080A0001FFEC
:02080B0001FFEB
:02080C0001FFEA
:02080D0001FFE9
:02080E0001FFE8
:02080F0001FFE7
:0208100001FFE6
:0208110001FFE5
:0208120001FFE4
:0208130001FFE3
:0208140001FFE2
:0208150001FFE1
:0208160001FFE0
:0208170001FFDF
:0208180001FFDE
:0208190001FFDD
:02081A0001FFDC
:02081B0001FFDB
:02081C0001FFDA
:02081D0001FFD9
:02081E0001FFD8
:02081F0001FFD7
:0208200001FFD6
:0208210001FFD5
:0208220001FFD4
:0208230001FFD3
:0208240001FFD2
:0208250001FFD1
:0208260001FFD0
:0208270001FFCF
:0208280001FFCE
:0208290001FFCD
:02082A0001FFCC
:02082B0001FFCB
:02082C0001FFCA
:02082D0001FFC9
:02082E0001FFC8
:02082F0001FFC7
:0208300001FFC6
:0208310001FFC5
:0208320001FFC4
:0208330001FFC3
:0208340001FFC2
:0208350001FFC1
:0208360001FFC0
:0208370001FFBF
:0208380001FFBE
:0208390001FFBD
:02083A0001FFBC
:02083B0001FFBB
:02083C0001FFBA
:02083D0001FFB9
:02083E0001FFB8
:02083F0001FFB7
:0208400001FFB6
:0208410001FFB5
:0208420001FFB4
:0208430001FFB3
:0208440001FFB2
:0208450001FFB1
:0208460001FFB0
:0208470001FFAF
:0208480001FFAE
:0208490001FFAD
:02084A0001FFAC
:02084B0001FFAB
:02084C0001FFAA
:02084D0001FFA9
:02084E0001FFA8
:02084F0001FFA7
:0208500001FFA6
:0208510001FFA5
:0208520001FFA4
:0208530001FFA3
:0208540001FFA2
:0208550001FFA1
:0208560001FFA0
:0208570001FF9F
:0208580001FF9E
:0208590001FF9D
:02085A0001FF9C
:02085B0001FF9B
:02085C0001FF9A
:02085D0001FF99
:02085E0001FF98
:02085F0001FF97
:0208600001FF96
:0208610001FF95
:0208620001FF94
:0208630001FF93
:0208640001FF92
:0208650001FF91
:0208660001FF90
:0208670001FF8F
:0208680001FF8E
:0208690001FF8D
:02086A0001FF8C
:02086B0001FF8B
:02086C0001FF8A
:02086D0001FF89
:02086E0001FF88
:02086F0001FF87
:0208700001FF86
:0208710001FF85
:0208720001FF84
:0208730001FF83
:0208740001FF82
:0208750001FF81
:0208760001FF80
:0208770001FF7F
:0208780001FF7E
:0208790001FF7D
:02087A0001FF7C
:02087B0001FF7B
:02087C0001FF7A
:02087D0001FF79
:02087E0001FF78
:02087F0001FF77
:0208800001FF76
:0208810001FF75
:0208820001FF74
:0208830001FF73
:0208840001FF72
:0208850001FF71
:0208860001FF70
:0208870001FF6F
:0208880001FF6E
:0208890001FF6D
:02088A0001FF6C
:02088B0001FF6B
:02088C0001FF6A
:02088D0001FF69
:02088E0001FF68
:02088F0001FF67
:0208900001FF66
:0208910001FF65
:0208920001FF64
:0208930001FF63
:0208940001FF62
:0208950001FF61
:0208960001FF60
:0208970001FF5F
:0208980001FF5E
:0208990001FF5D
:02089A0001FF5C
:02089B0001FF5B
:02089C0001FF5A
:02089D0001FF59
:02089E0001FF58
:02089F0001FF57
:0208A00001FF56
:0208A10001FF55
:0208A20001FF54
:0208A30001FF53
:0208A40001FF52
:0208A50001FF51
:0208A60001FF50
:0208A70001FF4F
:0208A80001FF4E
:0208A90001FF4D
:0208AA0001FF4C
:0208AB0001FF4B
:0208AC0001FF4A
:0208AD0001FF49
:0208AE0001FF48
:0208AF0001FF47
:0208B00001FF46
:0208B10001FF45
:0208B20001FF44
:0208B30001FF43
:0208B40001FF42
:0208B50001FF41
:0208B60001FF40
:0208B70001FF3F
:0208B80001FF3E
:0208B90001FF3D
:0208BA0001FF3C
:0208BB0001FF3B
:0208BC0001FF3A
:0208BD00000039
:0208BE00000038
:0208BF00000037
:0208C000000036
:0208C100000035
:0208C200000034
:0208C30001FF33
:0208C40001FF32
:0208C50001FF31
:0208C60001FF30
:0208C70001FF2F
:0208C80001FF2E
:0208C90001FF2D
:0208CA0001FF2C
:0208CB0001FF2B
:0208CC0001FF2A
:0208CD0001FF29
:0208CE0001FF28
:0208CF0001FF27
:0208D00001FF26
:0208D10001FF25
:0208D20001FF24
:0208D30001FF23
:0208D40001FF22
:0208D50001FF21
:0208D60001FF20
:0208D70001FF1F
:0208D80001FF1E
:0208D90001FF1D
:0208DA0001FF1C
:0208DB0001FF1B
:0208DC0001FF1A
:0208DD0001FF19
:0208DE0001FF18
:0208DF0001FF17
:0208E00001FF16
:0208E10001FF15
:0208E20001FF14
:0208E30001FF13
:0208E40001FF12
:0208E50001FF11
:0208E60001FF10
:0208E70001FF0F
:0208E80001FF0E
:0208E90001FF0D
:0208EA0001FF0C
:0208EB0001FF0B
:0208EC0001FF0A
:0208ED0001FF09
:0208EE0001FF08
:0208EF0001FF07
:0208F00001FF06
:0208F10001FF05
:0208F20001FF04
:0208F30001FF03
:0208F40001FF02
:0208F50001FF01
:0208F60001FF00
:0208F70001FFFF
:0208F80001FFFE
:0208F90001FFFD
:0208FA0001FFFC
:0208FB0001FFFB
:0208FC0001FFFA
:0208FD0001FFF9
:0208FE0001FFF8
:0208FF0001FFF7
:0209000001FFF5
:0209010001FFF4
:0209020001FFF3
:0209030001FFF2
:0209040001FFF1
:0209050001FFF0
:0209060001FFEF
:0209070001FFEE
:0209080001FFED
:0209090001FFEC
:02090A0001FFEB
:02090B0001FFEA
:02090C0001FFE9
:02090D0001FFE8
:02090E0001FFE7
:02090F0001FFE6
:0209100001FFE5
:0209110001FFE4
:0209120001FFE3
:0209130001FFE2
:0209140001FFE1
:0209150001FFE0
:0209160001FFDF
:0209170001FFDE
:0209180001FFDD
:0209190001FFDC
:02091A0001FFDB
:02091B0001FFDA
:02091C0001FFD9
:02091D0001FFD8
:02091E0001FFD7
:02091F0001FFD6
:0209200001FFD5
:0209210001FFD4
:0209220001FFD3
:0209230001FFD2
:0209240001FFD1
:0209250001FFD0
:0209260001FFCF
:0209270001FFCE
:0209280001FFCD
:0209290001FFCC
:02092A0001FFCB
:02092B0001FFCA
:02092C0001FFC9
:02092D0001FFC8
:02092E0001FFC7
:02092F0001FFC6
:0209300001FFC5
:0209310001FFC4
:0209320001FFC3
:0209330001FFC2
:0209340001FFC1
:0209350001FFC0
:0209360001FFBF
:0209370001FFBE
:0209380001FFBD
:0209390001FFBC
:02093A0001FFBB
:02093B0001FFBA
:02093C0001FFB9
:02093D0001FFB8
:02093E0001FFB7
:02093F0001FFB6
:0209400001FFB5
:0209410001FFB4
:0209420001FFB3
:0209430001FFB2
:0209440001FFB1
:0209450001FFB0
:0209460001FFAF
:0209470001FFAE
:0209480001FFAD
:0209490001FFAC
:02094A0001FFAB
:02094B0001FFAA
:02094C0001FFA9
:02094D0001FFA8
:02094E0001FFA7
:02094F0001FFA6
:0209500001FFA5
:0209510001FFA4
:0209520001FFA3
:0209530001FFA2
:0209540001FFA1
:0209550001FFA0
:0209560001FF9F
:0209570001FF9E
:0209580001FF9D
:0209590001FF9C
:02095A0001FF9B
:02095B0001FF9A
:02095C0001FF99
:02095D0001FF98
:02095E0001FF97
:02095F0001FF96
:0209600001FF95
:0209610001FF94
:0209620001FF93
:0209630001FF92
:0209640001FF91
:0209650001FF90
:0209660001FF8F
:0209670001FF8E
:0209680001FF8D
:0209690001FF8C
:02096A0001FF8B
:02096B0001FF8A
:02096C0001FF89
:02096D0001FF88
:02096E0001FF87
:02096F0001FF86
:0209700001FF85
:0209710001FF84
:0209720001FF83
:0209730001FF82
:0209740001FF81
:0209750001FF80
:0209760001FF7F
:0209770001FF7E
:0209780001FF7D
:0209790001FF7C
:02097A0001FF7B
:02097B0001FF7A
:02097C0001FF79
:02097D0001FF78
:02097E0001FF77
:02097F0001FF76
:0209800001FF75
:0209810001FF74
:0209820001FF73
:0209830001FF72
:0209840001FF71
:0209850001FF70
:0209860001FF6F
:0209870001FF6E
:0209880001FF6D
:0209890001FF6C
:02098A0001FF6B
:02098B0001FF6A
:02098C0001FF69
:02098D0001FF68
:02098E0001FF67
:02098F0001FF66
:0209900001FF65
:0209910001FF64
:0209920001FF63
:0209930001FF62
:0209940001FF61
:0209950001FF60
:0209960001FF5F
:0209970001FF5E
:0209980001FF5D
:0209990001FF5C
:02099A0001FF5B
:02099B0001FF5A
:02099C0001FF59
:02099D0001FF58
:02099E0001FF57
:02099F0001FF56
:0209A00001FF55
:0209A10001FF54
:0209A20001FF53
:0209A30001FF52
:0209A40001FF51
:0209A50001FF50
:0209A60001FF4F
:0209A70001FF4E
:0209A80001FF4D
:0209A90001FF4C
:0209AA0001FF4B
:0209AB0001FF4A
:0209AC0001FF49
:0209AD0001FF48
:0209AE0001FF47
:0209AF0001FF46
:0209B00001FF45
:0209B10001FF44
:0209B20001FF43
:0209B30001FF42
:0209B40001FF41
:0209B50001FF40
:0209B60001FF3F
:0209B70001FF3E
:0209B80001FF3D
:0209B90001FF3C
:0209BA0001FF3B
:0209BB0001FF3A
:0209BC0001FF39
:0209BD0001FF38
:0209BE0001FF37
:0209BF0001FF36
:0209C00001FF35
:0209C10001FF34
:0209C20001FF33
:0209C30001FF32
:0209C40001FF31
:0209C50001FF30
:0209C60001FF2F
:0209C70001FF2E
:0209C80001FF2D
:0209C90001FF2C
:0209CA0001FF2B
:0209CB0001FF2A
:0209CC0001FF29
:0209CD0001FF28
:0209CE0001FF27
:0209CF0001FF26
:0209D00001FF25
:0209D10001FF24
:0209D20001FF23
:0209D30001FF22
:0209D40001FF21
:0209D50001FF20
:0209D60001FF1F
:0209D70001FF1E
:0209D80001FF1D
:0209D90001FF1C
:0209DA0001FF1B
:0209DB0001FF1A
:0209DC0001FF19
:0209DD0001FF18
:0209DE0001FF17
:0209DF0001FF16
:0209E00001FF15
:0209E10001FF14
:0209E20001FF13
:0209E30001FF12
:0209E40001FF11
:0209E50001FF10
:0209E60001FF0F
:0209E70001FF0E
:0209E80001FF0D
:0209E90001FF0C
:0209EA0001FF0B
:0209EB0001FF0A
:0209EC0001FF09
:0209ED0001FF08
:0209EE0001FF07
:0209EF0001FF06
:0209F00001FF05
:0209F10001FF04
:0209F20001FF03
:0209F30001FF02
:0209F40001FF01
:0209F50001FF00
:0209F60001FFFF
:0209F70001FFFE
:0209F80001FFFD
:0209F90001FFFC
:0209FA0001FFFB
:0209FB0001FFFA
:0209FC0001FFF9
:0209FD000000F8
:0209FE000000F7
:0209FF000000F6
:020A00000000F4
:020A01000000F3
:020A02000000F2
:020A030001FFF1
:020A040001FFF0
:020A050001FFEF
:020A060001FFEE
:020A070001FFED
:020A080001FFEC
:020A090001FFEB
:020A0A0001FFEA
:020A0B0001FFE9
:020A0C0001FFE8
:020A0D0001FFE7
:020A0E0001FFE6
:020A0F0001FFE5
:020A100001FFE4
:020A110001FFE3
:020A120001FFE2
:020A130001FFE1
:020A140001FFE0
:020A150001FFDF
:020A160001FFDE
:020A170001FFDD
:020A180001FFDC
:020A190001FFDB
:020A1A0001FFDA
:020A1B0001FFD9
:020A1C0001FFD8
:020A1D0001FFD7
:020A1E0001FFD6
:020A1F0001FFD5
:020A200001FFD4
:020A210001FFD3
:020A220001FFD2
:020A230001FFD1
:020A240001FFD0
:020A250001FFCF
:020A260001FFCE
:020A270001FFCD
:020A280001FFCC
:020A290001FFCB
:020A2A0001FFCA
:020A2B0001FFC9
:020A2C0001FFC8
:020A2D0001FFC7
:020A2E0001FFC6
:020A2F0001FFC5
:020A300001FFC4
:020A310001FFC3
:020A320001FFC2
:020A330001FFC1
:020A340001FFC0
:020A350001FFBF
:020A360001FFBE
:020A370001FFBD
:020A380001FFBC
:020A390001FFBB
:020A3A0001FFBA
:020A3B0001FFB9
:020A3C0001FFB8
:020A3D0001FFB7
:020A3E0001FFB6
:020A3F0001FFB5
:020A400001FFB4
:020A410001FFB3
:020A420001FFB2
:020A430001FFB1
:020A440001FFB0
:020A450001FFAF
:020A460001FFAE
:020A470001FFAD
:020A480001FFAC
:020A490001FFAB
:020A4A0001FFAA
:020A4B0001FFA9
:020A4C0001FFA8
:020A4D0001FFA7
:020A4E0001FFA6
:020A4F0001FFA5
:020A500001FFA4
:020A510001FFA3
:020A520001FFA2
:020A530001FFA1
:020A540001FFA0
:020A550001FF9F
:020A560001FF9E
:020A570001FF9D
:020A580001FF9C
:020A590001FF9B
:020A5A0001FF9A
:020A5B0001FF99
:020A5C0001FF98
:020A5D0001FF97
:020A5E0001FF96
:020A5F0001FF95
:020A600001FF94
:020A610001FF93
:020A620001FF92
:020A630001FF91
:020A640001FF90
:020A650001FF8F
:020A660001FF8E
:020A670001FF8D
:020A680001FF8C
:020A690001FF8B
:020A6A0001FF8A
:020A6B0001FF89
:020A6C0001FF88
:020A6D0001FF87
:020A6E0001FF86
:020A6F0001FF85
:020A700001FF84
:020A710001FF83
:020A720001FF82
:020A730001FF81
:020A740001FF80
:020A750001FF7F
:020A760001FF7E
:020A770001FF7D
:020A780001FF7C
:020A790001FF7B
:020A7A0001FF7A
:020A7B0001FF79
:020A7C0001FF78
:020A7D0001FF77
:020A7E0001FF76
:020A7F0001FF75
:020A800001FF74
:020A810001FF73
:020A820001FF72
:020A830001FF71
:020A840001FF70
:020A850001FF6F
:020A860001FF6E
:020A870001FF6D
:020A880001FF6C
:020A890001FF6B
:020A8A0001FF6A
:020A8B0001FF69
:020A8C0001FF68
:020A8D0001FF67
:020A8E0001FF66
:020A8F0001FF65
:020A900001FF64
:020A910001FF63
:020A920001FF62
:020A930001FF61
:020A940001FF60
:020A950001FF5F
:020A960001FF5E
:020A970001FF5D
:020A980001FF5C
:020A990001FF5B
:020A9A0001FF5A
:020A9B0001FF59
:020A9C0001FF58
:020A9D0001FF57
:020A9E0001FF56
:020A9F0001FF55
:020AA00001FF54
:020AA10001FF53
:020AA20001FF52
:020AA30001FF51
:020AA40001FF50
:020AA50001FF4F
:020AA60001FF4E
:020AA70001FF4D
:020AA80001FF4C
:020AA90001FF4B
:020AAA0001FF4A
:020AAB0001FF49
:020AAC0001FF48
:020AAD0001FF47
:020AAE0001FF46
:020AAF0001FF45
:020AB00001FF44
:020AB10001FF43
:020AB20001FF42
:020AB30001FF41
:020AB40001FF40
:020AB50001FF3F
:020AB60001FF3E
:020AB70001FF3D
:020AB80001FF3C
:020AB90001FF3B
:020ABA0001FF3A
:020ABB0001FF39
:020ABC0001FF38
:020ABD0001FF37
:020ABE0001FF36
:020ABF0001FF35
:020AC00001FF34
:020AC10001FF33
:020AC20001FF32
:020AC30001FF31
:020AC40001FF30
:020AC50001FF2F
:020AC60001FF2E
:020AC70001FF2D
:020AC80001FF2C
:020AC90001FF2B
:020ACA0001FF2A
:020ACB0001FF29
:020ACC0001FF28
:020ACD0001FF27
:020ACE0001FF26
:020ACF0001FF25
:020AD00001FF24
:020AD10001FF23
:020AD20001FF22
:020AD30001FF21
:020AD40001FF20
:020AD50001FF1F
:020AD60001FF1E
:020AD70001FF1D
:020AD80001FF1C
:020AD90001FF1B
:020ADA0001FF1A
:020ADB0001FF19
:020ADC0001FF18
:020ADD0001FF17
:020ADE0001FF16
:020ADF0001FF15
:020AE00001FF14
:020AE10001FF13
:020AE20001FF12
:020AE30001FF11
:020AE40001FF10
:020AE50001FF0F
:020AE60001FF0E
:020AE70001FF0D
:020AE80001FF0C
:020AE90001FF0B
:020AEA0001FF0A
:020AEB0001FF09
:020AEC0001FF08
:020AED0001FF07
:020AEE0001FF06
:020AEF0001FF05
:020AF00001FF04
:020AF10001FF03
:020AF20001FF02
:020AF30001FF01
:020AF40001FF00
:020AF50001FFFF
:020AF60001FFFE
:020AF70001FFFD
:020AF80001FFFC
:020AF90001FFFB
:020AFA0001FFFA
:020AFB0001FFF9
:020AFC0001FFF8
:020AFD0001FFF7
:020AFE0001FFF6
:020AFF0001FFF5
:020B000001FFF3
:020B010001FFF2
:020B020001FFF1
:020B030001FFF0
:020B040001FFEF
:020B050001FFEE
:020B060001FFED
:020B070001FFEC
:020B080001FFEB
:020B090001FFEA
:020B0A0001FFE9
:020B0B0001FFE8
:020B0C0001FFE7
:020B0D0001FFE6
:020B0E0001FFE5
:020B0F0001FFE4
:020B100001FFE3
:020B110001FFE2
:020B120001FFE1
:020B130001FFE0
:020B140001FFDF
:020B150001FFDE
:020B160001FFDD
:020B170001FFDC
:020B180001FFDB
:020B190001FFDA
:020B1A0001FFD9
:020B1B0001FFD8
:020B1C0001FFD7
:020B1D0001FFD6
:020B1E0001FFD5
:020B1F0001FFD4
:020B200001FFD3
:020B210001FFD2
:020B220001FFD1
:020B230001FFD0
:020B240001FFCF
:020B250001FFCE
:020B260001FFCD
:020B270001FFCC
:020B280001FFCB
:020B290001FFCA
:020B2A0001FFC9
:020B2B0001FFC8
:020B2C0001FFC7
:020B2D0001FFC6
:020B2E0001FFC5
:020B2F0001FFC4
:020B300001FFC3
:020B310001FFC2
:020B320001FFC1
:020B330001FFC0
:020B340001FFBF
:020B350001FFBE
:020B360001FFBD
:020B370001FFBC
:020B380001FFBB
:020B390001FFBA
:020B3A0001FFB9
:020B3B0001FFB8
:020B3C0001FFB7
:020B3D000000B6
:020B3E000000B5
:020B3F000000B4
:020B40000000B3
:020B41000000B2
:020B42000000B1
:020B430001FFB0
:020B440001FFAF
:020B450001FFAE
:020B460001FFAD
:020B470001FFAC
:020B480001FFAB
:020B490001FFAA
:020B4A0001FFA9
:020B4B0001FFA8
:020B4C0001FFA7
:020B4D0001FFA6
:020B4E0001FFA5
:020B4F0001FFA4
:020B500001FFA3
:020B510001FFA2
:020B520001FFA1
:020B530001FFA0
:020B540001FF9F
:020B550001FF9E
:020B560001FF9D
:020B570001FF9C
:020B580001FF9B
:020B590001FF9A
:020B5A0001FF99
:020B5B0001FF98
:020B5C0001FF97
:020B5D0001FF96
:020B5E0001FF95
:020B5F0001FF94
:020B600001FF93
:020B610001FF92
:020B620001FF91
:020B630001FF90
:020B640001FF8F
:020B650001FF8E
:020B660001FF8D
:020B670001FF8C
:020B680001FF8B
:020B690001FF8A
:020B6A0001FF89
:020B6B0001FF88
:020B6C0001FF87
:020B6D0001FF86
:020B6E0001FF85
:020B6F0001FF84
:020B700001FF83
:020B710001FF82
:020B720001FF81
:020B730001FF80
:020B740001FF7F
:020B750001FF7E
:020B760001FF7D
:020B770001FF7C
:020B780001FF7B
:020B790001FF7A
:020B7A0001FF79
:020B7B0001FF78
:020B7C0001FF77
:020B7D0001FF76
:020B7E0001FF75
:020B7F0001FF74
:020B800001FF73
:020B810001FF72
:020B820001FF71
:020B830001FF70
:020B840001FF6F
:020B850001FF6E
:020B860001FF6D
:020B870001FF6C
:020B880001FF6B
:020B890001FF6A
:020B8A0001FF69
:020B8B0001FF68
:020B8C0001FF67
:020B8D0001FF66
:020B8E0001FF65
:020B8F0001FF64
:020B900001FF63
:020B910001FF62
:020B920001FF61
:020B930001FF60
:020B940001FF5F
:020B950001FF5E
:020B960001FF5D
:020B970001FF5C
:020B980001FF5B
:020B990001FF5A
:020B9A0001FF59
:020B9B0001FF58
:020B9C0001FF57
:020B9D0001FF56
:020B9E0001FF55
:020B9F0001FF54
:020BA00001FF53
:020BA10001FF52
:020BA20001FF51
:020BA30001FF50
:020BA40001FF4F
:020BA50001FF4E
:020BA60001FF4D
:020BA70001FF4C
:020BA80001FF4B
:020BA90001FF4A
:020BAA0001FF49
:020BAB0001FF48
:020BAC0001FF47
:020BAD0001FF46
:020BAE0001FF45
:020BAF0001FF44
:020BB00001FF43
:020BB10001FF42
:020BB20001FF41
:020BB30001FF40
:020BB40001FF3F
:020BB50001FF3E
:020BB60001FF3D
:020BB70001FF3C
:020BB80001FF3B
:020BB90001FF3A
:020BBA0001FF39
:020BBB0001FF38
:020BBC0001FF37
:020BBD0001FF36
:020BBE0001FF35
:020BBF0001FF34
:020BC00001FF33
:020BC10001FF32
:020BC20001FF31
:020BC30001FF30
:020BC40001FF2F
:020BC50001FF2E
:020BC60001FF2D
:020BC70001FF2C
:020BC80001FF2B
:020BC90001FF2A
:020BCA0001FF29
:020BCB0001FF28
:020BCC0001FF27
:020BCD0001FF26
:020BCE0001FF25
:020BCF0001FF24
:020BD00001FF23
:020BD10001FF22
:020BD20001FF21
:020BD30001FF20
:020BD40001FF1F
:020BD50001FF1E
:020BD60001FF1D
:020BD70001FF1C
:020BD80001FF1B
:020BD90001FF1A
:020BDA0001FF19
:020BDB0001FF18
:020BDC0001FF17
:020BDD0001FF16
:020BDE0001FF15
:020BDF0001FF14
:020BE00001FF13
:020BE10001FF12
:020BE20001FF11
:020BE30001FF10
:020BE40001FF0F
:020BE50001FF0E
:020BE60001FF0D
:020BE70001FF0C
:020BE80001FF0B
:020BE90001FF0A
:020BEA0001FF09
:020BEB0001FF08
:020BEC0001FF07
:020BED0001FF06
:020BEE0001FF05
:020BEF0001FF04
:020BF00001FF03
:020BF10001FF02
:020BF20001FF01
:020BF30001FF00
:020BF40001FFFF
:020BF50001FFFE
:020BF60001FFFD
:020BF70001FFFC
:020BF80001FFFB
:020BF90001FFFA
:020BFA0001FFF9
:020BFB0001FFF8
:020BFC0001FFF7
:020BFD0001FFF6
:020BFE0001FFF5
:020BFF0001FFF4
:020C000001FFF2
:020C010001FFF1
:020C020001FFF0
:020C030001FFEF
:020C040001FFEE
:020C050001FFED
:020C060001FFEC
:020C070001FFEB
:020C080001FFEA
:020C090001FFE9
:020C0A0001FFE8
:020C0B0001FFE7
:020C0C0001FFE6
:020C0D0001FFE5
:020C0E0001FFE4
:020C0F0001FFE3
:020C100001FFE2
:020C110001FFE1
:020C120001FFE0
:020C130001FFDF
:020C140001FFDE
:020C150001FFDD
:020C160001FFDC
:020C170001FFDB
:020C180001FFDA
:020C190001FFD9
:020C1A0001FFD8
:020C1B0001FFD7
:020C1C0001FFD6
:020C1D0001FFD5
:020C1E0001FFD4
:020C1F0001FFD3
:020C200001FFD2
:020C210001FFD1
:020C220001FFD0
:020C230001FFCF
:020C240001FFCE
:020C250001FFCD
:020C260001FFCC
:020C270001FFCB
:020C280001FFCA
:020C290001FFC9
:020C2A0001FFC8
:020C2B0001FFC7
:020C2C0001FFC6
:020C2D0001FFC5
:020C2E0001FFC4
:020C2F0001FFC3
:020C300001FFC2
:020C310001FFC1
:020C320001FFC0
:020C330001FFBF
:020C340001FFBE
:020C350001FFBD
:020C360001FFBC
:020C370001FFBB
:020C380001FFBA
:020C390001FFB9
:020C3A0001FFB8
:020C3B0001FFB7
:020C3C0001FFB6
:020C3D0001FFB5
:020C3E0001FFB4
:020C3F0001FFB3
:020C400001FFB2
:020C410001FFB1
:020C420001FFB0
:020C430001FFAF
:020C440001FFAE
:020C450001FFAD
:020C460001FFAC
:020C470001FFAB
:020C480001FFAA
:020C490001FFA9
:020C4A0001FFA8
:020C4B0001FFA7
:020C4C0001FFA6
:020C4D0001FFA5
:020C4E0001FFA4
:020C4F0001FFA3
:020C500001FFA2
:020C510001FFA1
:020C520001FFA0
:020C530001FF9F
:020C540001FF9E
:020C550001FF9D
:020C560001FF9C
:020C570001FF9B
:020C580001FF9A
:020C590001FF99
:020C5A0001FF98
:020C5B0001FF97
:020C5C0001FF96
:020C5D0001FF95
:020C5E0001FF94
:020C5F0001FF93
:020C600001FF92
:020C610001FF91
:020C620001FF90
:020C630001FF8F
:020C640001FF8E
:020C650001FF8D
:020C660001FF8C
:020C670001FF8B
:020C680001FF8A
:020C690001FF89
:020C6A0001FF88
:020C6B0001FF87
:020C6C0001FF86
:020C6D0001FF85
:020C6E0001FF84
:020C6F0001FF83
:020C700001FF82
:020C710001FF81
:020C720001FF80
:020C730001FF7F
:020C740001FF7E
:020C750001FF7D
:020C760001FF7C
:020C770001FF7B
:020C780001FF7A
:020C790001FF79
:020C7A0001FF78
:020C7B0001FF77
:020C7C0001FF76
:020C7D00000075
:020C7E00000074
:020C7F00000073
:020C8000000072
:020C8100000071
:020C8200000070
:020C830001FF6F
:020C840001FF6E
:020C850001FF6D
:020C860001FF6C
:020C870001FF6B
:020C880001FF6A
:020C890001FF69
:020C8A0001FF68
:020C8B0001FF67
:020C8C0001FF66
:020C8D0001FF65
:020C8E0001FF64
:020C8F0001FF63
:020C900001FF62
:020C910001FF61
:020C920001FF60
:020C930001FF5F
:020C940001FF5E
:020C950001FF5D
:020C960001FF5C
:020C970001FF5B
:020C980001FF5A
:020C990001FF59
:020C9A0001FF58
:020C9B0001FF57
:020C9C0001FF56
:020C9D0001FF55
:020C9E0001FF54
:020C9F0001FF53
:020CA00001FF52
:020CA10001FF51
:020CA20001FF50
:020CA30001FF4F
:020CA40001FF4E
:020CA50001FF4D
:020CA60001FF4C
:020CA70001FF4B
:020CA80001FF4A
:020CA90001FF49
:020CAA0001FF48
:020CAB0001FF47
:020CAC0001FF46
:020CAD0001FF45
:020CAE0001FF44
:020CAF0001FF43
:020CB00001FF42
:020CB10001FF41
:020CB20001FF40
:020CB30001FF3F
:020CB40001FF3E
:020CB50001FF3D
:020CB60001FF3C
:020CB70001FF3B
:020CB80001FF3A
:020CB90001FF39
:020CBA0001FF38
:020CBB0001FF37
:020CBC0001FF36
:020CBD0001FF35
:020CBE0001FF34
:020CBF0001FF33
:020CC00001FF32
:020CC10001FF31
:020CC20001FF30
:020CC30001FF2F
:020CC40001FF2E
:020CC50001FF2D
:020CC60001FF2C
:020CC70001FF2B
:020CC80001FF2A
:020CC90001FF29
:020CCA0001FF28
:020CCB0001FF27
:020CCC0001FF26
:020CCD0001FF25
:020CCE0001FF24
:020CCF0001FF23
:020CD00001FF22
:020CD10001FF21
:020CD20001FF20
:020CD30001FF1F
:020CD40001FF1E
:020CD50001FF1D
:020CD60001FF1C
:020CD70001FF1B
:020CD80001FF1A
:020CD90001FF19
:020CDA0001FF18
:020CDB0001FF17
:020CDC0001FF16
:020CDD0001FF15
:020CDE0001FF14
:020CDF0001FF13
:020CE00001FF12
:020CE10001FF11
:020CE20001FF10
:020CE30001FF0F
:020CE40001FF0E
:020CE50001FF0D
:020CE60001FF0C
:020CE70001FF0B
:020CE80001FF0A
:020CE90001FF09
:020CEA0001FF08
:020CEB0001FF07
:020CEC0001FF06
:020CED0001FF05
:020CEE0001FF04
:020CEF0001FF03
:020CF00001FF02
:020CF10001FF01
:020CF20001FF00
:020CF30001FFFF
:020CF40001FFFE
:020CF50001FFFD
:020CF60001FFFC
:020CF70001FFFB
:020CF80001FFFA
:020CF90001FFF9
:020CFA0001FFF8
:020CFB0001FFF7
:020CFC0001FFF6
:020CFD0001FFF5
:020CFE0001FFF4
:020CFF0001FFF3
:020D000001FFF1
:020D010001FFF0
:020D020001FFEF
:020D030001FFEE
:020D040001FFED
:020D050001FFEC
:020D060001FFEB
:020D070001FFEA
:020D080001FFE9
:020D090001FFE8
:020D0A0001FFE7
:020D0B0001FFE6
:020D0C0001FFE5
:020D0D0001FFE4
:020D0E0001FFE3
:020D0F0001FFE2
:020D100001FFE1
:020D110001FFE0
:020D120001FFDF
:020D130001FFDE
:020D140001FFDD
:020D150001FFDC
:020D160001FFDB
:020D170001FFDA
:020D180001FFD9
:020D190001FFD8
:020D1A0001FFD7
:020D1B0001FFD6
:020D1C0001FFD5
:020D1D0001FFD4
:020D1E0001FFD3
:020D1F0001FFD2
:020D200001FFD1
:020D210001FFD0
:020D220001FFCF
:020D230001FFCE
:020D240001FFCD
:020D250001FFCC
:020D260001FFCB
:020D270001FFCA
:020D280001FFC9
:020D290001FFC8
:020D2A0001FFC7
:020D2B0001FFC6
:020D2C0001FFC5
:020D2D0001FFC4
:020D2E0001FFC3
:020D2F0001FFC2
:020D300001FFC1
:020D310001FFC0
:020D320001FFBF
:020D330001FFBE
:020D340001FFBD
:020D350001FFBC
:020D360001FFBB
:020D370001FFBA
:020D380001FFB9
:020D390001FFB8
:020D3A0001FFB7
:020D3B0001FFB6
:020D3C0001FFB5
:020D3D0001FFB4
:020D3E0001FFB3
:020D3F0001FFB2
:020D400001FFB1
:020D410001FFB0
:020D420001FFAF
:020D430001FFAE
:020D440001FFAD
:020D450001FFAC
:020D460001FFAB
:020D470001FFAA
:020D480001FFA9
:020D490001FFA8
:020D4A0001FFA7
:020D4B0001FFA6
:020D4C0001FFA5
:020D4D0001FFA4
:020D4E0001FFA3
:020D4F0001FFA2
:020D500001FFA1
:020D510001FFA0
:020D520001FF9F
:020D530001FF9E
:020D540001FF9D
:020D550001FF9C
:020D560001FF9B
:020D570001FF9A
:020D580001FF99
:020D590001FF98
:020D5A0001FF97
:020D5B0001FF96
:020D5C0001FF95
:020D5D0001FF94
:020D5E0001FF93
:020D5F0001FF92
:020D600001FF91
:020D610001FF90
:020D620001FF8F
:020D630001FF8E
:020D640001FF8D
:020D650001FF8C
:020D660001FF8B
:020D670001FF8A
:020D680001FF89
:020D690001FF88
:020D6A0001FF87
:020D6B0001FF86
:020D6C0001FF85
:020D6D0001FF84
:020D6E0001FF83
:020D6F0001FF82
:020D700001FF81
:020D710001FF80
:020D720001FF7F
:020D730001FF7E
:020D740001FF7D
:020D750001FF7C
:020D760001FF7B
:020D770001FF7A
:020D780001FF79
:020D790001FF78
:020D7A0001FF77
:020D7B0001FF76
:020D7C0001FF75
:020D7D0001FF74
:020D7E0001FF73
:020D7F0001FF72
:020D800001FF71
:020D810001FF70
:020D820001FF6F
:020D830001FF6E
:020D840001FF6D
:020D850001FF6C
:020D860001FF6B
:020D870001FF6A
:020D880001FF69
:020D890001FF68
:020D8A0001FF67
:020D8B0001FF66
:020D8C0001FF65
:020D8D0001FF64
:020D8E0001FF63
:020D8F0001FF62
:020D900001FF61
:020D910001FF60
:020D920001FF5F
:020D930001FF5E
:020D940001FF5D
:020D950001FF5C
:020D960001FF5B
:020D970001FF5A
:020D980001FF59
:020D990001FF58
:020D9A0001FF57
:020D9B0001FF56
:020D9C0001FF55
:020D9D0001FF54
:020D9E0001FF53
:020D9F0001FF52
:020DA00001FF51
:020DA10001FF50
:020DA20001FF4F
:020DA30001FF4E
:020DA40001FF4D
:020DA50001FF4C
:020DA60001FF4B
:020DA70001FF4A
:020DA80001FF49
:020DA90001FF48
:020DAA0001FF47
:020DAB0001FF46
:020DAC0001FF45
:020DAD0001FF44
:020DAE0001FF43
:020DAF0001FF42
:020DB00001FF41
:020DB10001FF40
:020DB20001FF3F
:020DB30001FF3E
:020DB40001FF3D
:020DB50001FF3C
:020DB60001FF3B
:020DB70001FF3A
:020DB80001FF39
:020DB90001FF38
:020DBA0001FF37
:020DBB0001FF36
:020DBC0001FF35
:020DBD00000034
:020DBE00000033
:020DBF00000032
:020DC000000031
:020DC100000030
:020DC20000002F
:020DC30001FF2E
:020DC40001FF2D
:020DC50001FF2C
:020DC60001FF2B
:020DC70001FF2A
:020DC80001FF29
:020DC90001FF28
:020DCA0001FF27
:020DCB0001FF26
:020DCC0001FF25
:020DCD0001FF24
:020DCE0001FF23
:020DCF0001FF22
:020DD00001FF21
:020DD10001FF20
:020DD20001FF1F
:020DD30001FF1E
:020DD40001FF1D
:020DD50001FF1C
:020DD60001FF1B
:020DD70001FF1A
:020DD80001FF19
:020DD90001FF18
:020DDA0001FF17
:020DDB0001FF16
:020DDC0001FF15
:020DDD0001FF14
:020DDE0001FF13
:020DDF0001FF12
:020DE00001FF11
:020DE10001FF10
:020DE20001FF0F
:020DE30001FF0E
:020DE40001FF0D
:020DE50001FF0C
:020DE60001FF0B
:020DE70001FF0A
:020DE80001FF09
:020DE90001FF08
:020DEA0001FF07
:020DEB0001FF06
:020DEC0001FF05
:020DED0001FF04
:020DEE0001FF03
:020DEF0001FF02
:020DF00001FF01
:020DF10001FF00
:020DF20001FFFF
:020DF30001FFFE
:020DF40001FFFD
:020DF50001FFFC
:020DF60001FFFB
:020DF70001FFFA
:020DF80001FFF9
:020DF90001FFF8
:020DFA0001FFF7
:020DFB0001FFF6
:020DFC0001FFF5
:020DFD0001FFF4
:020DFE0001FFF3
:020DFF0001FFF2
:020E000001FFF0
:020E010001FFEF
:020E020001FFEE
:020E030001FFED
:020E040001FFEC
:020E050001FFEB
:020E060001FFEA
:020E070001FFE9
:020E080001FFE8
:020E090001FFE7
:020E0A0001FFE6
:020E0B0001FFE5
:020E0C0001FFE4
:020E0D0001FFE3
:020E0E0001FFE2
:020E0F0001FFE1
:020E100001FFE0
:020E110001FFDF
:020E120001FFDE
:020E130001FFDD
:020E140001FFDC
:020E150001FFDB
:020E160001FFDA
:020E170001FFD9
:020E180001FFD8
:020E190001FFD7
:020E1A0001FFD6
:020E1B0001FFD5
:020E1C0001FFD4
:020E1D0001FFD3
:020E1E0001FFD2
:020E1F0001FFD1
:020E200001FFD0
:020E210001FFCF
:020E220001FFCE
:020E230001FFCD
:020E240001FFCC
:020E250001FFCB
:020E260001FFCA
:020E270001FFC9
:020E280001FFC8
:020E290001FFC7
:020E2A0001FFC6
:020E2B0001FFC5
:020E2C0001FFC4
:020E2D0001FFC3
:020E2E0001FFC2
:020E2F0001FFC1
:020E300001FFC0
:020E310001FFBF
:020E320001FFBE
:020E330001FFBD
:020E340001FFBC
:020E350001FFBB
:020E360001FFBA
:020E370001FFB9
:020E380001FFB8
:020E390001FFB7
:020E3A0001FFB6
:020E3B0001FFB5
:020E3C0001FFB4
:020E3D0001FFB3
:020E3E0001FFB2
:020E3F0001FFB1
:020E400001FFB0
:020E410001FFAF
:020E420001FFAE
:020E430001FFAD
:020E440001FFAC
:020E450001FFAB
:020E460001FFAA
:020E470001FFA9
:020E480001FFA8
:020E490001FFA7
:020E4A0001FFA6
:020E4B0001FFA5
:020E4C0001FFA4
:020E4D0001FFA3
:020E4E0001FFA2
:020E4F0001FFA1
:020E500001FFA0
:020E510001FF9F
:020E520001FF9E
:020E530001FF9D
:020E540001FF9C
:020E550001FF9B
:020E560001FF9A
:020E570001FF99
:020E580001FF98
:020E590001FF97
:020E5A0001FF96
:020E5B0001FF95
:020E5C0001FF94
:020E5D0001FF93
:020E5E0001FF92
:020E5F0001FF91
:020E600001FF90
:020E610001FF8F
:020E620001FF8E
:020E630001FF8D
:020E640001FF8C
:020E650001FF8B
:020E660001FF8A
:020E670001FF89
:020E680001FF88
:020E690001FF87
:020E6A0001FF86
:020E6B0001FF85
:020E6C0001FF84
:020E6D0001FF83
:020E6E0001FF82
:020E6F0001FF81
:020E700001FF80
:020E710001FF7F
:020E720001FF7E
:020E730001FF7D
:020E740001FF7C
:020E750001FF7B
:020E760001FF7A
:020E770001FF79
:020E780001FF78
:020E790001FF77
:020E7A0001FF76
:020E7B0001FF75
:020E7C0001FF74
:020E7D0001FF73
:020E7E0001FF72
:020E7F0001FF71
:020E800001FF70
:020E810001FF6F
:020E820001FF6E
:020E830001FF6D
:020E840001FF6C
:020E850001FF6B
:020E860001FF6A
:020E870001FF69
:020E880001FF68
:020E890001FF67
:020E8A0001FF66
:020E8B0001FF65
:020E8C0001FF64
:020E8D0001FF63
:020E8E0001FF62
:020E8F0001FF61
:020E900001FF60
:020E910001FF5F
:020E920001FF5E
:020E930001FF5D
:020E940001FF5C
:020E950001FF5B
:020E960001FF5A
:020E970001FF59
:020E980001FF58
:020E990001FF57
:020E9A0001FF56
:020E9B0001FF55
:020E9C0001FF54
:020E9D0001FF53
:020E9E0001FF52
:020E9F0001FF51
:020EA00001FF50
:020EA10001FF4F
:020EA20001FF4E
:020EA30001FF4D
:020EA40001FF4C
:020EA50001FF4B
:020EA60001FF4A
:020EA70001FF49
:020EA80001FF48
:020EA90001FF47
:020EAA0001FF46
:020EAB0001FF45
:020EAC0001FF44
:020EAD0001FF43
:020EAE0001FF42
:020EAF0001FF41
:020EB00001FF40
:020EB10001FF3F
:020EB20001FF3E
:020EB30001FF3D
:020EB40001FF3C
:020EB50001FF3B
:020EB60001FF3A
:020EB70001FF39
:020EB80001FF38
:020EB90001FF37
:020EBA0001FF36
:020EBB0001FF35
:020EBC0001FF34
:020EBD0001FF33
:020EBE0001FF32
:020EBF0001FF31
:020EC00001FF30
:020EC10001FF2F
:020EC20001FF2E
:020EC30001FF2D
:020EC40001FF2C
:020EC50001FF2B
:020EC60001FF2A
:020EC70001FF29
:020EC80001FF28
:020EC90001FF27
:020ECA0001FF26
:020ECB0001FF25
:020ECC0001FF24
:020ECD0001FF23
:020ECE0001FF22
:020ECF0001FF21
:020ED00001FF20
:020ED10001FF1F
:020ED20001FF1E
:020ED30001FF1D
:020ED40001FF1C
:020ED50001FF1B
:020ED60001FF1A
:020ED70001FF19
:020ED80001FF18
:020ED90001FF17
:020EDA0001FF16
:020EDB0001FF15
:020EDC0001FF14
:020EDD0001FF13
:020EDE0001FF12
:020EDF0001FF11
:020EE00001FF10
:020EE10001FF0F
:020EE20001FF0E
:020EE30001FF0D
:020EE40001FF0C
:020EE50001FF0B
:020EE60001FF0A
:020EE70001FF09
:020EE80001FF08
:020EE90001FF07
:020EEA0001FF06
:020EEB0001FF05
:020EEC0001FF04
:020EED0001FF03
:020EEE0001FF02
:020EEF0001FF01
:020EF00001FF00
:020EF10001FFFF
:020EF20001FFFE
:020EF30001FFFD
:020EF40001FFFC
:020EF50001FFFB
:020EF60001FFFA
:020EF70001FFF9
:020EF80001FFF8
:020EF90001FFF7
:020EFA0001FFF6
:020EFB0001FFF5
:020EFC0001FFF4
:020EFD000000F3
:020EFE000000F2
:020EFF000000F1
:020F00000000EF
:020F01000000EE
:020F02000000ED
:020F030001FFEC
:020F040001FFEB
:020F050001FFEA
:020F060001FFE9
:020F070001FFE8
:020F080001FFE7
:020F090001FFE6
:020F0A0001FFE5
:020F0B0001FFE4
:020F0C0001FFE3
:020F0D0001FFE2
:020F0E0001FFE1
:020F0F0001FFE0
:020F100001FFDF
:020F110001FFDE
:020F120001FFDD
:020F130001FFDC
:020F140001FFDB
:020F150001FFDA
:020F160001FFD9
:020F170001FFD8
:020F180001FFD7
:020F190001FFD6
:020F1A0001FFD5
:020F1B0001FFD4
:020F1C0001FFD3
:020F1D0001FFD2
:020F1E0001FFD1
:020F1F0001FFD0
:020F200001FFCF
:020F210001FFCE
:020F220001FFCD
:020F230001FFCC
:020F240001FFCB
:020F250001FFCA
:020F260001FFC9
:020F270001FFC8
:020F280001FFC7
:020F290001FFC6
:020F2A0001FFC5
:020F2B0001FFC4
:020F2C0001FFC3
:020F2D0001FFC2
:020F2E0001FFC1
:020F2F0001FFC0
:020F300001FFBF
:020F310001FFBE
:020F320001FFBD
:020F330001FFBC
:020F340001FFBB
:020F350001FFBA
:020F360001FFB9
:020F370001FFB8
:020F380001FFB7
:020F390001FFB6
:020F3A0001FFB5
:020F3B0001FFB4
:020F3C0001FFB3
:020F3D0001FFB2
:020F3E0001FFB1
:020F3F0001FFB0
:020F400001FFAF
:020F410001FFAE
:020F420001FFAD
:020F430001FFAC
:020F440001FFAB
:020F450001FFAA
:020F460001FFA9
:020F470001FFA8
:020F480001FFA7
:020F490001FFA6
:020F4A0001FFA5
:020F4B0001FFA4
:020F4C0001FFA3
:020F4D0001FFA2
:020F4E0001FFA1
:020F4F0001FFA0
:020F500001FF9F
:020F510001FF9E
:020F520001FF9D
:020F530001FF9C
:020F540001FF9B
:020F550001FF9A
:020F560001FF99
:020F570001FF98
:020F580001FF97
:020F590001FF96
:020F5A0001FF95
:020F5B0001FF94
:020F5C0001FF93
:020F5D0001FF92
:020F5E0001FF91
:020F5F0001FF90
:020F600001FF8F
:020F610001FF8E
:020F620001FF8D
:020F630001FF8C
:020F640001FF8B
:020F650001FF8A
:020F660001FF89
:020F670001FF88
:020F680001FF87
:020F690001FF86
:020F6A0001FF85
:020F6B0001FF84
:020F6C0001FF83
:020F6D0001FF82
:020F6E0001FF81
:020F6F0001FF80
:020F700001FF7F
:020F710001FF7E
:020F720001FF7D
:020F730001FF7C
:020F740001FF7B
:020F750001FF7A
:020F760001FF79
:020F770001FF78
:020F780001FF77
:020F790001FF76
:020F7A0001FF75
:020F7B0001FF74
:020F7C0001FF73
:020F7D0001FF72
:020F7E0001FF71
:020F7F0001FF70
:020F800001FF6F
:020F810001FF6E
:020F820001FF6D
:020F830001FF6C
:020F840001FF6B
:020F850001FF6A
:020F860001FF69
:020F870001FF68
:020F880001FF67
:020F890001FF66
:020F8A0001FF65
:020F8B0001FF64
:020F8C0001FF63
:020F8D0001FF62
:020F8E0001FF61
:020F8F0001FF60
:020F900001FF5F
:020F910001FF5E
:020F920001FF5D
:020F930001FF5C
:020F940001FF5B
:020F950001FF5A
:020F960001FF59
:020F970001FF58
:020F980001FF57
:020F990001FF56
:020F9A0001FF55
:020F9B0001FF54
:020F9C0001FF53
:020F9D0001FF52
:020F9E0001FF51
:020F9F0001FF50
