:0200000001FFFE
:0200010001FFFD
:0200020001FFFC
:0200030001FFFB
:0200040001FFFA
:0200050001FFF9
:0200060001FFF8
:0200070001FFF7
:0200080001FFF6
:0200090001FFF5
:02000A0001FFF4
:02000B0001FFF3
:02000C0001FFF2
:02000D0001FFF1
:02000E0001FFF0
:02000F0001FFEF
:0200100001FFEE
:0200110001FFED
:0200120001FFEC
:0200130001FFEB
:0200140001FFEA
:0200150001FFE9
:0200160001FFE8
:0200170001FFE7
:0200180001FFE6
:0200190001FFE5
:02001A0001FFE4
:02001B0001FFE3
:02001C0001FFE2
:02001D0001FFE1
:02001E0001FFE0
:02001F0001FFDF
:0200200001FFDE
:0200210001FFDD
:0200220001FFDC
:0200230001FFDB
:0200240001FFDA
:0200250001FFD9
:0200260001FFD8
:0200270001FFD7
:0200280001FFD6
:0200290001FFD5
:02002A0001FFD4
:02002B0001FFD3
:02002C0001FFD2
:02002D0001FFD1
:02002E0001FFD0
:02002F0001FFCF
:0200300001FFCE
:0200310001FFCD
:0200320001FFCC
:0200330001FFCB
:0200340001FFCA
:0200350001FFC9
:0200360001FFC8
:0200370001FFC7
:0200380001FFC6
:0200390001FFC5
:02003A0001FFC4
:02003B0001FFC3
:02003C0001FFC2
:02003D0001FFC1
:02003E0001FFC0
:02003F0001FFBF
:0200400001FFBE
:0200410001FFBD
:0200420001FFBC
:0200430001FFBB
:0200440001FFBA
:0200450001FFB9
:0200460001FFB8
:0200470001FFB7
:0200480001FFB6
:0200490001FFB5
:02004A0001FFB4
:02004B0001FFB3
:02004C0001FFB2
:02004D0001FFB1
:02004E0001FFB0
:02004F0001FFAF
:0200500001FFAE
:0200510001FFAD
:0200520001FFAC
:0200530001FFAB
:0200540001FFAA
:0200550001FFA9
:0200560001FFA8
:0200570001FFA7
:0200580001FFA6
:0200590001FFA5
:02005A0001FFA4
:02005B0001FFA3
:02005C0001FFA2
:02005D0001FFA1
:02005E0001FFA0
:02005F0001FF9F
:0200600001FF9E
:0200610001FF9D
:0200620001FF9C
:0200630001FF9B
:0200640001FF9A
:0200650001FF99
:0200660001FF98
:0200670001FF97
:0200680001FF96
:0200690001FF95
:02006A0001FF94
:02006B0001FF93
:02006C0001FF92
:02006D0001FF91
:02006E0001FF90
:02006F0001FF8F
:0200700001FF8E
:0200710001FF8D
:0200720001FF8C
:0200730001FF8B
:0200740001FF8A
:0200750001FF89
:0200760001FF88
:0200770001FF87
:0200780001FF86
:0200790001FF85
:02007A0001FF84
:02007B0001FF83
:02007C0001FF82
:02007D0001FF81
:02007E0001FF80
:02007F0001FF7F
:0200800001FF7E
:0200810001FF7D
:0200820001FF7C
:0200830001FF7B
:0200840001FF7A
:0200850001FF79
:0200860001FF78
:0200870001FF77
:0200880001FF76
:0200890001FF75
:02008A0001FF74
:02008B0001FF73
:02008C0001FF72
:02008D0001FF71
:02008E0001FF70
:02008F0001FF6F
:0200900001FF6E
:0200910001FF6D
:0200920001FF6C
:0200930001FF6B
:0200940001FF6A
:0200950001FF69
:0200960001FF68
:0200970001FF67
:0200980001FF66
:0200990001FF65
:02009A0001FF64
:02009B0001FF63
:02009C0001FF62
:02009D0001FF61
:02009E0001FF60
:02009F0001FF5F
:0200A00001FF5E
:0200A10001FF5D
:0200A20001FF5C
:0200A30001FF5B
:0200A40001FF5A
:0200A50001FF59
:0200A60001FF58
:0200A70001FF57
:0200A80001FF56
:0200A90001FF55
:0200AA0001FF54
:0200AB0001FF53
:0200AC0001FF52
:0200AD0001FF51
:0200AE0001FF50
:0200AF0001FF4F
:0200B00001FF4E
:0200B10001FF4D
:0200B20001FF4C
:0200B30001FF4B
:0200B40001FF4A
:0200B50001FF49
:0200B60001FF48
:0200B70001FF47
:0200B80001FF46
:0200B90001FF45
:0200BA0001FF44
:0200BB0001FF43
:0200BC0001FF42
:0200BD0001FF41
:0200BE0001FF40
:0200BF0001FF3F
:0200C00001FF3E
:0200C10001FF3D
:0200C20001FF3C
:0200C30001FF3B
:0200C40001FF3A
:0200C50001FF39
:0200C60001FF38
:0200C70001FF37
:0200C80001FF36
:0200C90001FF35
:0200CA0001FF34
:0200CB0001FF33
:0200CC0001FF32
:0200CD0001FF31
:0200CE0001FF30
:0200CF0001FF2F
:0200D00001FF2E
:0200D10001FF2D
:0200D20001FF2C
:0200D30001FF2B
:0200D40001FF2A
:0200D50001FF29
:0200D60001FF28
:0200D70001FF27
:0200D80001FF26
:0200D90001FF25
:0200DA0001FF24
:0200DB0001FF23
:0200DC0001FF22
:0200DD0001FF21
:0200DE0001FF20
:0200DF0001FF1F
:0200E00001FF1E
:0200E10001FF1D
:0200E20001FF1C
:0200E30001FF1B
:0200E40001FF1A
:0200E50001FF19
:0200E60001FF18
:0200E70001FF17
:0200E80001FF16
:0200E90001FF15
:0200EA0001FF14
:0200EB0001FF13
:0200EC0001FF12
:0200ED0001FF11
:0200EE0001FF10
:0200EF0001FF0F
:0200F00001FF0E
:0200F10001FF0D
:0200F20001FF0C
:0200F30001FF0B
:0200F40001FF0A
:0200F50001FF09
:0200F60001FF08
:0200F70001FF07
:0200F80001FF06
:0200F90001FF05
:0200FA0001FF04
:0200FB0001FF03
:0200FC0001FF02
:0200FD0001FF01
:0200FE0001FF00
:0200FF0001FFFF
:0201000001FFFD
:0201010001FFFC
:0201020001FFFB
:0201030001FFFA
:0201040001FFF9
:0201050001FFF8
:0201060001FFF7
:0201070001FFF6
:0201080001FFF5
:0201090001FFF4
:02010A0001FFF3
:02010B0001FFF2
:02010C0001FFF1
:02010D0001FFF0
:02010E0001FFEF
:02010F0001FFEE
:0201100001FFED
:0201110001FFEC
:0201120001FFEB
:0201130001FFEA
:0201140001FFE9
:0201150001FFE8
:0201160001FFE7
:0201170001FFE6
:0201180001FFE5
:0201190001FFE4
:02011A0001FFE3
:02011B0001FFE2
:02011C0001FFE1
:02011D0001FFE0
:02011E0001FFDF
:02011F0001FFDE
:0201200001FFDD
:0201210001FFDC
:0201220001FFDB
:0201230001FFDA
:0201240001FFD9
:0201250001FFD8
:0201260001FFD7
:0201270001FFD6
:0201280001FFD5
:0201290001FFD4
:02012A0001FFD3
:02012B0001FFD2
:02012C0001FFD1
:02012D0001FFD0
:02012E0001FFCF
:02012F0001FFCE
:0201300001FFCD
:0201310001FFCC
:0201320001FFCB
:0201330001FFCA
:0201340001FFC9
:0201350001FFC8
:0201360001FFC7
:0201370001FFC6
:0201380001FFC5
:0201390001FFC4
:02013A0001FFC3
:02013B0001FFC2
:02013C0001FFC1
:02013D0001FFC0
:02013E0001FFBF
:02013F0001FFBE
:0201400001FFBD
:0201410001FFBC
:0201420001FFBB
:0201430001FFBA
:0201440001FFB9
:0201450001FFB8
:0201460001FFB7
:0201470001FFB6
:0201480001FFB5
:0201490001FFB4
:02014A0001FFB3
:02014B0001FFB2
:02014C0001FFB1
:02014D0001FFB0
:02014E0001FFAF
:02014F0001FFAE
:0201500001FFAD
:0201510001FFAC
:0201520001FFAB
:0201530001FFAA
:0201540001FFA9
:0201550001FFA8
:0201560001FFA7
:0201570001FFA6
:0201580001FFA5
:0201590001FFA4
:02015A0001FFA3
:02015B0001FFA2
:02015C0001FFA1
:02015D0001FFA0
:02015E0001FF9F
:02015F0001FF9E
:0201600001FF9D
:0201610001FF9C
:0201620001FF9B
:0201630001FF9A
:0201640001FF99
:0201650001FF98
:0201660001FF97
:0201670001FF96
:0201680001FF95
:0201690001FF94
:02016A0001FF93
:02016B0001FF92
:02016C0001FF91
:02016D0001FF90
:02016E0001FF8F
:02016F0001FF8E
:0201700001FF8D
:0201710001FF8C
:0201720001FF8B
:0201730001FF8A
:0201740001FF89
:0201750001FF88
:0201760001FF87
:0201770001FF86
:0201780001FF85
:0201790001FF84
:02017A0001FF83
:02017B0001FF82
:02017C0001FF81
:02017D0001FF80
:02017E0001FF7F
:02017F0001FF7E
:0201800001FF7D
:0201810001FF7C
:0201820001FF7B
:0201830001FF7A
:0201840001FF79
:0201850001FF78
:0201860001FF77
:0201870001FF76
:0201880001FF75
:0201890001FF74
:02018A0001FF73
:02018B0001FF72
:02018C0001FF71
:02018D0001FF70
:02018E0001FF6F
:02018F0001FF6E
:0201900001FF6D
:0201910001FF6C
:0201920001FF6B
:0201930001FF6A
:0201940001FF69
:0201950001FF68
:0201960001FF67
:0201970001FF66
:0201980001FF65
:0201990001FF64
:02019A0001FF63
:02019B0001FF62
:02019C0001FF61
:02019D0001FF60
:02019E0001FF5F
:02019F0001FF5E
:0201A00001FF5D
:0201A10001FF5C
:0201A20001FF5B
:0201A30001FF5A
:0201A40001FF59
:0201A50001FF58
:0201A60001FF57
:0201A70001FF56
:0201A80001FF55
:0201A90001FF54
:0201AA0001FF53
:0201AB0001FF52
:0201AC0001FF51
:0201AD0001FF50
:0201AE0001FF4F
:0201AF0001FF4E
:0201B00001FF4D
:0201B10001FF4C
:0201B20001FF4B
:0201B30001FF4A
:0201B40001FF49
:0201B50001FF48
:0201B60001FF47
:0201B70001FF46
:0201B80001FF45
:0201B90001FF44
:0201BA0001FF43
:0201BB0001FF42
:0201BC0001FF41
:0201BD0001FF40
:0201BE0001FF3F
:0201BF0001FF3E
:0201C00001FF3D
:0201C10001FF3C
:0201C20001FF3B
:0201C30001FF3A
:0201C40001FF39
:0201C50001FF38
:0201C60001FF37
:0201C70001FF36
:0201C80001FF35
:0201C90001FF34
:0201CA0001FF33
:0201CB0001FF32
:0201CC0001FF31
:0201CD0001FF30
:0201CE0001FF2F
:0201CF0001FF2E
:0201D00001FF2D
:0201D10001FF2C
:0201D20001FF2B
:0201D30001FF2A
:0201D40001FF29
:0201D50001FF28
:0201D60001FF27
:0201D70001FF26
:0201D80001FF25
:0201D90001FF24
:0201DA0001FF23
:0201DB0001FF22
:0201DC0001FF21
:0201DD0001FF20
:0201DE0001FF1F
:0201DF0001FF1E
:0201E00001FF1D
:0201E10001FF1C
:0201E20001FF1B
:0201E30001FF1A
:0201E40001FF19
:0201E50001FF18
:0201E60001FF17
:0201E70001FF16
:0201E80001FF15
:0201E90001FF14
:0201EA0001FF13
:0201EB0001FF12
:0201EC0001FF11
:0201ED0001FF10
:0201EE0001FF0F
:0201EF0001FF0E
:0201F00001FF0D
:0201F10001FF0C
:0201F20001FF0B
:0201F30001FF0A
:0201F40001FF09
:0201F50001FF08
:0201F60001FF07
:0201F70001FF06
:0201F80001FF05
:0201F90001FF04
:0201FA0001FF03
:0201FB0001FF02
:0201FC0001FF01
:0201FD0001FF00
:0201FE0001FFFF
:0201FF0001FFFE
:0202000001FFFC
:0202010001FFFB
:0202020001FFFA
:0202030001FFF9
:0202040001FFF8
:0202050001FFF7
:0202060001FFF6
:0202070001FFF5
:0202080001FFF4
:0202090001FFF3
:02020A0001FFF2
:02020B0001FFF1
:02020C0001FFF0
:02020D0001FFEF
:02020E0001FFEE
:02020F0001FFED
:0202100001FFEC
:0202110001FFEB
:0202120001FFEA
:0202130001FFE9
:0202140001FFE8
:0202150001FFE7
:0202160001FFE6
:0202170001FFE5
:0202180001FFE4
:0202190001FFE3
:02021A0001FFE2
:02021B0001FFE1
:02021C0001FFE0
:02021D0001FFDF
:02021E0001FFDE
:02021F0001FFDD
:0202200001FFDC
:0202210001FFDB
:0202220001FFDA
:0202230001FFD9
:0202240001FFD8
:0202250001FFD7
:0202260001FFD6
:0202270001FFD5
:0202280001FFD4
:0202290001FFD3
:02022A0001FFD2
:02022B0001FFD1
:02022C0001FFD0
:02022D0001FFCF
:02022E0001FFCE
:02022F0001FFCD
:0202300001FFCC
:0202310001FFCB
:0202320001FFCA
:0202330001FFC9
:0202340001FFC8
:0202350001FFC7
:0202360001FFC6
:0202370001FFC5
:0202380001FFC4
:0202390001FFC3
:02023A0001FFC2
:02023B0001FFC1
:02023C0001FFC0
:02023D0001FFBF
:02023E0001FFBE
:02023F0001FFBD
:0202400001FFBC
:0202410001FFBB
:0202420001FFBA
:0202430001FFB9
:0202440001FFB8
:0202450001FFB7
:0202460001FFB6
:0202470001FFB5
:0202480001FFB4
:0202490001FFB3
:02024A0001FFB2
:02024B0001FFB1
:02024C0001FFB0
:02024D0001FFAF
:02024E0001FFAE
:02024F0001FFAD
:0202500001FFAC
:0202510001FFAB
:0202520001FFAA
:0202530001FFA9
:0202540001FFA8
:0202550001FFA7
:0202560001FFA6
:0202570001FFA5
:0202580001FFA4
:0202590001FFA3
:02025A0001FFA2
:02025B0001FFA1
:02025C0001FFA0
:02025D0001FF9F
:02025E0001FF9E
:02025F0001FF9D
:0202600001FF9C
:0202610001FF9B
:0202620001FF9A
:0202630001FF99
:0202640001FF98
:0202650001FF97
:0202660001FF96
:0202670001FF95
:0202680001FF94
:0202690001FF93
:02026A0001FF92
:02026B0001FF91
:02026C0001FF90
:02026D0001FF8F
:02026E0001FF8E
:02026F0001FF8D
:0202700001FF8C
:0202710001FF8B
:0202720001FF8A
:0202730001FF89
:0202740001FF88
:0202750001FF87
:0202760001FF86
:0202770001FF85
:0202780001FF84
:0202790001FF83
:02027A0001FF82
:02027B0001FF81
:02027C0001FF80
:02027D0001FF7F
:02027E0001FF7E
:02027F0001FF7D
:0202800001FF7C
:0202810001FF7B
:0202820001FF7A
:0202830001FF79
:0202840001FF78
:0202850001FF77
:0202860001FF76
:0202870001FF75
:0202880001FF74
:0202890001FF73
:02028A0001FF72
:02028B0001FF71
:02028C0001FF70
:02028D0001FF6F
:02028E0001FF6E
:02028F0001FF6D
:0202900001FF6C
:0202910001FF6B
:0202920001FF6A
:0202930001FF69
:0202940001FF68
:0202950001FF67
:0202960001FF66
:0202970001FF65
:0202980001FF64
:0202990001FF63
:02029A0001FF62
:02029B0001FF61
:02029C0001FF60
:02029D0001FF5F
:02029E0001FF5E
:02029F0001FF5D
:0202A00001FF5C
:0202A10001FF5B
:0202A20001FF5A
:0202A30001FF59
:0202A40001FF58
:0202A50001FF57
:0202A60001FF56
:0202A70001FF55
:0202A80001FF54
:0202A90001FF53
:0202AA0001FF52
:0202AB0001FF51
:0202AC0001FF50
:0202AD0001FF4F
:0202AE0001FF4E
:0202AF0001FF4D
:0202B00001FF4C
:0202B10001FF4B
:0202B20001FF4A
:0202B30001FF49
:0202B40001FF48
:0202B50001FF47
:0202B60001FF46
:0202B70001FF45
:0202B80001FF44
:0202B90001FF43
:0202BA0001FF42
:0202BB0001FF41
:0202BC0001FF40
:0202BD0001FF3F
:0202BE0001FF3E
:0202BF0001FF3D
:0202C00001FF3C
:0202C10001FF3B
:0202C20001FF3A
:0202C30001FF39
:0202C40001FF38
:0202C50001FF37
:0202C60001FF36
:0202C70001FF35
:0202C80001FF34
:0202C90001FF33
:0202CA0001FF32
:0202CB0001FF31
:0202CC0001FF30
:0202CD0001FF2F
:0202CE0001FF2E
:0202CF0001FF2D
:0202D00001FF2C
:0202D10001FF2B
:0202D20001FF2A
:0202D30001FF29
:0202D40001FF28
:0202D50001FF27
:0202D60001FF26
:0202D70001FF25
:0202D80001FF24
:0202D90001FF23
:0202DA0001FF22
:0202DB0001FF21
:0202DC0001FF20
:0202DD0001FF1F
:0202DE0001FF1E
:0202DF0001FF1D
:0202E00001FF1C
:0202E10001FF1B
:0202E20001FF1A
:0202E30001FF19
:0202E40001FF18
:0202E50001FF17
:0202E60001FF16
:0202E70001FF15
:0202E80001FF14
:0202E90001FF13
:0202EA0001FF12
:0202EB0001FF11
:0202EC0001FF10
:0202ED0001FF0F
:0202EE0001FF0E
:0202EF0001FF0D
:0202F00001FF0C
:0202F10001FF0B
:0202F20001FF0A
:0202F30001FF09
:0202F40001FF08
:0202F50001FF07
:0202F60001FF06
:0202F70001FF05
:0202F80001FF04
:0202F90001FF03
:0202FA0001FF02
:0202FB0001FF01
:0202FC0001FF00
:0202FD0001FFFF
:0202FE0001FFFE
:0202FF0001FFFD
:0203000001FFFB
:0203010001FFFA
:0203020001FFF9
:0203030001FFF8
:0203040001FFF7
:0203050001FFF6
:0203060001FFF5
:0203070001FFF4
:0203080001FFF3
:0203090001FFF2
:02030A0001FFF1
:02030B0001FFF0
:02030C0001FFEF
:02030D0001FFEE
:02030E0001FFED
:02030F0001FFEC
:0203100001FFEB
:0203110001FFEA
:0203120001FFE9
:0203130001FFE8
:0203140001FFE7
:0203150001FFE6
:0203160001FFE5
:0203170001FFE4
:0203180001FFE3
:0203190001FFE2
:02031A0001FFE1
:02031B0001FFE0
:02031C0001FFDF
:02031D0001FFDE
:02031E0001FFDD
:02031F0001FFDC
:0203200001FFDB
:0203210001FFDA
:0203220001FFD9
:0203230001FFD8
:0203240001FFD7
:0203250001FFD6
:0203260001FFD5
:0203270001FFD4
:0203280001FFD3
:0203290001FFD2
:02032A0001FFD1
:02032B0001FFD0
:02032C0001FFCF
:02032D0001FFCE
:02032E0001FFCD
:02032F0001FFCC
:0203300001FFCB
:0203310001FFCA
:0203320001FFC9
:0203330001FFC8
:0203340001FFC7
:0203350001FFC6
:0203360001FFC5
:0203370001FFC4
:0203380001FFC3
:0203390001FFC2
:02033A0001FFC1
:02033B0001FFC0
:02033C0001FFBF
:02033D0001FFBE
:02033E0001FFBD
:02033F0001FFBC
:0203400001FFBB
:0203410001FFBA
:0203420001FFB9
:0203430001FFB8
:0203440001FFB7
:0203450001FFB6
:0203460001FFB5
:0203470001FFB4
:0203480001FFB3
:0203490001FFB2
:02034A0001FFB1
:02034B0001FFB0
:02034C0001FFAF
:02034D0001FFAE
:02034E0001FFAD
:02034F0001FFAC
:0203500001FFAB
:0203510001FFAA
:0203520001FFA9
:0203530001FFA8
:0203540001FFA7
:0203550001FFA6
:0203560001FFA5
:0203570001FFA4
:0203580001FFA3
:0203590001FFA2
:02035A0001FFA1
:02035B0001FFA0
:02035C0001FF9F
:02035D0001FF9E
:02035E0001FF9D
:02035F0001FF9C
:0203600001FF9B
:0203610001FF9A
:0203620001FF99
:0203630001FF98
:0203640001FF97
:0203650001FF96
:0203660001FF95
:0203670001FF94
:0203680001FF93
:0203690001FF92
:02036A0001FF91
:02036B0001FF90
:02036C0001FF8F
:02036D0001FF8E
:02036E0001FF8D
:02036F0001FF8C
:0203700001FF8B
:0203710001FF8A
:0203720001FF89
:0203730001FF88
:0203740001FF87
:0203750001FF86
:0203760001FF85
:0203770001FF84
:0203780001FF83
:0203790001FF82
:02037A0001FF81
:02037B0001FF80
:02037C0001FF7F
:02037D0001FF7E
:02037E0001FF7D
:02037F0001FF7C
:0203800001FF7B
:0203810001FF7A
:0203820001FF79
:0203830001FF78
:0203840001FF77
:0203850001FF76
:0203860001FF75
:0203870001FF74
:0203880001FF73
:0203890001FF72
:02038A0001FF71
:02038B0001FF70
:02038C0001FF6F
:02038D0001FF6E
:02038E0001FF6D
:02038F0001FF6C
:0203900001FF6B
:0203910001FF6A
:0203920001FF69
:0203930001FF68
:0203940001FF67
:0203950001FF66
:0203960001FF65
:0203970001FF64
:0203980001FF63
:0203990001FF62
:02039A0001FF61
:02039B0001FF60
:02039C0001FF5F
:02039D0001FF5E
:02039E0001FF5D
:02039F0001FF5C
:0203A00001FF5B
:0203A10001FF5A
:0203A20001FF59
:0203A30001FF58
:0203A40001FF57
:0203A50001FF56
:0203A60001FF55
:0203A70001FF54
:0203A80001FF53
:0203A90001FF52
:0203AA0001FF51
:0203AB0001FF50
:0203AC0001FF4F
:0203AD0001FF4E
:0203AE0001FF4D
:0203AF0001FF4C
:0203B00001FF4B
:0203B10001FF4A
:0203B20001FF49
:0203B30001FF48
:0203B40001FF47
:0203B50001FF46
:0203B60001FF45
:0203B70001FF44
:0203B80001FF43
:0203B90001FF42
:0203BA0001FF41
:0203BB0001FF40
:0203BC0001FF3F
:0203BD0001FF3E
:0203BE0001FF3D
:0203BF0001FF3C
:0203C00001FF3B
:0203C10001FF3A
:0203C20001FF39
:0203C30001FF38
:0203C40001FF37
:0203C50001FF36
:0203C60001FF35
:0203C70001FF34
:0203C80001FF33
:0203C90001FF32
:0203CA0001FF31
:0203CB0001FF30
:0203CC0001FF2F
:0203CD0001FF2E
:0203CE0001FF2D
:0203CF0001FF2C
:0203D00001FF2B
:0203D10001FF2A
:0203D20001FF29
:0203D30001FF28
:0203D40001FF27
:0203D50001FF26
:0203D60001FF25
:0203D70001FF24
:0203D80001FF23
:0203D90001FF22
:0203DA0001FF21
:0203DB0001FF20
:0203DC0001FF1F
:0203DD0001FF1E
:0203DE0001FF1D
:0203DF0001FF1C
:0203E00001FF1B
:0203E10001FF1A
:0203E20001FF19
:0203E30001FF18
:0203E40001FF17
:0203E50001FF16
:0203E60001FF15
:0203E70001FF14
:0203E80001FF13
:0203E90001FF12
:0203EA0001FF11
:0203EB0001FF10
:0203EC0001FF0F
:0203ED0001FF0E
:0203EE0001FF0D
:0203EF0001FF0C
:0203F00001FF0B
:0203F10001FF0A
:0203F20001FF09
:0203F30001FF08
:0203F40001FF07
:0203F50001FF06
:0203F60001FF05
:0203F70001FF04
:0203F80001FF03
:0203F90001FF02
:0203FA0001FF01
:0203FB0001FF00
:0203FC0001FFFF
:0203FD0001FFFE
:0203FE0001FFFD
:0203FF0001FFFC
:0204000001FFFA
:0204010001FFF9
:0204020001FFF8
:0204030001FFF7
:0204040001FFF6
:0204050001FFF5
:0204060001FFF4
:0204070001FFF3
:0204080001FFF2
:0204090001FFF1
:02040A0001FFF0
:02040B0001FFEF
:02040C0001FFEE
:02040D0001FFED
:02040E0001FFEC
:02040F0001FFEB
:0204100001FFEA
:0204110001FFE9
:0204120001FFE8
:0204130001FFE7
:0204140001FFE6
:0204150001FFE5
:0204160001FFE4
:0204170001FFE3
:0204180001FFE2
:0204190001FFE1
:02041A0001FFE0
:02041B0001FFDF
:02041C0001FFDE
:02041D0001FFDD
:02041E0001FFDC
:02041F0001FFDB
:0204200001FFDA
:0204210001FFD9
:0204220001FFD8
:0204230001FFD7
:0204240001FFD6
:0204250001FFD5
:0204260001FFD4
:0204270001FFD3
:0204280001FFD2
:0204290001FFD1
:02042A0001FFD0
:02042B0001FFCF
:02042C0001FFCE
:02042D0001FFCD
:02042E0001FFCC
:02042F0001FFCB
:0204300001FFCA
:0204310001FFC9
:0204320001FFC8
:0204330001FFC7
:0204340001FFC6
:0204350001FFC5
:0204360001FFC4
:0204370001FFC3
:0204380001FFC2
:0204390001FFC1
:02043A0001FFC0
:02043B0001FFBF
:02043C0001FFBE
:02043D0001FFBD
:02043E0001FFBC
:02043F0001FFBB
:0204400001FFBA
:0204410001FFB9
:0204420001FFB8
:0204430001FFB7
:0204440001FFB6
:0204450001FFB5
:0204460001FFB4
:0204470001FFB3
:0204480001FFB2
:0204490001FFB1
:02044A0001FFB0
:02044B0001FFAF
:02044C0001FFAE
:02044D0001FFAD
:02044E0001FFAC
:02044F0001FFAB
:0204500001FFAA
:0204510001FFA9
:0204520001FFA8
:0204530001FFA7
:0204540001FFA6
:0204550001FFA5
:0204560001FFA4
:0204570001FFA3
:0204580001FFA2
:0204590001FFA1
:02045A0001FFA0
:02045B0001FF9F
:02045C0001FF9E
:02045D0001FF9D
:02045E0001FF9C
:02045F0001FF9B
:0204600001FF9A
:0204610001FF99
:0204620001FF98
:0204630001FF97
:0204640001FF96
:0204650001FF95
:0204660001FF94
:0204670001FF93
:0204680001FF92
:0204690001FF91
:02046A0001FF90
:02046B0001FF8F
:02046C0001FF8E
:02046D0001FF8D
:02046E0001FF8C
:02046F0001FF8B
:0204700001FF8A
:0204710001FF89
:0204720001FF88
:0204730001FF87
:0204740001FF86
:0204750001FF85
:0204760001FF84
:0204770001FF83
:0204780001FF82
:0204790001FF81
:02047A0001FF80
:02047B0001FF7F
:02047C0001FF7E
:02047D0001FF7D
:02047E0001FF7C
:02047F0001FF7B
:0204800001FF7A
:0204810001FF79
:0204820001FF78
:0204830001FF77
:0204840001FF76
:0204850001FF75
:0204860001FF74
:0204870001FF73
:0204880001FF72
:0204890001FF71
:02048A0001FF70
:02048B0001FF6F
:02048C0001FF6E
:02048D0001FF6D
:02048E0001FF6C
:02048F0001FF6B
:0204900001FF6A
:0204910001FF69
:0204920001FF68
:0204930001FF67
:0204940001FF66
:0204950001FF65
:0204960001FF64
:0204970001FF63
:0204980001FF62
:0204990001FF61
:02049A0001FF60
:02049B0001FF5F
:02049C0001FF5E
:02049D0001FF5D
:02049E0001FF5C
:02049F0001FF5B
:0204A00001FF5A
:0204A10001FF59
:0204A20001FF58
:0204A30001FF57
:0204A40001FF56
:0204A50001FF55
:0204A60001FF54
:0204A70001FF53
:0204A80001FF52
:0204A90001FF51
:0204AA0001FF50
:0204AB0001FF4F
:0204AC0001FF4E
:0204AD0001FF4D
:0204AE0001FF4C
:0204AF0001FF4B
:0204B00001FF4A
:0204B10001FF49
:0204B20001FF48
:0204B30001FF47
:0204B40001FF46
:0204B50001FF45
:0204B60001FF44
:0204B70001FF43
:0204B80001FF42
:0204B90001FF41
:0204BA0001FF40
:0204BB0001FF3F
:0204BC0001FF3E
:0204BD0001FF3D
:0204BE0001FF3C
:0204BF0001FF3B
:0204C00001FF3A
:0204C10001FF39
:0204C20001FF38
:0204C30001FF37
:0204C40001FF36
:0204C50001FF35
:0204C60001FF34
:0204C70001FF33
:0204C80001FF32
:0204C90001FF31
:0204CA0001FF30
:0204CB0001FF2F
:0204CC0001FF2E
:0204CD0001FF2D
:0204CE0001FF2C
:0204CF0001FF2B
:0204D00001FF2A
:0204D10001FF29
:0204D20001FF28
:0204D30001FF27
:0204D40001FF26
:0204D50001FF25
:0204D60001FF24
:0204D70001FF23
:0204D80001FF22
:0204D90001FF21
:0204DA0001FF20
:0204DB0001FF1F
:0204DC0001FF1E
:0204DD0001FF1D
:0204DE0001FF1C
:0204DF0001FF1B
:0204E00001FF1A
:0204E10001FF19
:0204E20001FF18
:0204E30001FF17
:0204E40001FF16
:0204E50001FF15
:0204E60001FF14
:0204E70001FF13
:0204E80001FF12
:0204E90001FF11
:0204EA0001FF10
:0204EB0001FF0F
:0204EC0001FF0E
:0204ED0001FF0D
:0204EE0001FF0C
:0204EF0001FF0B
:0204F00001FF0A
:0204F10001FF09
:0204F20001FF08
:0204F30001FF07
:0204F40001FF06
:0204F50001FF05
:0204F60001FF04
:0204F70001FF03
:0204F80001FF02
:0204F90001FF01
:0204FA0001FF00
:0204FB0001FFFF
:0204FC0001FFFE
:0204FD0001FFFD
:0204FE0001FFFC
:0204FF0001FFFB
:0205000001FFF9
:0205010001FFF8
:0205020001FFF7
:0205030001FFF6
:0205040001FFF5
:0205050001FFF4
:0205060001FFF3
:0205070001FFF2
:0205080001FFF1
:0205090001FFF0
:02050A0001FFEF
:02050B0001FFEE
:02050C0001FFED
:02050D0001FFEC
:02050E0001FFEB
:02050F0001FFEA
:0205100001FFE9
:0205110001FFE8
:0205120001FFE7
:0205130001FFE6
:0205140001FFE5
:0205150001FFE4
:0205160001FFE3
:0205170001FFE2
:0205180001FFE1
:0205190001FFE0
:02051A0001FFDF
:02051B0001FFDE
:02051C0001FFDD
:02051D0001FFDC
:02051E0001FFDB
:02051F0001FFDA
:0205200001FFD9
:0205210001FFD8
:0205220001FFD7
:0205230001FFD6
:0205240001FFD5
:0205250001FFD4
:0205260001FFD3
:0205270001FFD2
:0205280001FFD1
:0205290001FFD0
:02052A0001FFCF
:02052B0001FFCE
:02052C0001FFCD
:02052D0001FFCC
:02052E0001FFCB
:02052F0001FFCA
:0205300001FFC9
:0205310001FFC8
:0205320001FFC7
:0205330001FFC6
:0205340001FFC5
:0205350001FFC4
:0205360001FFC3
:0205370001FFC2
:0205380001FFC1
:0205390001FFC0
:02053A0001FFBF
:02053B0001FFBE
:02053C0001FFBD
:02053D0001FFBC
:02053E0001FFBB
:02053F0001FFBA
:0205400001FFB9
:0205410001FFB8
:0205420001FFB7
:0205430001FFB6
:0205440001FFB5
:0205450001FFB4
:0205460001FFB3
:0205470001FFB2
:0205480001FFB1
:0205490001FFB0
:02054A0001FFAF
:02054B0001FFAE
:02054C0001FFAD
:02054D0001FFAC
:02054E0001FFAB
:02054F0001FFAA
:0205500001FFA9
:0205510001FFA8
:0205520001FFA7
:0205530001FFA6
:0205540001FFA5
:0205550001FFA4
:0205560001FFA3
:0205570001FFA2
:0205580001FEA2
:02055900010996
:02055A00013767
:02055B0001FF9E
:02055C0001FF9D
:02055D0001FF9C
:02055E0001FF9B
:02055F0001FF9A
:0205600001FF99
:0205610001FF98
:0205620001FF97
:0205630001FF96
:0205640001FF95
:0205650001FF94
:0205660001FF93
:0205670001FF92
:0205680001FF91
:0205690001FF90
:02056A0001FF8F
:02056B0001FF8E
:02056C0001FF8D
:02056D0001FF8C
:02056E0001FF8B
:02056F0001FF8A
:0205700001FF89
:0205710001FF88
:0205720001FF87
:0205730001FF86
:0205740001FF85
:0205750001FF84
:0205760001FF83
:0205770001FF82
:0205780001FF81
:0205790001FF80
:02057A0001FF7F
:02057B0001FF7E
:02057C0001FF7D
:02057D0001FF7C
:02057E0001FF7B
:02057F0001FF7A
:0205800001FF79
:0205810001FF78
:0205820001FF77
:0205830001FF76
:0205840001FF75
:0205850001FF74
:0205860001FF73
:0205870001FF72
:0205880001FF71
:0205890001FF70
:02058A0001FF6F
:02058B0001FF6E
:02058C0001FF6D
:02058D0001FF6C
:02058E0001FF6B
:02058F0001FF6A
:0205900001FF69
:0205910001FF68
:0205920001FF67
:0205930001FF66
:0205940001FF65
:0205950001FF64
:0205960001FF63
:0205970001FF62
:0205980001FF61
:0205990001FF60
:02059A0001FF5F
:02059B0001FF5E
:02059C0001FF5D
:02059D0001FF5C
:02059E0001FF5B
:02059F0001FF5A
:0205A00001FF59
:0205A10001FF58
:0205A20001FF57
:0205A30001FF56
:0205A40001FF55
:0205A50001FF54
:0205A60001FF53
:0205A70001FF52
:0205A80001FF51
:0205A90001FF50
:0205AA0001FF4F
:0205AB0001FF4E
:0205AC0001FF4D
:0205AD0001FF4C
:0205AE0001FF4B
:0205AF0001FF4A
:0205B00001FF49
:0205B10001FF48
:0205B20001FF47
:0205B30001FF46
:0205B40001FF45
:0205B50001FF44
:0205B60001FF43
:0205B70001FF42
:0205B80001FF41
:0205B90001FF40
:0205BA0001FF3F
:0205BB0001FF3E
:0205BC0001FF3D
:0205BD0001FF3C
:0205BE0001FF3B
:0205BF0001FF3A
:0205C00001FF39
:0205C10001FF38
:0205C20001F442
:0205C3000040F6
:0205C400000035
:0205C500000331
:0205C600017FB3
:0205C70001FD34
:0205C80000CC65
:0205C90001BF70
:0205CA0001FF2F
:0205CB0001FE2F
:0205CC00010B21
:0205CD00017FAC
:0205CE0001F436
:0205CF000040EA
:0205D000000029
:0205D100000028
:0205D200001D0A
:0205D30001FF26
:0205D40001F430
:0205D5000040E4
:0205D600000023
:0205D70000031F
:0205D800017FA1
:0205D90001FD22
:0205DA0000CC53
:0205DB0001BF5E
:0205DC0001FE1E
:0205DD00010912
:0205DE000137E3
:0205DF0001FF1A
:0205E00001FF19
:0205E10001FF18
:0205E20001FF17
:0205E30001FF16
:0205E40001FF15
:0205E50001FF14
:0205E60001FF13
:0205E70001FF12
:0205E80001FF11
:0205E90001FF10
:0205EA0001FF0F
:0205EB0001FF0E
:0205EC0001FF0D
:0205ED0001FF0C
:0205EE0001FF0B
:0205EF0001FF0A
:0205F00001FF09
:0205F10001FF08
:0205F20001FF07
:0205F30001FF06
:0205F40001FF05
:0205F50001FF04
:0205F60001FF03
:0205F70001FF02
:0205F80001FF01
:0205F90001FF00
:0205FA0001FFFF
:0205FB0001FFFE
:0205FC0001FFFD
:0205FD0001FFFC
:0205FE0001FFFB
:0205FF0001F405
:020600000040B8
:020601000000F7
:020602000003F3
:02060300017F75
:0206040001FFF4
:0206050001FFF3
:0206060001A150
:02060700000CE5
:0206080001BF30
:0206090001FFEF
:02060A0001FDF0
:02060B0000C32A
:02060C00017F6C
:02060D0001FFEB
:02060E0001FFEA
:02060F0001FDEB
:0206100000C325
:02061100017F67
:0206120001FFE6
:0206130001FFE5
:0206140001FFE4
:0206150001FFE3
:0206160001FFE2
:0206170001FFE1
:0206180001FFE0
:0206190001FFDF
:02061A0001FFDE
:02061B0001FFDD
:02061C0001FFDC
:02061D0001FFDB
:02061E0001FFDA
:02061F0001FFD9
:0206200001FFD8
:0206210001FFD7
:0206220001FFD6
:0206230001FFD5
:0206240001FFD4
:0206250001FFD3
:0206260001FFD2
:0206270001FFD1
:0206280001FFD0
:0206290001FFCF
:02062A0001FFCE
:02062B0001FFCD
:02062C0001FFCC
:02062D0001FFCB
:02062E0001FFCA
:02062F0001FFC9
:0206300001FFC8
:0206310001FFC7
:0206320001FFC6
:0206330001FFC5
:0206340001FFC4
:0206350001FFC3
:0206360001FFC2
:0206370001FFC1
:0206380001FFC0
:0206390001FFBF
:02063A0001FFBE
:02063B0001FDBF
:02063C0000C0FC
:02063D000000BB
:02063E000000BA
:02063F00006653
:0206400001FFB8
:0206410001F4C2
:02064200004076
:020643000000B5
:020644000000B4
:02064500001B98
:0206460000C0F2
:020647000000B1
:020648000000B0
:020649000000AF
:02064A000001AD
:02064B00013775
:02064C0001FFAC
:02064D0001F4B6
:02064E00005D4D
:02064F0001FDAB
:0206500000C0E8
:020651000000A7
:020652000000A6
:02065300001D88
:0206540001FFA4
:0206550001FFA3
:0206560001FFA2
:0206570001A1FF
:02065800000C94
:0206590001BFDF
:02065A0001FF9E
:02065B0001FD9F
:02065C0000C3D9
:02065D00017F1B
:02065E0001FE9B
:02065F00010890
:02066000000098
:02066100000C8B
:0206620001BFD6
:0206630001F4A0
:02066400004054
:02066500000093
:02066600000092
:02066700001D74
:0206680001FF90
:0206690001FF8F
:02066A0001FF8E
:02066B0001FF8D
:02066C0001FF8C
:02066D0001FF8B
:02066E0001FF8A
:02066F0001FF89
:0206700001FF88
:0206710001FF87
:0206720001FF86
:0206730001FF85
:0206740001FF84
:0206750001FF83
:0206760001FF82
:0206770001FF81
:0206780001FD82
:0206790000C0BF
:02067A0000007E
:02067B0000007D
:02067C00001D5F
:02067D0001FF7B
:02067E0001F485
:02067F00004039
:02068000000078
:02068100000077
:02068200006610
:0206830001FF75
:0206840001FD76
:0206850000C3B0
:02068600017FF2
:0206870001FF71
:0206880001FF70
:0206890001FD71
:02068A0000C0AE
:02068B0000006D
:02068C0000006C
:02068D0000016A
:02068E00013732
:02068F0001FF69
:0206900001FF68
:0206910001FF67
:0206920001FF66
:0206930001FF65
:0206940001FF64
:0206950001FF63
:0206960001FF62
:0206970001FF61
:0206980001FF60
:0206990001FF5F
:02069A0001FF5E
:02069B0001FF5D
:02069C0001FF5C
:02069D0001FF5B
:02069E0001FF5A
:02069F0001FF59
:0206A00001FF58
:0206A10001FF57
:0206A20001FF56
:0206A30001FF55
:0206A40001FF54
:0206A50001FF53
:0206A60001FF52
:0206A70001FF51
:0206A80001FF50
:0206A90001FF4F
:0206AA0001FF4E
:0206AB0001FF4D
:0206AC0001FF4C
:0206AD0001FF4B
:0206AE0001FF4A
:0206AF0001FF49
:0206B00001FF48
:0206B10001FF47
:0206B20001FF46
:0206B30001FF45
:0206B40001FF44
:0206B50001FF43
:0206B60001FD44
:0206B70000C180
:0206B800013708
:0206B90001FF3F
:0206BA0001F449
:0206BB00005DE0
:0206BC0001FD3E
:0206BD0000CC6F
:0206BE0001BF7A
:0206BF0001FF39
:0206C00001FE39
:0206C100010B2B
:0206C200017FB6
:0206C30001F440
:0206C400004CE8
:0206C50001BF73
:0206C60001FF32
:0206C70001FF31
:0206C80001FD32
:0206C90000C16E
:0206CA000137F6
:0206CB0001FF2D
:0206CC0001F437
:0206CD00005DCE
:0206CE0001FD2C
:0206CF0000CC5D
:0206D00001BF68
:0206D1000158CE
:0206D20000EF37
:0206D30001FF25
:0206D40001FF24
:0206D50001FF23
:0206D60001FF22
:0206D70001FF21
:0206D80001FF20
:0206D90001FF1F
:0206DA0001FF1E
:0206DB0001FF1D
:0206DC0001FF1C
:0206DD0001FF1B
:0206DE0001FF1A
:0206DF0001FF19
:0206E00001FF18
:0206E10001FF17
:0206E20001FF16
:0206E30001FF15
:0206E40001FF14
:0206E50001FF13
:0206E60001FF12
:0206E70001FF11
:0206E80001FF10
:0206E90001FF0F
:0206EA0001FF0E
:0206EB0001FF0D
:0206EC0001FF0C
:0206ED0001FF0B
:0206EE0001FF0A
:0206EF0001FF09
:0206F00001FF08
:0206F10001FF07
:0206F20001FF06
:0206F30001FD07
:0206F40000C143
:0206F5000137CB
:0206F60001FF02
:0206F70001F40C
:0206F800005DA3
:0206F90001FFFF
:0206FA0001FEFF
:0206FB00010BF1
:0206FC0000D824
:0206FD0000EF0C
:0206FE0001FFFA
:0206FF0001FDFB
:0207000000C334
:02070100017F76
:0207020001FFF5
:0207030001FFF4
:0207040001FDF5
:0207050000C32F
:02070600017F71
:0207070001FFF0
:0207080001FFEF
:0207090001FFEE
:02070A0001FFED
:02070B0001FFEC
:02070C0001FFEB
:02070D0001FFEA
:02070E0001FFE9
:02070F0001FFE8
:0207100001FFE7
:0207110001FFE6
:0207120001FFE5
:0207130001FFE4
:0207140001FFE3
:0207150001FFE2
:0207160001FFE1
:0207170001FFE0
:0207180001FFDF
:0207190001FFDE
:02071A0001FFDD
:02071B0001FFDC
:02071C0001FFDB
:02071D0001FFDA
:02071E0001FFD9
:02071F0001FFD8
:0207200001FFD7
:0207210001FFD6
:0207220001FFD5
:0207230001FFD4
:0207240001FFD3
:0207250001FFD2
:0207260001FFD1
:0207270001FFD0
:0207280001FFCF
:0207290001FFCE
:02072A0001FFCD
:02072B0001FFCC
:02072C0001FFCB
:02072D0001FFCA
:02072E0001FFC9
:02072F0001FFC8
:0207300001FDC9
:0207310000CCFA
:0207320001BF05
:0207330001FDC6
:0207340000C300
:02073500017F42
:0207360001F4CC
:02073700004C74
:0207380001BFFF
:0207390001FFBE
:02073A0001FFBD
:02073B0001FFBC
:02073C0001FDBD
:02073D0000C3F7
:02073E00017F39
:02073F0001FFB8
:0207400001FFB7
:0207410001FFB6
:0207420001A113
:0207430000EFC5
:0207440001FDB5
:0207450000CCE6
:0207460001BFF1
:0207470001FEB1
:020748000109A5
:02074900013776
:02074A0001FFAD
:02074B0001FEAD
:02074C00010B9F
:02074D0000D8D2
:02074E0000EFBA
:02074F0001FFA8
:0207500001FDA9
:0207510000C3E3
:02075200017F25
:0207530001A102
:0207540000663D
:0207550001FFA2
:0207560001EBB5
:0207570000EFB1
:0207580001F4AA
:02075900004C52
:02075A0001BFDD
:02075B0001FF9C
:02075C0001FF9B
:02075D0001FF9A
:02075E0001FF99
:02075F0001FF98
:0207600001FF97
:0207610001FF96
:0207620001FF95
:0207630001FF94
:0207640001FF93
:0207650001FF92
:0207660001FF91
:0207670001FF90
:0207680001FF8F
:0207690001FF8E
:02076A0001FF8D
:02076B0001FF8C
:02076C0001FF8B
:02076D0001FD8C
:02076E0000CCBD
:02076F0001BFC8
:0207700001FF87
:0207710001FF86
:0207720001FD87
:0207730000C1C3
:0207740001374B
:0207750001FF82
:0207760001FD83
:0207770000C1BF
:02077800013747
:0207790001FD80
:02077A0000C3BA
:02077B00017FFC
:02077C0001FF7B
:02077D0001FF7A
:02077E0001FD7B
:02077F0000CCAC
:0207800001BFB7
:0207810001FF76
:0207820001EB89
:02078300000371
:02078400017FF3
:0207850001FF72
:0207860001FF71
:0207870001FF70
:0207880001FF6F
:0207890001FF6E
:02078A0001FF6D
:02078B0001FF6C
:02078C0001FF6B
:02078D0001FF6A
:02078E0001FF69
:02078F0001FF68
:0207900001FF67
:0207910001FF66
:0207920001FF65
:0207930001FF64
:0207940001FF63
:0207950001FF62
:0207960001FF61
:0207970001FF60
:0207980001FF5F
:0207990001FF5E
:02079A0001FF5D
:02079B0001FF5C
:02079C0001FF5B
:02079D0001FF5A
:02079E0001FF59
:02079F0001FF58
:0207A00001FF57
:0207A10001FF56
:0207A20001FF55
:0207A30001FF54
:0207A40001FF53
:0207A50001FF52
:0207A60001FF51
:0207A70001FF50
:0207A80001FF4F
:0207A90001FF4E
:0207AA0001FF4D
:0207AB0001EB60
:0207AC00001D2E
:0207AD0001FF4A
:0207AE0001FF49
:0207AF0001FF48
:0207B00001FF47
:0207B10001FD48
:0207B20000CC79
:0207B30001BF84
:0207B40001FF43
:0207B50001FE43
:0207B600010B35
:0207B700017FC0
:0207B80001F44A
:0207B900004CF2
:0207BA0001BF7D
:0207BB0001FF3C
:0207BC0001FF3B
:0207BD0001EB4E
:0207BE00001D1C
:0207BF0001FF38
:0207C00001FF37
:0207C10001FF36
:0207C20001FF35
:0207C30001FD36
:0207C40000CC67
:0207C5000161D0
:0207C6000066CB
:0207C70001FF30
:0207C80001FF2F
:0207C90001FF2E
:0207CA0001FF2D
:0207CB0001FF2C
:0207CC0001FF2B
:0207CD0001FF2A
:0207CE0001FF29
:0207CF0001FF28
:0207D00001FF27
:0207D10001FF26
:0207D20001FF25
:0207D30001FF24
:0207D40001FF23
:0207D50001FF22
:0207D60001FF21
:0207D70001FF20
:0207D80001FF1F
:0207D90001FF1E
:0207DA0001FF1D
:0207DB0001FF1C
:0207DC0001FF1B
:0207DD0001FF1A
:0207DE0001FF19
:0207DF0001FF18
:0207E00001FF17
:0207E10001FF16
:0207E20001FF15
:0207E30001FF14
:0207E40001FF13
:0207E50001FF12
:0207E60001FF11
:0207E70001FF10
:0207E80001EB23
:0207E900001DF1
:0207EA0001FF0D
:0207EB0001FF0C
:0207EC0001FF0B
:0207ED0001FF0A
:0207EE0001FF09
:0207EF0001EB1C
:0207F0000066A1
:0207F10001EB1A
:0207F200001DE8
:0207F30001FF04
:0207F40001FD05
:0207F50000C33F
:0207F600017F81
:0207F70001FF00
:0207F80001FFFF
:0207F90001FD00
:0207FA0000C33A
:0207FB00017F7C
:0207FC0001FFFB
:0207FD0001FFFA
:0207FE0001FFF9
:0207FF0001FFF8
:0208000001FFF6
:0208010001FFF5
:0208020001FFF4
:0208030001FFF3
:0208040001FFF2
:0208050001FFF1
:0208060001FFF0
:0208070001FFEF
:0208080001FFEE
:0208090001FFED
:02080A0001FFEC
:02080B0001FFEB
:02080C0001FFEA
:02080D0001FFE9
:02080E0001FFE8
:02080F0001FFE7
:0208100001FFE6
:0208110001FFE5
:0208120001FFE4
:0208130001FFE3
:0208140001FFE2
:0208150001FFE1
:0208160001FFE0
:0208170001FFDF
:0208180001FFDE
:0208190001FFDD
:02081A0001FFDC
:02081B0001FFDB
:02081C0001FFDA
:02081D0001FFD9
:02081E0001FFD8
:02081F0001FFD7
:0208200001FFD6
:0208210001FFD5
:0208220001FFD4
:0208230001FFD3
:0208240001FFD2
:0208250001FDD3
:0208260000CC04
:0208270001BF0F
:0208280001FDD0
:0208290000C30A
:02082A00017F4C
:02082B0001F4D6
:02082C00004C7E
:02082D0001BF09
:02082E0001FFC8
:02082F0001FFC7
:0208300001FFC6
:0208310001FDC7
:0208320000C301
:02083300017F43
:0208340001FFC2
:0208350001FFC1
:0208360001FEC1
:02083700010BB3
:02083800017F3E
:0208390001FDBF
:02083A0000CCF0
:02083B0001BFFB
:02083C0001FEBB
:02083D000109AF
:02083E00013780
:02083F0001FFB7
:0208400001EBCA
:0208410000664F
:0208420001EBC8
:02084300001D96
:0208440001FFB2
:0208450001FDB3
:0208460000C3ED
:02084700017F2F
:0208480001EBC2
:020849000003AA
:02084A00017F2C
:02084B0001FFAB
:02084C0001FFAA
:02084D0001F4B4
:02084E00004C5C
:02084F0001BFE7
:0208500001FFA6
:0208510001FFA5
:0208520001FFA4
:0208530001FFA3
:0208540001FFA2
:0208550001FFA1
:0208560001FFA0
:0208570001FF9F
:0208580001FF9E
:0208590001FF9D
:02085A0001FF9C
:02085B0001FF9B
:02085C0001FF9A
:02085D0001FF99
:02085E0001FF98
:02085F0001FF97
:0208600001FF96
:0208610001FF95
:0208620001FD96
:0208630000CCC7
:0208640001BFD2
:0208650001FF91
:0208660001FF90
:0208670001EBA3
:02086800001D71
:0208690001FF8D
:02086A0001FF8C
:02086B0001FF8B
:02086C0001A1E8
:02086D00006623
:02086E0001FD8A
:02086F0000C3C4
:02087000017F06
:0208710001FF85
:0208720001FF84
:0208730001FD85
:0208740000CCB6
:0208750001BFC1
:0208760001FF80
:0208770001FF7F
:0208780001A1DC
:02087900006617
:02087A0001FF7C
:02087B0001FF7B
:02087C0001FF7A
:02087D0001FF79
:02087E0001FF78
:02087F0001FF77
:0208800001FF76
:0208810001FF75
:0208820001FF74
:0208830001FF73
:0208840001FF72
:0208850001FF71
:0208860001FF70
:0208870001FF6F
:0208880001FF6E
:0208890001FF6D
:02088A0001FF6C
:02088B0001FF6B
:02088C0001FF6A
:02088D0001FF69
:02088E0001FF68
:02088F0001FF67
:0208900001FF66
:0208910001FF65
:0208920001FF64
:0208930001FF63
:0208940001FF62
:0208950001FF61
:0208960001FF60
:0208970001FF5F
:0208980001FF5E
:0208990001FF5D
:02089A0001FF5C
:02089B0001FF5B
:02089C0001FF5A
:02089D0001FF59
:02089E0001FF58
:02089F0001FF57
:0208A00001A1B4
:0208A1000066EF
:0208A20001FF54
:0208A30001FF53
:0208A40001FF52
:0208A50001FF51
:0208A60001FD52
:0208A70000C08F
:0208A80000004E
:0208A90000004D
:0208AA0000004C
:0208AB00000348
:0208AC00017FCA
:0208AD0001F454
:0208AE00004008
:0208AF00000047
:0208B000000046
:0208B10000EF56
:0208B20001A1A2
:0208B3000066DD
:0208B40001FF42
:0208B50001FF41
:0208B60001FF40
:0208B70001FF3F
:0208B80001FD40
:0208B90000C07D
:0208BA0000013B
:0208BB00013703
:0208BC0001FF3A
:0208BD0001FF39
:0208BE0001FF38
:0208BF0001FF37
:0208C00001FF36
:0208C10001FF35
:0208C20001FF34
:0208C30001FF33
:0208C40001FF32
:0208C50001FF31
:0208C60001FF30
:0208C70001FF2F
:0208C80001FF2E
:0208C90001FF2D
:0208CA0001FF2C
:0208CB0001FF2B
:0208CC0001FF2A
:0208CD0001FF29
:0208CE0001FF28
:0208CF0001FF27
:0208D00001FF26
:0208D10001FF25
:0208D20001FF24
:0208D30001FF23
:0208D40001FF22
:0208D50001FF21
:0208D60001FF20
:0208D70001FF1F
:0208D80001FF1E
:0208D90001FF1D
:0208DA0001FF1C
:0208DB0001FF1B
:0208DC0001FF1A
:0208DD0001A177
:0208DE000066B2
:0208DF0001FF17
:0208E00001FF16
:0208E10001FF15
:0208E20001FF14
:0208E30001FF13
:0208E4000159B8
:0208E5000137D9
:0208E60001FE11
:0208E700010B03
:0208E800017F8E
:0208E90001FD0F
:0208EA0000C349
:0208EB00017F8B
:0208EC0001FF0A
:0208ED0001FF09
:0208EE0001FD0A
:0208EF0000C344
:0208F000017F86
:0208F10001FF05
:0208F20001FF04
:0208F30001FF03
:0208F40001FF02
:0208F50001FF01
:0208F60001FF00
:0208F70001FFFF
:0208F80001FFFE
:0208F90001FFFD
:0208FA0001FFFC
:0208FB0001FFFB
:0208FC0001FFFA
:0208FD0001FFF9
:0208FE0001FFF8
:0208FF0001FFF7
:0209000001FFF5
:0209010001FFF4
:0209020001FFF3
:0209030001FFF2
:0209040001FFF1
:0209050001FFF0
:0209060001FFEF
:0209070001FFEE
:0209080001FFED
:0209090001FFEC
:02090A0001FFEB
:02090B0001FFEA
:02090C0001FFE9
:02090D0001FFE8
:02090E0001FFE7
:02090F0001FFE6
:0209100001FFE5
:0209110001FFE4
:0209120001FFE3
:0209130001FFE2
:0209140001FFE1
:0209150001FFE0
:0209160001FFDF
:0209170001FFDE
:0209180001FFDD
:0209190001FFDC
:02091A0001FDDD
:02091B0000C01A
:02091C000000D9
:02091D000000D8
:02091E00001DBA
:02091F0001FFD6
:0209200001F4E0
:02092100004094
:020922000000D3
:020923000000D2
:0209240000EFE2
:0209250001FFD0
:0209260001FDD1
:0209270000C30B
:02092800017F4D
:0209290001FFCC
:02092A0001FFCB
:02092B0001F4D5
:02092C00005D6C
:02092D0001FFC8
:02092E0001FDC9
:02092F0000C006
:020930000000C5
:020931000001C3
:0209320001378B
:0209330001FFC2
:0209340001FFC1
:02093500015966
:02093600013787
:0209370001FEBF
:02093800010BB1
:02093900017F3C
:02093A0001FDBD
:02093B0000C3F7
:02093C00017F39
:02093D0001FFB8
:02093E0001EBCB
:02093F000000B6
:02094000000CA9
:0209410001BFF4
:0209420001F4BE
:02094300004072
:020944000000B1
:020945000000B0
:0209460000EFC0
:0209470001FFAE
:0209480001FFAD
:0209490001FFAC
:02094A0001FFAB
:02094B0001FFAA
:02094C0001FFA9
:02094D0001FFA8
:02094E0001FFA7
:02094F0001FFA6
:0209500001FFA5
:0209510001FFA4
:0209520001FFA3
:0209530001FFA2
:0209540001FFA1
:0209550001FFA0
:0209560001FF9F
:0209570001FDA0
:0209580000C0DD
:0209590000009C
:02095A0000009B
:02095B00006634
:02095C0001A1F7
:02095D00006632
:02095E0001FF97
:02095F0001FF96
:0209600001FF95
:0209610001EBA8
:0209620000662D
:0209630001FD94
:0209640000C3CE
:02096500017F10
:0209660001FF8F
:0209670001FF8E
:0209680001FD8F
:0209690000CCC0
:02096A0001BFCB
:02096B0001FF8A
:02096C0001FF89
:02096D0001A1E6
:02096E00006621
:02096F0001FF86
:0209700001FF85
:0209710001FF84
:0209720001FF83
:0209730001FF82
:0209740001FF81
:0209750001FF80
:0209760001FF7F
:0209770001FF7E
:0209780001FF7D
:0209790001FF7C
:02097A0001FF7B
:02097B0001FF7A
:02097C0001FF79
:02097D0001FF78
:02097E0001FF77
:02097F0001FF76
:0209800001FF75
:0209810001FF74
:0209820001FF73
:0209830001FF72
:0209840001FF71
:0209850001FF70
:0209860001FF6F
:0209870001FF6E
:0209880001FF6D
:0209890001FF6C
:02098A0001FF6B
:02098B0001FF6A
:02098C0001FF69
:02098D0001FF68
:02098E0001FF67
:02098F0001FF66
:0209900001FF65
:0209910001FF64
:0209920001FF63
:0209930001FF62
:0209940001FF61
:0209950001EB74
:02099600001D42
:0209970001FF5E
:0209980001FF5D
:0209990001FF5C
:02099A0001FF5B
:02099B0001FD5C
:02099C0000CC8D
:02099D0001BF98
:02099E0001FF57
:02099F0001FE57
:0209A000010B49
:0209A100017FD4
:0209A20001F45E
:0209A300004C06
:0209A40001BF91
:0209A50001FF50
:0209A60001FF4F
:0209A70001EB62
:0209A800001D30
:0209A90001FF4C
:0209AA0001FF4B
:0209AB0001FF4A
:0209AC0001FF49
:0209AD0001FD4A
:0209AE0000CC7B
:0209AF0001AB9A
:0209B000000C39
:0209B10001BF84
:0209B20001FF43
:0209B30001FF42
:0209B40001FF41
:0209B50001FF40
:0209B60001FF3F
:0209B70001FF3E
:0209B80001FF3D
:0209B90001FF3C
:0209BA0001FF3B
:0209BB0001FF3A
:0209BC0001FF39
:0209BD0001FF38
:0209BE0001FF37
:0209BF0001FF36
:0209C00001FF35
:0209C10001FF34
:0209C20001FF33
:0209C30001FF32
:0209C40001FF31
:0209C50001FF30
:0209C60001FF2F
:0209C70001FF2E
:0209C80001FF2D
:0209C90001FF2C
:0209CA0001FF2B
:0209CB0001FF2A
:0209CC0001FF29
:0209CD0001FF28
:0209CE0001FF27
:0209CF0001FF26
:0209D00001FF25
:0209D10001FF24
:0209D20001EB37
:0209D300001D05
:0209D40001FF21
:0209D50001FF20
:0209D60001FF1F
:0209D70001FF1E
:0209D80001FD1F
:0209D90000C05C
:0209DA0000001B
:0209DB0000001A
:0209DC00000019
:0209DD0000EF29
:0209DE0001FD19
:0209DF0000C353
:0209E000017F95
:0209E10001FF14
:0209E20001FF13
:0209E30001FD14
:0209E40000C34E
:0209E500017F90
:0209E60001FF0F
:0209E70001FF0E
:0209E80001FF0D
:0209E90001FF0C
:0209EA0001FF0B
:0209EB0001FF0A
:0209EC0001FF09
:0209ED0001FF08
:0209EE0001FF07
:0209EF0001FF06
:0209F00001FF05
:0209F10001FF04
:0209F20001FF03
:0209F30001FF02
:0209F40001FF01
:0209F50001FF00
:0209F60001FFFF
:0209F70001FFFE
:0209F80001FFFD
:0209F90001FFFC
:0209FA0001FFFB
:0209FB0001FFFA
:0209FC0001FFF9
:0209FD0001FFF8
:0209FE0001FFF7
:0209FF0001FFF6
:020A000001FFF4
:020A010001FFF3
:020A020001FFF2
:020A030001FFF1
:020A040001FFF0
:020A050001FFEF
:020A060001FFEE
:020A070001FFED
:020A080001FFEC
:020A090001FFEB
:020A0A0001FFEA
:020A0B0001FFE9
:020A0C0001FFE8
:020A0D0001FFE7
:020A0E0001FFE6
:020A0F0001FDE7
:020A100000CC18
:020A110001BF23
:020A120001FFE2
:020A1300015888
:020A140000667A
:020A150001F4EA
:020A1600004C92
:020A170001BF1D
:020A180001FFDC
:020A190001FFDB
:020A1A0001FFDA
:020A1B0001FDDB
:020A1C0000C315
:020A1D00017F57
:020A1E0001FFD6
:020A1F0001FFD5
:020A200001A132
:020A210000EFE4
:020A220001FFD2
:020A230001FDD3
:020A240000CC04
:020A250001BF0F
:020A260001A12C
:020A2700001DB0
:020A280001FFCC
:020A290001FDCD
:020A2A0000C00A
:020A2B000000C9
:020A2C000000C8
:020A2D000000C7
:020A2E0000EFD7
:020A2F0001FDC7
:020A300000C301
:020A3100017F43
:020A320001FFC2
:020A330001FFC1
:020A340001FFC0
:020A350001A11D
:020A3600006658
:020A370001F4C8
:020A3800004C70
:020A390001BFFB
:020A3A0001FFBA
:020A3B0001FFB9
:020A3C0001FFB8
:020A3D0001FFB7
:020A3E0001FFB6
:020A3F0001FFB5
:020A400001FFB4
:020A410001FFB3
:020A420001FFB2
:020A430001FFB1
:020A440001FFB0
:020A450001FFAF
:020A460001FFAE
:020A470001FFAD
:020A480001FFAC
:020A490001FFAB
:020A4A0001FFAA
:020A4B0001FFA9
:020A4C0001FDAA
:020A4D0000CCDB
:020A4E0001BFE6
:020A4F0001FFA5
:020A500001FFA4
:020A510001EBB7
:020A520000663C
:020A530001FFA1
:020A540001FFA0
:020A550001FF9F
:020A560001A1FC
:020A5700006637
:020A580001FD9E
:020A590000C3D8
:020A5A00017F1A
:020A5B0001FF99
:020A5C0001FF98
:020A5D0001FD99
:020A5E0000CCCA
:020A5F0001BFD5
:020A600001FF94
:020A610001FF93
:020A620001A1F0
:020A630000EFA2
:020A640001FF90
:020A650001FF8F
:020A660001FF8E
:020A670001FF8D
:020A680001FF8C
:020A690001FF8B
:020A6A0001FF8A
:020A6B0001FF89
:020A6C0001FF88
:020A6D0001FF87
:020A6E0001FF86
:020A6F0001FF85
:020A700001FF84
:020A710001FF83
:020A720001FF82
:020A730001FF81
:020A740001FF80
:020A750001FF7F
:020A760001FF7E
:020A770001FF7D
:020A780001FF7C
:020A790001FF7B
:020A7A0001FF7A
:020A7B0001FF79
:020A7C0001FF78
:020A7D0001FF77
:020A7E0001FF76
:020A7F0001FF75
:020A800001FF74
:020A810001FF73
:020A820001FF72
:020A830001FF71
:020A840001FF70
:020A850001FF6F
:020A860001FF6E
:020A870001FF6D
:020A880001FF6C
:020A890001FF6B
:020A8A0001FD6C
:020A8B0000C1A8
:020A8C00013730
:020A8D0001FF67
:020A8E0001FD68
:020A8F0000DD88
:020A900001FD66
:020A910000CC97
:020A920001BFA2
:020A930001FF61
:020A940001FE61
:020A9500010B53
:020A9600017FDE
:020A970001F468
:020A9800004C10
:020A990001BF9B
:020A9A0001FF5A
:020A9B0001FF59
:020A9C0001FD5A
:020A9D0000C196
:020A9E0001371E
:020A9F0001FF55
:020AA00001FD56
:020AA10000DD76
:020AA20001FD54
:020AA30000CC85
:020AA40001BF90
:020AA50001A1AD
:020AA600001D31
:020AA70001FF4D
:020AA80001FF4C
:020AA90001FF4B
:020AAA0001FF4A
:020AAB0001FF49
:020AAC0001FF48
:020AAD0001FF47
:020AAE0001FF46
:020AAF0001FF45
:020AB00001FF44
:020AB10001FF43
:020AB20001FF42
:020AB30001FF41
:020AB40001FF40
:020AB50001FF3F
:020AB60001FF3E
:020AB70001FF3D
:020AB80001FF3C
:020AB90001FF3B
:020ABA0001FF3A
:020ABB0001FF39
:020ABC0001FF38
:020ABD0001FF37
:020ABE0001FF36
:020ABF0001FF35
:020AC00001FF34
:020AC10001FF33
:020AC20001FF32
:020AC30001FF31
:020AC40001FF30
:020AC50001FF2F
:020AC60001FF2E
:020AC70001FD2F
:020AC80000C16B
:020AC9000137F3
:020ACA0001FF2A
:020ACB0001FD2B
:020ACC0000DD4B
:020ACD0001EB3B
:020ACE000066C0
:020ACF0001FF25
:020AD00001FF24
:020AD10001F42E
:020AD200005DC5
:020AD30001FD23
:020AD40000C35D
:020AD500017F9F
:020AD60001FF1E
:020AD70001FF1D
:020AD80001FD1E
:020AD90000C358
:020ADA00017F9A
:020ADB0001FF19
:020ADC0001FF18
:020ADD0001FF17
:020ADE0001FF16
:020ADF0001FF15
:020AE00001FF14
:020AE10001FF13
:020AE20001FF12
:020AE30001FF11
:020AE40001FF10
:020AE50001FF0F
:020AE60001FF0E
:020AE70001FF0D
:020AE80001FF0C
:020AE90001FF0B
:020AEA0001FF0A
:020AEB0001FF09
:020AEC0001FF08
:020AED0001FF07
:020AEE0001FF06
:020AEF0001FF05
:020AF00001FF04
:020AF10001FF03
:020AF20001FF02
:020AF30001FF01
:020AF40001FF00
:020AF50001FFFF
:020AF60001FFFE
:020AF70001FFFD
:020AF80001FFFC
:020AF90001FFFB
:020AFA0001FFFA
:020AFB0001FFF9
:020AFC0001FFF8
:020AFD0001FFF7
:020AFE0001FFF6
:020AFF0001FFF5
:020B000001FFF3
:020B010001FFF2
:020B020001FFF1
:020B030001FFF0
:020B040001FDF1
:020B050000CC22
:020B060001BF2D
:020B070001FFEC
:020B080001A149
:020B0900006684
:020B0A0001F4F4
:020B0B00004C9C
:020B0C0001BF27
:020B0D0001FFE6
:020B0E0001FFE5
:020B0F0001FFE4
:020B100001FDE5
:020B110000C31F
:020B1200017F61
:020B130001FFE0
:020B140001FEE0
:020B1500010BD2
:020B1600017F5D
:020B170001FFDC
:020B180001FDDD
:020B190000CC0E
:020B1A0001BF19
:020B1B0001FED9
:020B1C000109CD
:020B1D0001379E
:020B1E0001EBE9
:020B1F0000666E
:020B200001FFD3
:020B210001FFD2
:020B220001F4DC
:020B2300005D73
:020B240001FDD1
:020B250000C30B
:020B2600017F4D
:020B2700015972
:020B2800013793
:020B290001FFCA
:020B2A0001A127
:020B2B00006662
:020B2C0001F4D2
:020B2D00004C7A
:020B2E0001BF05
:020B2F0001FFC4
:020B300001FFC3
:020B310001FFC2
:020B320001FFC1
:020B330001FFC0
:020B340001FFBF
:020B350001FFBE
:020B360001FFBD
:020B370001FFBC
:020B380001FFBB
:020B390001FFBA
:020B3A0001FFB9
:020B3B0001FFB8
:020B3C0001FFB7
:020B3D0001FFB6
:020B3E0001FFB5
:020B3F0001FFB4
:020B400001FFB3
:020B410001FDB4
:020B420000CCE5
:020B430001BFF0
:020B440001FFAF
:020B450001FFAE
:020B460001F4B8
:020B470000416B
:020B4800013773
:020B490001FFAA
:020B4A0001FDAB
:020B4B0000C1E7
:020B4C0001376F
:020B4D0001FDA8
:020B4E0000C3E2
:020B4F00017F24
:020B500001FFA3
:020B510001FFA2
:020B520001FDA3
:020B530000CCD4
:020B540001BFDF
:020B550001FF9E
:020B560001F4A8
:020B5700004359
:020B5800017F1B
:020B590001FF9A
:020B5A0001FF99
:020B5B0001FF98
:020B5C0001FF97
:020B5D0001FF96
:020B5E0001FF95
:020B5F0001FF94
:020B600001FF93
:020B610001FF92
:020B620001FF91
:020B630001FF90
:020B640001FF8F
:020B650001FF8E
:020B660001FF8D
:020B670001FF8C
:020B680001FF8B
:020B690001FF8A
:020B6A0001FF89
:020B6B0001FF88
:020B6C0001FF87
:020B6D0001FF86
:020B6E0001FF85
:020B6F0001FF84
:020B700001FF83
:020B710001FF82
:020B720001FF81
:020B730001FF80
:020B740001FF7F
:020B750001FF7E
:020B760001FF7D
:020B770001FF7C
:020B780001FF7B
:020B790001FF7A
:020B7A0001FF79
:020B7B0001FF78
:020B7C0001FF77
:020B7D0001FF76
:020B7E0001FF75
:020B7F0001FF74
:020B800001F47E
:020B8100004032
:020B8200000071
:020B830000016F
:020B8400013737
:020B850001FD70
:020B860000CCA1
:020B870001BFAC
:020B880001FF6B
:020B890001FE6B
:020B8A00010B5D
:020B8B00017FE8
:020B8C0001F472
:020B8D00004026
:020B8E00000065
:020B8F00000064
:020B9000000C57
:020B910001BFA2
:020B920001F46C
:020B9300004020
:020B940000005F
:020B950000015D
:020B9600013725
:020B970001FD5E
:020B980000CC8F
:020B990001BF9A
:020B9A0001FE5A
:020B9B0001084F
:020B9C0000EF68
:020B9D0001FF56
:020B9E0001FF55
:020B9F0001FF54
:020BA00001FF53
:020BA10001FF52
:020BA20001FF51
:020BA30001FF50
:020BA40001FF4F
:020BA50001FF4E
:020BA60001FF4D
:020BA70001FF4C
:020BA80001FF4B
:020BA90001FF4A
:020BAA0001FF49
:020BAB0001FF48
:020BAC0001FF47
:020BAD0001FF46
:020BAE0001FF45
:020BAF0001FF44
:020BB00001FF43
:020BB10001FF42
:020BB20001FF41
:020BB30001FF40
:020BB40001FF3F
:020BB50001FF3E
:020BB60001FF3D
:020BB70001FF3C
:020BB80001FF3B
:020BB90001FF3A
:020BBA0001FF39
:020BBB0001FF38
:020BBC0001FF37
:020BBD0001F441
:020BBE000040F5
:020BBF00000034
:020BC000000132
:020BC1000137FA
:020BC2000159D7
:020BC3000137F8
:020BC40001FF2F
:020BC50001FF2E
:020BC60001FD2F
:020BC70000C16B
:020BC8000135F5
:020BC90000C06A
:020BCA00000029
:020BCB00000028
:020BCC00001D0A
:020BCD0001FD28
:020BCE0000C065
:020BCF00000024
:020BD000000023
:020BD100001D05
:020BD20001FF21
:020BD30001FF20
:020BD40001FF1F
:020BD50001FF1E
:020BD60001FF1D
:020BD70001FF1C
:020BD80001FF1B
:020BD90001FF1A
:020BDA0001FF19
:020BDB0001FF18
:020BDC0001FF17
:020BDD0001FF16
:020BDE0001FF15
:020BDF0001FF14
:020BE00001FF13
:020BE10001FF12
:020BE20001FF11
:020BE30001FF10
:020BE40001FF0F
:020BE50001FF0E
:020BE60001FF0D
:020BE70001FF0C
:020BE80001FF0B
:020BE90001FF0A
:020BEA0001FF09
:020BEB0001FF08
:020BEC0001FF07
:020BED0001FF06
:020BEE0001FF05
:020BEF0001FF04
:020BF00001FF03
:020BF10001FF02
:020BF20001FF01
:020BF30001FF00
:020BF40001FFFF
:020BF50001FFFE
:020BF60001FFFD
:020BF70001FFFC
:020BF80001FFFB
:020BF90001FDFC
:020BFA0000C039
:020BFB000000F8
:020BFC000000F7
:020BFD00000CEA
:020BFE0001BF35
:020BFF0001F4FF
:020C00000040B2
:020C01000000F1
:020C02000000F0
:020C0300000CE3
:020C040001BF2E
:020C050001FDEF
:020C060000C329
:020C0700017F6B
:020C080001FFEA
:020C090001F4F4
:020C0A00005D8B
:020C0B0001FFE7
:020C0C0001FFE6
:020C0D0001FDE7
:020C0E0000CC18
:020C0F0001BF23
:020C100001FFE2
:020C110001A13F
:020C120000667A
:020C1300015985
:020C14000137A6
:020C150001FFDD
:020C160001FFDC
:020C170001FDDD
:020C180000C119
:020C19000135A3
:020C1A0000C315
:020C1B00017F57
:020C1C0001F4E1
:020C1D00004095
:020C1E000000D4
:020C1F000003D0
:020C2000017F52
:020C210001F4DC
:020C2200004090
:020C23000000CF
:020C24000000CE
:020C2500000CC1
:020C260001BF0C
:020C270001FFCB
:020C280001FFCA
:020C290001FFC9
:020C2A0001FFC8
:020C2B0001FFC7
:020C2C0001FFC6
:020C2D0001FFC5
:020C2E0001FFC4
:020C2F0001FFC3
:020C300001FFC2
:020C310001FFC1
:020C320001FFC0
:020C330001FFBF
:020C340001FFBE
:020C350001FFBD
:020C360001FDBE
:020C370000CCEF
:020C380001BFFA
:020C390001FFB9
:020C3A0001FFB8
:020C3B0001FFB7
:020C3C0001EBCA
:020C3D000000B5
:020C3E000000B4
:020C3F000000B3
:020C400000EFC3
:020C410001FFB1
:020C420001FDB2
:020C430000C0EF
:020C44000000AE
:020C45000000AD
:020C4600001D8F
:020C470001FDAD
:020C480000C0EA
:020C49000000A9
:020C4A000000A8
:020C4B000003A4
:020C4C00017F26
:020C4D0001FFA5
:020C4E0001FFA4
:020C4F0001FFA3
:020C500001FFA2
:020C510001FFA1
:020C520001FFA0
:020C530001FF9F
:020C540001FF9E
:020C550001FF9D
:020C560001FF9C
:020C570001FF9B
:020C580001FF9A
:020C590001FF99
:020C5A0001FF98
:020C5B0001FF97
:020C5C0001FF96
:020C5D0001FF95
:020C5E0001FF94
:020C5F0001FF93
:020C600001FF92
:020C610001FF91
:020C620001FF90
:020C630001FF8F
:020C640001FF8E
:020C650001FF8D
:020C660001FF8C
:020C670001FF8B
:020C680001FF8A
:020C690001FF89
:020C6A0001FF88
:020C6B0001FF87
:020C6C0001FF86
:020C6D0001FF85
:020C6E0001FF84
:020C6F0001FF83
:020C700001FF82
:020C710001FF81
:020C720001FF80
:020C730001FF7F
:020C740001FF7E
:020C750001FF7D
:020C760001FF7C
:020C770001FF7B
:020C780001FF7A
:020C790001FF79
:020C7A0001FF78
:020C7B0001FF77
:020C7C0001FF76
:020C7D0001FF75
:020C7E0001FF74
:020C7F0001FF73
:020C800001FF72
:020C810001FF71
:020C820001FF70
:020C830001FF6F
:020C840001FF6E
:020C850001FF6D
:020C860001FF6C
:020C870001FF6B
:020C880001FF6A
:020C890001FF69
:020C8A0001FF68
:020C8B0001FF67
:020C8C0001FF66
:020C8D0001FF65
:020C8E0001FF64
:020C8F0001FF63
:020C900001FF62
:020C910001FF61
:020C920001FF60
:020C930001FF5F
:020C940001FF5E
:020C950001FF5D
:020C960001FF5C
:020C970001FF5B
:020C980001FF5A
:020C990001FF59
:020C9A0001FF58
:020C9B0001FF57
:020C9C0001FF56
:020C9D0001FF55
:020C9E0001FF54
:020C9F0001FF53
:020CA00001FF52
:020CA10001FF51
:020CA20001FF50
:020CA30001FF4F
:020CA40001FF4E
:020CA50001FF4D
:020CA60001FF4C
:020CA70001FF4B
:020CA80001FF4A
:020CA90001FF49
:020CAA0001FF48
:020CAB0001FF47
:020CAC0001FF46
:020CAD0001FF45
:020CAE0001FF44
:020CAF0001FF43
:020CB00001FF42
:020CB10001FF41
:020CB20001FF40
:020CB30001FF3F
:020CB40001FF3E
:020CB50001FF3D
:020CB60001FF3C
:020CB70001FF3B
:020CB80001FF3A
:020CB90001FF39
:020CBA0001FF38
:020CBB0001FF37
:020CBC0001FF36
:020CBD0001FF35
:020CBE0001FF34
:020CBF0001FF33
:020CC00001FF32
:020CC10001FF31
:020CC20001FF30
:020CC30001FF2F
:020CC40001FF2E
:020CC50001FF2D
:020CC60001FF2C
:020CC70001FF2B
:020CC80001FF2A
:020CC90001FF29
:020CCA0001FF28
:020CCB0001FF27
:020CCC0001FF26
:020CCD0001FF25
:020CCE0001FF24
:020CCF0001FF23
:020CD00001FF22
:020CD10001FF21
:020CD20001FF20
:020CD30001FF1F
:020CD40001FF1E
:020CD50001FF1D
:020CD60001FF1C
:020CD70001FF1B
:020CD80001FF1A
:020CD90001FF19
:020CDA0001FF18
:020CDB0001FF17
:020CDC0001FF16
:020CDD0001FF15
:020CDE0001FF14
:020CDF0001FF13
:020CE00001FF12
:020CE10001FF11
:020CE20001FF10
:020CE30001FF0F
:020CE40001FF0E
:020CE50001FF0D
:020CE60001FF0C
:020CE70001FF0B
:020CE80001FF0A
:020CE90001FF09
:020CEA0001FF08
:020CEB0001FF07
:020CEC0001FF06
:020CED0001FF05
:020CEE0001FF04
:020CEF0001FF03
:020CF00001FF02
:020CF10001FF01
:020CF20001FF00
:020CF30001FFFF
:020CF40001FFFE
:020CF50001FFFD
:020CF60001FFFC
:020CF70001FFFB
:020CF80001FFFA
:020CF90001FFF9
:020CFA0001FFF8
:020CFB0001FFF7
:020CFC0001FFF6
:020CFD0001FFF5
:020CFE0001A152
:020CFF0000EF04
:020D000001FFF1
:020D010001FFF0
:020D020001FFEF
:020D030001FFEE
:020D040001FFED
:020D050001FFEC
:020D060001FFEB
:020D070001FFEA
:020D080001FFE9
:020D090001FFE8
:020D0A0001FFE7
:020D0B0001FFE6
:020D0C0001FFE5
:020D0D0001FFE4
:020D0E0001FFE3
:020D0F0001FFE2
:020D100001FFE1
:020D110001FFE0
:020D120001FFDF
:020D130001FFDE
:020D140001FFDD
:020D150001FFDC
:020D160001FFDB
:020D170001FFDA
:020D180001FFD9
:020D190001FFD8
:020D1A0001FFD7
:020D1B0001FFD6
:020D1C0001FFD5
:020D1D0001FFD4
:020D1E0001FFD3
:020D1F0001FFD2
:020D200001FFD1
:020D210001FFD0
:020D220001FFCF
:020D230001FFCE
:020D240001FFCD
:020D250001FFCC
:020D260001FFCB
:020D270001FFCA
:020D280001FFC9
:020D290001FFC8
:020D2A0001FFC7
:020D2B0001FFC6
:020D2C0001FFC5
:020D2D0001FFC4
:020D2E0001FFC3
:020D2F0001FFC2
:020D300001FFC1
:020D310001FFC0
:020D320001FFBF
:020D330001FFBE
:020D340001FFBD
:020D350001FFBC
:020D360001FFBB
:020D370001FFBA
:020D380001FFB9
:020D390001FFB8
:020D3A0001FFB7
:020D3B0001FFB6
:020D3C0001FFB5
:020D3D0001FFB4
:020D3E0001FFB3
:020D3F0001FFB2
:020D400001FFB1
:020D410001FFB0
:020D420001FFAF
:020D430001FFAE
:020D440001FFAD
:020D450001FFAC
:020D460001FFAB
:020D470001FFAA
:020D480001FFA9
:020D490001FFA8
:020D4A0001FFA7
:020D4B0001FFA6
:020D4C0001FFA5
:020D4D0001FFA4
:020D4E0001FFA3
:020D4F0001FFA2
:020D500001FFA1
:020D510001FFA0
:020D520001FF9F
:020D530001FF9E
:020D540001FF9D
:020D550001FF9C
:020D560001FF9B
:020D570001FF9A
:020D580001FF99
:020D590001FF98
:020D5A0001FF97
:020D5B0001FF96
:020D5C0001FF95
:020D5D0001FF94
:020D5E0001FF93
:020D5F0001FF92
:020D600001FF91
:020D610001FF90
:020D620001FF8F
:020D630001FF8E
:020D640001FF8D
:020D650001FF8C
:020D660001FF8B
:020D670001FF8A
:020D680001FF89
:020D690001FF88
:020D6A0001FF87
:020D6B0001FF86
:020D6C0001FF85
:020D6D0001FF84
:020D6E0001FF83
:020D6F0001FF82
:020D700001FF81
:020D710001FF80
:020D720001FF7F
:020D730001FF7E
:020D740001FF7D
:020D750001FF7C
:020D760001FF7B
:020D770001FF7A
:020D780001FF79
:020D790001FF78
:020D7A0001FF77
:020D7B0001FF76
:020D7C0001FF75
:020D7D0001FF74
:020D7E0001FF73
:020D7F0001FF72
:020D800001FF71
:020D810001FF70
:020D820001FF6F
:020D830001FF6E
:020D840001FF6D
:020D850001FF6C
:020D860001FF6B
:020D870001FF6A
:020D880001FF69
:020D890001FF68
:020D8A0001FF67
:020D8B0001FF66
:020D8C0001FF65
:020D8D0001FF64
:020D8E0001FF63
:020D8F0001FF62
:020D900001FF61
:020D910001FF60
:020D920001FF5F
:020D930001FF5E
:020D940001FF5D
:020D950001FF5C
:020D960001FF5B
:020D970001FF5A
:020D980001FF59
:020D990001FF58
:020D9A0001FF57
:020D9B0001FF56
:020D9C0001FF55
:020D9D0001FF54
:020D9E0001FF53
:020D9F0001FF52
:020DA00001FF51
:020DA10001FF50
:020DA20001FF4F
:020DA30001FF4E
:020DA40001FF4D
:020DA50001FF4C
:020DA60001FF4B
:020DA70001FF4A
:020DA80001FF49
:020DA90001FF48
:020DAA0001FF47
:020DAB0001FF46
:020DAC0001FF45
:020DAD0001FF44
:020DAE0001FF43
:020DAF0001FF42
:020DB00001FF41
:020DB10001FF40
:020DB20001FF3F
:020DB30001FF3E
:020DB40001FF3D
:020DB50001FF3C
:020DB60001FF3B
:020DB70001FF3A
:020DB80001FF39
:020DB90001FF38
:020DBA0001FF37
:020DBB0001FF36
:020DBC0001FF35
:020DBD0001FF34
:020DBE0001FF33
:020DBF0001FF32
:020DC00001FF31
:020DC10001FF30
:020DC20001FF2F
:020DC30001FF2E
:020DC40001FF2D
:020DC50001FF2C
:020DC60001FF2B
:020DC70001FF2A
:020DC80001FF29
:020DC90001FF28
:020DCA0001FF27
:020DCB0001FF26
:020DCC0001FF25
:020DCD0001FF24
:020DCE0001FF23
:020DCF0001FF22
:020DD00001FF21
:020DD10001FF20
:020DD20001FF1F
:020DD30001FF1E
:020DD40001FF1D
:020DD50001FF1C
:020DD60001FF1B
:020DD70001FF1A
:020DD80001FF19
:020DD90001FF18
:020DDA0001FF17
:020DDB0001FF16
:020DDC0001FF15
:020DDD0001FF14
:020DDE0001FF13
:020DDF0001FF12
:020DE00001FF11
:020DE10001FF10
:020DE20001FF0F
:020DE30001FF0E
:020DE40001FF0D
:020DE50001FF0C
:020DE60001FF0B
:020DE70001FF0A
:020DE80001FF09
:020DE90001FF08
:020DEA0001FF07
:020DEB0001FF06
:020DEC0001FF05
:020DED0001FF04
:020DEE0001FF03
:020DEF0001FF02
:020DF00001FF01
:020DF10001FF00
:020DF20001FFFF
:020DF30001FFFE
:020DF40001FFFD
:020DF50001FFFC
:020DF60001FFFB
:020DF70001FFFA
:020DF80001FFF9
:020DF90001FFF8
:020DFA0001FFF7
:020DFB0001FFF6
:020DFC0001FFF5
:020DFD0001FFF4
:020DFE0001FFF3
:020DFF0001FFF2
:020E000001FFF0
:020E010001FFEF
:020E020001FFEE
:020E030001FFED
:020E040001FFEC
:020E050001FFEB
:020E060001FFEA
:020E070001FFE9
:020E080001FFE8
:020E090001FFE7
:020E0A0001FFE6
:020E0B0001FFE5
:020E0C0001FFE4
:020E0D0001FFE3
:020E0E0001FFE2
:020E0F0001FFE1
:020E100001FFE0
:020E110001FFDF
:020E120001FFDE
:020E130001FFDD
:020E140001FFDC
:020E150001FFDB
:020E160001FFDA
:020E170001FFD9
:020E180001FFD8
:020E190001FFD7
:020E1A0001FFD6
:020E1B0001FFD5
:020E1C0001FFD4
:020E1D0001FFD3
:020E1E0001FFD2
:020E1F0001FFD1
:020E200001FFD0
:020E210001FFCF
:020E220001FFCE
:020E230001FFCD
:020E240001FFCC
:020E250001FFCB
:020E260001FFCA
:020E270001FFC9
:020E280001FFC8
:020E290001FFC7
:020E2A0001FFC6
:020E2B0001FFC5
:020E2C0001FFC4
:020E2D0001FFC3
:020E2E0001FFC2
:020E2F0001FFC1
:020E300001FFC0
:020E310001FFBF
:020E320001FFBE
:020E330001FFBD
:020E340001FFBC
:020E350001FFBB
:020E360001FFBA
:020E370001FFB9
:020E380001FFB8
:020E390001FFB7
:020E3A0001FFB6
:020E3B0001FFB5
:020E3C0001FFB4
:020E3D0001FFB3
:020E3E0001FFB2
:020E3F0001FFB1
:020E400001FFB0
:020E410001FFAF
:020E420001FFAE
:020E430001FFAD
:020E440001FFAC
:020E450001FFAB
:020E460001FFAA
:020E470001FFA9
:020E480001FFA8
:020E490001FFA7
:020E4A0001FFA6
:020E4B0001FFA5
:020E4C0001FFA4
:020E4D0001FFA3
:020E4E0001FFA2
:020E4F0001FFA1
:020E500001FFA0
:020E510001FF9F
:020E520001FF9E
:020E530001FF9D
:020E540001FF9C
:020E550001FF9B
:020E560001FF9A
:020E570001FF99
:020E580001FF98
:020E590001FF97
:020E5A0001FF96
:020E5B0001FF95
:020E5C0001FF94
:020E5D0001FF93
:020E5E0001FF92
:020E5F0001FF91
:020E600001FF90
:020E610001FF8F
:020E620001FF8E
:020E630001FF8D
:020E640001FF8C
:020E650001FF8B
:020E660001FF8A
:020E670001FF89
:020E680001FF88
:020E690001FF87
:020E6A0001FF86
:020E6B0001FF85
:020E6C0001FF84
:020E6D0001FF83
:020E6E0001FF82
:020E6F0001FF81
:020E700001FF80
:020E710001FF7F
:020E720001FF7E
:020E730001FF7D
:020E740001FF7C
:020E750001FF7B
:020E760001FF7A
:020E770001FF79
:020E780001FF78
:020E790001FF77
:020E7A0001FF76
:020E7B0001FF75
:020E7C0001FF74
:020E7D0001FF73
:020E7E0001FF72
:020E7F0001FF71
:020E800001FF70
:020E810001FF6F
:020E820001FF6E
:020E830001FF6D
:020E840001FF6C
:020E850001FF6B
:020E860001FF6A
:020E870001FF69
:020E880001FF68
:020E890001FF67
:020E8A0001FF66
:020E8B0001FF65
:020E8C0001FF64
:020E8D0001FF63
:020E8E0001FF62
:020E8F0001FF61
:020E900001FF60
:020E910001FF5F
:020E920001FF5E
:020E930001FF5D
:020E940001FF5C
:020E950001FF5B
:020E960001FF5A
:020E970001FF59
:020E980001FF58
:020E990001FF57
:020E9A0001FF56
:020E9B0001FF55
:020E9C0001FF54
:020E9D0001FF53
:020E9E0001FF52
:020E9F0001FF51
:020EA00001FF50
:020EA10001FF4F
:020EA20001FF4E
:020EA30001FF4D
:020EA40001FF4C
:020EA50001FF4B
:020EA60001FF4A
:020EA70001FF49
:020EA80001FF48
:020EA90001FF47
:020EAA0001FF46
:020EAB0001FF45
:020EAC0001FF44
:020EAD0001FF43
:020EAE0001FF42
:020EAF0001FF41
:020EB00001FF40
:020EB10001FF3F
:020EB20001FF3E
:020EB30001FF3D
:020EB40001FF3C
:020EB50001FF3B
:020EB60001FF3A
:020EB70001FF39
:020EB80001FF38
:020EB90001FF37
:020EBA0001FF36
:020EBB0001FF35
:020EBC0001FF34
:020EBD0001FF33
:020EBE0001FF32
:020EBF0001FF31
:020EC00001FF30
:020EC10001FF2F
:020EC20001FF2E
:020EC30001FF2D
:020EC40001FF2C
:020EC50001FF2B
:020EC60001FF2A
:020EC70001FF29
:020EC80001FF28
:020EC90001FF27
:020ECA0001FF26
:020ECB0001FF25
:020ECC0001FF24
:020ECD0001FF23
:020ECE0001FF22
:020ECF0001FF21
:020ED00001FF20
:020ED10001FF1F
:020ED20001FF1E
:020ED30001FF1D
:020ED40001FF1C
:020ED50001FF1B
:020ED60001FF1A
:020ED70001FF19
:020ED80001FF18
:020ED90001FF17
:020EDA0001FF16
:020EDB0001FF15
:020EDC0001FF14
:020EDD0001FF13
:020EDE0001FF12
:020EDF0001FF11
:020EE00001FF10
:020EE10001FF0F
:020EE20001FF0E
:020EE30001FF0D
:020EE40001FF0C
:020EE50001FF0B
:020EE60001FF0A
:020EE70001FF09
:020EE80001FF08
:020EE90001FF07
:020EEA0001FF06
:020EEB0001FF05
:020EEC0001FF04
:020EED0001FF03
:020EEE0001FF02
:020EEF0001FF01
:020EF00001FF00
:020EF10001FFFF
:020EF20001FFFE
:020EF30001FFFD
:020EF40001FFFC
:020EF50001FFFB
:020EF60001FFFA
:020EF70001FFF9
:020EF80001FFF8
:020EF90001FFF7
:020EFA0001FFF6
:020EFB0001FFF5
:020EFC0001FFF4
:020EFD0001FFF3
:020EFE0001FFF2
:020EFF0001FFF1
:020F000001FFEF
:020F010001FFEE
:020F020001FFED
:020F030001FFEC
:020F040001FFEB
:020F050001FFEA
:020F060001FFE9
:020F070001FFE8
:020F080001FFE7
:020F090001FFE6
:020F0A0001FFE5
:020F0B0001FFE4
:020F0C0001FFE3
:020F0D0001FFE2
:020F0E0001FFE1
:020F0F0001FFE0
:020F100001FFDF
:020F110001FFDE
:020F120001FFDD
:020F130001FFDC
:020F140001FFDB
:020F150001FFDA
:020F160001FFD9
:020F170001FFD8
:020F180001FFD7
:020F190001FFD6
:020F1A0001FFD5
:020F1B0001FFD4
:020F1C0001FFD3
:020F1D0001FFD2
:020F1E0001FFD1
:020F1F0001FFD0
:020F200001FFCF
:020F210001FFCE
:020F220001FFCD
:020F230001FFCC
:020F240001FFCB
:020F250001FFCA
:020F260001FFC9
:020F270001FFC8
:020F280001FFC7
:020F290001FFC6
:020F2A0001FFC5
:020F2B0001FFC4
:020F2C0001FFC3
:020F2D0001FFC2
:020F2E0001FFC1
:020F2F0001FFC0
:020F300001FFBF
:020F310001FFBE
:020F320001FFBD
:020F330001FFBC
:020F340001FFBB
:020F350001FFBA
:020F360001FFB9
:020F370001FFB8
:020F380001FFB7
:020F390001FFB6
:020F3A0001FFB5
:020F3B0001FFB4
:020F3C0001FFB3
:020F3D0001FFB2
:020F3E0001FFB1
:020F3F0001FFB0
:020F400001FFAF
:020F410001FFAE
:020F420001FFAD
:020F430001FFAC
:020F440001FFAB
:020F450001FFAA
:020F460001FFA9
:020F470001FFA8
:020F480001FFA7
:020F490001FFA6
:020F4A0001FFA5
:020F4B0001FFA4
:020F4C0001FFA3
:020F4D0001FFA2
:020F4E0001FFA1
:020F4F0001FFA0
:020F500001FF9F
:020F510001FF9E
:020F520001FF9D
:020F530001FF9C
:020F540001FF9B
:020F550001FF9A
:020F560001FF99
:020F570001FF98
:020F580001FF97
:020F590001FF96
:020F5A0001FF95
:020F5B0001FF94
:020F5C0001FF93
:020F5D0001FF92
:020F5E0001FF91
:020F5F0001FF90
:020F600001FF8F
:020F610001FF8E
:020F620001FF8D
:020F630001FF8C
:020F640001FF8B
:020F650001FF8A
:020F660001FF89
:020F670001FF88
:020F680001FF87
:020F690001FF86
:020F6A0001FF85
:020F6B0001FF84
:020F6C0001FF83
:020F6D0001FF82
:020F6E0001FF81
:020F6F0001FF80
:020F700001FF7F
:020F710001FF7E
:020F720001FF7D
:020F730001FF7C
:020F740001FF7B
:020F750001FF7A
:020F760001FF79
:020F770001FF78
:020F780001FF77
:020F790001FF76
:020F7A0001FF75
:020F7B0001FF74
:020F7C0001FF73
:020F7D0001FF72
:020F7E0001FF71
:020F7F0001FF70
:020F800001FF6F
:020F810001FF6E
:020F820001FF6D
:020F830001FF6C
:020F840001FF6B
:020F850001FF6A
:020F860001FF69
:020F870001FF68
:020F880001FF67
:020F890001FF66
:020F8A0001FF65
:020F8B0001FF64
:020F8C0001FF63
:020F8D0001FF62
:020F8E0001FF61
:020F8F0001FF60
:020F900001FF5F
:020F910001FF5E
:020F920001FF5D
:020F930001FF5C
:020F940001FF5B
:020F950001FF5A
:020F960001FF59
:020F970001FF58
:020F980001FF57
:020F990001FF56
:020F9A0001FF55
:020F9B0001FF54
:020F9C0001FF53
:020F9D0001FF52
:020F9E0001FF51
:020F9F0001FF50
