:0200000001FFFE
:0200010001B646
:0200020001B645
:0200030001B644
:0200040001B643
:0200050001B642
:0200060001B641
:0200070001B640
:0200080001B63F
:0200090001B63E
:02000A0001B63D
:02000B0001B63C
:02000C0001B63B
:02000D0001B63A
:02000E0001B639
:02000F0001B638
:0200100001B637
:0200110001B636
:0200120001B635
:0200130001B634
:0200140001B633
:0200150001B632
:0200160001B631
:0200170001B630
:0200180001B62F
:0200190001B62E
:02001A0001B62D
:02001B0001B62C
:02001C0001B62B
:02001D0001B62A
:02001E0001B629
:02001F0001B628
:0200200001B627
:0200210001B626
:0200220001B625
:0200230001B624
:0200240001B623
:0200250001B622
:0200260001B621
:0200270001B620
:0200280001B61F
:0200290001B61E
:02002A0001B61D
:02002B0001FFD3
:02002C0001FFD2
:02002D0001F7D9
:02002E0001B619
:02002F0001B618
:0200300001B617
:0200310001B616
:0200320001B615
:0200330001B614
:0200340001B613
:0200350001B612
:0200360001B611
:0200370001B610
:0200380001B60F
:0200390001B60E
:02003A0001B60D
:02003B0001B60C
:02003C0001B60B
:02003D0001B60A
:02003E0001B609
:02003F0001B608
:0200400001B607
:0200410001B606
:0200420001B605
:0200430001B604
:0200440001B603
:0200450001B602
:0200460001B601
:0200470001B600
:0200480001B6FF
:0200490001B6FE
:02004A0001B6FD
:02004B0001B6FC
:02004C0001B6FB
:02004D0001B6FA
:02004E0001B6F9
:02004F0001B6F8
:0200500001B6F7
:0200510001B6F6
:0200520001B6F5
:0200530001B6F4
:0200540001B6F3
:0200550001B6F2
:0200560001B6F1
:0200570001FFA7
:0200580001FFA6
:0200590001F7AD
:02005A0001B6ED
:02005B0001B6EC
:02005C0001B6EB
:02005D0001B6EA
:02005E0001B6E9
:02005F0001B6E8
:0200600001B6E7
:0200610001B6E6
:0200620001B6E5
:0200630001B6E4
:0200640001B6E3
:0200650001B6E2
:0200660001B6E1
:0200670001B6E0
:0200680001B6DF
:0200690001B6DE
:02006A0001B6DD
:02006B0001B6DC
:02006C0001B6DB
:02006D0001B6DA
:02006E0001B6D9
:02006F0001B6D8
:0200700001B6D7
:0200710001B6D6
:0200720001B6D5
:0200730001B6D4
:0200740001B6D3
:0200750001B6D2
:0200760001B6D1
:0200770001B6D0
:0200780001B6CF
:0200790001B6CE
:02007A0001B6CD
:02007B0001B6CC
:02007C0001B6CB
:02007D0001B6CA
:02007E0001B6C9
:02007F0001B6C8
:0200800001B6C7
:0200810001B6C6
:0200820001B6C5
:0200830001FF7B
:0200840001B6C3
:0200850001F781
:0200860001B6C1
:0200870001B6C0
:0200880001B6BF
:0200890001B6BE
:02008A0001B6BD
:02008B0001B6BC
:02008C0001B6BB
:02008D0001B6BA
:02008E0001B6B9
:02008F0001B6B8
:0200900001B6B7
:0200910001B6B6
:0200920001B6B5
:0200930001B6B4
:0200940001B6B3
:0200950001B6B2
:0200960001B6B1
:0200970001B6B0
:0200980001B6AF
:0200990001B6AE
:02009A0001B6AD
:02009B0001B6AC
:02009C0001B6AB
:02009D0001B6AA
:02009E0001B6A9
:02009F0001B6A8
:0200A00001B6A7
:0200A10001B6A6
:0200A20001B6A5
:0200A30001B6A4
:0200A40001B6A3
:0200A50001B6A2
:0200A60001B6A1
:0200A70001B6A0
:0200A80001B69F
:0200A90001B69E
:0200AA0001B69D
:0200AB0001B69C
:0200AC0001B69B
:0200AD0001B69A
:0200AE0001B699
:0200AF0001FF4F
:0200B00001B697
:0200B10001F755
:0200B20001B695
:0200B30001B694
:0200B40001B693
:0200B50001B692
:0200B60001B691
:0200B70001B690
:0200B80001B68F
:0200B90001B68E
:0200BA0001B68D
:0200BB0001B68C
:0200BC0001B68B
:0200BD0001B68A
:0200BE0001B689
:0200BF0001B688
:0200C00001B687
:0200C10001B686
:0200C20001B685
:0200C30001B684
:0200C40001B683
:0200C50001B682
:0200C60001B681
:0200C70001B680
:0200C80001B67F
:0200C90001B67E
:0200CA0001B67D
:0200CB0001B67C
:0200CC0001B67B
:0200CD0001B67A
:0200CE0001B679
:0200CF0001B678
:0200D00001B677
:0200D10001B676
:0200D20001B675
:0200D30001B674
:0200D40001B673
:0200D50001B672
:0200D60001B671
:0200D70001B670
:0200D80001B66F
:0200D90001B66E
:0200DA0001B66D
:0200DB0001FF23
:0200DC0001B66B
:0200DD0001B66A
:0200DE0001B669
:0200DF0001B668
:0200E00001B667
:0200E10001B666
:0200E20001B665
:0200E30001B664
:0200E40001B663
:0200E50001B662
:0200E60001B661
:0200E70001B660
:0200E80001B65F
:0200E90001B65E
:0200EA0001B65D
:0200EB0001B65C
:0200EC0001B65B
:0200ED0001B65A
:0200EE0001B659
:0200EF0001B658
:0200F00001B657
:0200F10001B656
:0200F20001B655
:0200F30001B654
:0200F40001B653
:0200F50001B652
:0200F60001B651
:0200F70001B650
:0200F80001B64F
:0200F90001B64E
:0200FA0001B64D
:0200FB0001B64C
:0200FC0001B64B
:0200FD0001B64A
:0200FE0001B649
:0200FF0001B648
:0201000001B646
:0201010001B645
:0201020001B644
:0201030001B643
:0201040001B642
:0201050001B641
:0201060001F7FF
:0201070001FFF6
:0201080001B63E
:0201090001B63D
:02010A0001B63C
:02010B0001B63B
:02010C0001B63A
:02010D0001B639
:02010E0001B638
:02010F0001B637
:0201100001B636
:0201110001B635
:0201120001B634
:0201130001B633
:0201140001B632
:0201150001B631
:0201160001B630
:0201170001B62F
:0201180001B62E
:0201190001B62D
:02011A0001B62C
:02011B0001B62B
:02011C0001B62A
:02011D0001B629
:02011E0001B628
:02011F0001B627
:0201200001B626
:0201210001B625
:0201220001B624
:0201230001B623
:0201240001B622
:0201250001B621
:0201260001B620
:0201270001B61F
:0201280001B61E
:0201290001B61D
:02012A0001B61C
:02012B0001B61B
:02012C0001B61A
:02012D0001B619
:02012E0001B618
:02012F0001B617
:0201300001B616
:0201310001B615
:0201320001FFCB
:0201330001FFCA
:0201340001F7D1
:0201350001B611
:0201360001B610
:0201370001B60F
:0201380001B60E
:0201390001B60D
:02013A0001B60C
:02013B0001B60B
:02013C0001B60A
:02013D0001B609
:02013E0001B608
:02013F0001B607
:0201400001B606
:0201410001B605
:0201420001B604
:0201430001B603
:0201440001B602
:0201450001B601
:0201460001B600
:0201470001B6FF
:0201480001B6FE
:0201490001B6FD
:02014A0001B6FC
:02014B0001B6FB
:02014C0001B6FA
:02014D0001B6F9
:02014E0001B6F8
:02014F0001B6F7
:0201500001B6F6
:0201510001B6F5
:0201520001B6F4
:0201530001B6F3
:0201540001B6F2
:0201550001B6F1
:0201560001B6F0
:0201570001B6EF
:0201580001B6EE
:0201590001B6ED
:02015A0001B6EC
:02015B0001B6EB
:02015C0001B6EA
:02015D0001B6E9
:02015E0001FF9F
:02015F0001FF9E
:0201600001F7A5
:0201610001B6E5
:0201620001B6E4
:0201630001B6E3
:0201640001B6E2
:0201650001B6E1
:0201660001B6E0
:0201670001B6DF
:0201680001B6DE
:0201690001B6DD
:02016A0001B6DC
:02016B0001B6DB
:02016C0001B6DA
:02016D0001B6D9
:02016E0001B6D8
:02016F0001B6D7
:0201700001B6D6
:0201710001B6D5
:0201720001B6D4
:0201730001B6D3
:0201740001B6D2
:0201750001B6D1
:0201760001B6D0
:0201770001B6CF
:0201780001B6CE
:0201790001B6CD
:02017A0001B6CC
:02017B0001B6CB
:02017C0001B6CA
:02017D0001B6C9
:02017E0001B6C8
:02017F0001B6C7
:0201800001B6C6
:0201810001B6C5
:0201820001B6C4
:0201830001B6C3
:0201840001B6C2
:0201850001B6C1
:0201860001B6C0
:0201870001B6BF
:0201880001B6BE
:0201890001B6BD
:02018A0001FF73
:02018B0001B6BB
:02018C0001F779
:02018D0001B6B9
:02018E0001B6B8
:02018F0001B6B7
:0201900001B6B6
:0201910001B6B5
:0201920001B6B4
:0201930001B6B3
:0201940001B6B2
:0201950001B6B1
:0201960001B6B0
:0201970001B6AF
:0201980001B6AE
:0201990001B6AD
:02019A0001B6AC
:02019B0001B6AB
:02019C0001B6AA
:02019D0001B6A9
:02019E0001B6A8
:02019F0001B6A7
:0201A00001B6A6
:0201A10001B6A5
:0201A20001B6A4
:0201A30001B6A3
:0201A40001B6A2
:0201A50001B6A1
:0201A60001B6A0
:0201A70001B69F
:0201A80001B69E
:0201A90001B69D
:0201AA0001B69C
:0201AB0001B69B
:0201AC0001B69A
:0201AD0001B699
:0201AE0001B698
:0201AF0001B697
:0201B00001B696
:0201B10001B695
:0201B20001B694
:0201B30001B693
:0201B40001B692
:0201B50001B691
:0201B60001FF47
:0201B70001B68F
:0201B80001F74D
:0201B90001B68D
:0201BA0001B68C
:0201BB0001B68B
:0201BC0001B68A
:0201BD0001B689
:0201BE0001B688
:0201BF0001B687
:0201C00001B686
:0201C10001B685
:0201C20001B684
:0201C30001B683
:0201C40001B682
:0201C50001B681
:0201C60001B680
:0201C70001B67F
:0201C80001B67E
:0201C90001B67D
:0201CA0001B67C
:0201CB0001B67B
:0201CC0001B67A
:0201CD0001B679
:0201CE0001B678
:0201CF0001B677
:0201D00001B676
:0201D10001B675
:0201D20001B674
:0201D30001B673
:0201D40001B672
:0201D50001B671
:0201D60001B670
:0201D70001B66F
:0201D80001B66E
:0201D90001B66D
:0201DA0001B66C
:0201DB0001B66B
:0201DC0001B66A
:0201DD0001B669
:0201DE0001B668
:0201DF0001B667
:0201E00001B666
:0201E10001B665
:0201E20001FF1B
:0201E30001B663
:0201E40001B662
:0201E50001B661
:0201E60001B660
:0201E70001B65F
:0201E80001B65E
:0201E90001B65D
:0201EA0001B65C
:0201EB0001B65B
:0201EC0001B65A
:0201ED0001B659
:0201EE0001B658
:0201EF0001B657
:0201F00001B656
:0201F10001B655
:0201F20001B654
:0201F30001B653
:0201F40001B652
:0201F50001B651
:0201F60001B650
:0201F70001B64F
:0201F80001B64E
:0201F90001B64D
:0201FA0001B64C
:0201FB0001B64B
:0201FC0001B64A
:0201FD0001B649
:0201FE0001B648
:0201FF0001B647
:0202000001B645
:0202010001B644
:0202020001B643
:0202030001B642
:0202040001B641
:0202050001B640
:0202060001B63F
:0202070001B63E
:0202080001B63D
:0202090001B63C
:02020A0001B63B
:02020B0001B63A
:02020C0001B639
:02020D0001F7F7
:02020E0001FFEE
:02020F0001B636
:0202100001B635
:0202110001B634
:0202120001B633
:0202130001B632
:0202140001B631
:0202150001B630
:0202160001B62F
:0202170001B62E
:0202180001B62D
:0202190001B62C
:02021A0001B62B
:02021B0001B62A
:02021C0001B629
:02021D0001B628
:02021E0001B627
:02021F0001B626
:0202200001B625
:0202210001B624
:0202220001B623
:0202230001B622
:0202240001B621
:0202250001B620
:0202260001B61F
:0202270001B61E
:0202280001B61D
:0202290001B61C
:02022A0001B61B
:02022B0001B61A
:02022C0001B619
:02022D0001B618
:02022E0001B617
:02022F0001B616
:0202300001B615
:0202310001B614
:0202320001B613
:0202330001B612
:0202340001B611
:0202350001B610
:0202360001B60F
:0202370001B60E
:0202380001B60D
:0202390001FFC3
:02023A00016D54
:02023B0001B60A
:02023C000010B0
:02023D000000BF
:02023E00004975
:02023F00004974
:02024000004973
:02024100004972
:02024200004971
:02024300004970
:0202440000496F
:0202450000496E
:0202460000496D
:0202470000496C
:0202480000496B
:0202490000496A
:02024A00004969
:02024B00004968
:02024C00004967
:02024D00004966
:02024E00004965
:02024F00004964
:02025000004963
:02025100004962
:02025200004961
:02025300004960
:0202540000495F
:0202550000495E
:0202560000495D
:0202570000495C
:0202580000495B
:0202590000495A
:02025A00004959
:02025B00004958
:02025C00004957
:02025D00004956
:02025E00004955
:02025F00004954
:02026000004953
:02026100004952
:02026200004951
:02026300004950
:0202640000494F
:02026500000097
:0202660000593D
:0202670001B6DE
:0202680000088C
:02026900004152
:02026A00004949
:02026B00004948
:02026C00004947
:02026D00004946
:02026E00004945
:02026F00004944
:02027000004943
:02027100004942
:02027200004941
:02027300004940
:0202740000493F
:0202750000493E
:0202760000493D
:0202770000493C
:0202780000493B
:0202790000493A
:02027A00004939
:02027B00004938
:02027C00004937
:02027D00004936
:02027E00004935
:02027F00004934
:02028000004933
:02028100004932
:02028200004931
:02028300004930
:0202840000492F
:0202850000492E
:0202860000492D
:0202870000492C
:0202880000492B
:0202890000492A
:02028A00004929
:02028B00004928
:02028C00004927
:02028D00004926
:02028E00004925
:02028F00004924
:02029000004923
:0202910000006B
:0202920000AAC0
:02029300016DFB
:02029400000860
:0202950000491E
:0202960000491D
:0202970000491C
:0202980000491B
:0202990000491A
:02029A00004919
:02029B00004918
:02029C00004917
:02029D00004916
:02029E00004915
:02029F00004914
:0202A000004913
:0202A100004912
:0202A200004911
:0202A300004910
:0202A40000490F
:0202A50000490E
:0202A60000490D
:0202A70000490C
:0202A80000490B
:0202A90000490A
:0202AA00004909
:0202AB00004908
:0202AC00004907
:0202AD00004906
:0202AE00004905
:0202AF00004904
:0202B000004903
:0202B100004902
:0202B200004901
:0202B300004900
:0202B4000049FF
:0202B5000049FE
:0202B6000049FD
:0202B7000049FC
:0202B8000049FB
:0202B9000049FA
:0202BA000049F9
:0202BB000049F8
:0202BC000049F7
:0202BD0000003F
:0202BE00013409
:0202BF0000E35A
:0202C000000834
:0202C1000049F2
:0202C2000049F1
:0202C3000049F0
:0202C4000049EF
:0202C5000049EE
:0202C6000049ED
:0202C7000049EC
:0202C8000049EB
:0202C9000049EA
:0202CA000049E9
:0202CB000049E8
:0202CC000049E7
:0202CD000049E6
:0202CE000049E5
:0202CF000049E4
:0202D0000049E3
:0202D1000049E2
:0202D2000049E1
:0202D3000049E0
:0202D4000049DF
:0202D5000049DE
:0202D6000049DD
:0202D7000049DC
:0202D8000049DB
:0202D9000049DA
:0202DA000049D9
:0202DB000049D8
:0202DC000049D7
:0202DD000049D6
:0202DE000049D5
:0202DF000049D4
:0202E0000049D3
:0202E1000049D2
:0202E2000049D1
:0202E3000049D0
:0202E4000049CF
:0202E5000049CE
:0202E6000049CD
:0202E7000049CC
:0202E8000049CB
:0202E900000013
:0202EA0001759C
:0202EB000059B8
:0202EC00000010
:0202ED000049C6
:0202EE000049C5
:0202EF000049C4
:0202F0000049C3
:0202F1000049C2
:0202F2000049C1
:0202F3000049C0
:0202F4000049BF
:0202F5000049BE
:0202F6000049BD
:0202F7000049BC
:0202F8000049BB
:0202F9000049BA
:0202FA000049B9
:0202FB000049B8
:0202FC000049B7
:0202FD000049B6
:0202FE000049B5
:0202FF000049B4
:020300000049B2
:020301000049B1
:020302000049B0
:020303000049AF
:020304000049AE
:020305000049AD
:020306000049AC
:020307000049AB
:020308000049AA
:020309000049A9
:02030A000049A8
:02030B000049A7
:02030C000049A6
:02030D000049A5
:02030E000049A4
:02030F000049A3
:020310000049A2
:020311000049A1
:020312000049A0
:0203130000499F
:0203140000499E
:020315000008DE
:0203160001BE26
:0203170000598B
:020318000000E3
:02031900004999
:02031A00004998
:02031B00004997
:02031C00004996
:02031D00004995
:02031E00004994
:02031F00004993
:02032000004992
:02032100004991
:02032200004990
:0203230000498F
:0203240000498E
:0203250000498D
:0203260000498C
:0203270000498B
:0203280000498A
:02032900004989
:02032A00004988
:02032B00004987
:02032C00004986
:02032D00004985
:02032E00004984
:02032F00004983
:02033000004982
:02033100004981
:02033200004980
:0203330000497F
:0203340000497E
:0203350000497D
:0203360000497C
:0203370000497B
:0203380000497A
:02033900004979
:02033A00004978
:02033B00004977
:02033C00004976
:02033D00004975
:02033E00004974
:02033F00004973
:0203400000417A
:020341000008B2
:0203420001FFB9
:020343000010A8
:020344000000B7
:0203450000496D
:0203460000496C
:0203470000496B
:0203480000496A
:02034900004969
:02034A00004968
:02034B00004967
:02034C00004966
:02034D00004965
:02034E00004964
:02034F00004963
:02035000004962
:02035100004961
:02035200004960
:0203530000495F
:0203540000495E
:0203550000495D
:0203560000495C
:0203570000495B
:0203580000495A
:02035900004959
:02035A00004958
:02035B00004957
:02035C00004956
:02035D00004955
:02035E00004954
:02035F00004953
:02036000004952
:02036100004951
:02036200004950
:0203630000494F
:0203640000494E
:0203650000494D
:0203660000494C
:0203670000494B
:0203680000494A
:02036900004949
:02036A00004948
:02036B00004947
:02036C0000008F
:02036D00005935
:02036E0001B6D6
:02036F00000884
:0203700000414A
:02037100004941
:02037200004940
:0203730000493F
:0203740000493E
:0203750000493D
:0203760000493C
:0203770000493B
:0203780000493A
:02037900004939
:02037A00004938
:02037B00004937
:02037C00004936
:02037D00004935
:02037E00004934
:02037F00004933
:02038000004932
:02038100004931
:02038200004930
:0203830000492F
:0203840000492E
:0203850000492D
:0203860000492C
:0203870000492B
:0203880000492A
:02038900004929
:02038A00004928
:02038B00004927
:02038C00004926
:02038D00004925
:02038E00004924
:02038F00004923
:02039000004922
:02039100004921
:02039200004920
:0203930000491F
:0203940000491E
:0203950000491D
:0203960000491C
:0203970000491B
:02039800000063
:0203990000EB77
:02039A00012C34
:02039B00000858
:02039C00004916
:02039D00004915
:02039E00004914
:02039F00004913
:0203A000004912
:0203A100004911
:0203A200004910
:0203A30000490F
:0203A40000490E
:0203A50000490D
:0203A60000490C
:0203A70000490B
:0203A80000490A
:0203A900004909
:0203AA00004908
:0203AB00004907
:0203AC00004906
:0203AD00004905
:0203AE00004904
:0203AF00004903
:0203B000004902
:0203B100004901
:0203B200004900
:0203B3000049FF
:0203B4000049FE
:0203B5000049FD
:0203B6000049FC
:0203B7000049FB
:0203B8000049FA
:0203B9000049F9
:0203BA000049F8
:0203BB000049F7
:0203BC000049F6
:0203BD000049F5
:0203BE000049F4
:0203BF000049F3
:0203C0000049F2
:0203C1000049F1
:0203C2000049F0
:0203C3000049EF
:0203C400000037
:0203C500013401
:0203C60000E352
:0203C70000082C
:0203C8000049EA
:0203C9000049E9
:0203CA000049E8
:0203CB000049E7
:0203CC000049E6
:0203CD000049E5
:0203CE000049E4
:0203CF000049E3
:0203D0000049E2
:0203D1000049E1
:0203D2000049E0
:0203D3000049DF
:0203D4000049DE
:0203D5000049DD
:0203D6000049DC
:0203D7000049DB
:0203D8000049DA
:0203D9000049D9
:0203DA000049D8
:0203DB000049D7
:0203DC000049D6
:0203DD000049D5
:0203DE000049D4
:0203DF000049D3
:0203E0000049D2
:0203E1000049D1
:0203E2000049D0
:0203E3000049CF
:0203E4000049CE
:0203E5000049CD
:0203E6000049CC
:0203E7000049CB
:0203E8000049CA
:0203E9000049C9
:0203EA000049C8
:0203EB000049C7
:0203EC000049C6
:0203ED000049C5
:0203EE000049C4
:0203EF000049C3
:0203F00000000B
:0203F10001B653
:0203F2000059B0
:0203F300000008
:0203F4000049BE
:0203F5000049BD
:0203F6000049BC
:0203F7000049BB
:0203F8000049BA
:0203F9000049B9
:0203FA000049B8
:0203FB000049B7
:0203FC000049B6
:0203FD000049B5
:0203FE000049B4
:0203FF000049B3
:020400000049B1
:020401000049B0
:020402000049AF
:020403000049AE
:020404000049AD
:020405000049AC
:020406000049AB
:020407000049AA
:020408000049A9
:020409000049A8
:02040A000049A7
:02040B000049A6
:02040C000049A5
:02040D000049A4
:02040E000049A3
:02040F000049A2
:020410000049A1
:020411000049A0
:0204120000499F
:0204130000499E
:0204140000499D
:0204150000499C
:0204160000499B
:0204170000499A
:02041800004999
:02041900004998
:02041A00004997
:02041B00004996
:02041C000008D6
:02041D0001BE1E
:02041E000018C4
:02041F000000DB
:02042000004991
:02042100004990
:0204220000498F
:0204230000498E
:0204240000498D
:0204250000498C
:0204260000498B
:0204270000498A
:02042800004989
:02042900004988
:02042A00004987
:02042B00004986
:02042C00004985
:02042D00004984
:02042E00004983
:02042F00004982
:02043000004981
:02043100004980
:0204320000497F
:0204330000497E
:0204340000497D
:0204350000497C
:0204360000497B
:0204370000497A
:02043800004979
:02043900004978
:02043A00004977
:02043B00004976
:02043C00004975
:02043D00004974
:02043E00004973
:02043F00004972
:02044000004971
:02044100004970
:0204420000496F
:0204430000496E
:0204440000496D
:0204450000496C
:0204460000496B
:02044700004172
:020448000010A2
:0204490001FFB1
:02044A000010A0
:02044B000000AF
:02044C00004965
:02044D00004964
:02044E00004963
:02044F00004962
:02045000004961
:02045100004960
:0204520000495F
:0204530000495E
:0204540000495D
:0204550000495C
:0204560000495B
:0204570000495A
:02045800004959
:02045900004958
:02045A00004957
:02045B00004956
:02045C00004955
:02045D00004954
:02045E00004953
:02045F00004952
:02046000004951
:02046100004950
:0204620000494F
:0204630000494E
:0204640000494D
:0204650000494C
:0204660000494B
:0204670000494A
:02046800004949
:02046900004948
:02046A00004947
:02046B00004946
:02046C00004945
:02046D00004944
:02046E00004943
:02046F00004942
:02047000004941
:02047100004940
:0204720000493F
:02047300000087
:0204740000592D
:0204750001AED6
:0204760001B6CD
:02047700000083
:0204780001FF82
:0204790001FF81
:02047A0001FF80
:02047B0001FF7F
:02047C0001FF7E
:02047D0001FF7D
:02047E0001FF7C
:02047F0001FF7B
:0204800001FF7A
:0204810001FF79
:0204820001FF78
:0204830001FF77
:0204840001FF76
:0204850001FF75
:0204860001FF74
:0204870001FF73
:0204880001FF72
:0204890001FF71
:02048A0001FF70
:02048B0001FF6F
:02048C0001FF6E
:02048D0001FF6D
:02048E0001FF6C
:02048F0001FF6B
:0204900001FF6A
:0204910001FF69
:0204920001FF68
:0204930001FF67
:0204940001FF66
:0204950001FF65
:0204960001FF64
:0204970001FF63
:0204980001FF62
:0204990001FF61
:02049A0001FF60
:02049B0001FF5F
:02049C0001FF5E
:02049D0001FF5D
:02049E0001FF5C
:02049F0001FF5B
:0204A00001FF5A
:0204A100004910
:0204A20001B6A1
:0204A30000490E
:0204A40001FF56
:0204A50001FF55
:0204A60001FF54
:0204A70001FF53
:0204A80001FF52
:0204A90001FF51
:0204AA0001FF50
:0204AB0001FF4F
:0204AC0001FF4E
:0204AD0001FF4D
:0204AE0001FF4C
:0204AF0001FF4B
:0204B00001FF4A
:0204B10001FF49
:0204B20001FF48
:0204B30001FF47
:0204B40001FF46
:0204B50001FF45
:0204B60001FF44
:0204B70001FF43
:0204B80001FF42
:0204B90001FF41
:0204BA0001FF40
:0204BB0001FF3F
:0204BC0001FF3E
:0204BD0001FF3D
:0204BE0001FF3C
:0204BF0001FF3B
:0204C00001FF3A
:0204C10001FF39
:0204C20001FF38
:0204C30001FF37
:0204C40001FF36
:0204C50001FF35
:0204C60001FF34
:0204C70001FF33
:0204C80001FF32
:0204C90001FF31
:0204CA0001FF30
:0204CB0001FF2F
:0204CC0001FF2E
:0204CD0000929B
:0204CE00012407
:0204CF00009299
:0204D00001FF2A
:0204D10001FF29
:0204D20001FF28
:0204D30001FF27
:0204D40001FF26
:0204D50001FF25
:0204D60001FF24
:0204D70001FF23
:0204D80001FF22
:0204D90001FF21
:0204DA0001FF20
:0204DB0001FF1F
:0204DC0001FF1E
:0204DD0001FF1D
:0204DE0001FF1C
:0204DF0001FF1B
:0204E00001FF1A
:0204E10001FF19
:0204E20001FF18
:0204E30001FF17
:0204E40001FF16
:0204E50001FF15
:0204E60001FF14
:0204E70001FF13
:0204E80001FF12
:0204E90001FF11
:0204EA0001FF10
:0204EB0001FF0F
:0204EC0001FF0E
:0204ED0001FF0D
:0204EE0001FF0C
:0204EF0001FF0B
:0204F00001FF0A
:0204F10001FF09
:0204F20001FF08
:0204F30001FF07
:0204F40001FF06
:0204F50001FF05
:0204F60001FF04
:0204F70001FF03
:0204F80001B64B
:0204F90000DB26
:0204FA0000926E
:0204FB000124DA
:0204FC0001FFFE
:0204FD0001FFFD
:0204FE0001FFFC
:0204FF0001FFFB
:0205000001FFF9
:0205010001FFF8
:0205020001FFF7
:0205030001FFF6
:0205040001FFF5
:0205050001FFF4
:0205060001FFF3
:0205070001FFF2
:0205080001FFF1
:0205090001FFF0
:02050A0001FFEF
:02050B0001FFEE
:02050C0001FFED
:02050D0001FFEC
:02050E0001FFEB
:02050F0001FFEA
:0205100001FFE9
:0205110001FFE8
:0205120001FFE7
:0205130001FFE6
:0205140001FFE5
:0205150001FFE4
:0205160001FFE3
:0205170001FFE2
:0205180001FFE1
:0205190001FFE0
:02051A0001FFDF
:02051B0001FFDE
:02051C0001FFDD
:02051D0001FFDC
:02051E0001FFDB
:02051F0001FFDA
:0205200001FFD9
:0205210001FFD8
:0205220001FFD7
:0205230001FFD6
:020524000124B0
:02052500016D66
:0205260000498A
:0205270001B61B
:0205280001FFD1
:0205290001FFD0
:02052A0001FFCF
:02052B0001FFCE
:02052C0001FFCD
:02052D0001FFCC
:02052E0001FFCB
:02052F0001FFCA
:0205300001FFC9
:0205310001FFC8
:0205320001FFC7
:0205330001FFC6
:0205340001FFC5
:0205350001FFC4
:0205360001FFC3
:0205370001FFC2
:0205380001FFC1
:0205390001FFC0
:02053A0001FFBF
:02053B0001FFBE
:02053C0001FFBD
:02053D0001FFBC
:02053E0001FFBB
:02053F0001FFBA
:0205400001FFB9
:0205410001FFB8
:0205420001FFB7
:0205430001FFB6
:0205440001FFB5
:0205450001FFB4
:0205460001FFB3
:0205470001FFB2
:0205480001FFB1
:0205490001FFB0
:02054A0001FFAF
:02054B0001FFAE
:02054C0001FFAD
:02054D0001FFAC
:02054E0001FFAB
:02054F0001FFAA
:02055000009217
:0205510001B6F1
:020552000000A7
:0205530001FFA6
:0205540001FFA5
:0205550001FFA4
:0205560001FFA3
:0205570001FFA2
:0205580001FFA1
:0205590001FFA0
:02055A0001FF9F
:02055B0001FF9E
:02055C0001FF9D
:02055D0001FF9C
:02055E0001FF9B
:02055F0001FF9A
:0205600001FF99
:0205610001FF98
:0205620001FF97
:0205630001FF96
:0205640001FF95
:0205650001FF94
:0205660001FF93
:0205670001FF92
:0205680001FF91
:0205690001FF90
:02056A0001FF8F
:02056B0001FF8E
:02056C0001FF8D
:02056D0001FF8C
:02056E0001FF8B
:02056F0001FF8A
:0205700001FF89
:0205710001FF88
:0205720001FF87
:0205730001FF86
:0205740001FF85
:0205750001FF84
:0205760001FF83
:0205770001FF82
:0205780001FF81
:0205790001FF80
:02057A0001FF7F
:02057B0001FF7E
:02057C00004934
:02057D0001FF7C
:02057E0000007B
:02057F0001FF7A
:0205800001FF79
:0205810001FF78
:0205820001FF77
:0205830001FF76
:0205840001FF75
:0205850001FF74
:0205860001FF73
:0205870001FF72
:0205880001FF71
:0205890001FF70
:02058A0001FF6F
:02058B0001FF6E
:02058C0001FF6D
:02058D0001FF6C
:02058E0001FF6B
:02058F0001FF6A
:0205900001FF69
:0205910001FF68
:0205920001FF67
:0205930001FF66
:0205940001FF65
:0205950001FF64
:0205960001FF63
:0205970001FF62
:0205980001FF61
:0205990001FF60
:02059A0001FF5F
:02059B0001FF5E
:02059C0001FF5D
:02059D0001FF5C
:02059E0001FF5B
:02059F0001FF5A
:0205A00001FF59
:0205A10001FF58
:0205A20001FF57
:0205A30001FF56
:0205A40001FF55
:0205A50001FF54
:0205A60001FF53
:0205A70001FF52
:0205A800004908
:0205A90001B699
:0205AA00004906
:0205AB0001FF4E
:0205AC0001FF4D
:0205AD0001FF4C
:0205AE0001FF4B
:0205AF0001FF4A
:0205B00001FF49
:0205B10001FF48
:0205B20001FF47
:0205B30001FF46
:0205B40001FF45
:0205B50001FF44
:0205B60001FF43
:0205B70001FF42
:0205B80001FF41
:0205B90001FF40
:0205BA0001FF3F
:0205BB0001FF3E
:0205BC0001FF3D
:0205BD0001FF3C
:0205BE0001FF3B
:0205BF0001FF3A
:0205C00001FF39
:0205C10001FF38
:0205C20001FF37
:0205C30001FF36
:0205C40001FF35
:0205C50001FF34
:0205C60001FF33
:0205C70001FF32
:0205C80001FF31
:0205C90001FF30
:0205CA0001FF2F
:0205CB0001FF2E
:0205CC0001FF2D
:0205CD0001FF2C
:0205CE0001FF2B
:0205CF0001FF2A
:0205D00001FF29
:0205D10001FF28
:0205D20001FF27
:0205D30001FF26
:0205D400009293
:0205D5000124FF
:0205D60000D350
:0205D70001FF22
:0205D80001FF21
:0205D90001FF20
:0205DA0001FF1F
:0205DB0001FF1E
:0205DC0001FF1D
:0205DD0001FF1C
:0205DE0001FF1B
:0205DF0001FF1A
:0205E00001FF19
:0205E10001FF18
:0205E20001FF17
:0205E30001FF16
:0205E40001FF15
:0205E50001FF14
:0205E60001FF13
:0205E70001FF12
:0205E80001FF11
:0205E90001FF10
:0205EA0001FF0F
:0205EB0001FF0E
:0205EC0001FF0D
:0205ED0001FF0C
:0205EE0001FF0B
:0205EF0001FF0A
:0205F00001FF09
:0205F10001FF08
:0205F20001FF07
:0205F30001FF06
:0205F40001FF05
:0205F50001FF04
:0205F60001FF03
:0205F70001FF02
:0205F80001FF01
:0205F90001FF00
:0205FA0001FFFF
:0205FB0001FFFE
:0205FC0001FFFD
:0205FD0001FFFC
:0205FE0001FFFB
:0205FF0001B643
:02060000011CDB
:02060100009265
:020602000124D1
:0206030001FFF5
:0206040001FFF4
:0206050001FFF3
:0206060001FFF2
:0206070001FFF1
:0206080001FFF0
:0206090001FFEF
:02060A0001FFEE
:02060B0001FFED
:02060C0001FFEC
:02060D0001FFEB
:02060E0001FFEA
:02060F0001FFE9
:0206100001FFE8
:0206110001FFE7
:0206120001FFE6
:0206130001FFE5
:0206140001FFE4
:0206150001FFE3
:0206160001FFE2
:0206170001FFE1
:0206180001FFE0
:0206190001FFDF
:02061A0001FFDE
:02061B0001FFDD
:02061C0001FFDC
:02061D0001FFDB
:02061E0001FFDA
:02061F0001FFD9
:0206200001FFD8
:0206210001FFD7
:0206220001FFD6
:0206230001FFD5
:0206240001FFD4
:0206250001FFD3
:0206260001FFD2
:0206270001FFD1
:0206280001FFD0
:0206290001FFCF
:02062A0001FFCE
:02062B000124A8
:02062C00016D5E
:02062D0000418A
:02062E0001B613
:02062F0001FFC9
:0206300001FFC8
:0206310001FFC7
:0206320001FFC6
:0206330001FFC5
:0206340001FFC4
:0206350001FFC3
:0206360001FFC2
:0206370001FFC1
:0206380001FFC0
:0206390001FFBF
:02063A0001FFBE
:02063B0001FFBD
:02063C0001FFBC
:02063D0001FFBB
:02063E0001FFBA
:02063F0001FFB9
:0206400001FFB8
:0206410001FFB7
:0206420001FFB6
:0206430001FFB5
:0206440001FFB4
:0206450001FFB3
:0206460001FFB2
:0206470001FFB1
:0206480001FFB0
:0206490001FFAF
:02064A0001FFAE
:02064B0001FFAD
:02064C0001FFAC
:02064D0001FFAB
:02064E0001FFAA
:02064F0001FFA9
:0206500001FFA8
:0206510001FFA7
:0206520001FFA6
:0206530001FFA5
:0206540001FFA4
:0206550001FFA3
:0206560001FFA2
:0206570000920F
:0206580001B6E9
:0206590000009F
:02065A0001FF9E
:02065B0001FF9D
:02065C0001FF9C
:02065D0001FF9B
:02065E0001FF9A
:02065F0001FF99
:0206600001FF98
:0206610001FF97
:0206620001FF96
:0206630001FF95
:0206640001FF94
:0206650001FF93
:0206660001FF92
:0206670001FF91
:0206680001FF90
:0206690001FF8F
:02066A0001FF8E
:02066B0001FF8D
:02066C0001FF8C
:02066D0001FF8B
:02066E0001FF8A
:02066F0001FF89
:0206700001FF88
:0206710001FF87
:0206720001FF86
:0206730001FF85
:0206740001FF84
:0206750001FF83
:0206760001FF82
:0206770001FF81
:0206780001FF80
:0206790001FF7F
:02067A0001FF7E
:02067B0001FF7D
:02067C0001FF7C
:02067D0001FF7B
:02067E0001FF7A
:02067F0001FF79
:0206800001FF78
:0206810001FF77
:0206820001FF76
:0206830000492C
:0206840001FF74
:02068500004132
:0206860001FF72
:0206870001FF71
:0206880001FF70
:0206890001FF6F
:02068A0001FF6E
:02068B0001FF6D
:02068C0001FF6C
:02068D0001FF6B
:02068E0001FF6A
:02068F0001FF69
:0206900001FF68
:0206910001FF67
:0206920001FF66
:0206930001FF65
:0206940001FF64
:0206950001FF63
:0206960001FF62
:0206970001FF61
:0206980001FF60
:0206990001FF5F
:02069A0001FF5E
:02069B0001FF5D
:02069C0001FF5C
:02069D0001FF5B
:02069E0001FF5A
:02069F0001FF59
:0206A00001FF58
:0206A10001FF57
:0206A20001FF56
:0206A30001FF55
:0206A40001FF54
:0206A50001FF53
:0206A60001FF52
:0206A70001FF51
:0206A80001FF50
:0206A90001FF4F
:0206AA0001FF4E
:0206AB0001FF4D
:0206AC0001FF4C
:0206AD0001FF4B
:0206AE0001FF4A
:0206AF00004900
:0206B00001B691
:0206B10001B690
:0206B2000049FD
:0206B30001FF45
:0206B40001FF44
:0206B50001FF43
:0206B60001FF42
:0206B700016DD3
:0206B80001FF40
:0206B90001FF3F
:0206BA0001FF3E
:0206BB0001FF3D
:0206BC0001FF3C
:0206BD0001FF3B
:0206BE0001FF3A
:0206BF0001FF39
:0206C00001FF38
:0206C10001FF37
:0206C20001FF36
:0206C30001FF35
:0206C40001FF34
:0206C50001FF33
:0206C60001FF32
:0206C70001FF31
:0206C80001FF30
:0206C90001FF2F
:0206CA0001FF2E
:0206CB0001FF2D
:0206CC0001FF2C
:0206CD0001FF2B
:0206CE0001FF2A
:0206CF0001FF29
:0206D00001FF28
:0206D10001FF27
:0206D20001FF26
:0206D30001FF25
:0206D40001FF24
:0206D50001FF23
:0206D60001FF22
:0206D70001FF21
:0206D80001FF20
:0206D90001FF1F
:0206DA0001FF1E
:0206DB0001FF1D
:0206DC0000928A
:0206DD0001B664
:0206DE00009288
:0206DF0001FF19
:0206E00001FF18
:0206E1000124F2
:0206E2000124F1
:0206E3000124F0
:0206E40001FF14
:0206E50001FF13
:0206E60001FF12
:0206E70001FF11
:0206E80001FF10
:0206E90001FF0F
:0206EA0001FF0E
:0206EB0001FF0D
:0206EC0001FF0C
:0206ED0001FF0B
:0206EE0001FF0A
:0206EF0001FF09
:0206F00001FF08
:0206F10001FF07
:0206F20001FF06
:0206F30001FF05
:0206F40001FF04
:0206F50001FF03
:0206F60001FF02
:0206F70001FF01
:0206F80001FF00
:0206F90001FFFF
:0206FA0001FFFE
:0206FB0001FFFD
:0206FC0001FFFC
:0206FD0001FFFB
:0206FE0001FFFA
:0206FF0001FFF9
:0207000001FFF7
:0207010001FFF6
:0207020001FFF5
:0207030001FFF4
:0207040001FFF3
:0207050001FFF2
:0207060001FFF1
:0207070001FFF0
:0207080000925D
:020709000124C9
:02070A0000DB12
:02070B0001FFEC
:02070C00016D7D
:02070D000124C5
:02070E000124C4
:02070F000124C3
:0207100001B630
:0207110001FFE6
:0207120001FFE5
:0207130001FFE4
:0207140001FFE3
:0207150001FFE2
:0207160001FFE1
:0207170001FFE0
:0207180001FFDF
:0207190001FFDE
:02071A0001FFDD
:02071B0001FFDC
:02071C0001FFDB
:02071D0001FFDA
:02071E0001FFD9
:02071F0001FFD8
:0207200001FFD7
:0207210001FFD6
:0207220001FFD5
:0207230001FFD4
:0207240001FFD3
:0207250001FFD2
:0207260001FFD1
:0207270001FFD0
:0207280001FFCF
:0207290001FFCE
:02072A0001FFCD
:02072B0001FFCC
:02072C0001FFCB
:02072D0001FFCA
:02072E0001FFC9
:02072F0001FFC8
:0207300001FFC7
:0207310001FFC6
:0207320001FFC5
:0207330001FFC4
:0207340000DBE8
:02073500009230
:02073600016D53
:0207370001FFC0
:0207380001FFBF
:0207390001FFBE
:02073A0001B606
:02073B00016D4E
:02073C0001FFBB
:02073D0001FFBA
:02073E0001FFB9
:02073F0001FFB8
:0207400001FFB7
:0207410001FFB6
:0207420001FFB5
:0207430001FFB4
:0207440001FFB3
:0207450001FFB2
:0207460001FFB1
:0207470001FFB0
:0207480001FFAF
:0207490001FFAE
:02074A0001FFAD
:02074B0001FFAC
:02074C0001FFAB
:02074D0001FFAA
:02074E0001FFA9
:02074F0001FFA8
:0207500001FFA7
:0207510001FFA6
:0207520001FFA5
:0207530001FFA4
:0207540001FFA3
:0207550001FFA2
:0207560001FFA1
:0207570001FFA0
:0207580001FF9F
:0207590001FF9E
:02075A0001FF9D
:02075B0001FF9C
:02075C0001FF9B
:02075D0001FF9A
:02075E0001FF99
:02075F00016D2A
:02076000016D29
:0207610000494D
:0207620001FF95
:0207630001FF94
:0207640001246E
:0207650001246D
:0207660001246C
:0207670001246B
:0207680001FF8F
:0207690001FF8E
:02076A0001FF8D
:02076B0001FF8C
:02076C0001FF8B
:02076D0001FF8A
:02076E0001FF89
:02076F0001FF88
:0207700001FF87
:0207710001FF86
:0207720001FF85
:0207730001FF84
:0207740001FF83
:0207750001FF82
:0207760001FF81
:0207770001FF80
:0207780001FF7F
:0207790001FF7E
:02077A0001FF7D
:02077B0001FF7C
:02077C0001FF7B
:02077D0001FF7A
:02077E0001FF79
:02077F0001FF78
:0207800001FF77
:0207810001FF76
:0207820001FF75
:0207830001FF74
:0207840001FF73
:0207850001FF72
:0207860001FF71
:0207870001FF70
:0207880001FF6F
:0207890001FF6E
:02078A0001FF6D
:02078B0000DB91
:02078C0001B6B4
:02078D0000006A
:02078E0001FF69
:02078F0001FF68
:0207900001FF67
:02079100012441
:02079200012440
:0207930001B6AD
:0207940001FF63
:0207950001FF62
:0207960001FF61
:0207970001FF60
:0207980001FF5F
:0207990001FF5E
:02079A0001FF5D
:02079B0001FF5C
:02079C0001FF5B
:02079D0001FF5A
:02079E0001FF59
:02079F0001FF58
:0207A00001FF57
:0207A10001FF56
:0207A20001FF55
:0207A30001FF54
:0207A40001FF53
:0207A50001FF52
:0207A60001FF51
:0207A70001FF50
:0207A80001FF4F
:0207A90001FF4E
:0207AA0001FF4D
:0207AB0001FF4C
:0207AC0001FF4B
:0207AD0001FF4A
:0207AE0001FF49
:0207AF0001FF48
:0207B00001FF47
:0207B10001FF46
:0207B20001FF45
:0207B30001FF44
:0207B40001FF43
:0207B50001FF42
:0207B60001FF41
:0207B7000092AE
:0207B80001FF3F
:0207B9000049F5
:0207BA0001FF3D
:0207BB0001B685
:0207BC00012416
:0207BD00012415
:0207BE00012414
:0207BF00016DCA
:0207C00001FF37
:0207C10001FF36
:0207C20001FF35
:0207C30001FF34
:0207C40001FF33
:0207C50001FF32
:0207C60001FF31
:0207C70001FF30
:0207C80001FF2F
:0207C90001FF2E
:0207CA0001FF2D
:0207CB0001FF2C
:0207CC0001FF2B
:0207CD0001FF2A
:0207CE0001FF29
:0207CF0001FF28
:0207D00001FF27
:0207D10001FF26
:0207D20001FF25
:0207D30001FF24
:0207D40001FF23
:0207D50001FF22
:0207D60001FF21
:0207D70001FF20
:0207D80001FF1F
:0207D90001FF1E
:0207DA0001FF1D
:0207DB0001FF1C
:0207DC0001FF1B
:0207DD0001FF1A
:0207DE0001FF19
:0207DF0001FF18
:0207E00001FF17
:0207E10001FF16
:0207E20001FF15
:0207E300009282
:0207E40001B65C
:0207E500009280
:0207E60001FF11
:0207E70001FF10
:0207E8000124EA
:0207E9000124E9
:0207EA000124E8
:0207EB0001FF0C
:0207EC0001FF0B
:0207ED0001FF0A
:0207EE0001FF09
:0207EF0001FF08
:0207F00001FF07
:0207F10001FF06
:0207F20001FF05
:0207F30001FF04
:0207F40001FF03
:0207F50001FF02
:0207F60001FF01
:0207F70001FF00
:0207F80001FFFF
:0207F90001FFFE
:0207FA0001FFFD
:0207FB0001FFFC
:0207FC0001FFFB
:0207FD0001FFFA
:0207FE0001FFF9
:0207FF0001FFF8
:0208000001FFF6
:0208010001FFF5
:0208020001FFF4
:0208030001FFF3
:0208040001FFF2
:0208050001FFF1
:0208060001FFF0
:0208070001FFEF
:0208080001FFEE
:0208090001FFED
:02080A0001FFEC
:02080B0001FFEB
:02080C0001FFEA
:02080D0001FFE9
:02080E0001FFE8
:02080F00009255
:020810000124C1
:020811000124C0
:0208120001FFE4
:0208130001FFE3
:020814000124BD
:020815000124BC
:02081600016D72
:0208170001FFDF
:0208180001FFDE
:0208190001FFDD
:02081A0001FFDC
:02081B0001FFDB
:02081C0001FFDA
:02081D0001FFD9
:02081E0001FFD8
:02081F0001FFD7
:0208200001FFD6
:0208210001FFD5
:0208220001FFD4
:0208230001FFD3
:0208240001FFD2
:0208250001FFD1
:0208260001FFD0
:0208270001FFCF
:0208280001FFCE
:0208290001FFCD
:02082A0001FFCC
:02082B0001FFCB
:02082C0001FFCA
:02082D0001FFC9
:02082E0001FFC8
:02082F0001FFC7
:0208300001FFC6
:0208310001FFC5
:0208320001FFC4
:0208330001FFC3
:0208340001FFC2
:0208350001FFC1
:0208360001FFC0
:0208370001FFBF
:0208380001FFBE
:0208390001FFBD
:02083A0001FFBC
:02083B0000DBE0
:02083C00009228
:02083D0001B602
:02083E0001B601
:02083F00016D49
:0208400001FFB6
:02084100012490
:0208420001248F
:0208430001FFB3
:0208440001FFB2
:0208450001FFB1
:0208460001FFB0
:0208470001FFAF
:0208480001FFAE
:0208490001FFAD
:02084A0001FFAC
:02084B0001FFAB
:02084C0001FFAA
:02084D0001FFA9
:02084E0001FFA8
:02084F0001FFA7
:0208500001FFA6
:0208510001FFA5
:0208520001FFA4
:0208530001FFA3
:0208540001FFA2
:0208550001FFA1
:0208560001FFA0
:0208570001FF9F
:0208580001FF9E
:0208590001FF9D
:02085A0001FF9C
:02085B0001FF9B
:02085C0001FF9A
:02085D0001FF99
:02085E0001FF98
:02085F0001FF97
:0208600001FF96
:0208610001FF95
:0208620001FF94
:0208630001FF93
:0208640001FF92
:0208650001FF91
:02086600016D22
:02086700016D21
:02086800004945
:0208690001FF8D
:02086A0001FF8C
:02086B0001FF8B
:02086C00012465
:02086D00012464
:02086E0001B6D1
:02086F0001FF87
:0208700001FF86
:0208710001FF85
:0208720001FF84
:0208730001FF83
:0208740001FF82
:0208750001FF81
:0208760001FF80
:0208770001FF7F
:0208780001FF7E
:0208790001FF7D
:02087A0001FF7C
:02087B0001FF7B
:02087C0001FF7A
:02087D0001FF79
:02087E0001FF78
:02087F0001FF77
:0208800001FF76
:0208810001FF75
:0208820001FF74
:0208830001FF73
:0208840001FF72
:0208850001FF71
:0208860001FF70
:0208870001FF6F
:0208880001FF6E
:0208890001FF6D
:02088A0001FF6C
:02088B0001FF6B
:02088C0001FF6A
:02088D0001FF69
:02088E0001FF68
:02088F0001FF67
:0208900001FF66
:0208910001FF65
:0208920000DB89
:0208930001B6AC
:02089400000062
:0208950001FF61
:0208960001FF60
:0208970001243A
:02089800012439
:02089900016DEF
:02089A0001FF5C
:02089B0001FF5B
:02089C0001FF5A
:02089D0001FF59
:02089E0001FF58
:02089F0001FF57
:0208A00001FF56
:0208A10001FF55
:0208A20001FF54
:0208A30001FF53
:0208A40001FF52
:0208A50001FF51
:0208A60001FF50
:0208A70001FF4F
:0208A80001FF4E
:0208A90001FF4D
:0208AA0001FF4C
:0208AB0001FF4B
:0208AC0001FF4A
:0208AD0001FF49
:0208AE0001FF48
:0208AF0001FF47
:0208B00001FF46
:0208B10001FF45
:0208B20001FF44
:0208B30001FF43
:0208B40001FF42
:0208B50001FF41
:0208B60001FF40
:0208B70001FF3F
:0208B80001FF3E
:0208B90001FF3D
:0208BA0001FF3C
:0208BB0001FF3B
:0208BC0001FF3A
:0208BD0001FF39
:0208BE000092A6
:0208BF0001FF37
:0208C0000049ED
:0208C10001B67E
:0208C20001240F
:0208C300016DC5
:0208C40001B67B
:0208C50001240C
:0208C600016DC2
:0208C70001FF2F
:0208C80001FF2E
:0208C90001FF2D
:0208CA0001FF2C
:0208CB0001FF2B
:0208CC0001FF2A
:0208CD0001FF29
:0208CE0001FF28
:0208CF0001FF27
:0208D00001FF26
:0208D10001FF25
:0208D20001FF24
:0208D30001FF23
:0208D40001FF22
:0208D50001FF21
:0208D60001FF20
:0208D70001FF1F
:0208D80001FF1E
:0208D90001FF1D
:0208DA0001FF1C
:0208DB0001FF1B
:0208DC0001FF1A
:0208DD0001FF19
:0208DE0001FF18
:0208DF0001FF17
:0208E00001FF16
:0208E10001FF15
:0208E20001FF14
:0208E30001FF13
:0208E40001FF12
:0208E50001FF11
:0208E60001FF10
:0208E70001FF0F
:0208E80001FF0E
:0208E90001FF0D
:0208EA0000927A
:0208EB00016D9D
:0208EC0001B653
:0208ED000049C0
:0208EE0001FF08
:0208EF0001FF07
:0208F00001FF06
:0208F10001FF05
:0208F2000049BB
:0208F30001FF03
:0208F40001FF02
:0208F50001FF01
:0208F60001FF00
:0208F70001FFFF
:0208F80001FFFE
:0208F90001FFFD
:0208FA0001FFFC
:0208FB0001FFFB
:0208FC0001FFFA
:0208FD0001FFF9
:0208FE0001FFF8
:0208FF0001FFF7
:0209000001FFF5
:0209010001FFF4
:0209020001FFF3
:0209030001FFF2
:0209040001FFF1
:0209050001FFF0
:0209060001FFEF
:0209070001FFEE
:0209080001FFED
:0209090001FFEC
:02090A0001FFEB
:02090B0001FFEA
:02090C0001FFE9
:02090D0001FFE8
:02090E0001FFE7
:02090F0001FFE6
:0209100001FFE5
:0209110001FFE4
:0209120001FFE3
:0209130001FFE2
:0209140001FFE1
:0209150001FFE0
:0209160001FFDF
:0209170000924C
:0209180001B626
:0209190000924A
:02091A0001FFDB
:02091B0000DBFF
:02091C000000D9
:02091D000000D8
:02091E000000D7
:02091F0000DBFB
:0209200001FFD5
:0209210001FFD4
:0209220001FFD3
:0209230001FFD2
:0209240001FFD1
:0209250001FFD0
:0209260001FFCF
:0209270001FFCE
:0209280001FFCD
:0209290001FFCC
:02092A0001FFCB
:02092B0001FFCA
:02092C0001FFC9
:02092D0001FFC8
:02092E0001FFC7
:02092F0001FFC6
:0209300001FFC5
:0209310001FFC4
:0209320001FFC3
:0209330001FFC2
:0209340001FFC1
:0209350001FFC0
:0209360001FFBF
:0209370001FFBE
:0209380001FFBD
:0209390001FFBC
:02093A0001FFBB
:02093B0001FFBA
:02093C0001FFB9
:02093D0001FFB8
:02093E0001FFB7
:02093F0001FFB6
:0209400001FFB5
:0209410001FFB4
:0209420001FFB3
:02094300009220
:0209440001248C
:0209450000DBD5
:0209460001FFAF
:020947000000AE
:020948000000AD
:020949000000AC
:02094A000000AB
:02094B00012485
:02094C0001FFA9
:02094D0001FFA8
:02094E0001FFA7
:02094F0001FFA6
:0209500001FFA5
:0209510001FFA4
:0209520001FFA3
:0209530001FFA2
:0209540001FFA1
:0209550001FFA0
:0209560001FF9F
:0209570001FF9E
:0209580001FF9D
:0209590001FF9C
:02095A0001FF9B
:02095B0001FF9A
:02095C0001FF99
:02095D0001FF98
:02095E0001FF97
:02095F0001FF96
:0209600001FF95
:0209610001FF94
:0209620001FF93
:0209630001FF92
:0209640001FF91
:0209650001FF90
:0209660001FF8F
:0209670001FF8E
:0209680001FF8D
:0209690001FF8C
:02096A0001FF8B
:02096B0001FF8A
:02096C0001FF89
:02096D0001FF88
:02096E0001FF87
:02096F0000DBAB
:020970000092F3
:02097100016D16
:0209720001FF83
:0209730001FF82
:0209740001FF81
:02097500000080
:02097600004936
:0209770001FF7E
:0209780001FF7D
:0209790001FF7C
:02097A0001FF7B
:02097B0001FF7A
:02097C0001FF79
:02097D0001FF78
:02097E0001FF77
:02097F0001FF76
:0209800001FF75
:0209810001FF74
:0209820001FF73
:0209830001FF72
:0209840001FF71
:0209850001FF70
:0209860001FF6F
:0209870001FF6E
:0209880001FF6D
:0209890001FF6C
:02098A0001FF6B
:02098B0001FF6A
:02098C0001FF69
:02098D0001FF68
:02098E0001FF67
:02098F0001FF66
:0209900001FF65
:0209910001FF64
:0209920001FF63
:0209930001FF62
:0209940001FF61
:0209950001FF60
:0209960001FF5F
:0209970001FF5E
:0209980001FF5D
:0209990001FF5C
:02099A00016DED
:02099B00016DEC
:02099C00004910
:02099D0001FF58
:02099E0001FF57
:02099F00000056
:0209A000000055
:0209A100000054
:0209A200000053
:0209A30001FF52
:0209A40001FF51
:0209A50001FF50
:0209A60001FF4F
:0209A70001FF4E
:0209A80001FF4D
:0209A90001FF4C
:0209AA0001FF4B
:0209AB0001FF4A
:0209AC0001FF49
:0209AD0001FF48
:0209AE0001FF47
:0209AF0001FF46
:0209B00001FF45
:0209B10001FF44
:0209B20001FF43
:0209B30001FF42
:0209B40001FF41
:0209B50001FF40
:0209B60001FF3F
:0209B70001FF3E
:0209B80001FF3D
:0209B90001FF3C
:0209BA0001FF3B
:0209BB0001FF3A
:0209BC0001FF39
:0209BD0001FF38
:0209BE0001FF37
:0209BF0001FF36
:0209C00001FF35
:0209C10001FF34
:0209C20001FF33
:0209C30001FF32
:0209C40001FF31
:0209C50001FF30
:0209C60000DB54
:0209C70001B677
:0209C80000002D
:0209C90001FF2C
:0209CA0001FF2B
:0209CB00009298
:0209CC00000029
:0209CD00000028
:0209CE00016DB9
:0209CF0001FF26
:0209D00001FF25
:0209D10001FF24
:0209D20001FF23
:0209D30001FF22
:0209D40001FF21
:0209D50001FF20
:0209D60001FF1F
:0209D70001FF1E
:0209D80001FF1D
:0209D90001FF1C
:0209DA0001FF1B
:0209DB0001FF1A
:0209DC0001FF19
:0209DD0001FF18
:0209DE0001FF17
:0209DF0001FF16
:0209E00001FF15
:0209E10001FF14
:0209E20001FF13
:0209E30001FF12
:0209E40001FF11
:0209E50001FF10
:0209E60001FF0F
:0209E70001FF0E
:0209E80001FF0D
:0209E90001FF0C
:0209EA0001FF0B
:0209EB0001FF0A
:0209EC0001FF09
:0209ED0001FF08
:0209EE0001FF07
:0209EF0001FF06
:0209F00001FF05
:0209F10001FF04
:0209F200009271
:0209F30001FF02
:0209F4000049B8
:0209F50001FF00
:0209F6000124DA
:0209F7000000FE
:0209F8000000FD
:0209F9000000FC
:0209FA000000FB
:0209FB0001FFFA
:0209FC0001FFF9
:0209FD0001FFF8
:0209FE0001FFF7
:0209FF0001FFF6
:020A000001FFF4
:020A010001FFF3
:020A020001FFF2
:020A030001FFF1
:020A040001FFF0
:020A050001FFEF
:020A060001FFEE
:020A070001FFED
:020A080001FFEC
:020A090001FFEB
:020A0A0001FFEA
:020A0B0001FFE9
:020A0C0001FFE8
:020A0D0001FFE7
:020A0E0001FFE6
:020A0F0001FFE5
:020A100001FFE4
:020A110001FFE3
:020A120001FFE2
:020A130001FFE1
:020A140001FFE0
:020A150001FFDF
:020A160001FFDE
:020A170001FFDD
:020A180001FFDC
:020A190001FFDB
:020A1A0001FFDA
:020A1B0001FFD9
:020A1C0001FFD8
:020A1D0001FFD7
:020A1E00009244
:020A1F0001B61E
:020A2000009242
:020A210001FFD3
:020A220000DBF7
:020A23000000D1
:020A24000000D0
:020A25000000CF
:020A260000DBF3
:020A270001FFCD
:020A280001FFCC
:020A290001FFCB
:020A2A0001FFCA
:020A2B0001FFC9
:020A2C0001FFC8
:020A2D0001FFC7
:020A2E0001FFC6
:020A2F0001FFC5
:020A300001FFC4
:020A310001FFC3
:020A320001FFC2
:020A330001FFC1
:020A340001FFC0
:020A350001FFBF
:020A360001FFBE
:020A370001FFBD
:020A380001FFBC
:020A390001FFBB
:020A3A0001FFBA
:020A3B0001FFB9
:020A3C0001FFB8
:020A3D0001FFB7
:020A3E0001FFB6
:020A3F0001FFB5
:020A400001FFB4
:020A410001FFB3
:020A420001FFB2
:020A430001FFB1
:020A440001FFB0
:020A450001FFAF
:020A460001FFAE
:020A470001FFAD
:020A480001FFAC
:020A490001FFAB
:020A4A00009218
:020A4B00012484
:020A4C0000DBCD
:020A4D0001FFA7
:020A4E00009214
:020A4F000000A5
:020A50000000A4
:020A51000000A3
:020A5200016D34
:020A530001FFA1
:020A540001FFA0
:020A550001FF9F
:020A560001FF9E
:020A570001FF9D
:020A580001FF9C
:020A590001FF9B
:020A5A0001FF9A
:020A5B0001FF99
:020A5C0001FF98
:020A5D0001FF97
:020A5E0001FF96
:020A5F0001FF95
:020A600001FF94
:020A610001FF93
:020A620001FF92
:020A630001FF91
:020A640001FF90
:020A650001FF8F
:020A660001FF8E
:020A670001FF8D
:020A680001FF8C
:020A690001FF8B
:020A6A0001FF8A
:020A6B0001FF89
:020A6C0001FF88
:020A6D0001FF87
:020A6E0001FF86
:020A6F0001FF85
:020A700001FF84
:020A710001FF83
:020A720001FF82
:020A730001FF81
:020A740001FF80
:020A750001FF7F
:020A760000DBA3
:020A77000092EB
:020A780001B6C5
:020A790000DBA0
:020A7A00004931
:020A7B0000DB9E
:020A7C00000078
:020A7D00000077
:020A7E00000076
:020A7F0001FF75
:020A800001FF74
:020A810001FF73
:020A820001FF72
:020A830001FF71
:020A840001FF70
:020A850001FF6F
:020A860001FF6E
:020A870001FF6D
:020A880001FF6C
:020A890001FF6B
:020A8A0001FF6A
:020A8B0001FF69
:020A8C0001FF68
:020A8D0001FF67
:020A8E0001FF66
:020A8F0001FF65
:020A900001FF64
:020A910001FF63
:020A920001FF62
:020A930001FF61
:020A940001FF60
:020A950001FF5F
:020A960001FF5E
:020A970001FF5D
:020A980001FF5C
:020A990001FF5B
:020A9A0001FF5A
:020A9B0001FF59
:020A9C0001FF58
:020A9D0001FF57
:020A9E0001FF56
:020A9F0001FF55
:020AA00001FF54
:020AA100016DE5
:020AA200016DE4
:020AA300004908
:020AA40001FF50
:020AA50001FF4F
:020AA60001FF4E
:020AA70000004D
:020AA80000004C
:020AA900012426
:020AAA0001FF4A
:020AAB0001FF49
:020AAC0001FF48
:020AAD0001FF47
:020AAE0001FF46
:020AAF0001FF45
:020AB00001FF44
:020AB10001FF43
:020AB20001FF42
:020AB30001FF41
:020AB40001FF40
:020AB50001FF3F
:020AB60001FF3E
:020AB70001FF3D
:020AB80001FF3C
:020AB90001FF3B
:020ABA0001FF3A
:020ABB0001FF39
:020ABC0001FF38
:020ABD0001FF37
:020ABE0001FF36
:020ABF0001FF35
:020AC00001FF34
:020AC10001FF33
:020AC20001FF32
:020AC30001FF31
:020AC40001FF30
:020AC50001FF2F
:020AC60001FF2E
:020AC70001FF2D
:020AC80001FF2C
:020AC90001FF2B
:020ACA0001FF2A
:020ACB0001FF29
:020ACC0001FF28
:020ACD0000DB4C
:020ACE0001B66F
:020ACF00000025
:020AD00001FF24
:020AD1000049DA
:020AD200000022
:020AD300000021
:020AD400000020
:020AD50001B668
:020AD60001FF1E
:020AD70001FF1D
:020AD80001FF1C
:020AD90001FF1B
:020ADA0001FF1A
:020ADB0001FF19
:020ADC0001FF18
:020ADD0001FF17
:020ADE0001FF16
:020ADF0001FF15
:020AE00001FF14
:020AE10001FF13
:020AE20001FF12
:020AE30001FF11
:020AE40001FF10
:020AE50001FF0F
:020AE60001FF0E
:020AE70001FF0D
:020AE80001FF0C
:020AE90001FF0B
:020AEA0001FF0A
:020AEB0001FF09
:020AEC0001FF08
:020AED0001FF07
:020AEE0001FF06
:020AEF0001FF05
:020AF00001FF04
:020AF10001FF03
:020AF20001FF02
:020AF30001FF01
:020AF40001FF00
:020AF50001FFFF
:020AF60001FFFE
:020AF70001FFFD
:020AF80001FFFC
:020AF900009269
:020AFA0001FFFA
:020AFB000049B0
:020AFC0000DB1D
:020AFD000000F7
:020AFE00009264
:020AFF0000DB1A
:020B00000000F3
:020B01000049A9
:020B020001FFF1
:020B030001FFF0
:020B040001FFEF
:020B050001FFEE
:020B060001FFED
:020B070001FFEC
:020B080001FFEB
:020B090001FFEA
:020B0A0001FFE9
:020B0B0001FFE8
:020B0C0001FFE7
:020B0D0001FFE6
:020B0E0001FFE5
:020B0F0001FFE4
:020B100001FFE3
:020B110001FFE2
:020B120001FFE1
:020B130001FFE0
:020B140001FFDF
:020B150001FFDE
:020B160001FFDD
:020B170001FFDC
:020B180001FFDB
:020B190001FFDA
:020B1A0001FFD9
:020B1B0001FFD8
:020B1C0001FFD7
:020B1D0001FFD6
:020B1E0001FFD5
:020B1F0001FFD4
:020B200001FFD3
:020B210001FFD2
:020B220001FFD1
:020B230001FFD0
:020B240001FFCF
:020B250000923C
:020B2600016D5F
:020B270001B615
:020B2800004982
:020B290001FFCA
:020B2A0001FFC9
:020B2B0001FFC8
:020B2C00009235
:020B2D000000C6
:020B2E0001FFC5
:020B2F0001FFC4
:020B300001FFC3
:020B310001FFC2
:020B320001FFC1
:020B330001FFC0
:020B340001FFBF
:020B350001FFBE
:020B360001FFBD
:020B370001FFBC
:020B380001FFBB
:020B390001FFBA
:020B3A0001FFB9
:020B3B0001FFB8
:020B3C0001FFB7
:020B3D0001FFB6
:020B3E0001FFB5
:020B3F0001FFB4
:020B400001FFB3
:020B410001FFB2
:020B420001FFB1
:020B430001FFB0
:020B440001FFAF
:020B450001FFAE
:020B460001FFAD
:020B470001FFAC
:020B480001FFAB
:020B490001FFAA
:020B4A0001FFA9
:020B4B0001FFA8
:020B4C0001FFA7
:020B4D0001FFA6
:020B4E0001FFA5
:020B4F0001FFA4
:020B500001FFA3
:020B510001FFA2
:020B520000920F
:020B530001B6E9
:020B540000920D
:020B550001FF9E
:020B5600016D2F
:020B5700016D2E
:020B580001FF9B
:020B590000DBBF
:020B5A00004950
:020B5B0001FF98
:020B5C0001FF97
:020B5D0001FF96
:020B5E0001FF95
:020B5F0001FF94
:020B600001FF93
:020B610001FF92
:020B620001FF91
:020B630001FF90
:020B640001FF8F
:020B650001FF8E
:020B660001FF8D
:020B670001FF8C
:020B680001FF8B
:020B690001FF8A
:020B6A0001FF89
:020B6B0001FF88
:020B6C0001FF87
:020B6D0001FF86
:020B6E0001FF85
:020B6F0001FF84
:020B700001FF83
:020B710001FF82
:020B720001FF81
:020B730001FF80
:020B740001FF7F
:020B750001FF7E
:020B760001FF7D
:020B770001FF7C
:020B780001FF7B
:020B790001FF7A
:020B7A0001FF79
:020B7B0001FF78
:020B7C0001FF77
:020B7D0001FF76
:020B7E000092E3
:020B7F0001244F
:020B800000DB98
:020B810001FF72
:020B8200016D03
:020B830001FF70
:020B84000092DD
:020B850000DB93
:020B860001FF6D
:020B870001FF6C
:020B880001FF6B
:020B890001FF6A
:020B8A0001FF69
:020B8B0001FF68
:020B8C0001FF67
:020B8D0001FF66
:020B8E0001FF65
:020B8F0001FF64
:020B900001FF63
:020B910001FF62
:020B920001FF61
:020B930001FF60
:020B940001FF5F
:020B950001FF5E
:020B960001FF5D
:020B970001FF5C
:020B980001FF5B
:020B990001FF5A
:020B9A0001FF59
:020B9B0001FF58
:020B9C0001FF57
:020B9D0001FF56
:020B9E0001FF55
:020B9F0001FF54
:020BA00001FF53
:020BA10001FF52
:020BA20001FF51
:020BA30001FF50
:020BA40001FF4F
:020BA50001FF4E
:020BA60001FF4D
:020BA70001FF4C
:020BA80001FF4B
:020BA90001FF4A
:020BAA0000DB6E
:020BAB000092B6
:020BAC00016DD9
:020BAD0001FF46
:020BAE0001FF45
:020BAF00000044
:020BB000000043
:020BB1000092B0
:020BB20001FF41
:020BB30001FF40
:020BB40001FF3F
:020BB50001FF3E
:020BB60001FF3D
:020BB70001FF3C
:020BB80001FF3B
:020BB90001FF3A
:020BBA0001FF39
:020BBB0001FF38
:020BBC0001FF37
:020BBD0001FF36
:020BBE0001FF35
:020BBF0001FF34
:020BC00001FF33
:020BC10001FF32
:020BC20001FF31
:020BC30001FF30
:020BC40001FF2F
:020BC50001FF2E
:020BC60001FF2D
:020BC70001FF2C
:020BC80001FF2B
:020BC90001FF2A
:020BCA0001FF29
:020BCB0001FF28
:020BCC0001FF27
:020BCD0001FF26
:020BCE0001FF25
:020BCF0001FF24
:020BD00001FF23
:020BD10001FF22
:020BD20001FF21
:020BD30001FF20
:020BD40001FF1F
:020BD500016DB0
:020BD600016DAF
:020BD7000049D3
:020BD80001FF1B
:020BD90001FF1A
:020BDA00000019
:020BDB0001FF18
:020BDC0001FF17
:020BDD0001FF16
:020BDE0001FF15
:020BDF0001FF14
:020BE00001FF13
:020BE10001FF12
:020BE20001FF11
:020BE30001FF10
:020BE40001FF0F
:020BE50001FF0E
:020BE60001FF0D
:020BE70001FF0C
:020BE80001FF0B
:020BE90001FF0A
:020BEA0001FF09
:020BEB0001FF08
:020BEC0001FF07
:020BED0001FF06
:020BEE0001FF05
:020BEF0001FF04
:020BF00001FF03
:020BF10001FF02
:020BF20001FF01
:020BF30001FF00
:020BF40001FFFF
:020BF50001FFFE
:020BF60001FFFD
:020BF70001FFFC
:020BF80001FFFB
:020BF90001FFFA
:020BFA0001FFF9
:020BFB0001FFF8
:020BFC0001FFF7
:020BFD0001FFF6
:020BFE0001FFF5
:020BFF0001FFF4
:020C000001FFF2
:020C010000DB16
:020C020001B639
:020C03000000EF
:020C040001FFEE
:020C050001B636
:020C06000000EC
:020C070001FFEB
:020C080001FFEA
:020C090001FFE9
:020C0A0001FFE8
:020C0B0001FFE7
:020C0C0001FFE6
:020C0D0001FFE5
:020C0E0001FFE4
:020C0F0001FFE3
:020C100001FFE2
:020C110001FFE1
:020C120001FFE0
:020C130001FFDF
:020C140001FFDE
:020C150001FFDD
:020C160001FFDC
:020C170001FFDB
:020C180001FFDA
:020C190001FFD9
:020C1A0001FFD8
:020C1B0001FFD7
:020C1C0001FFD6
:020C1D0001FFD5
:020C1E0001FFD4
:020C1F0001FFD3
:020C200001FFD2
:020C210001FFD1
:020C220001FFD0
:020C230001FFCF
:020C240001FFCE
:020C250001FFCD
:020C260001FFCC
:020C270001FFCB
:020C280001FFCA
:020C290001FFC9
:020C2A0001FFC8
:020C2B0001FFC7
:020C2C0001FFC6
:020C2D00009233
:020C2E0001FFC4
:020C2F0000497A
:020C300001FFC2
:020C310001B60A
:020C3200016D52
:020C330001FFBF
:020C3400004975
:020C3500012498
:020C360001FFBC
:020C370001FFBB
:020C380001FFBA
:020C390001FFB9
:020C3A0001FFB8
:020C3B0001FFB7
:020C3C0001FFB6
:020C3D0001FFB5
:020C3E0001FFB4
:020C3F0001FFB3
:020C400001FFB2
:020C410001FFB1
:020C420001FFB0
:020C430001FFAF
:020C440001FFAE
:020C450001FFAD
:020C460001FFAC
:020C470001FFAB
:020C480001FFAA
:020C490001FFA9
:020C4A0001FFA8
:020C4B0001FFA7
:020C4C0001FFA6
:020C4D0001FFA5
:020C4E0001FFA4
:020C4F0001FFA3
:020C500001FFA2
:020C510001FFA1
:020C520001FFA0
:020C530001FF9F
:020C540001FF9E
:020C550001FF9D
:020C560001FF9C
:020C570001FF9B
:020C580001FF9A
:020C5900009207
:020C5A0001B6E1
:020C5B00009205
:020C5C0001FF96
:020C5D00009203
:020C5E00009202
:020C5F0001FF93
:020C600000DBB7
:020C61000092FF
:020C620001FF90
:020C630001FF8F
:020C640001FF8E
:020C650001FF8D
:020C660001FF8C
:020C670001FF8B
:020C680001FF8A
:020C690001FF89
:020C6A0001FF88
:020C6B0001FF87
:020C6C0001FF86
:020C6D0001FF85
:020C6E0001FF84
:020C6F0001FF83
:020C700001FF82
:020C710001FF81
:020C720001FF80
:020C730001FF7F
:020C740001FF7E
:020C750001FF7D
:020C760001FF7C
:020C770001FF7B
:020C780001FF7A
:020C790001FF79
:020C7A0001FF78
:020C7B0001FF77
:020C7C0001FF76
:020C7D0001FF75
:020C7E0001FF74
:020C7F0001FF73
:020C800001FF72
:020C810001FF71
:020C820001FF70
:020C830001FF6F
:020C840001FF6E
:020C85000092DB
:020C8600012447
:020C870000DB90
:020C880001FF6A
:020C8900000069
:020C8A00012443
:020C8B0001FF67
:020C8C0000491D
:020C8D00012440
:020C8E0001FF64
:020C8F0001FF63
:020C900001FF62
:020C910001FF61
:020C920001FF60
:020C930001FF5F
:020C940001FF5E
:020C950001FF5D
:020C960001FF5C
:020C970001FF5B
:020C980001FF5A
:020C990001FF59
:020C9A0001FF58
:020C9B0001FF57
:020C9C0001FF56
:020C9D0001FF55
:020C9E0001FF54
:020C9F0001FF53
:020CA00001FF52
:020CA10001FF51
:020CA20001FF50
:020CA30001FF4F
:020CA40001FF4E
:020CA50001FF4D
:020CA60001FF4C
:020CA70001FF4B
:020CA80001FF4A
:020CA90001FF49
:020CAA0001FF48
:020CAB0001FF47
:020CAC0001FF46
:020CAD0001FF45
:020CAE0001FF44
:020CAF0001FF43
:020CB00001FF42
:020CB10000DB66
:020CB2000092AE
:020CB30001B688
:020CB40000DB63
:020CB5000092AB
:020CB6000049F3
:020CB700012416
:020CB80001B683
:020CB900000039
:020CBA0001FF38
:020CBB0001FF37
:020CBC0001FF36
:020CBD0001FF35
:020CBE0001FF34
:020CBF0001FF33
:020CC00001FF32
:020CC10001FF31
:020CC20001FF30
:020CC30001FF2F
:020CC40001FF2E
:020CC50001FF2D
:020CC60001FF2C
:020CC70001FF2B
:020CC80001FF2A
:020CC90001FF29
:020CCA0001FF28
:020CCB0001FF27
:020CCC0001FF26
:020CCD0001FF25
:020CCE0001FF24
:020CCF0001FF23
:020CD00001FF22
:020CD10001FF21
:020CD20001FF20
:020CD30001FF1F
:020CD40001FF1E
:020CD50001FF1D
:020CD60001FF1C
:020CD70001FF1B
:020CD80001FF1A
:020CD90001FF19
:020CDA0001FF18
:020CDB0001FF17
:020CDC00016DA8
:020CDD00016DA7
:020CDE000049CB
:020CDF0001FF13
:020CE00001FF12
:020CE10001FF11
:020CE20001B659
:020CE30000000F
:020CE40001FF0E
:020CE50001FF0D
:020CE60001FF0C
:020CE70001FF0B
:020CE80001FF0A
:020CE90001FF09
:020CEA0001FF08
:020CEB0001FF07
:020CEC0001FF06
:020CED0001FF05
:020CEE0001FF04
:020CEF0001FF03
:020CF00001FF02
:020CF10001FF01
:020CF20001FF00
:020CF30001FFFF
:020CF40001FFFE
:020CF50001FFFD
:020CF60001FFFC
:020CF70001FFFB
:020CF80001FFFA
:020CF90001FFF9
:020CFA0001FFF8
:020CFB0001FFF7
:020CFC0001FFF6
:020CFD0001FFF5
:020CFE0001FFF4
:020CFF0001FFF3
:020D000001FFF1
:020D010001FFF0
:020D020001FFEF
:020D030001FFEE
:020D040001FFED
:020D050001FFEC
:020D060001FFEB
:020D070001FFEA
:020D080000DB0E
:020D090001B631
:020D0A000000E7
:020D0B0001FFE6
:020D0C000000E5
:020D0D00016D76
:020D0E0001FFE3
:020D0F000000E2
:020D1000016D73
:020D110001FFE0
:020D120001FFDF
:020D130001FFDE
:020D140001FFDD
:020D150001FFDC
:020D160001FFDB
:020D170001FFDA
:020D180001FFD9
:020D190001FFD8
:020D1A0001FFD7
:020D1B0001FFD6
:020D1C0001FFD5
:020D1D0001FFD4
:020D1E0001FFD3
:020D1F0001FFD2
:020D200001FFD1
:020D210001FFD0
:020D220001FFCF
:020D230001FFCE
:020D240001FFCD
:020D250001FFCC
:020D260001FFCB
:020D270001FFCA
:020D280001FFC9
:020D290001FFC8
:020D2A0001FFC7
:020D2B0001FFC6
:020D2C0001FFC5
:020D2D0001FFC4
:020D2E0001FFC3
:020D2F0001FFC2
:020D300001FFC1
:020D310001FFC0
:020D320001FFBF
:020D330001FFBE
:020D340000922B
:020D350001FFBC
:020D3600004972
:020D370001FFBA
:020D38000000B9
:020D390001FFB8
:020D3A000000B7
:020D3B0001B6FF
:020D3C0001FFB5
:020D3D0001FFB4
:020D3E0001FFB3
:020D3F0001FFB2
:020D400001FFB1
:020D410001FFB0
:020D420001FFAF
:020D430001FFAE
:020D440001FFAD
:020D450001FFAC
:020D460001FFAB
:020D470001FFAA
:020D480001FFA9
:020D490001FFA8
:020D4A0001FFA7
:020D4B0001FFA6
:020D4C0001FFA5
:020D4D0001FFA4
:020D4E0001FFA3
:020D4F0001FFA2
:020D500001FFA1
:020D510001FFA0
:020D520001FF9F
:020D530001FF9E
:020D540001FF9D
:020D550001FF9C
:020D560001FF9B
:020D570001FF9A
:020D580001FF99
:020D590001FF98
:020D5A0001FF97
:020D5B0001FF96
:020D5C0001FF95
:020D5D0001FF94
:020D5E0001FF93
:020D5F0001FF92
:020D60000092FF
:020D6100016D22
:020D620001B6D8
:020D6300004945
:020D640001FF8D
:020D650001FF8C
:020D660001FF8B
:020D670000008A
:020D680001B6D2
:020D6900000088
:020D6A0001FF87
:020D6B0001FF86
:020D6C0001FF85
:020D6D0001FF84
:020D6E0001FF83
:020D6F0001FF82
:020D700001FF81
:020D710001FF80
:020D720001FF7F
:020D730001FF7E
:020D740001FF7D
:020D750001FF7C
:020D760001FF7B
:020D770001FF7A
:020D780001FF79
:020D790001FF78
:020D7A0001FF77
:020D7B0001FF76
:020D7C0001FF75
:020D7D0001FF74
:020D7E0001FF73
:020D7F0001FF72
:020D800001FF71
:020D810001FF70
:020D820001FF6F
:020D830001FF6E
:020D840001FF6D
:020D850001FF6C
:020D860001FF6B
:020D870001FF6A
:020D880001FF69
:020D890001FF68
:020D8A0001FF67
:020D8B0001FF66
:020D8C0001FF65
:020D8D000092D2
:020D8E0001B6AC
:020D8F000092D0
:020D900001FF61
:020D910001FF60
:020D920001FF5F
:020D9300016DF0
:020D940000005D
:020D9500012437
:020D960001FF5B
:020D970001FF5A
:020D980001FF59
:020D990001FF58
:020D9A0001FF57
:020D9B0001FF56
:020D9C0001FF55
:020D9D0001FF54
:020D9E0001FF53
:020D9F0001FF52
:020DA00001FF51
:020DA10001FF50
:020DA20001FF4F
:020DA30001FF4E
:020DA40001FF4D
:020DA50001FF4C
:020DA60001FF4B
:020DA70001FF4A
:020DA80001FF49
:020DA90001FF48
:020DAA0001FF47
:020DAB0001FF46
:020DAC0001FF45
:020DAD0001FF44
:020DAE0001FF43
:020DAF0001FF42
:020DB00001FF41
:020DB10001FF40
:020DB20001FF3F
:020DB30001FF3E
:020DB40001FF3D
:020DB50001FF3C
:020DB60001FF3B
:020DB70001FF3A
:020DB80001FF39
:020DB9000092A6
:020DBA00012412
:020DBB0000DB5B
:020DBC0001FF35
:020DBD0001FF34
:020DBE000049EA
:020DBF00000032
:020DC00001B67A
:020DC10001FF30
:020DC20001FF2F
:020DC30001FF2E
:020DC40001FF2D
:020DC50001FF2C
:020DC60001FF2B
:020DC70001FF2A
:020DC80001FF29
:020DC90001FF28
:020DCA0001FF27
:020DCB0001FF26
:020DCC0001FF25
:020DCD0001FF24
:020DCE0001FF23
:020DCF0001FF22
:020DD00001FF21
:020DD10001FF20
:020DD20001FF1F
:020DD30001FF1E
:020DD40001FF1D
:020DD50001FF1C
:020DD60001FF1B
:020DD70001FF1A
:020DD80001FF19
:020DD90001FF18
:020DDA0001FF17
:020DDB0001FF16
:020DDC0001FF15
:020DDD0001FF14
:020DDE0001FF13
:020DDF0001FF12
:020DE00001FF11
:020DE10001FF10
:020DE20001FF0F
:020DE30001FF0E
:020DE40001FF0D
:020DE50000DB31
:020DE600009279
:020DE700016D9C
:020DE80001FF09
:020DE900000008
:020DEA0000DB2C
:020DEB00016D98
:020DEC000049BC
:020DED0001FF04
:020DEE0001FF03
:020DEF0001FF02
:020DF00001FF01
:020DF10001FF00
:020DF20001FFFF
:020DF30001FFFE
:020DF40001FFFD
:020DF50001FFFC
:020DF60001FFFB
:020DF70001FFFA
:020DF80001FFF9
:020DF90001FFF8
:020DFA0001FFF7
:020DFB0001FFF6
:020DFC0001FFF5
:020DFD0001FFF4
:020DFE0001FFF3
:020DFF0001FFF2
:020E000001FFF0
:020E010001FFEF
:020E020001FFEE
:020E030001FFED
:020E040001FFEC
:020E050001FFEB
:020E060001FFEA
:020E070001FFE9
:020E080001FFE8
:020E090001FFE7
:020E0A0001FFE6
:020E0B0001FFE5
:020E0C0001FFE4
:020E0D0001FFE3
:020E0E0001FFE2
:020E0F0001FFE1
:020E1000016D72
:020E1100016D71
:020E1200004995
:020E130001FFDD
:020E140001FFDC
:020E15000000DB
:020E16000000DA
:020E17000000D9
:020E180000498F
:020E190001FFD7
:020E1A0001FFD6
:020E1B0001FFD5
:020E1C0001FFD4
:020E1D0001FFD3
:020E1E0001FFD2
:020E1F0001FFD1
:020E200001FFD0
:020E210001FFCF
:020E220001FFCE
:020E230001FFCD
:020E240001FFCC
:020E250001FFCB
:020E260001FFCA
:020E270001FFC9
:020E280001FFC8
:020E290001FFC7
:020E2A0001FFC6
:020E2B0001FFC5
:020E2C0001FFC4
:020E2D0001FFC3
:020E2E0001FFC2
:020E2F0001FFC1
:020E300001FFC0
:020E310001FFBF
:020E320001FFBE
:020E330001FFBD
:020E340001FFBC
:020E350001FFBB
:020E360001FFBA
:020E370001FFB9
:020E380001FFB8
:020E390001FFB7
:020E3A0001FFB6
:020E3B0001FFB5
:020E3C0000DBD9
:020E3D0001B6FC
:020E3E000000B2
:020E3F0001FFB1
:020E400001B6F9
:020E41000000AF
:020E42000000AE
:020E43000000AD
:020E440000921A
:020E450001FFAB
:020E460001FFAA
:020E470001FFA9
:020E480001FFA8
:020E490001FFA7
:020E4A0001FFA6
:020E4B0001FFA5
:020E4C0001FFA4
:020E4D0001FFA3
:020E4E0001FFA2
:020E4F0001FFA1
:020E500001FFA0
:020E510001FF9F
:020E520001FF9E
:020E530001FF9D
:020E540001FF9C
:020E550001FF9B
:020E560001FF9A
:020E570001FF99
:020E580001FF98
:020E590001FF97
:020E5A0001FF96
:020E5B0001FF95
:020E5C0001FF94
:020E5D0001FF93
:020E5E0001FF92
:020E5F0001FF91
:020E600001FF90
:020E610001FF8F
:020E620001FF8E
:020E630001FF8D
:020E640001FF8C
:020E650001FF8B
:020E660001FF8A
:020E670001FF89
:020E68000092F6
:020E690001FF87
:020E6A0000493D
:020E6B0001FF85
:020E6C0001FF84
:020E6D0001FF83
:020E6E0001B6CB
:020E6F00000081
:020E700001FF80
:020E710001FF7F
:020E720001FF7E
:020E730001FF7D
:020E740001FF7C
:020E750001FF7B
:020E760001FF7A
:020E770001FF79
:020E780001FF78
:020E790001FF77
:020E7A0001FF76
:020E7B0001FF75
:020E7C0001FF74
:020E7D0001FF73
:020E7E0001FF72
:020E7F0001FF71
:020E800001FF70
:020E810001FF6F
:020E820001FF6E
:020E830001FF6D
:020E840001FF6C
:020E850001FF6B
:020E860001FF6A
:020E870001FF69
:020E880001FF68
:020E890001FF67
:020E8A0001FF66
:020E8B0001FF65
:020E8C0001FF64
:020E8D0001FF63
:020E8E0001FF62
:020E8F0001FF61
:020E900001FF60
:020E910001FF5F
:020E920001FF5E
:020E930001FF5D
:020E94000092CA
:020E950001B6A4
:020E96000092C8
:020E970001FF59
:020E9800016DEA
:020E990000490E
:020E9A00016DE8
:020E9B0000490C
:020E9C00016DE6
:020E9D0001FF53
:020E9E0001FF52
:020E9F0001FF51
:020EA00001FF50
:020EA10001FF4F
:020EA20001FF4E
:020EA30001FF4D
:020EA40001FF4C
:020EA50001FF4B
:020EA60001FF4A
:020EA70001FF49
:020EA80001FF48
:020EA90001FF47
:020EAA0001FF46
:020EAB0001FF45
:020EAC0001FF44
:020EAD0001FF43
:020EAE0001FF42
:020EAF0001FF41
:020EB00001FF40
:020EB10001FF3F
:020EB20001FF3E
:020EB30001FF3D
:020EB40001FF3C
:020EB50001FF3B
:020EB60001FF3A
:020EB70001FF39
:020EB80001FF38
:020EB90001FF37
:020EBA0001FF36
:020EBB0001FF35
:020EBC0001FF34
:020EBD0001FF33
:020EBE0001FF32
:020EBF0001FF31
:020EC00000929E
:020EC10001240A
:020EC20000DB53
:020EC30001FF2D
:020EC40000002C
:020EC500012406
:020EC60001FF2A
:020EC7000049E0
:020EC800012403
:020EC90001FF27
:020ECA0001FF26
:020ECB0001FF25
:020ECC0001FF24
:020ECD0001FF23
:020ECE0001FF22
:020ECF0001FF21
:020ED00001FF20
:020ED10001FF1F
:020ED20001FF1E
:020ED30001FF1D
:020ED40001FF1C
:020ED50001FF1B
:020ED60001FF1A
:020ED70001FF19
:020ED80001FF18
:020ED90001FF17
:020EDA0001FF16
:020EDB0001FF15
:020EDC0001FF14
:020EDD0001FF13
:020EDE0001FF12
:020EDF0001FF11
:020EE00001FF10
:020EE10001FF0F
:020EE20001FF0E
:020EE30001FF0D
:020EE40001FF0C
:020EE50001FF0B
:020EE60001FF0A
:020EE70001FF09
:020EE80001FF08
:020EE90001FF07
:020EEA0001FF06
:020EEB0001FF05
:020EEC0000DB29
:020EED00009271
:020EEE0001B64B
:020EEF0000DB26
:020EF00000926E
:020EF1000049B6
:020EF2000124D9
:020EF30001B646
:020EF4000000FC
:020EF50001FFFB
:020EF60001FFFA
:020EF70001FFF9
:020EF80001FFF8
:020EF90001FFF7
:020EFA0001FFF6
:020EFB0001FFF5
:020EFC0001FFF4
:020EFD0001FFF3
:020EFE0001FFF2
:020EFF0001FFF1
:020F000001FFEF
:020F010001FFEE
:020F020001FFED
:020F030001FFEC
:020F040001FFEB
:020F050001FFEA
:020F060001FFE9
:020F070001FFE8
:020F080001FFE7
:020F090001FFE6
:020F0A0001FFE5
:020F0B0001FFE4
:020F0C0001FFE3
:020F0D0001FFE2
:020F0E0001FFE1
:020F0F0001FFE0
:020F100001FFDF
:020F110001FFDE
:020F120001FFDD
:020F130001FFDC
:020F140001FFDB
:020F150001FFDA
:020F160001FFD9
:020F1700016D6A
:020F1800016D69
:020F190000498D
:020F1A0001FFD5
:020F1B0001FFD4
:020F1C0001FFD3
:020F1D00016D64
:020F1E000000D1
:020F1F0001FFD0
:020F200001FFCF
:020F210001FFCE
:020F220001FFCD
:020F230001FFCC
:020F240001FFCB
:020F250001FFCA
:020F260001FFC9
:020F270001FFC8
:020F280001FFC7
:020F290001FFC6
:020F2A0001FFC5
:020F2B0001FFC4
:020F2C0001FFC3
:020F2D0001FFC2
:020F2E0001FFC1
:020F2F0001FFC0
:020F300001FFBF
:020F310001FFBE
:020F320001FFBD
:020F330001FFBC
:020F340001FFBB
:020F350001FFBA
:020F360001FFB9
:020F370001FFB8
:020F380001FFB7
:020F390001FFB6
:020F3A0001FFB5
:020F3B0001FFB4
:020F3C0001FFB3
:020F3D0001FFB2
:020F3E0001FFB1
:020F3F0001FFB0
:020F400001FFAF
:020F410001FFAE
:020F420001FFAD
:020F430000DBD1
:020F440001B6F4
:020F45000000AA
:020F460001FFA9
:020F47000000A8
:020F4800016D39
:020F490001FFA6
:020F4A000000A5
:020F4B00016D36
:020F4C0001FFA3
:020F4D0001FFA2
:020F4E0001FFA1
:020F4F0001FFA0
:020F500001FF9F
:020F510001FF9E
:020F520001FF9D
:020F530001FF9C
:020F540001FF9B
:020F550001FF9A
:020F560001FF99
:020F570001FF98
:020F580001FF97
:020F590001FF96
:020F5A0001FF95
:020F5B0001FF94
:020F5C0001FF93
:020F5D0001FF92
:020F5E0001FF91
:020F5F0001FF90
:020F600001FF8F
:020F610001FF8E
:020F620001FF8D
:020F630001FF8C
:020F640001FF8B
:020F650001FF8A
:020F660001FF89
:020F670001FF88
:020F680001FF87
:020F690001FF86
:020F6A0001FF85
:020F6B0001FF84
:020F6C0001FF83
:020F6D0001FF82
:020F6E0001FF81
:020F6F000092EE
:020F700001FF7F
:020F7100004935
:020F720001FF7D
:020F730000007C
:020F740000007B
:020F750001FF7A
:020F760001FF79
:020F770001FF78
:020F780001FF77
:020F790001FF76
:020F7A0001FF75
:020F7B0001FF74
:020F7C0001FF73
:020F7D0001FF72
:020F7E0001FF71
:020F7F0001FF70
:020F800001FF6F
:020F810001FF6E
:020F820001FF6D
:020F830001FF6C
:020F840001FF6B
:020F850001FF6A
:020F860001FF69
:020F870001FF68
:020F880001FF67
:020F890001FF66
:020F8A0001FF65
:020F8B0001FF64
:020F8C0001FF63
:020F8D0001FF62
:020F8E0001FF61
:020F8F0001FF60
:020F900001FF5F
:020F910001FF5E
:020F920001FF5D
:020F930001FF5C
:020F940001FF5B
:020F950001FF5A
:020F960001FF59
:020F970001FF58
:020F980001FF57
:020F990001FF56
:020F9A0001FF55
:020F9B000092C2
:020F9C00016DE5
:020F9D0001B69B
:020F9E00004908
:020F9F0001FF50
