:0200000001FFFE
:0200010001FFFD
:0200020001FFFC
:0200030001FFFB
:0200040001FFFA
:0200050001FFF9
:0200060001FFF8
:0200070001FFF7
:0200080001FFF6
:0200090001FFF5
:02000A0001FFF4
:02000B0001FFF3
:02000C0001FFF2
:02000D0001FFF1
:02000E0001FFF0
:02000F0001FFEF
:0200100001FFEE
:0200110001FFED
:0200120001FFEC
:0200130001FFEB
:0200140001FFEA
:0200150001FFE9
:0200160001FFE8
:0200170001FFE7
:0200180001FFE6
:0200190001FFE5
:02001A0001FFE4
:02001B0001FFE3
:02001C0001FFE2
:02001D0001FFE1
:02001E0001FFE0
:02001F0001FFDF
:0200200001FFDE
:0200210001FFDD
:0200220001FFDC
:0200230001FFDB
:0200240001FFDA
:0200250001FFD9
:0200260001FFD8
:0200270001FFD7
:0200280001FFD6
:0200290001FFD5
:02002A0001FFD4
:02002B0001FFD3
:02002C0001FFD2
:02002D0001FFD1
:02002E0001FFD0
:02002F0001FFCF
:0200300001FFCE
:0200310001FFCD
:0200320001FFCC
:0200330001FFCB
:0200340001FFCA
:0200350001FFC9
:0200360001FFC8
:0200370001FFC7
:0200380001FFC6
:0200390001FFC5
:02003A0001FFC4
:02003B0001FFC3
:02003C0001FFC2
:02003D0001FFC1
:02003E0001FFC0
:02003F0001FFBF
:0200400001FFBE
:0200410001FFBD
:0200420001FFBC
:0200430001FFBB
:0200440001FFBA
:0200450001FFB9
:0200460001FFB8
:0200470001FFB7
:0200480001FFB6
:0200490001FFB5
:02004A0001FFB4
:02004B0001FFB3
:02004C0001FFB2
:02004D0001FFB1
:02004E0001FFB0
:02004F0001FFAF
:0200500001FFAE
:0200510001FFAD
:0200520001FFAC
:0200530001FFAB
:0200540001FFAA
:0200550001FFA9
:0200560001FFA8
:0200570001FFA7
:0200580001FFA6
:0200590001FFA5
:02005A0001FFA4
:02005B0001FFA3
:02005C0001FFA2
:02005D0001FFA1
:02005E0001FFA0
:02005F0001FF9F
:0200600001FF9E
:0200610001FF9D
:0200620001FF9C
:0200630001FF9B
:0200640001FF9A
:0200650001FF99
:0200660001FF98
:0200670001FF97
:0200680001FF96
:0200690001FF95
:02006A0001FF94
:02006B0001FF93
:02006C0001FF92
:02006D0001FF91
:02006E0001FF90
:02006F0001FF8F
:0200700001FF8E
:0200710001FF8D
:0200720001FF8C
:0200730001FF8B
:0200740001FF8A
:0200750001FF89
:0200760001FF88
:0200770001FF87
:0200780001FF86
:0200790001FF85
:02007A0001FF84
:02007B0001FF83
:02007C0001FF82
:02007D0001FF81
:02007E0001FF80
:02007F0001FF7F
:0200800001FF7E
:0200810001FF7D
:0200820001FF7C
:0200830001FF7B
:0200840001FF7A
:0200850001FF79
:0200860001FF78
:0200870001FF77
:0200880001FF76
:0200890001FF75
:02008A0001FF74
:02008B0001FF73
:02008C0001FF72
:02008D0001FF71
:02008E0001FF70
:02008F0001FF6F
:0200900001FF6E
:0200910001FF6D
:0200920001FF6C
:0200930001FF6B
:0200940001FF6A
:0200950001FF69
:0200960001FF68
:0200970001FF67
:0200980001FF66
:0200990001FF65
:02009A0001FF64
:02009B0001FF63
:02009C0001FF62
:02009D0001FF61
:02009E0001FF60
:02009F0001FF5F
:0200A00001FF5E
:0200A10001FF5D
:0200A20001FF5C
:0200A30001FF5B
:0200A40001FF5A
:0200A50001FF59
:0200A60001FF58
:0200A70001FF57
:0200A80001FF56
:0200A90001FF55
:0200AA0001FF54
:0200AB0001FF53
:0200AC0001FF52
:0200AD0001FF51
:0200AE0001FF50
:0200AF0001FF4F
:0200B00001FF4E
:0200B10001FF4D
:0200B20001FF4C
:0200B30001FF4B
:0200B40001FF4A
:0200B50001FF49
:0200B60001FF48
:0200B70001FF47
:0200B80001FF46
:0200B90001FF45
:0200BA0001FF44
:0200BB0001FF43
:0200BC0001FF42
:0200BD0001FF41
:0200BE0001FF40
:0200BF0001FF3F
:0200C00001FF3E
:0200C10001FF3D
:0200C20001FF3C
:0200C30001FF3B
:0200C40001FF3A
:0200C50001FF39
:0200C60001FF38
:0200C70001FF37
:0200C80001FF36
:0200C90001FF35
:0200CA0001FF34
:0200CB0001FF33
:0200CC0001FF32
:0200CD0001FF31
:0200CE0001FF30
:0200CF0001FF2F
:0200D00001FF2E
:0200D10001FF2D
:0200D20001FF2C
:0200D30001FF2B
:0200D40001FF2A
:0200D50001FF29
:0200D60001FF28
:0200D70001FF27
:0200D80001FF26
:0200D90001FF25
:0200DA0001FF24
:0200DB0001FF23
:0200DC0001FF22
:0200DD0001FF21
:0200DE0001FF20
:0200DF0001FF1F
:0200E00001FF1E
:0200E10001FF1D
:0200E20001FF1C
:0200E30001FF1B
:0200E40001FF1A
:0200E50001FF19
:0200E60001FF18
:0200E70001FF17
:0200E80001FF16
:0200E90001FF15
:0200EA0001FF14
:0200EB0001FF13
:0200EC0001FF12
:0200ED0001FF11
:0200EE0001FF10
:0200EF0001FF0F
:0200F00001FF0E
:0200F10001FF0D
:0200F20001FF0C
:0200F30001FF0B
:0200F40001FF0A
:0200F50001FF09
:0200F60001FF08
:0200F70001FF07
:0200F80001FF06
:0200F90001FF05
:0200FA0001FF04
:0200FB0001FF03
:0200FC0001FF02
:0200FD0001FF01
:0200FE0001FF00
:0200FF0001FFFF
:0201000001FFFD
:0201010001FFFC
:0201020001FFFB
:0201030001FFFA
:0201040001FFF9
:0201050001FFF8
:0201060001FFF7
:0201070001FFF6
:0201080001FFF5
:0201090001FFF4
:02010A0001FFF3
:02010B0001FFF2
:02010C0001FFF1
:02010D0001FFF0
:02010E0001FFEF
:02010F0001FFEE
:0201100001FFED
:0201110001FFEC
:0201120001FFEB
:0201130001FFEA
:0201140001FFE9
:0201150001FFE8
:0201160001FFE7
:0201170001FFE6
:0201180001FFE5
:0201190001FFE4
:02011A0001FFE3
:02011B0001FFE2
:02011C0001FFE1
:02011D0001FFE0
:02011E0001FFDF
:02011F0001FFDE
:0201200001FFDD
:0201210001FFDC
:0201220001FFDB
:0201230001FFDA
:0201240001FFD9
:0201250001FFD8
:0201260001FFD7
:0201270001FFD6
:0201280001FFD5
:0201290001FFD4
:02012A0001FFD3
:02012B0001FFD2
:02012C0001FFD1
:02012D0001FFD0
:02012E0001FFCF
:02012F0001FFCE
:0201300001FFCD
:0201310001FFCC
:0201320001FFCB
:0201330001FFCA
:0201340001FFC9
:0201350001FFC8
:0201360001FFC7
:0201370001FFC6
:0201380001FFC5
:0201390001FFC4
:02013A0001FFC3
:02013B0001FFC2
:02013C0001FFC1
:02013D0001FFC0
:02013E0001FFBF
:02013F0001FFBE
:0201400001FFBD
:0201410001FFBC
:0201420001FFBB
:0201430001FFBA
:0201440001FFB9
:0201450001FFB8
:0201460001FFB7
:0201470001FFB6
:0201480001FFB5
:0201490001FFB4
:02014A0001FFB3
:02014B0001FFB2
:02014C0001FFB1
:02014D0001FFB0
:02014E0001FFAF
:02014F0001FFAE
:0201500001FFAD
:0201510001FFAC
:0201520001FFAB
:0201530001FFAA
:0201540001FFA9
:0201550001FFA8
:0201560001FFA7
:0201570001FFA6
:0201580001FFA5
:0201590001FFA4
:02015A0001FFA3
:02015B0001FFA2
:02015C0001FFA1
:02015D0001FFA0
:02015E0001FF9F
:02015F0001FF9E
:0201600001FF9D
:0201610001FF9C
:0201620001FF9B
:0201630001FF9A
:0201640001FF99
:0201650001FF98
:0201660001FF97
:0201670001FF96
:0201680001FF95
:0201690001FF94
:02016A0001FF93
:02016B0001FF92
:02016C0001FF91
:02016D0001FF90
:02016E0001FF8F
:02016F0001FF8E
:0201700001FF8D
:0201710001FF8C
:0201720001FF8B
:0201730001FF8A
:0201740001FF89
:0201750001FF88
:0201760001FF87
:0201770001FD88
:0201780000C0C5
:02017900000084
:02017A00000083
:02017B00000181
:02017C00013749
:02017D0001FF80
:02017E0001FD81
:02017F0000C0BE
:0201800000007D
:0201810000007C
:02018200001D5E
:0201830001FF7A
:0201840001FF79
:0201850001FF78
:0201860001A1D5
:02018700000C6A
:0201880001BFB5
:0201890001FF74
:02018A0001581A
:02018B0000EF83
:02018C0001FF71
:02018D0001FF70
:02018E00015816
:02018F00006608
:0201900001FF6D
:0201910001FF6C
:0201920001A1C9
:0201930000EF7B
:0201940001FF69
:0201950001FF68
:0201960001FF67
:0201970001FF66
:0201980001FF65
:0201990001FF64
:02019A0001FF63
:02019B0001FF62
:02019C0001FF61
:02019D0001FF60
:02019E0001FF5F
:02019F0001FF5E
:0201A00001FF5D
:0201A10001FF5C
:0201A20001FF5B
:0201A30001FF5A
:0201A40001FF59
:0201A50001FF58
:0201A60001FF57
:0201A70001FF56
:0201A80001FF55
:0201A90001FF54
:0201AA0001FF53
:0201AB0001FF52
:0201AC0001FF51
:0201AD0001FF50
:0201AE0001FF4F
:0201AF0001FF4E
:0201B00001FF4D
:0201B10001FF4C
:0201B20001FF4B
:0201B30001FF4A
:0201B40001FF49
:0201B50001FD4A
:0201B60000CC7B
:0201B70001BF86
:0201B80001FF45
:0201B90001EB58
:0201BA00000340
:0201BB00017FC2
:0201BC0001FD43
:0201BD0000CC74
:0201BE0001BF7F
:0201BF0001FE3F
:0201C000010933
:0201C100013704
:0201C20001FF3B
:0201C30001FE3B
:0201C400010B2D
:0201C50000D860
:0201C60000EF48
:0201C70001FF36
:0201C80001EB49
:0201C900001D17
:0201CA0001FF33
:0201CB0001FD34
:0201CC0000C071
:0201CD00001D13
:0201CE0001FF2F
:0201CF0001FE2F
:0201D000010923
:0201D1000137F4
:0201D20001FF2B
:0201D30001FF2A
:0201D40001FF29
:0201D50001FF28
:0201D60001FF27
:0201D70001FF26
:0201D80001FF25
:0201D90001FF24
:0201DA0001FF23
:0201DB0001FF22
:0201DC0001FF21
:0201DD0001FF20
:0201DE0001FF1F
:0201DF0001FF1E
:0201E00001FF1D
:0201E10001FF1C
:0201E20001FF1B
:0201E30001FF1A
:0201E40001FF19
:0201E50001FF18
:0201E60001FF17
:0201E70001FF16
:0201E80001FF15
:0201E90001FF14
:0201EA0001FF13
:0201EB0001FF12
:0201EC0001FF11
:0201ED0001FF10
:0201EE0001FF0F
:0201EF0001FF0E
:0201F00001FF0D
:0201F10001FF0C
:0201F20001FF0B
:0201F30001FD0C
:0201F40000CC3D
:0201F50001BF48
:0201F60001FF07
:0201F70001FF06
:0201F80001A163
:0201F90000669E
:0201FA0001FD05
:0201FB0000CC36
:0201FC0001BF41
:0201FD0001FE01
:0201FE000109F5
:0201FF000137C6
:0202000001FFFC
:0202010001EB0F
:02020200006694
:0202030001EB0D
:02020400001DDB
:0202050001FFF7
:0202060001FDF8
:0202070000C332
:02020800017F74
:0202090001F4FE
:02020A0000E50D
:02020B00010BE5
:02020C00017F70
:02020D0001FDF1
:02020E0000CC22
:02020F0001BF2D
:0202100001FFEC
:0202110001FFEB
:0202120001FFEA
:0202130001FFE9
:0202140001FFE8
:0202150001FFE7
:0202160001FFE6
:0202170001FFE5
:0202180001FFE4
:0202190001FFE3
:02021A0001FFE2
:02021B0001FFE1
:02021C0001FFE0
:02021D0001FFDF
:02021E0001FFDE
:02021F0001FFDD
:0202200001FFDC
:0202210001FFDB
:0202220001FFDA
:0202230001FFD9
:0202240001FFD8
:0202250001FFD7
:0202260001FFD6
:0202270001FFD5
:0202280001FFD4
:0202290001FFD3
:02022A0001FFD2
:02022B0001FFD1
:02022C0001FFD0
:02022D0001FFCF
:02022E0001FFCE
:02022F0001FFCD
:0202300001FFCC
:0202310001FDCD
:0202320000CCFE
:0202330001BF09
:0202340001FFC8
:0202350001FFC7
:0202360001A124
:0202370000665F
:0202380001FDC6
:0202390000C003
:02023A000000C2
:02023B000001C0
:02023C00013788
:02023D0001FFBF
:02023E0001FFBE
:02023F00015963
:02024000013784
:0202410001FEBC
:02024200010BAE
:02024300017F39
:0202440001FFB8
:0202450001595D
:0202460001377E
:0202470001A113
:0202480000EFC5
:0202490001585A
:02024A0000EFC3
:02024B0001EBC5
:02024C0000664A
:02024D0001FFAF
:02024E0001FFAE
:02024F0001FFAD
:0202500001FFAC
:0202510001FFAB
:0202520001FFAA
:0202530001FFA9
:0202540001FFA8
:0202550001FFA7
:0202560001FFA6
:0202570001FFA5
:0202580001FFA4
:0202590001FFA3
:02025A0001FFA2
:02025B0001FFA1
:02025C0001FFA0
:02025D0001FF9F
:02025E0001FF9E
:02025F0001FF9D
:0202600001FF9C
:0202610001FF9B
:0202620001FF9A
:0202630001FF99
:0202640001FF98
:0202650001FF97
:0202660001FF96
:0202670001FF95
:0202680001FF94
:0202690001FF93
:02026A0001FF92
:02026B0001FF91
:02026C0001FF90
:02026D0001FF8F
:02026E0001FF8E
:02026F0001FD8F
:0202700000CCC0
:0202710001BFCB
:0202720001FF8A
:0202730001FF89
:0202740001A1E6
:0202750000EF98
:0202760001FD88
:0202770000CCB9
:0202780001BFC4
:0202790001A1E1
:02027A00001D65
:02027B0001FF81
:02027C0001FD82
:02027D0000C0BF
:02027E0000007E
:02027F0000007D
:0202800000007C
:0202810000EF8C
:0202820001FF7A
:0202830001A1D7
:02028400006612
:02028500015B1B
:02028600017FF6
:0202870001EB89
:0202880000660E
:02028900015919
:02028A0001373A
:02028B0001FF71
:02028C0001FF70
:02028D0001FF6F
:02028E0001FF6E
:02028F0001FF6D
:0202900001FF6C
:0202910001FF6B
:0202920001FF6A
:0202930001FF69
:0202940001FF68
:0202950001FF67
:0202960001FF66
:0202970001FF65
:0202980001FF64
:0202990001FF63
:02029A0001FF62
:02029B0001FF61
:02029C0001FF60
:02029D0001FF5F
:02029E0001FF5E
:02029F0001FF5D
:0202A00001FF5C
:0202A10001FF5B
:0202A20001FF5A
:0202A30001FF59
:0202A40001FF58
:0202A50001FF57
:0202A60001FF56
:0202A70001FF55
:0202A80001FF54
:0202A90001FF53
:0202AA0001FF52
:0202AB0001FF51
:0202AC0001FF50
:0202AD0001FD51
:0202AE0000CC82
:0202AF0001BF8D
:0202B00001FF4C
:0202B10001F456
:0202B200004307
:0202B300017FC9
:0202B40001FD4A
:0202B50000CC7B
:0202B60001BF86
:0202B70001FE46
:0202B80001093A
:0202B90001370B
:0202BA0001EB56
:0202BB000066DB
:0202BC0001FF40
:0202BD0001FF3F
:0202BE0001F449
:0202BF00005DE0
:0202C00001FF3C
:0202C10001F446
:0202C200005BDF
:0202C30000CC6D
:0202C40001BF78
:0202C50001FD39
:0202C60000CB6B
:0202C70000CB6A
:0202C800017FB4
:0202C90001FF33
:0202CA0001FF32
:0202CB0001FF31
:0202CC0001FF30
:0202CD0001FF2F
:0202CE0001FF2E
:0202CF0001FF2D
:0202D00001FF2C
:0202D10001FF2B
:0202D20001FF2A
:0202D30001FF29
:0202D40001FF28
:0202D50001FF27
:0202D60001FF26
:0202D70001FF25
:0202D80001FF24
:0202D90001FF23
:0202DA0001FF22
:0202DB0001FF21
:0202DC0001FF20
:0202DD0001FF1F
:0202DE0001FF1E
:0202DF0001FF1D
:0202E00001FF1C
:0202E10001FF1B
:0202E20001FF1A
:0202E30001FF19
:0202E40001FF18
:0202E50001FF17
:0202E60001FF16
:0202E70001FF15
:0202E80001FF14
:0202E90001FF13
:0202EA0001FF12
:0202EB0001FD13
:0202EC0000C050
:0202ED0000000F
:0202EE0000000E
:0202EF0000030A
:0202F000017F8C
:0202F10001FF0B
:0202F20001FD0C
:0202F30000CC3D
:0202F40001BF48
:0202F50001FF07
:0202F60001A164
:0202F70000669F
:0202F8000159AA
:0202F9000137CB
:0202FA0001FF02
:0202FB0001FF01
:0202FC0001FD02
:0202FD0000C13E
:0202FE000137C6
:0202FF0001FEFE
:020300000108F2
:02030100006694
:0203020001FFF9
:0203030001FEF9
:020304000108EE
:02030500001DD9
:0203060001FFF5
:0203070001FFF4
:0203080001FFF3
:0203090001FFF2
:02030A0001FFF1
:02030B0001FFF0
:02030C0001FFEF
:02030D0001FFEE
:02030E0001FFED
:02030F0001FFEC
:0203100001FFEB
:0203110001FFEA
:0203120001FFE9
:0203130001FFE8
:0203140001FFE7
:0203150001FFE6
:0203160001FFE5
:0203170001FFE4
:0203180001FFE3
:0203190001FFE2
:02031A0001FFE1
:02031B0001FFE0
:02031C0001FFDF
:02031D0001FFDE
:02031E0001FFDD
:02031F0001FFDC
:0203200001FFDB
:0203210001FFDA
:0203220001FFD9
:0203230001FFD8
:0203240001FFD7
:0203250001FFD6
:0203260001FFD5
:0203270001FFD4
:0203280001FFD3
:0203290001FFD2
:02032A0001FFD1
:02032B0001FFD0
:02032C0001FFCF
:02032D0001FFCE
:02032E0001FFCD
:02032F0001FFCC
:0203300001FFCB
:0203310001FFCA
:0203320001FFC9
:0203330001FFC8
:0203340001FFC7
:0203350001FFC6
:0203360001FFC5
:0203370001FFC4
:0203380001FFC3
:0203390001FFC2
:02033A0001FFC1
:02033B0001FFC0
:02033C0001FFBF
:02033D0001FFBE
:02033E0001FFBD
:02033F0001FFBC
:0203400001FFBB
:0203410001FFBA
:0203420001FFB9
:0203430001FFB8
:0203440001FFB7
:0203450001FFB6
:0203460001FFB5
:0203470001FFB4
:0203480001FFB3
:0203490001FFB2
:02034A0001FFB1
:02034B0001FFB0
:02034C0001FFAF
:02034D0001FFAE
:02034E0001FFAD
:02034F0001FFAC
:0203500001FFAB
:0203510001FFAA
:0203520001FFA9
:0203530001FFA8
:0203540001FFA7
:0203550001FFA6
:0203560001FFA5
:0203570001FFA4
:0203580001FFA3
:0203590001FFA2
:02035A0001FFA1
:02035B0001FFA0
:02035C0001FF9F
:02035D0001FF9E
:02035E0001FF9D
:02035F0001FF9C
:0203600001FF9B
:0203610001FF9A
:0203620001FF99
:0203630001FF98
:0203640001FF97
:0203650001FF96
:0203660001FF95
:0203670001FF94
:0203680001FF93
:0203690001FF92
:02036A0001FF91
:02036B0001FF90
:02036C0001FF8F
:02036D0001FF8E
:02036E0001FF8D
:02036F0001FF8C
:0203700001FF8B
:0203710001FF8A
:0203720001FF89
:0203730001FF88
:0203740001FF87
:0203750001FF86
:0203760001FF85
:0203770001FF84
:0203780001FF83
:0203790001FF82
:02037A0001FF81
:02037B0001FF80
:02037C0001FF7F
:02037D0001FF7E
:02037E0001FF7D
:02037F0001FF7C
:0203800001FF7B
:0203810001FF7A
:0203820001FF79
:0203830001FF78
:0203840001FF77
:0203850001FF76
:0203860001FF75
:0203870001FF74
:0203880001FF73
:0203890001FF72
:02038A0001FF71
:02038B0001FF70
:02038C0001FF6F
:02038D0001FF6E
:02038E0001FF6D
:02038F0001FF6C
:0203900001FF6B
:0203910001FF6A
:0203920001FF69
:0203930001FF68
:0203940001FF67
:0203950001FF66
:0203960001FF65
:0203970001FF64
:0203980001FF63
:0203990001FF62
:02039A0001FF61
:02039B0001FF60
:02039C0001FF5F
:02039D0001FF5E
:02039E0001FF5D
:02039F0001FF5C
:0203A00001FF5B
:0203A10001FF5A
:0203A20001FF59
:0203A30001FF58
:0203A40001FF57
:0203A50001FF56
:0203A60001FF55
:0203A70001FF54
:0203A80001FF53
:0203A90001FF52
:0203AA0001FF51
:0203AB0001FF50
:0203AC0001FF4F
:0203AD0001FF4E
:0203AE0001FF4D
:0203AF0001FF4C
:0203B00001FF4B
:0203B10001FF4A
:0203B20001FF49
:0203B30001FF48
:0203B40001FF47
:0203B50001FF46
:0203B60001FF45
:0203B70001FF44
:0203B80001FF43
:0203B90001FF42
:0203BA0001FF41
:0203BB0001FF40
:0203BC0001FF3F
:0203BD0001FF3E
:0203BE0001FF3D
:0203BF0001FF3C
:0203C00001FF3B
:0203C10001FF3A
:0203C20001FF39
:0203C30001FF38
:0203C40001FF37
:0203C50001FF36
:0203C60001FF35
:0203C70001FF34
:0203C80001FF33
:0203C90001FF32
:0203CA0001FF31
:0203CB0001FF30
:0203CC0001FF2F
:0203CD0001FF2E
:0203CE0001FF2D
:0203CF0001FF2C
:0203D00001FF2B
:0203D10001FF2A
:0203D20001FF29
:0203D30001FF28
:0203D40001FF27
:0203D50001FF26
:0203D60001FF25
:0203D70001FF24
:0203D80001FF23
:0203D90001FF22
:0203DA0001FF21
:0203DB0001FF20
:0203DC0001FF1F
:0203DD0001FF1E
:0203DE0001FF1D
:0203DF0001FF1C
:0203E00001FF1B
:0203E10001FF1A
:0203E20001FF19
:0203E30001FF18
:0203E40001FF17
:0203E50001FF16
:0203E60001FF15
:0203E70001FF14
:0203E80001FF13
:0203E90001FF12
:0203EA0001FF11
:0203EB0001FF10
:0203EC0001FF0F
:0203ED0001FF0E
:0203EE0001FF0D
:0203EF0001FF0C
:0203F00001FF0B
:0203F10001FF0A
:0203F20001FF09
:0203F30001FF08
:0203F40001FF07
:0203F50001FF06
:0203F60001FF05
:0203F70001FF04
:0203F80001FF03
:0203F90001FF02
:0203FA0001FF01
:0203FB0001FF00
:0203FC0001FFFF
:0203FD0001FFFE
:0203FE0001FFFD
:0203FF0001FFFC
:0204000001FFFA
:0204010001FFF9
:0204020001FFF8
:0204030001FFF7
:0204040001FFF6
:0204050001FFF5
:0204060001FFF4
:0204070001FFF3
:0204080001FFF2
:0204090001FFF1
:02040A0001FFF0
:02040B0001FFEF
:02040C0001FFEE
:02040D0001FFED
:02040E0001FFEC
:02040F0001FFEB
:0204100001FFEA
:0204110001FFE9
:0204120001FFE8
:0204130001FFE7
:0204140001FFE6
:0204150001FFE5
:0204160001FFE4
:0204170001FFE3
:0204180001FFE2
:0204190001FFE1
:02041A0001FFE0
:02041B0001FFDF
:02041C0001FFDE
:02041D0001FFDD
:02041E0001FFDC
:02041F0001FFDB
:0204200001FFDA
:0204210001FFD9
:0204220001FFD8
:0204230001FFD7
:0204240001FFD6
:0204250001FFD5
:0204260001FFD4
:0204270001FFD3
:0204280001FFD2
:0204290001FFD1
:02042A0001FFD0
:02042B0001FFCF
:02042C0001FFCE
:02042D0001FFCD
:02042E0001FFCC
:02042F0001FFCB
:0204300001FFCA
:0204310001FFC9
:0204320001FFC8
:0204330001FFC7
:0204340001FFC6
:0204350001FFC5
:0204360001FFC4
:0204370001FFC3
:0204380001FFC2
:0204390001FFC1
:02043A0001FFC0
:02043B0001FFBF
:02043C0001FFBE
:02043D0001FFBD
:02043E0001FFBC
:02043F0001FFBB
:0204400001FFBA
:0204410001FFB9
:0204420001FFB8
:0204430001FFB7
:0204440001FFB6
:0204450001FFB5
:0204460001FFB4
:0204470001FFB3
:0204480001FFB2
:0204490001FFB1
:02044A0001FFB0
:02044B0001FFAF
:02044C0001FFAE
:02044D0001FFAD
:02044E0001FFAC
:02044F0001FFAB
:0204500001FFAA
:0204510001FFA9
:0204520001FFA8
:0204530001FFA7
:0204540001FFA6
:0204550001FFA5
:0204560001FFA4
:0204570001FFA3
:0204580001FFA2
:0204590001FFA1
:02045A0001FFA0
:02045B0001FF9F
:02045C0001FF9E
:02045D0001FF9D
:02045E0001FF9C
:02045F0001FF9B
:0204600001FF9A
:0204610001FF99
:0204620001FF98
:0204630001FF97
:0204640001FF96
:0204650001FF95
:0204660001FF94
:0204670001FF93
:0204680001FF92
:0204690001FF91
:02046A0001FF90
:02046B0001FF8F
:02046C0001FF8E
:02046D0001FF8D
:02046E0001FF8C
:02046F0001FF8B
:0204700001FF8A
:0204710001FF89
:0204720001FF88
:0204730001FF87
:0204740001FF86
:0204750001FF85
:0204760001FF84
:0204770001FF83
:0204780001FF82
:0204790001FF81
:02047A0001FF80
:02047B0001FF7F
:02047C0001FF7E
:02047D0001FF7D
:02047E0001FF7C
:02047F0001FF7B
:0204800001FF7A
:0204810001FF79
:0204820001FF78
:0204830001FF77
:0204840001FF76
:0204850001FF75
:0204860001FF74
:0204870001FF73
:0204880001FF72
:0204890001FF71
:02048A0001FF70
:02048B0001FF6F
:02048C0001FF6E
:02048D0001FF6D
:02048E0001FF6C
:02048F0001FF6B
:0204900001FF6A
:0204910001FF69
:0204920001FF68
:0204930001FF67
:0204940001FF66
:0204950001FF65
:0204960001FF64
:0204970001FF63
:0204980001FF62
:0204990001FF61
:02049A0001FF60
:02049B0001FF5F
:02049C0001FF5E
:02049D0001FF5D
:02049E0001FF5C
:02049F0001FF5B
:0204A00001FF5A
:0204A10001FF59
:0204A20001FF58
:0204A30001FF57
:0204A40001FF56
:0204A50001FF55
:0204A60001FF54
:0204A70001FF53
:0204A80001FF52
:0204A90001FF51
:0204AA0001FF50
:0204AB0001FF4F
:0204AC0001FF4E
:0204AD0001FF4D
:0204AE0001FF4C
:0204AF0001FF4B
:0204B00001FF4A
:0204B10001FF49
:0204B20001FF48
:0204B30001FF47
:0204B40001FF46
:0204B50001FF45
:0204B60001FF44
:0204B70001FF43
:0204B80001FF42
:0204B90001FF41
:0204BA0001FF40
:0204BB0001FF3F
:0204BC0001FF3E
:0204BD0001FF3D
:0204BE0001FF3C
:0204BF0001FF3B
:0204C00001FF3A
:0204C10001FF39
:0204C20001FF38
:0204C30001FF37
:0204C40001FF36
:0204C50001FF35
:0204C60001FF34
:0204C70001FF33
:0204C80001FF32
:0204C90001FF31
:0204CA0001FF30
:0204CB0001FF2F
:0204CC0001FF2E
:0204CD0001FF2D
:0204CE0001FF2C
:0204CF0001FF2B
:0204D00001FF2A
:0204D10001FF29
:0204D20001FF28
:0204D30001FF27
:0204D40001FF26
:0204D50001FF25
:0204D60001FF24
:0204D70001FF23
:0204D80001FF22
:0204D90001FF21
:0204DA0001FF20
:0204DB0001FF1F
:0204DC0001FF1E
:0204DD0001FF1D
:0204DE0001FF1C
:0204DF0001FF1B
:0204E00001FF1A
:0204E10001FF19
:0204E20001FF18
:0204E30001FF17
:0204E40001FF16
:0204E50001FF15
:0204E60001FF14
:0204E70001FF13
:0204E80001FF12
:0204E90001FF11
:0204EA0001FF10
:0204EB0001FF0F
:0204EC0001FF0E
:0204ED0001FF0D
:0204EE0001FF0C
:0204EF0001FF0B
:0204F00001FF0A
:0204F10001FF09
:0204F20001FF08
:0204F30001FF07
:0204F40001FF06
:0204F50001FF05
:0204F60001FF04
:0204F70001FF03
:0204F80001FF02
:0204F90001FF01
:0204FA0001FF00
:0204FB0001FFFF
:0204FC0001FFFE
:0204FD0001FFFD
:0204FE0001FFFC
:0204FF0001FFFB
:0205000001FFF9
:0205010001FFF8
:0205020001FFF7
:0205030001FFF6
:0205040001FFF5
:0205050001FFF4
:0205060001FFF3
:0205070001FFF2
:0205080001FFF1
:0205090001FFF0
:02050A0001FFEF
:02050B0001FFEE
:02050C0001FFED
:02050D0001FFEC
:02050E0001FFEB
:02050F0001FFEA
:0205100001FFE9
:0205110001FFE8
:0205120001FFE7
:0205130001FFE6
:0205140001FFE5
:0205150001FFE4
:0205160001FFE3
:0205170001FFE2
:0205180001FFE1
:0205190001FDE2
:02051A0000C01F
:02051B00006678
:02051C0001FFDD
:02051D0001FEDD
:02051E000109D1
:02051F000137A2
:0205200001F4E4
:02052100004098
:020522000000D7
:020523000000D6
:02052400001DB8
:0205250001FFD4
:0205260001FDD5
:0205270000C012
:020528000000D1
:020529000000D0
:02052A00001DB2
:02052B0001FFCE
:02052C0001FDCF
:02052D0000C00C
:02052E000000CB
:02052F000000CA
:02053000001DAC
:0205310001FFC8
:0205320001F4D2
:02053300004086
:020534000000C5
:020535000000C4
:02053600001DA6
:0205370001FFC2
:0205380001FFC1
:0205390001A11E
:02053A00000CB3
:02053B0001BFFE
:02053C0001FFBD
:02053D0001FDBE
:02053E0000C0FB
:02053F00006654
:0205400001FFB9
:0205410001FEB9
:020542000109AD
:0205430001377E
:0205440001FDB7
:0205450000CCE8
:0205460001BFF3
:0205470001FFB2
:0205480001FEB2
:020549000109A6
:02054A00013777
:02054B0001FFAE
:02054C0001FFAD
:02054D0001FFAC
:02054E0001FFAB
:02054F0001FFAA
:0205500001FFA9
:0205510001FFA8
:0205520001FFA7
:0205530001FFA6
:0205540001FFA5
:0205550001FFA4
:0205560001FFA3
:0205570001FDA4
:0205580000C9D8
:0205590000435D
:02055A00017F1F
:02055B0001FE9F
:02055C00010993
:02055D00013764
:02055E0001F4A6
:02055F00004C4E
:0205600001BFD9
:0205610001FF98
:0205620001FF97
:0205630001FD98
:0205640000C0D5
:0205650000EFA5
:0205660001FF93
:0205670001FF92
:02056800015937
:02056900013758
:02056A0001FD91
:02056B0000CCC2
:02056C0001BFCD
:02056D0001FE8D
:02056E00010981
:02056F00013752
:0205700001F494
:02057100004C3C
:0205720001BFC7
:0205730001FF86
:0205740001FF85
:0205750001FF84
:0205760001FE84
:02057700010B76
:0205780000D8A9
:0205790000EF91
:02057A0001FF7F
:02057B0001FD80
:02057C0000C9B4
:02057D00004339
:02057E00017FFB
:02057F0001FE7B
:0205800001096F
:02058100013740
:0205820001FD79
:0205830000CCAA
:0205840001BFB5
:0205850001FF74
:0205860001FE74
:02058700010968
:02058800013739
:0205890001FF70
:02058A0001FF6F
:02058B0001FF6E
:02058C0001FF6D
:02058D0001FF6C
:02058E0001FF6B
:02058F0001FF6A
:0205900001FF69
:0205910001FF68
:0205920001FF67
:0205930001FF66
:0205940001FF65
:0205950001FD66
:0205960000CC97
:02059700016100
:020598000066FB
:0205990001FE61
:02059A00010955
:02059B00013726
:02059C0001F468
:02059D00004C10
:02059E0001BF9B
:02059F0001FF5A
:0205A00001FF59
:0205A10001EB6C
:0205A200001D3A
:0205A30001FF56
:0205A40001FF55
:0205A50001FF54
:0205A60001FF53
:0205A70001FF52
:0205A80001FD53
:0205A90000CC84
:0205AA0001BF8F
:0205AB0001FE4F
:0205AC00010943
:0205AD00013714
:0205AE0001F456
:0205AF00004CFE
:0205B00001BF89
:0205B10001FF48
:0205B20001FF47
:0205B30001FF46
:0205B40001EB59
:0205B5000066DE
:0205B60001EB57
:0205B700001D25
:0205B80001FF41
:0205B90001FD42
:0205BA0000CC73
:0205BB000161DC
:0205BC000066D7
:0205BD0001FE3D
:0205BE00010931
:0205BF00013702
:0205C00001FD3B
:0205C10000CC6C
:0205C20001BF77
:0205C30001FF36
:0205C40001FE36
:0205C50001092A
:0205C6000137FB
:0205C70001FF32
:0205C80001FF31
:0205C90001FF30
:0205CA0001FF2F
:0205CB0001FF2E
:0205CC0001FF2D
:0205CD0001FF2C
:0205CE0001FF2B
:0205CF0001FF2A
:0205D00001FF29
:0205D10001FF28
:0205D20001FF27
:0205D30001FD28
:0205D40000CC59
:0205D50001BD66
:0205D60000C162
:0205D7000136EB
:0205D800010917
:0205D9000137E8
:0205DA0001F42A
:0205DB000040DE
:0205DC0000001D
:0205DD0000001C
:0205DE0000EF2C
:0205DF0001A178
:0205E0000066B3
:0205E10001FF18
:0205E20001A175
:0205E300000016
:0205E400000114
:0205E5000137DC
:0205E60001FD15
:0205E70000C052
:0205E800000011
:0205E90000010F
:0205EA000137D7
:0205EB0001FF0E
:0205EC0001F418
:0205ED000040CC
:0205EE0000000B
:0205EF0000000A
:0205F00000EF1A
:0205F10001FF08
:0205F2000159AD
:0205F3000137CE
:0205F40001FE06
:0205F500010BF8
:0205F600017F83
:0205F70001FD04
:0205F80000CC35
:0205F90001BD42
:0205FA0000C13E
:0205FB000136C7
:0205FC000109F3
:0205FD000137C4
:0205FE0001FDFD
:0205FF0000CC2E
:0206000001BF38
:0206010001FFF7
:0206020001FEF7
:020603000109EB
:020604000137BC
:0206050001FFF3
:0206060001FFF2
:0206070001FFF1
:0206080001FFF0
:0206090001FFEF
:02060A0001FFEE
:02060B0001FFED
:02060C0001FFEC
:02060D0001FFEB
:02060E0001FFEA
:02060F0001FFE9
:0206100001FFE8
:0206110001FDE9
:0206120000CC1A
:0206130001BF25
:0206140001EBF8
:02061500001CC7
:020616000109D8
:020617000137A9
:0206180001F4EB
:02061900004C93
:02061A0001BF1E
:02061B0001FFDD
:02061C0001FFDC
:02061D0001EBEF
:02061E00001DBD
:02061F0001FFD9
:0206200001FFD8
:0206210001FFD7
:0206220001597C
:0206230001379D
:0206240001FDD6
:0206250000CC07
:0206260001BF12
:0206270001A12F
:02062800001DB3
:0206290001FFCF
:02062A0001F4D9
:02062B00004C81
:02062C0001BF0C
:02062D0001FFCB
:02062E0001FFCA
:02062F0001FDCB
:0206300000C008
:020631000000C7
:020632000000C6
:020633000000C5
:0206340000EFD5
:0206350001FDC5
:0206360000CCF6
:0206370001BF01
:0206380001EBD4
:02063900001CA3
:02063A000109B4
:02063B00013785
:02063C0001FDBE
:02063D0000CCEF
:02063E0001BFFA
:02063F0001FFB9
:0206400001FEB9
:020641000109AD
:0206420001377E
:0206430001FFB5
:0206440001FFB4
:0206450001FFB3
:0206460001FFB2
:0206470001FFB1
:0206480001FFB0
:0206490001FFAF
:02064A0001FFAE
:02064B0001FFAD
:02064C0001FFAC
:02064D0001FFAB
:02064E0001FFAA
:02064F0001FDAB
:0206500000CCDC
:0206510001BFE7
:0206520001FEA7
:0206530001089C
:020654000001A3
:0206550001376B
:0206560001F4AD
:02065700004C55
:0206580001BFE0
:0206590001FF9F
:02065A0001FF9E
:02065B0001FD9F
:02065C0000C0DC
:02065D0000EFAC
:02065E0001FF9A
:02065F0001FF99
:0206600001593E
:0206610001375F
:0206620001FD98
:0206630000CCC9
:0206640001BFD4
:0206650001FE94
:02066600010988
:02066700013759
:0206680001F49B
:02066900004C43
:02066A0001BFCE
:02066B0001FF8D
:02066C0001FF8C
:02066D0001EB9F
:02066E00006624
:02066F0001FF89
:0206700001FF88
:0206710001F492
:02067200005D29
:0206730001FD87
:0206740000CCB8
:0206750001BFC3
:0206760001FE83
:02067700010878
:0206780000017F
:02067900013747
:02067A0001FE7F
:02067B00010874
:02067C0000EF8D
:02067D0001FF7B
:02067E0001F485
:02067F00004336
:02068000017FF8
:0206810001FF77
:0206820001FF76
:0206830001FF75
:0206840001FF74
:0206850001FF73
:0206860001FF72
:0206870001FF71
:0206880001FF70
:0206890001FF6F
:02068A0001FF6E
:02068B0001FF6D
:02068C0001FF6C
:02068D0001FD6D
:02068E0000CC9E
:02068F0001BFA9
:0206900001FF68
:0206910001EB7B
:02069200000165
:0206930001372D
:0206940001F46F
:02069500004023
:02069600000062
:02069700000061
:02069800000C54
:0206990001BF9F
:02069A0001FD60
:02069B0000C09D
:02069C0000005C
:02069D0000005B
:02069E00000357
:02069F00017FD9
:0206A00001FD5A
:0206A10000CC8B
:0206A20001BF96
:0206A30001FF55
:0206A40001A1B2
:0206A5000066ED
:0206A60001F45D
:0206A700004011
:0206A800000050
:0206A90000004F
:0206AA00000C42
:0206AB00011933
:0206AC00013714
:0206AD0001FF4B
:0206AE0001FF4A
:0206AF0001FD4B
:0206B00000C187
:0206B100013511
:0206B20000CC7A
:0206B30001BF85
:0206B40001FF44
:0206B50001EB57
:0206B600000141
:0206B700013709
:0206B80001FF40
:0206B90001F44A
:0206BA000040FE
:0206BB0000003D
:0206BC0000013B
:0206BD00013703
:0206BE0001FF3A
:0206BF0001FF39
:0206C00001FF38
:0206C10001FF37
:0206C20001FF36
:0206C30001FF35
:0206C40001FF34
:0206C50001FF33
:0206C60001FF32
:0206C70001FF31
:0206C80001FF30
:0206C90001FF2F
:0206CA0001FF2E
:0206CB0001FF2D
:0206CC0001FF2C
:0206CD0001FF2B
:0206CE0001FF2A
:0206CF0001FF29
:0206D00001FF28
:0206D10001FF27
:0206D20001FF26
:0206D30001FF25
:0206D40001FF24
:0206D50001FF23
:0206D60001FF22
:0206D70001FF21
:0206D80001FF20
:0206D90001FF1F
:0206DA0001FF1E
:0206DB0001FF1D
:0206DC0001FF1C
:0206DD0001FF1B
:0206DE0001FF1A
:0206DF0001FF19
:0206E00001FF18
:0206E10001FF17
:0206E20001FF16
:0206E30001FF15
:0206E40001FF14
:0206E50001FF13
:0206E60001FF12
:0206E70001FF11
:0206E80001FF10
:0206E90001FF0F
:0206EA0001FF0E
:0206EB0001FF0D
:0206EC0001FF0C
:0206ED0001FF0B
:0206EE0001FF0A
:0206EF0001FF09
:0206F00001FF08
:0206F10001FF07
:0206F20001FF06
:0206F30001FF05
:0206F40001FF04
:0206F50001FF03
:0206F60001FF02
:0206F70001FF01
:0206F80001FF00
:0206F90001FFFF
:0206FA0001FFFE
:0206FB0001FFFD
:0206FC0001FFFC
:0206FD0001FFFB
:0206FE0001FFFA
:0206FF0001FFF9
:0207000001FFF7
:0207010001FFF6
:0207020001FFF5
:0207030001FFF4
:0207040001FFF3
:0207050001FFF2
:0207060001FFF1
:0207070001FFF0
:0207080001FFEF
:0207090001FFEE
:02070A0001FFED
:02070B0001FFEC
:02070C0001FFEB
:02070D0001FFEA
:02070E0001FFE9
:02070F0001FFE8
:0207100001FFE7
:0207110001FFE6
:0207120001FFE5
:0207130001FFE4
:0207140001FFE3
:0207150001FFE2
:0207160001FFE1
:0207170001FFE0
:0207180001FFDF
:0207190001FFDE
:02071A0001FFDD
:02071B0001FFDC
:02071C0001FFDB
:02071D0001FFDA
:02071E0001FFD9
:02071F0001FFD8
:0207200001FFD7
:0207210001FFD6
:0207220001FFD5
:0207230001FFD4
:0207240001FFD3
:0207250001FFD2
:0207260001FFD1
:0207270001FFD0
:0207280001FFCF
:0207290001FFCE
:02072A0001FFCD
:02072B0001FFCC
:02072C0001FFCB
:02072D0001FFCA
:02072E0001FFC9
:02072F0001FFC8
:0207300001FFC7
:0207310001FFC6
:0207320001FFC5
:0207330001FFC4
:0207340001FFC3
:0207350001FFC2
:0207360001FFC1
:0207370001FFC0
:0207380001FFBF
:0207390001FFBE
:02073A0001FFBD
:02073B0001FFBC
:02073C0001FFBB
:02073D0001FFBA
:02073E0001FFB9
:02073F0001FFB8
:0207400001FFB7
:0207410001FFB6
:0207420001FFB5
:0207430001FFB4
:0207440001FFB3
:0207450001FFB2
:0207460001FFB1
:0207470001FFB0
:0207480001FFAF
:0207490001FFAE
:02074A0001FFAD
:02074B0001FFAC
:02074C0001FFAB
:02074D0001FFAA
:02074E0001FFA9
:02074F0001FFA8
:0207500001FFA7
:0207510001FFA6
:0207520001FFA5
:0207530001FFA4
:0207540001FFA3
:0207550001FFA2
:0207560001FFA1
:0207570001FFA0
:0207580001FF9F
:0207590001FF9E
:02075A0001FF9D
:02075B0001FF9C
:02075C0001FF9B
:02075D0001FF9A
:02075E0001FF99
:02075F0001FF98
:0207600001FF97
:0207610001FF96
:0207620001FF95
:0207630001FF94
:0207640001FF93
:0207650001FF92
:0207660001FF91
:0207670001FF90
:0207680001FF8F
:0207690001FF8E
:02076A0001FF8D
:02076B0001FF8C
:02076C0001FF8B
:02076D0001FF8A
:02076E0001FF89
:02076F0001FF88
:0207700001FF87
:0207710001FF86
:0207720001FF85
:0207730001FF84
:0207740001FF83
:0207750001FF82
:0207760001FF81
:0207770001FF80
:0207780001FF7F
:0207790001FF7E
:02077A0001FF7D
:02077B0001FF7C
:02077C0001FF7B
:02077D0001FF7A
:02077E0001FF79
:02077F0001FF78
:0207800001FF77
:0207810001FF76
:0207820001FF75
:0207830001FF74
:0207840001FF73
:0207850001FF72
:0207860001FF71
:0207870001FF70
:0207880001FF6F
:0207890001FF6E
:02078A0001FF6D
:02078B0001FF6C
:02078C0001FF6B
:02078D0001FF6A
:02078E0001FF69
:02078F0001FF68
:0207900001FF67
:0207910001FF66
:0207920001FF65
:0207930001FF64
:0207940001FF63
:0207950001FF62
:0207960001FF61
:0207970001FF60
:0207980001FF5F
:0207990001FF5E
:02079A0001FF5D
:02079B0001FF5C
:02079C0001FF5B
:02079D0001FF5A
:02079E0001FF59
:02079F0001FF58
:0207A00001FF57
:0207A10001FF56
:0207A20001FF55
:0207A30001FF54
:0207A40001FF53
:0207A50001FF52
:0207A60001FF51
:0207A70001FF50
:0207A80001FF4F
:0207A90001FF4E
:0207AA0001FF4D
:0207AB0001FF4C
:0207AC0001FF4B
:0207AD0001FF4A
:0207AE0001FF49
:0207AF0001FF48
:0207B00001FF47
:0207B10001FF46
:0207B20001FF45
:0207B30001FF44
:0207B40001FF43
:0207B50001FF42
:0207B60001FF41
:0207B70001FF40
:0207B80001FF3F
:0207B90001FF3E
:0207BA0001FF3D
:0207BB0001FF3C
:0207BC0001FF3B
:0207BD0001FF3A
:0207BE0001FF39
:0207BF0001FF38
:0207C00001FF37
:0207C10001FF36
:0207C20001FF35
:0207C30001FF34
:0207C40001FF33
:0207C50001FF32
:0207C60001FF31
:0207C70001FF30
:0207C80001FF2F
:0207C90001FF2E
:0207CA0001FF2D
:0207CB0001FF2C
:0207CC0001FF2B
:0207CD0001FF2A
:0207CE0001FF29
:0207CF0001FF28
:0207D00001FF27
:0207D10001FF26
:0207D20001FF25
:0207D30001FF24
:0207D40001FF23
:0207D50001FF22
:0207D60001FF21
:0207D70001FF20
:0207D80001FF1F
:0207D90001FF1E
:0207DA0001FF1D
:0207DB0001FF1C
:0207DC0001FF1B
:0207DD0001FF1A
:0207DE0001FF19
:0207DF0001FF18
:0207E00001FF17
:0207E10001FF16
:0207E20001FF15
:0207E30001FF14
:0207E40001FF13
:0207E50001FF12
:0207E60001FF11
:0207E70001FF10
:0207E80001FF0F
:0207E90001FF0E
:0207EA0001FF0D
:0207EB0001FF0C
:0207EC0001FF0B
:0207ED0001FF0A
:0207EE0001FF09
:0207EF0001FF08
:0207F00001FF07
:0207F10001FF06
:0207F20001FF05
:0207F30001FF04
:0207F40001FF03
:0207F50001FF02
:0207F60001FF01
:0207F70001FF00
:0207F80001FFFF
:0207F90001FFFE
:0207FA0001FFFD
:0207FB0001FFFC
:0207FC0001FFFB
:0207FD0001FFFA
:0207FE0001FFF9
:0207FF0001FFF8
:0208000001FFF6
:0208010001FFF5
:0208020001FFF4
:0208030001FFF3
:0208040001FFF2
:0208050001FFF1
:0208060001FFF0
:0208070001FFEF
:0208080001FFEE
:0208090001FFED
:02080A0001FFEC
:02080B0001FFEB
:02080C0001FFEA
:02080D0001FFE9
:02080E0001FFE8
:02080F0001FFE7
:0208100001FFE6
:0208110001FFE5
:0208120001FFE4
:0208130001FFE3
:0208140001FFE2
:0208150001FFE1
:0208160001FFE0
:0208170001FFDF
:0208180001FFDE
:0208190001FFDD
:02081A0001FFDC
:02081B0001FFDB
:02081C0001FFDA
:02081D0001FFD9
:02081E0001FFD8
:02081F0001FFD7
:0208200001FFD6
:0208210001FFD5
:0208220001FFD4
:0208230001FFD3
:0208240001FFD2
:0208250001FFD1
:0208260001FFD0
:0208270001FFCF
:0208280001FFCE
:0208290001FFCD
:02082A0001FFCC
:02082B0001FFCB
:02082C0001FFCA
:02082D0001FFC9
:02082E0001FFC8
:02082F0001FFC7
:0208300001FFC6
:0208310001FFC5
:0208320001FFC4
:0208330001FFC3
:0208340001FFC2
:0208350001FFC1
:0208360001FFC0
:0208370001FFBF
:0208380001FFBE
:0208390001FFBD
:02083A0001FFBC
:02083B0001FFBB
:02083C0001FFBA
:02083D0001FFB9
:02083E0001FFB8
:02083F0001FFB7
:0208400001FFB6
:0208410001FFB5
:0208420001FFB4
:0208430001FFB3
:0208440001FFB2
:0208450001FFB1
:0208460001FFB0
:0208470001FFAF
:0208480001FFAE
:0208490001FFAD
:02084A0001FFAC
:02084B0001FFAB
:02084C0001FFAA
:02084D0001FFA9
:02084E0001FFA8
:02084F0001FFA7
:0208500001FFA6
:0208510001FFA5
:0208520001FFA4
:0208530001FFA3
:0208540001FFA2
:0208550001FFA1
:0208560001FFA0
:0208570001FF9F
:0208580001FF9E
:0208590001FF9D
:02085A0001FF9C
:02085B0001FF9B
:02085C0001FF9A
:02085D0001FF99
:02085E0001FF98
:02085F0001FF97
:0208600001FF96
:0208610001FF95
:0208620001FF94
:0208630001FF93
:0208640001FF92
:0208650001FF91
:0208660001FF90
:0208670001FF8F
:0208680001FF8E
:0208690001FF8D
:02086A0001FF8C
:02086B0001FF8B
:02086C0001FF8A
:02086D0001FF89
:02086E0001FF88
:02086F0001FF87
:0208700001FF86
:0208710001FF85
:0208720001FF84
:0208730001FF83
:0208740001FF82
:0208750001FF81
:0208760001FF80
:0208770001FF7F
:0208780001FF7E
:0208790001FF7D
:02087A0001FF7C
:02087B0001FF7B
:02087C0001FF7A
:02087D0001FF79
:02087E0001FF78
:02087F0001FF77
:0208800001FF76
:0208810001FF75
:0208820001FF74
:0208830001FF73
:0208840001FF72
:0208850001FF71
:0208860001FF70
:0208870001FF6F
:0208880001FF6E
:0208890001FF6D
:02088A0001FF6C
:02088B0001FF6B
:02088C0001FF6A
:02088D0001FF69
:02088E0001FF68
:02088F0001FF67
:0208900001FF66
:0208910001FF65
:0208920001FF64
:0208930001FF63
:0208940001FF62
:0208950001FF61
:0208960001FF60
:0208970001FF5F
:0208980001FF5E
:0208990001FF5D
:02089A0001FF5C
:02089B0001FF5B
:02089C0001FF5A
:02089D0001FF59
:02089E0001FF58
:02089F0001FF57
:0208A00001FF56
:0208A10001FF55
:0208A20001FF54
:0208A30001FF53
:0208A40001FF52
:0208A50001FF51
:0208A60001FF50
:0208A70001FF4F
:0208A80001FF4E
:0208A90001FF4D
:0208AA0001FF4C
:0208AB0001FF4B
:0208AC0001FF4A
:0208AD0001FF49
:0208AE0001FF48
:0208AF0001FF47
:0208B00001FF46
:0208B10001FF45
:0208B20001FF44
:0208B30001FF43
:0208B40001FF42
:0208B50001FF41
:0208B60001FF40
:0208B70001FF3F
:0208B80001FF3E
:0208B90001FF3D
:0208BA0001FF3C
:0208BB00010931
:0208BC00013702
:0208BD0001FF39
:0208BE0001F443
:0208BF00004CEB
:0208C00001BF76
:0208C10001F440
:0208C2000040F4
:0208C300000033
:0208C400000032
:0208C5000066CB
:0208C60001FF30
:0208C70001FD31
:0208C80000CC62
:0208C90001BF6D
:0208CA0001FF2C
:0208CB0001FE2C
:0208CC00010920
:0208CD000137F1
:0208CE0001FF28
:0208CF0001FF27
:0208D00001FF26
:0208D10001FF25
:0208D20001FF24
:0208D30001FF23
:0208D40001FF22
:0208D50001FF21
:0208D60001FF20
:0208D70001FF1F
:0208D80001FF1E
:0208D90001FF1D
:0208DA0001FF1C
:0208DB0001FF1B
:0208DC0001FF1A
:0208DD0001FF19
:0208DE0001FF18
:0208DF0001FF17
:0208E00001FF16
:0208E10001FF15
:0208E20001FF14
:0208E30001FF13
:0208E40001FF12
:0208E50001FF11
:0208E60001FF10
:0208E70001FF0F
:0208E80001FF0E
:0208E90001FF0D
:0208EA0001FF0C
:0208EB0001FF0B
:0208EC0001FF0A
:0208ED0001FF09
:0208EE0001FF08
:0208EF0001FF07
:0208F00001FF06
:0208F10001FF05
:0208F20001FF04
:0208F30001FF03
:0208F40001FF02
:0208F50001FF01
:0208F60001FF00
:0208F70001FFFF
:0208F80001FFFE
:0208F90001EB11
:0208FA00001DDF
:0208FB0001FFFB
:0208FC000158A1
:0208FD0000EF0A
:0208FE0001FDFA
:0208FF0000C136
:020900000137BD
:0209010001FFF4
:0209020001FDF5
:0209030000C131
:020904000137B9
:0209050001FDF2
:0209060000CC23
:0209070001BF2E
:0209080001FFED
:0209090001FEED
:02090A000109E1
:02090B000137B2
:02090C0001FFE9
:02090D0001FFE8
:02090E0001FFE7
:02090F0001FFE6
:0209100001FFE5
:0209110001FFE4
:0209120001FFE3
:0209130001FFE2
:0209140001FFE1
:0209150001FFE0
:0209160001FFDF
:0209170001FFDE
:0209180001FFDD
:0209190001FFDC
:02091A0001FFDB
:02091B0001FFDA
:02091C0001FFD9
:02091D0001FFD8
:02091E0001FFD7
:02091F0001FFD6
:0209200001FFD5
:0209210001FFD4
:0209220001FFD3
:0209230001FFD2
:0209240001FFD1
:0209250001FFD0
:0209260001FFCF
:0209270001FFCE
:0209280001FFCD
:0209290001FFCC
:02092A0001FFCB
:02092B0001FFCA
:02092C0001FFC9
:02092D0001FFC8
:02092E0001FFC7
:02092F0001FFC6
:0209300001FFC5
:0209310001FFC4
:0209320001FFC3
:0209330001FFC2
:0209340001FFC1
:0209350001FFC0
:0209360001FFBF
:0209370001FEBF
:020938000109B3
:02093900013586
:02093A0000CCEF
:02093B0001BFFA
:02093C0001EBCD
:02093D00001D9B
:02093E0001FFB7
:02093F0001FFB6
:0209400001FFB5
:0209410001A112
:0209420000664D
:0209430001FDB4
:0209440000CCE5
:0209450001BFF0
:0209460001FFAF
:0209470001FEAF
:020948000109A3
:02094900013774
:02094A0001FFAB
:02094B0001FFAA
:02094C0001FFA9
:02094D0001FFA8
:02094E0001FFA7
:02094F0001FFA6
:0209500001FFA5
:0209510001FFA4
:0209520001FFA3
:0209530001FFA2
:0209540001FFA1
:0209550001FFA0
:0209560001FF9F
:0209570001FF9E
:0209580001FF9D
:0209590001FF9C
:02095A0001FF9B
:02095B0001FF9A
:02095C0001FF99
:02095D0001FF98
:02095E0001FF97
:02095F0001FF96
:0209600001FF95
:0209610001FF94
:0209620001FF93
:0209630001FF92
:0209640001FF91
:0209650001FF90
:0209660001FF8F
:0209670001FF8E
:0209680001FF8D
:0209690001FF8C
:02096A0001FF8B
:02096B0001FF8A
:02096C0001FF89
:02096D0001FF88
:02096E0001FF87
:02096F0001FF86
:0209700001FF85
:0209710001FF84
:0209720001FF83
:0209730001FF82
:0209740001FF81
:0209750001FF80
:0209760001EB93
:0209770000007E
:0209780000EF8E
:0209790001FF7C
:02097A0001A1D9
:02097B00006614
:02097C0001FF79
:02097D0001FF78
:02097E0001FF77
:02097F0001EB8A
:0209800000660F
:0209810001FD76
:0209820000CCA7
:0209830001BFB2
:0209840001FF71
:0209850001FE71
:02098600010965
:02098700013736
:0209880001FF6D
:0209890001FF6C
:02098A0001FF6B
:02098B0001FF6A
:02098C0001FF69
:02098D0001FF68
:02098E0001FF67
:02098F0001FF66
:0209900001FF65
:0209910001FF64
:0209920001FF63
:0209930001FF62
:0209940001FF61
:0209950001FF60
:0209960001FF5F
:0209970001FF5E
:0209980001FF5D
:0209990001FF5C
:02099A0001FF5B
:02099B0001FF5A
:02099C0001FF59
:02099D0001FF58
:02099E0001FF57
:02099F0001FF56
:0209A00001FF55
:0209A10001FF54
:0209A20001FF53
:0209A30001FF52
:0209A40001FF51
:0209A50001FF50
:0209A60001FF4F
:0209A70001FF4E
:0209A80001FF4D
:0209A90001FF4C
:0209AA0001FF4B
:0209AB0001FF4A
:0209AC0001FF49
:0209AD0001FF48
:0209AE0001FF47
:0209AF0001FF46
:0209B00001FF45
:0209B10001FF44
:0209B20001FF43
:0209B30001FF42
:0209B40001FD43
:0209B50000C37D
:0209B600017FBF
:0209B70001FF3E
:0209B80001EB51
:0209B9000066D6
:0209BA0001FF3B
:0209BB0001FF3A
:0209BC0001FF39
:0209BD0001A196
:0209BE000066D1
:0209BF0001FD38
:0209C00000CC69
:0209C10001BF74
:0209C20001FF33
:0209C30001FE33
:0209C400010927
:0209C5000137F8
:0209C60001FF2F
:0209C70001FF2E
:0209C80001FF2D
:0209C90001FF2C
:0209CA0001FF2B
:0209CB0001FF2A
:0209CC0001FF29
:0209CD0001FF28
:0209CE0001FF27
:0209CF0001FF26
:0209D00001FF25
:0209D10001FF24
:0209D20001FF23
:0209D30001FF22
:0209D40001FF21
:0209D50001FF20
:0209D60001FF1F
:0209D70001FF1E
:0209D80001FF1D
:0209D90001FF1C
:0209DA0001FF1B
:0209DB0001FF1A
:0209DC0001FF19
:0209DD0001FF18
:0209DE0001FF17
:0209DF0001FF16
:0209E00001FF15
:0209E10001FF14
:0209E20001FF13
:0209E30001FF12
:0209E40001FF11
:0209E50001FF10
:0209E60001FF0F
:0209E70001FF0E
:0209E80001FF0D
:0209E90001FF0C
:0209EA0001FF0B
:0209EB0001FF0A
:0209EC0001FF09
:0209ED0001FF08
:0209EE0001FF07
:0209EF0001FF06
:0209F00001FF05
:0209F10001FF04
:0209F20001FD05
:0209F30000C33F
:0209F400017F81
:0209F50001FF00
:0209F60001F40A
:0209F7000041BD
:0209F8000137C5
:0209F90001FFFC
:0209FA0001FDFD
:0209FB0000C139
:0209FC000137C1
:0209FD0001FEF9
:0209FE000108EE
:0209FF0000EF07
:020A000001FFF4
:020A010001F4FE
:020A02000043AF
:020A0300017F71
:020A040001FFF0
:020A050001FFEF
:020A060001FFEE
:020A070001FFED
:020A080001FFEC
:020A090001FFEB
:020A0A0001FFEA
:020A0B0001FFE9
:020A0C0001FFE8
:020A0D0001FFE7
:020A0E0001FFE6
:020A0F0001FFE5
:020A100001FFE4
:020A110001FFE3
:020A120001FFE2
:020A130001FFE1
:020A140001FFE0
:020A150001FFDF
:020A160001FFDE
:020A170001FFDD
:020A180001FFDC
:020A190001FFDB
:020A1A0001FFDA
:020A1B0001FFD9
:020A1C0001FFD8
:020A1D0001FFD7
:020A1E0001FFD6
:020A1F0001FFD5
:020A200001FFD4
:020A210001FFD3
:020A220001FFD2
:020A230001FFD1
:020A240001FFD0
:020A250001FFCF
:020A260001FFCE
:020A270001FFCD
:020A280001FFCC
:020A290001FFCB
:020A2A0001FFCA
:020A2B0001FFC9
:020A2C0001FFC8
:020A2D0001FFC7
:020A2E0001FFC6
:020A2F0001FFC5
:020A300001FDC6
:020A310000C300
:020A3200017F42
:020A330001FFC1
:020A340001FFC0
:020A350001EBD3
:020A36000000BE
:020A37000000BD
:020A38000000BC
:020A390000EFCC
:020A3A0001FFBA
:020A3B0001FFB9
:020A3C0001F4C3
:020A3D00004077
:020A3E000000B6
:020A3F000001B4
:020A400001377C
:020A410001FFB3
:020A420001FFB2
:020A430001FFB1
:020A440001FFB0
:020A450001FFAF
:020A460001FFAE
:020A470001FFAD
:020A480001FFAC
:020A490001FFAB
:020A4A0001FFAA
:020A4B0001FFA9
:020A4C0001FFA8
:020A4D0001FFA7
:020A4E0001FFA6
:020A4F0001FFA5
:020A500001FFA4
:020A510001FFA3
:020A520001FFA2
:020A530001FFA1
:020A540001FFA0
:020A550001FF9F
:020A560001FF9E
:020A570001FF9D
:020A580001FF9C
:020A590001FF9B
:020A5A0001FF9A
:020A5B0001FF99
:020A5C0001FF98
:020A5D0001FF97
:020A5E0001FF96
:020A5F0001FF95
:020A600001FF94
:020A610001FF93
:020A620001FF92
:020A630001FF91
:020A640001FF90
:020A650001FF8F
:020A660001FF8E
:020A670001FF8D
:020A680001FF8C
:020A690001FF8B
:020A6A0001FF8A
:020A6B0001FF89
:020A6C0001FF88
:020A6D0001FF87
:020A6E0001FF86
:020A6F0001FF85
:020A700001FF84
:020A710001FF83
:020A720001FF82
:020A730001FF81
:020A740001FF80
:020A750001FF7F
:020A760001FF7E
:020A770001FF7D
:020A780001FF7C
:020A790001FF7B
:020A7A0001FF7A
:020A7B0001FF79
:020A7C0001FF78
:020A7D0001FF77
:020A7E0001FF76
:020A7F0001FF75
:020A800001FF74
:020A810001FF73
:020A820001FF72
:020A830001FF71
:020A840001FF70
:020A850001FF6F
:020A860001FF6E
:020A870001FF6D
:020A880001FF6C
:020A890001FF6B
:020A8A0001FF6A
:020A8B0001FF69
:020A8C0001FF68
:020A8D0001FF67
:020A8E0001FF66
:020A8F0001FF65
:020A900001FF64
:020A910001FF63
:020A920001FF62
:020A930001FF61
:020A940001FF60
:020A950001FF5F
:020A960001FF5E
:020A970001FF5D
:020A980001FF5C
:020A990001FF5B
:020A9A0001FF5A
:020A9B0001FF59
:020A9C0001FF58
:020A9D0001FF57
:020A9E0001FF56
:020A9F0001FF55
:020AA00001FF54
:020AA10001FF53
:020AA20001FF52
:020AA30001FF51
:020AA40001FF50
:020AA50001FF4F
:020AA60001FF4E
:020AA70001FF4D
:020AA80001FF4C
:020AA90001FF4B
:020AAA0001FF4A
:020AAB0001FF49
:020AAC0001FF48
:020AAD0001FF47
:020AAE0001FF46
:020AAF0001FF45
:020AB00001FF44
:020AB10001FF43
:020AB20001FF42
:020AB30001FF41
:020AB40001FF40
:020AB50001FF3F
:020AB60001FF3E
:020AB70001FF3D
:020AB80001FF3C
:020AB90001FF3B
:020ABA0001FF3A
:020ABB0001FF39
:020ABC0001FF38
:020ABD0001FF37
:020ABE0001FF36
:020ABF0001FF35
:020AC00001FF34
:020AC10001FF33
:020AC20001FF32
:020AC30001FF31
:020AC40001FF30
:020AC50001FF2F
:020AC60001FF2E
:020AC70001FF2D
:020AC80001FF2C
:020AC90001FF2B
:020ACA0001FF2A
:020ACB0001FF29
:020ACC0001FF28
:020ACD0001FF27
:020ACE0001FF26
:020ACF0001FF25
:020AD00001FF24
:020AD10001FF23
:020AD20001FF22
:020AD30001FF21
:020AD40001FF20
:020AD50001FF1F
:020AD60001FF1E
:020AD70001FF1D
:020AD80001FF1C
:020AD90001FF1B
:020ADA0001FF1A
:020ADB0001FF19
:020ADC0001FF18
:020ADD0001FF17
:020ADE0001FF16
:020ADF0001FF15
:020AE00001FF14
:020AE10001FF13
:020AE20001FF12
:020AE30001FF11
:020AE40001FF10
:020AE50001FF0F
:020AE60001FF0E
:020AE70001FF0D
:020AE80001FF0C
:020AE90001FF0B
:020AEA0001FF0A
:020AEB0001FF09
:020AEC0001FF08
:020AED0001FF07
:020AEE0001FF06
:020AEF0001FF05
:020AF00001FF04
:020AF10001FF03
:020AF20001FF02
:020AF30001FF01
:020AF40001FF00
:020AF50001FFFF
:020AF60001FFFE
:020AF70001FFFD
:020AF80001FFFC
:020AF90001FFFB
:020AFA0001FFFA
:020AFB0001FFF9
:020AFC0001FFF8
:020AFD0001FFF7
:020AFE0001FFF6
:020AFF0001FFF5
:020B000001FFF3
:020B010001FFF2
:020B020001FFF1
:020B030001FFF0
:020B040001FFEF
:020B050001FFEE
:020B060001FFED
:020B070001FFEC
:020B080001FFEB
:020B090001FFEA
:020B0A0001FFE9
:020B0B0001FFE8
:020B0C0001FFE7
:020B0D0001FFE6
:020B0E0001FFE5
:020B0F0001FFE4
:020B100001FFE3
:020B110001FFE2
:020B120001FFE1
:020B130001FFE0
:020B140001FFDF
:020B150001FFDE
:020B160001FFDD
:020B170001FFDC
:020B180001FFDB
:020B190001FFDA
:020B1A0001FFD9
:020B1B0001FFD8
:020B1C0001FFD7
:020B1D0001FFD6
:020B1E0001FFD5
:020B1F0001FFD4
:020B200001FFD3
:020B210001FFD2
:020B220001FFD1
:020B230001FFD0
:00000001FF
